:100000000C9434000C94000F0C94740F189500009D
:10001000189500001895000018950000189500002C
:10002000189500001895000018950000189500001C
:10003000189500001895000018950000189500000C
:1000400018950000189500001895000018950000FC
:1000500018950000189500001895000018950000EC
:1000600018950000189500008FEF8DBFC0ECE8E5F3
:100070004E2E88E08EBFD7E0F5E05F2EA89584B7BE
:10008000082E877F84BF88E1992780936000909332
:100090006000EEEFF7E0A0E0B1E088278D933197A4
:1000A000E9F78CE08093C40080E08093C50088E18C
:1000B0008093C10072E07093C000662470910001CB
:1000C0007F7770930001239A3B9A3A9A389A399A2B
:1000D0000E94F7240E94F7240E942C2581E20E94AE
:1000E00016258EEB0E94162581E080930601249A46
:1000F0002C9A23987894709100017062709300019B
:10010000A1EDB1E0E6E9F7E50E94E127A9EDB1E054
:10011000EAE9F7E50E94E127ADECB1E0E6E9F7E5B1
:100120000E94E127A1EEB1E0EEE9F7E50E94E127A8
:10013000A9EEB1E0E2EAF7E50E94E127E6EAF7E599
:100140000E94EF2AEDECF1E00E9470290E94ED2957
:10015000EDE0F0E0ADECB1E00E94DE28A1EFB1E00F
:10016000EAEAF7E50E94E127709100017F7E709333
:10017000000170910001777F70930001AAEFB1E058
:10018000EEEEF8E50E94A327AFEFB1E0EEEEF8E562
:100190000E94A327E1E3F3E0A0E1B0E00E9415296B
:1001A0000A3018F011F00C94D7000C94E000E1E351
:1001B000F3E0A0E1BB2781E08C937BE70E94F92864
:1001C000E1E3F3E0A4E0B2E00E94152980E180932E
:1001D000050281E08093060281E08093070288E0B7
:1001E00080930802E4E3F3E0A0E1B0E00E94152967
:1001F0000A3018F011F00C94FF000C940801E4E3AD
:10020000F3E0A0E1BB2788E08C937BE70E94F9280C
:10021000E4E3F3E0A9E0B2E00E9415297091000147
:100220007B7F70930001559A569A709100017E7FF2
:1002300070930001209A289AAEE0B2E0EEEAF7E56A
:100240000E94E12700E010E020E030E0AAE0B2E008
:100250000D931D932D933C9381E08093150281E0D3
:100260008093130285E08093140283E08093C5019C
:1002700082E080931202709116027F7770931602CB
:1002800080E0809317028CE00E941025A9E1B2E083
:10029000E4EFF8E50E94A32788E0E9E1F2E004E05A
:1002A0000A93A9E2B2E00E94E428E0E4FFE3A1E0BF
:1002B000B1E0ED93FC9381E0809303018AE08093A9
:1002C0000401882780930501E4E0F9E50E94A52355
:1002D000ECEFF9E3A1E0B1E0ED93FC9384E08093CF
:1002E000030181E080930401882780930501E0E108
:1002F000F9E50E94A52385E08093030181E08093C6
:100300000401882780930501E0E2F9E50E94A52316
:10031000A9E2B2E00E949F238FEA80931802009125
:100320001802033C18F011F00C94A90181E20E941C
:100330001625809118020E94162584E690E00E94FE
:100340000524A8E1B2E08C918F5F8C9310F40C949B
:100350008F01E1E0F0E00E94AC230E94F7240E94AC
:100360002C2581E20E94162583EC0E9416250E940E
:10037000EE155398529854985C9A5A9A5B9A229820
:100380001A9A709116027B7F709316027091160272
:10039000726070931602709116027E7F709316023F
:1003A00024981C9A579A5F9A81E085BD80E084BDAD
:1003B0007894809169008C7F82608093690080913D
:1003C0006900837F886080936900E99AE89A0E94B7
:1003D0002C25E0EAF0E0A0E1B0E00E9415290F3FF3
:1003E00011F00C94F80183E0809312020C94FB014D
:1003F00081E08093120270916800746070936800CD
:100400007CE170936D00709168007160709368007A
:1004100070916B00706170936B0070911602786040
:10042000709316020E949915E6EAF7E50E94EF2AFA
:10043000E9EEF1E00E9470290E94ED29EDE0F0E084
:10044000ADEEB1E00E94DE281C990C942A025F9860
:100450000C942B025F9A709100017D7F70930001D4
:100460000E944416A3E2B0E00C9104FB81E00EF080
:1004700080E08F93A0E0B1E08C9182FB81E00EF0F0
:1004800080E09F918923882311F40C945502709188
:1004900000017B7F7093000184EF91E00E940524AE
:1004A000709116027860709316025498A2E3B2E03D
:1004B0009C9197FF04C04C9B10C09F779C934C99D4
:1004C0000CC089E19F9390E00E9405249F914C9974
:1004D00004C090689C930E94D515009112020130CF
:1004E00011F00C943707709100017F7E709300012A
:1004F000A6E0B1E0BA93AA930E9433182296EBE1EA
:10050000F1E00E947029E2EBF7E50E94EF2A0E94D9
:10051000572911F00C949102709100017F7E709325
:100520000001EBE1F1E00E947029E2EBF7E50E94A7
:10053000EF2A0E94572911F40C94A3027091000134
:10054000706170930001E7E0F1E0A5EDB1E00E9479
:10055000DE28EDEBF1E00E947529E5EDF1E00E9467
:1005600070290E94942AEDE0F0E0A5EDB1E00E9430
:10057000DE2800910B01003011F00C94CD02ACE0AC
:10058000B1E0E2EBF7E50E94E127AAEFB1E0EEEE81
:10059000F8E50E94A3270C947705013011F00C9424
:1005A000DF02ACE0B1E0E6EBF7E50E94E127AAEF5D
:1005B000B1E0E6E2F9E50E94A3270C94770502304A
:1005C00011F00C94F102ACE0B1E0EAEBF7E50E9427
:1005D000E127AAEFB1E0ECE2F9E50E94A3270C9431
:1005E0007705033011F00C940303ACE0B1E0EEEBBF
:1005F000F7E50E94E127AAEFB1E0E2E3F9E50E9406
:10060000A3270C947705043011F00C941503ACE08B
:10061000B1E0E2ECF7E50E94E127AAEFB1E0E8E300
:10062000F9E50E94A3270C947705053011F00C948E
:100630002703ACE0B1E0E6ECF7E50E94E127AAEF82
:10064000B1E0EEE3F9E50E94A3270C9477050630AC
:1006500011F00C943903ACE0B1E0EAECF7E50E944C
:10066000E127AAEFB1E0E4E4F9E50E94A3270C94A6
:100670007705073011F00C944B03ACE0B1E0EEECE1
:10068000F7E50E94E127AAEFB1E0EAE4F9E50E946C
:10069000A3270C947705083011F00C945D03ACE0AF
:1006A000B1E0E2EDF7E50E94E127AAEFB1E0E0E575
:1006B000F9E50E94A3270C947705093011F00C94FA
:1006C0006F03ACE0B1E0E6EDF7E50E94E127AAEFA9
:1006D000B1E0E6E5F9E50E94A3270C9477050A301E
:1006E00011F00C948103ACE0B1E0EAEDF7E50E9473
:1006F000E127AAEFB1E0ECE5F9E50E94A3270C940D
:1007000077050B3011F00C949303ACE0B1E0EEED03
:10071000F7E50E94E127AAEFB1E0E2E6F9E50E94E1
:10072000A3270C9477050C3011F00C94A503ACE0D2
:10073000B1E0E2EEF7E50E94E127AAEFB1E0E8E6DA
:10074000F9E50E94A3270C9477050D3011F00C9465
:10075000B703ACE0B1E0E6EEF7E50E94E127AAEFCF
:10076000B1E0EEE6F9E50E94A3270C9477050E3080
:1007700011F00C94C903ACE0B1E0EAEEF7E50E9499
:10078000E127AAEFB1E0E4E7F9E50E94A3270C9482
:1007900077050F3011F00C94DB03ACE0B1E0EEEE26
:1007A000F7E50E94E127AAEFB1E0EAE7F9E50E9448
:1007B000A3270C947705003111F00C94ED03ACE005
:1007C000B1E0E2EFF7E50E94E127AAEFB1E0E0E84F
:1007D000F9E50E94A3270C947705013111F00C94E0
:1007E000FF03ACE0B1E0E6EFF7E50E94E127AAEFF6
:1007F000B1E0E6E8F9E50E94A3270C947705023101
:1008000011F00C941104ACE0B1E0EAEFF7E50E94BE
:10081000E127AAEFB1E0ECE8F9E50E94A3270C94E8
:100820007705033111F00C942304ACE0B1E0EEEF56
:10083000F7E50E94E127AAEFB1E0E2E9F9E50E94BD
:10084000A3270C947705043111F00C943504ACE027
:10085000B1E0E2E0F8E50E94E127AAEFB1E0E8E9C3
:10086000F9E50E94A3270C947705053111F00C944B
:100870004704ACE0B1E0E6E0F8E50E94E127AAEF2A
:10088000B1E0EEE9F9E50E94A3270C947705063163
:1008900011F00C945904ACE0B1E0EAE0F8E50E94F4
:1008A000E127AAEFB1E0E4EAF9E50E94A3270C945E
:1008B0007705073111F00C946B04ACE0B1E0EEE089
:1008C000F8E50E94E127AAEFB1E0EAEAF9E50E9423
:1008D000A3270C947705083111F00C947D04ACE04B
:1008E000B1E0E2E1F8E50E94E127AAEFB1E0E0EB38
:1008F000F9E50E94A3270C947705093111F00C94B7
:100900008F04ACE0B1E0E6E1F8E50E94E127AAEF50
:10091000B1E0E6EBF9E50E94A3270C9477050A31D4
:1009200011F00C94A104ACE0B1E0EAE1F8E50E941A
:10093000E127AAEFB1E0ECEBF9E50E94A3270C94C4
:1009400077050B3111F00C94B304ACE0B1E0EEE1AB
:10095000F8E50E94E127AAEFB1E0E2ECF9E50E9498
:10096000A3270C9477050C3111F00C94C504ACE06E
:10097000B1E0E2E2F8E50E94E127AAEFB1E0E8EC9D
:10098000F9E50E94A3270C9477050D3111F00C9422
:10099000D704ACE0B1E0E6E2F8E50E94E127AAEF77
:1009A000B1E0EEECF9E50E94A3270C9477050E3137
:1009B00011F00C94E904ACE0B1E0EAE2F8E50E9441
:1009C000E127AAEFB1E0E4EDF9E50E94A3270C943A
:1009D00077050F3111F00C94FB04ACE0B1E0EEE2CE
:1009E000F8E50E94E127AAEFB1E0EAEDF9E50E94FF
:1009F000A3270C947705003211F00C940D05ACE0A0
:100A0000B1E0E2E3F8E50E94E127AAEFB1E0E0EE11
:100A1000F9E50E94A3270C947705013211F00C949C
:100A20001F05ACE0B1E0E6E3F8E50E94E127AAEF9C
:100A3000B1E0E6EEF9E50E94A3270C9477050232B7
:100A400011F00C943105ACE0B1E0EAE3F8E50E9466
:100A5000E127AAEFB1E0ECEEF9E50E94A3270C94A0
:100A60007705033211F00C944305ACE0B1E0EEE3FE
:100A7000F8E50E94E127AAEFB1E0E2EFF9E50E9474
:100A8000A3270C947705043211F00C945505ACE0C3
:100A9000B1E0E2E4F8E50E94E127AAEFB1E0E8EF77
:100AA000F9E50E94A3270C947705053211F00C9408
:100AB0006705ACE0B1E0E6E4F8E50E94E127AAEFC3
:100AC000B1E0EEEFF9E50E94A3270C94770506321A
:100AD00011F00C947705ACE0B1E0EAE4F8E50E948F
:100AE000E127AAEFB1E0E4E0FAE50E94A3271C9910
:100AF0000C947D055F980C947E055F9A0E944416C5
:100B0000A3E2B0E00C9104FB81E00EF080E08F9353
:100B1000A0E0B1E08C9182FB81E00EF080E09F913B
:100B20008923882311F40C94A305709100017B7F25
:100B30007093000184EF91E00E94052470911602E9
:100B4000786070931602F894ECEFF9E3A1E0B1E05D
:100B5000ED93FC93A0E0B1E08C9184FB16F40C942F
:100B6000C00581E08093030185E08093040181E06A
:100B700080930501EAE0FAE50E94A5230C94CD05D7
:100B800081E08093030181E08093040181E0809300
:100B90000501EAE1FAE50E94A523E0E4FFE3A1E014
:100BA000B1E0ED93FC9383E08093030182E08093B6
:100BB0000401882780930501A0E4B5E0E7E0F1E0B7
:100BC000552744E00E94F1250E949D23ECE2FAE5BE
:100BD0000E94A523A0E0B1E08C9184FB16F00C9458
:100BE00026061C9B0C940D0683E08093030182E093
:100BF00080930401882780930501A0E4B5E0E7E035
:100C0000F1E0552744E00E94F1250E949D23ECE28B
:100C1000FAE50E94A5230C94240683E08093030147
:100C200082E080930401882780930501A0E4B5E069
:100C3000E5EDF1E0552744E00E94F1250E949D2357
:100C4000ECE2FAE50E94A5230C943D0683E0809334
:100C5000030182E080930401882780930501A0E4CA
:100C6000B5E0E7E0F1E0552744E00E94F1250E945D
:100C70009D23ECE2FAE50E94A5235498A2E3B2E09A
:100C80009C9197FF04C04C9B10C09F779C934C99FC
:100C90000CC089E19F9390E00E9405249F914C999C
:100CA00004C090689C930E94D515ECEFF9E3A1E095
:100CB000B1E0ED93FC93A0E0B1E08C9184FB16F4DD
:100CC0000C94B506E7E0F1E00E947029EEE4F8E547
:100CD0000E94EF2A0E94572918F011F00C94720616
:100CE0000C948D0686E08093030182E080930401DA
:100CF000882780930501EEE2FAE50E94A523A0E48F
:100D0000B5E0E9E1F1E00E945A280E949D23E4E366
:100D1000FAE50E94A5230C94A60686E080930301C1
:100D200082E080930401882780930501E2E4FAE5DC
:100D30000E94A523A0E4B5E0E9E1F1E00E945A2871
:100D40000E949D23E4E3FAE50E94A52385E08093B9
:100D5000030182E080930401882780930501E8E481
:100D6000FAE50E94A5230C94010786E08093030115
:100D700082E080930401882780930501E8E5FAE585
:100D80000E94A523A0E4B5E0E9E1F1E00E945A2821
:100D90000E949D23ECE2FAE50E94A523A0E1B1E0C8
:100DA0000E949F23ECE5FAE50E94A523A0E4B5E0AC
:100DB000AF93BF93ECE0F1E00E9470290E941424ED
:100DC00011E001E0BF91AF910E94F627E0E4F5E069
:100DD000A6ECB1E00E94D92885E08093030182E06F
:100DE00080930401882780930501E2E6FAE50E94DA
:100DF000A523A6ECB1E00E949F23E8E6FAE50E9455
:100E0000A5237894A6E1B2E08C9183FB16F00C94B4
:100E10001C07E7E0F1E0A9ECB1E00E94DE28A0E0C9
:100E2000B1E08C9184FB16F40C941A070E94450ED5
:100E30000C941C070E94920E0E949323A6E1B2E03C
:100E40008C9182FB16F00C942A0773B7707F756043
:100E500073BF8895A6E1B2E08C9182FB882780F968
:100E6000809580FBA6E1B2E08C9182F98C93009191
:100E70001202053011F00C946508ECEFF9E3A1E0E3
:100E8000B1E0ED93FC9381E08093030185E08093D2
:100E9000040181E080930501EEE6FAE50E94A523B6
:100EA000EAE7FAE50E94A523E6EAF7E50E94EF2AC1
:100EB000E9EDF1E00E9470290E94ED29EDE0F0E0FB
:100EC000ADEDB1E00E94DE28E0E4FFE3A1E0B1E097
:100ED000ED93FC9383E08093030182E0809304010F
:100EE000882780930501A0E4B5E0EDEDF1E05527FA
:100EF00044E00E94F1250E949D23ECEFF9E3A1E07C
:100F0000B1E0ED93FC93F89485E08093030182E0D7
:100F100080930401882780930501E0E8FAE50E94A8
:100F2000A52386E08093030182E080930401882753
:100F300080930501E2E9FAE50E94A523A0E4B5E06B
:100F4000E6E0F2E00E9461280E949D23E8E9FAE5CC
:100F50000E94A523789400910602013011F00C94B0
:100F6000BB07A9EDB1E0EAE9F7E50E94E1270C949F
:100F7000FF070C941508023011F00C94C907A9ED75
:100F8000B1E0E2E5F8E50E94E1270C94FF070C943C
:100F90001508033011F00C94D707A9EDB1E0E6E590
:100FA000F8E50E94E1270C94FF070C941508043023
:100FB00011F00C94E507A9EDB1E0EAE5F8E50E942F
:100FC000E1270C94FF070C941508053011F00C94E0
:100FD000F307A9EDB1E0EEE5F8E50E94E1270C94F6
:100FE000FF070C941508063011F00C941508A9EDB4
:100FF000B1E0E2E6F8E50E94E1270C94FF07AAEFD2
:10100000B1E0ECE8F9E50E94A327E6EAF7E50E94E3
:10101000EF2AE9EDF1E00E9470290E94ED29EDE050
:10102000F0E0ADEDB1E00E94DE28A6E1B2E08C91E7
:1010300083FB16F00C94650870911602777F70930D
:1010400016020E945515E4EAFAE50E948C23E4EBAF
:10105000FAE50E948C23E6EBFAE50E948C23A0E4DB
:10106000B5E0EDEDF1E0552744E00E94F1250E9446
:101070008423E6EBFAE50E948C23A0E4B5E0EDEDD5
:10108000F1E0552744E00E94F1250E948423E6EB1D
:10109000FAE50E948C23AAEFB1E00E948623E6EBDA
:1010A000FAE50E948C23A0E4B5E0E4E0F2E00E94BF
:1010B00061280E948423E6EBFAE50E948C23AFEFBF
:1010C000B1E00E9486230E94932300911202023015
:1010D00011F00C94760A0E942C25ECEFF9E3A1E0C4
:1010E000B1E0ED93FC9381E08093030187E080936E
:1010F000040181E080930501E8EBFAE50E94A52355
:101100001C990C9486085F980C9487085F9A0E943B
:1011100044165498A2E3B2E09C9197FF04C04C9B04
:1011200010C09F779C934C990CC089E19F9390E0ED
:101130000E9405249F914C9904C090689C930E9442
:10114000F915E0E4FFE3A1E0B1E0ED93FC931C9B13
:101150000C94BF0883E08093030182E08093040134
:10116000882780930501A0E4B5E0EDECF1E0552778
:1011700044E00E94F1250E949D230C94D20883E054
:101180008093030182E08093040188278093050106
:10119000A0E4B5E0EDEEF1E0552744E00E94F12532
:1011A0000E949D23ECEFF9E3A1E0B1E0ED93FC9305
:1011B00000911302013011F00C94F308AEE0B2E09C
:1011C000EEEAF7E50E94E12786E08093030182E0E2
:1011D00080930401882780930501E4ECFAE50E94DE
:1011E000A5230C943C09023011F00C940C09AEE0DC
:1011F000B2E0E6E6F8E50E94E12786E0809303018D
:1012000082E080930401882780930501E6EDFAE5EA
:101210000E94A5230C943C09033011F00C9425097D
:10122000AEE0B2E0E6EAF7E50E94E12786E08093CF
:10123000030182E080930401882780930501E6EE94
:10124000FAE50E94A5230C943C09043011F00C949B
:101250003C09AEE0B2E0EAE6F8E50E94E12786E06C
:101260008093030182E08093040188278093050125
:10127000E6EFFAE50E94A5230091C501013011F0C7
:101280000C945909F894A5EFB1E0E8E3F9E50E9460
:10129000A32785E08093030182E0809304018827DF
:1012A00080930501E8E0FBE50E94A52378940C9467
:1012B0008D09023011F00C947409F894A5EFB1E097
:1012C000ECE8F9E50E94A32785E08093030182E022
:1012D00080930401882780930501E6E1FBE50E94E5
:1012E000A52378940C948D09033011F00C948D098A
:1012F000F894A5EFB1E0EEEEF8E50E94A32785E0B3
:101300008093030182E08093040188278093050184
:10131000E4E2FBE50E94A523789482E08093030138
:1013200082E080930401882780930501EEE2FBE5CB
:101330000E94A523A0E4B5E0E1ECF1E0552744E0EC
:101340000E94F1250E949D23E6E3FBE50E94A52370
:10135000E1ECF1E00E947529EDECF1E00E947029CA
:101360000E94942AEDE0F0E0ADEEB1E00E94DE28AC
:10137000A6E1B2E08C9183FB16F00C94320A7091D6
:101380001602777F70931602E4EAFAE50E948C2336
:10139000E4EBFAE50E948C23E6EBFAE50E948C234D
:1013A000A0E4B5E0EDEEF1E0552744E00E94F12520
:1013B0000E948423E6EBFAE50E948C23A0E4B5E0CA
:1013C000EDECF1E0552744E00E94F1250E948423D2
:1013D000E6EBFAE50E948C23AAEFB1E00E94862397
:1013E000E6EBFAE50E948C23A0E4B5E0E4E0F2E04D
:1013F0000E9461280E948423E6EBFAE50E948C2378
:10140000AFEFB1E00E9486230E949323EAE3FBE55D
:101410000E948C23A0E4B5E0E9E0F2E00E9461289C
:101420000E9484230E949323ECE4FBE50E948C231A
:10143000A0E4B5E0E8E0F2E00E9461280E94842385
:10144000E6EBFAE50E948C23E4EBFAE50E948C239C
:10145000E6EBFAE50E948C23E4EBFAE50E948C238C
:101460000E9493230E9444160E949323A6E1B2E0B7
:101470008C9182FB16F00C94420A73B7707F7560F2
:1014800073BF8895A6E1B2E08C9182FB882780F932
:10149000809580FBA6E1B2E08C9182F98C93A0E06C
:1014A000B1E08C9183FB16F00C9480080E945515D6
:1014B0000E942C2570910001777F70930001AEE0AF
:1014C000B2E0EEEAF7E50E94E12783E080931202A2
:1014D00081E080931502AAEFB1E0EEEEF8E50E94FC
:1014E000A327709116027860709316020091120281
:1014F000043011F00C94190C00910702013011F026
:101500000C948C0AA1EEB1E0EEE9F7E50E94E12728
:101510000C945C0B0C946C0B023011F00C949A0A36
:10152000A1EEB1E0EEE6F8E50E94E1270C945C0B39
:101530000C946C0B033011F00C94A80AA1EEB1E0EE
:10154000E2E7F8E50E94E1270C945C0B0C946C0B2D
:10155000043011F00C94B60AA1EEB1E0E6E7F8E52C
:101560000E94E1270C945C0B0C946C0B053011F07D
:101570000C94C40AA1EEB1E0EAE7F8E50E94E12785
:101580000C945C0B0C946C0B063011F00C94D20A8A
:10159000A1EEB1E0EEE7F8E50E94E1270C945C0BC8
:1015A0000C946C0B073011F00C94E00AA1EEB1E042
:1015B000E2E8F8E50E94E1270C945C0B0C946C0BBC
:1015C000083011F00C94EE0AA1EEB1E0E6E8F8E57F
:1015D0000E94E1270C945C0B0C946C0B093011F009
:1015E0000C94FC0AA1EEB1E0EAE8F8E50E94E127DC
:1015F0000C945C0B0C946C0B0A3011F00C940A0BDD
:10160000A1EEB1E0EEE8F8E50E94E1270C945C0B56
:101610000C946C0B0B3011F00C94180BA1EEB1E094
:10162000E2E9F8E50E94E1270C945C0B0C946C0B4A
:101630000C3011F00C94260BA1EEB1E0E6E9F8E5D0
:101640000E94E1270C945C0B0C946C0B0D3011F094
:101650000C94340BA1EEB1E0EAE9F8E50E94E12731
:101660000C945C0B0C946C0B0E3011F00C94420B30
:10167000A1EEB1E0EEE9F8E50E94E1270C945C0BE5
:101680000C946C0B0F3011F00C94500BA1EEB1E0E8
:10169000E2EAF8E50E94E1270C945C0B0C946C0BD9
:1016A000003111F00C946C0BA1EEB1E0E6EAF8E524
:1016B0000E94E1270C945C0BE6EAF7E50E94EF2A12
:1016C000E1EEF1E00E9470290E94ED29EDE0F0E0EA
:1016D000A5EEB1E00E94DE28ECEFF9E3A1E0B1E075
:1016E000ED93FC9381E08093030185E080930401F6
:1016F00081E080930501EAE5FBE50E94A523E6EA87
:10170000F7E50E94EF2AE1EEF1E00E9470290E94C5
:10171000ED29EDE0F0E0A5EEB1E00E94DE28E0E486
:10172000FFE3A1E0B1E0ED93FC9383E0809303013C
:1017300082E080930401882780930501A0E4B5E04E
:10174000E5EEF1E0552744E00E94F1250E949D233B
:10175000ECEFF9E3A1E0B1E0ED93FC93F89486E0BF
:101760008093030182E08093040188278093050120
:10177000E8E6FBE50E94A523A0E4B5E0E7E0F2E09F
:101780000E9461280E949D23ECE2FAE50E94A523B5
:101790007894A6E1B2E08C9183FB16F00C94190CBE
:1017A00070911602777F709316020E945515E4EA35
:1017B000FAE50E948C23E4EBFAE50E948C23E6EB29
:1017C000FAE50E948C23A0E4B5E0E5EEF1E05527B0
:1017D00044E00E94F1250E948423E6EBFAE50E9492
:1017E0008C23A0E4B5E0E5EEF1E0552744E00E944B
:1017F000F1250E948423E6EBFAE50E948C23AAEFF0
:10180000B1E00E948623E6EBFAE50E948C23A0E477
:10181000B5E0E4E0F2E00E9461280E948423E6EB58
:10182000FAE50E948C23AFEFB1E00E9486230E946C
:10183000932300911202033011F00C940E0E81E0FC
:10184000809315020E942C250E94441681E080930B
:10185000030185E08093040181E080930501ECE6BB
:10186000FBE50E94A5235498A2E3B2E09C9197FF68
:1018700004C04C9B10C09F779C934C990CC089E18D
:101880009F9390E00E9405249F914C9904C090681A
:101890009C930E94701300911502013011F00C947A
:1018A0008C0CF89483E08093030182E08093040120
:1018B000882780930501E6E7FBE50E94A523A0E4C5
:1018C000B5E0E4E0F2E00E9461280E949D23E0E898
:1018D000FBE50E94A52385E08093030182E08093CD
:1018E0000401882780930501E8E8FBE50E94A52311
:1018F000E6E9FBE50E94A52386E08093030182E0F0
:1019000080930401882780930501EAE9FBE50E94A2
:10191000A52378940C94F80D023011F00C94BA0CB5
:10192000F89483E08093030182E080930401882788
:1019300080930501E8EAFBE50E94A523A0E4B5E059
:10194000E9E0F2E00E9461280E949D23E0E8FBE5C7
:101950000E94A52386E08093030182E08093040126
:10196000882780930501EAE9FBE50E94A523789486
:101970000C94F80D033011F00C941A0DF89483E0D8
:101980008093030182E080930401882780930501FE
:10199000E2EBFBE50E94A52378940091C50101309C
:1019A00011F00C94E80CA5EFB1E0E8E3F9E50E9432
:1019B000A32786E08093030182E0809304018827B7
:1019C00080930501EEEBFBE50E94A5230C94180D16
:1019D000023011F00C94010DA5EFB1E0ECE8F9E54F
:1019E0000E94A32786E08093030182E08093040194
:1019F000882780930501ECECFBE50E94A5230C945D
:101A0000180D033011F00C94180DA5EFB1E0EEEEB7
:101A1000F8E50E94A32786E08093030182E080938B
:101A20000401882780930501EAEDFBE50E94A523C8
:101A30000C94F80D043011F00C94AC0DF89483E084
:101A40008093030182E0809304018827809305013D
:101A5000E8EEFBE50E94A523789400911402013082
:101A600011F00C94480DA1ECB1E0EAEAF8E50E940F
:101A7000E12786E08093030182E0809304018827B8
:101A800080930501E6EFFBE50E94A5230C94AA0DC7
:101A9000023011F00C94610DA1ECB1E0EEEAF8E532
:101AA0000E94E12786E08093030182E08093040195
:101AB000882780930501E4E0FCE50E94A5230C94AF
:101AC000AA0D033011F00C947A0DA1ECB1E0E2EB19
:101AD000F8E50E94E12786E08093030182E080938D
:101AE0000401882780930501E2E1FCE50E94A5231B
:101AF0000C94AA0D043011F00C94930DA1ECB1E0FC
:101B0000E6EBF8E50E94E12786E08093030182E09E
:101B100080930401882780930501E0E2FCE50E94A0
:101B2000A5230C94AA0D053011F00C94AA0DA1EC7C
:101B3000B1E0E2EBF7E50E94E12786E08093030144
:101B400082E080930401882780930501EEE2FCE5A2
:101B50000E94A5230C94F80D053011F00C94E10DB2
:101B600083E08093030182E08093040188278093BF
:101B70000501ECE3FCE50E94A523E0E8FBE50E94FB
:101B8000A52385E08093030182E0809304018827E8
:101B900080930501E8E8FBE50E94A523E6E9FBE563
:101BA0000E94A52386E08093030182E080930401D4
:101BB000882780930501EAE9FBE50E94A5230C94A0
:101BC000F80D063011F00C94F80D83E080930301BA
:101BD00082E080930401882780930501EAE4FCE514
:101BE0000E94A523EAE7FAE50E94A5230E94551565
:101BF000789400911202013011F00C94240C0E9490
:101C00002C250E94551581E08093120270911602D6
:101C10007B7F709316028EEB0E9416255498A2E3E8
:101C2000B2E09C9197FF04C04C9B10C09F779C939F
:101C30004C990CC089E19F9390E00E9405249F91EC
:101C40004C9904C090689C930E94D5150E949323E0
:101C5000A6E1B2E08C9182FB16F00C94340E73B7BF
:101C6000707F756073BF8895A6E1B2E08C9182FBAE
:101C7000882780F9809580FBA6E1B2E08C9182F9FB
:101C80008C930C942402F894FFCF70911602777F06
:101C90007093160270911602746070931602E4EA53
:101CA000FAE50E948C23E4EBFAE50E948C23E6EB34
:101CB000FAE50E948C23A0E4B5E0E9ECF1E05527B9
:101CC00044E00E94F1250E948423E6EBFAE50E949D
:101CD0008C23A0E4B5E0E9ECF1E0552744E00E9454
:101CE000F1250E948423E6EBFAE50E948C23AAEFFB
:101CF000B1E00E948623E6EBFAE50E948C23A0E483
:101D0000B5E0E4E0F2E00E9461280E948423E6EB63
:101D1000FAE50E948C23AFEFB1E00E9486230E9477
:101D20009323089570911602746070931602709157
:101D30001602777F70931602E4EAFAE50E948C237C
:101D4000E4EBFAE50E948C23E6EBFAE50E948C2393
:101D5000A0E4B5E0E5EDF1E0552744E00E94F1256F
:101D60000E948423E6EBFAE50E948C23A0E4B5E010
:101D7000E7E0F1E0552744E00E94F1250E9484232A
:101D8000E6EBFAE50E948C23AAEFB1E00E948623DD
:101D9000E6EBFAE50E948C23A0E4B5E0E4E0F2E093
:101DA0000E9461280E948423E6EBFAE50E948C23BE
:101DB000AFEFB1E00E9486230E9493230895F89428
:101DC000A1E3B2E0E8944C9109B1882703FD81605A
:101DD00002FD8260841711F4B6F310C08C93429513
:101DE000840F823049F0803139F0833229F0813319
:101DF00019F00E94E80F02C00E94AA117894089579
:101E00000F921F922F923F924F925F927F92AF92CA
:101E1000BF920F931F932F933F934F935F936F93B3
:101E20007F938F939F93AF93BF93CF93DF93EF9362
:101E3000FF938FB78F93F894A9E2B0E00C9102FB67
:101E400081E00EF080E08F93A9E2B0E00C9103FBFB
:101E500081E00EF480E09F918923882311F40C9493
:101E6000380F709116027064709316020E94E80F8A
:101E7000A9E2B0E00C9102FB81E00EF480E08F93C8
:101E8000A9E2B0E00C9103FB81E00EF080E09F91AD
:101E90008923882311F40C94540F709116027064F6
:101EA000709316020E94E80F789480E080933002CD
:101EB0008F918FBFFF91EF91DF91CF91BF91AF9144
:101EC0009F918F917F916F915F914F913F912F9152
:101ED0001F910F91BF90AF907F905F904F903F9078
:101EE0002F901F900F9018950F921F922F923F9254
:101EF0004F925F927F92AF92BF920F931F932F9357
:101F00003F934F935F936F937F938F939F93AF9381
:101F1000BF93CF93DF93EF93FF938FB78F93F89493
:101F2000A9E2B0E00C9103FB81E00EF080E08F931A
:101F3000A9E2B0E00C9102FB81E00EF480E09F91F9
:101F40008923882311F40C94AC0F709116027064ED
:101F5000709316020E94AA11A9E2B0E00C9103FB53
:101F600081E00EF480E08F93A9E2B0E00C9102FBD7
:101F700081E00EF080E09F918923882311F40C9476
:101F8000C80F709116027064709316020E94AA1115
:101F9000789480E0809330028F918FBFFF91EF9112
:101FA000DF91CF91BF91AF919F918F917F916F9171
:101FB0005F914F913F912F911F910F91BF90AF90E3
:101FC0007F905F904F903F902F901F900F901895AB
:101FD000A6E1B2E08C9186FB16F00C94A4117091EE
:101FE00016027F7B70931602A6E1B2E08C9184FB0F
:101FF000882780F9809580FBA6E1B2E08C9184F976
:102000008C93A0E0B1E08C9181FB16F40C94241029
:1020100080911502815080931502009115020030C5
:1020200081E009F080E08F93009115020F3F81E07D
:1020300010F009F080E09F918923882311F40C941B
:10204000241086E0809315020E94791C00911202F0
:10205000013011F00C943D10809106018150809365
:10206000060100910601003011F00C943B108091A4
:102070001F01809306010C94F410043011F00C94AD
:10208000761080910602815080930602009106022C
:10209000003081E010F009F080E08F93009106029B
:1020A0000A3080E010F009F081E09F91892B8823AD
:1020B00011F40C94641086E080930602A9EDB1E05F
:1020C000E2E6F8E50E94E127E6EAF7E50E94EF2A5A
:1020D000E9EDF1E00E9470290E94ED29EDE0F0E0C9
:1020E000ADEDB1E00E94DE280C94F410023011F046
:1020F0000C94BD10EEE0F2E00E947529E1EDF1E0F4
:102100000E9470290E94852AEDE0F0E0A1EDB1E087
:102110000E94DE28E1EDF1E00E947029EAEBF8E58B
:102120000E94EF2A0E94572910F00C949D10A1EDF7
:10213000B1E0EAEBF8E50E94E127E6EAF7E50E9464
:10214000EF2AE1EDF1E00E9470290E94ED29EDE017
:10215000F0E0ADECB1E00E94DE28809114028150E5
:102160008093140200911402003011F00C94BB1003
:1021700085E0809314020C94F410053011F00C9457
:10218000F4108091070281508093070200910702AA
:10219000003081E010F009F080E08F930091070299
:1021A000013180E010F009F081E09F91892B8823B4
:1021B00011F40C94E41080E180930702A1EEB1E0E9
:1021C000E6EAF8E50E94E127E6EAF7E50E94EF2A51
:1021D000E1EEF1E00E9470290E94ED29EDE0F0E0CF
:1021E000A5EEB1E00E94DE28A0E0B1E08C9181FB79
:1021F00016F00C94A41100911502013011F00C940A
:102200002011809104028150809304020091040205
:102210000F3F81E010F009F080E08F9300910402FD
:102220000A3080E010F009F081E09F918923882333
:1022300011F40C941E1180E0809304020C9462113E
:10224000023011F00C943411809109028150809376
:102250000902009109020F3F11F00C94321180E045
:10226000809309020C946211033011F00C94481110
:102270008091C50181508093C5010091C501003056
:1022800011F00C94461183E08093C5010C94621107
:10229000043011F00C945C118091140281508093F1
:1022A000140200911402003011F00C945A1185E0D0
:1022B000809314020C946211053011F00C94621199
:1022C0000E945316E4EAFAE50E948C23E4EBFAE557
:1022D0000E948C23E6EBFAE50E948C23A0E4B5E093
:1022E000EDEDF1E0552744E00E94F1250E948423A2
:1022F000E6EBFAE50E948C23A0E4B5E0EDEDF1E019
:10230000552744E00E94F1250E948423E6EBFAE57C
:102310000E948C23AAEFB1E00E948623E6EBFAE547
:102320000E948C23A0E4B5E0E4E0F2E00E94612882
:102330000E948423E6EBFAE50E948C23AFEFB1E024
:102340000E9486230E9493237091160278607093F6
:1023500016020895A6E1B2E08C9186FB16F00C946B
:102360004C13709116027F7B70931602A6E1B2E0C7
:102370008C9185FB882780F9809580FBA6E1B2E0EF
:102380008C9185F98C93A0E0B1E08C9181FB16F4DF
:102390000C94E511A5E1B2E08C918F5F8C930091D4
:1023A0001502083081E008F480E08F930091150257
:1023B0000A3081E008F080E09F918923882311F49E
:1023C0000C94E51181E0809315020E94791C009124
:1023D0001202013011F00C940212A6E0B1E08C91CF
:1023E0008F5F8C9340911F0100910601041718F034
:1023F00011F00C94FD110C94001281E08093060101
:102400000C949E12043011F00C942C12A6E0B2E051
:102410008C918F5F8C9300910602073010F40C941E
:102420001A1281E080930602A9EDB1E0EAE9F7E52E
:102430000E94E127E6EAF7E50E94EF2AE9EDF1E0E4
:102440000E9470290E94ED29EDE0F0E0ADEDB1E0D1
:102450000E94DE280C949E12023011F00C94761229
:10246000EEE0F2E00E947529E1EDF1E00E947029B2
:102470000E94942AEDE0F0E0A1EDB1E00E94DE2898
:10248000E1EDF1E00E947029EEEBF8E50E94EF2A01
:102490000E94572918F011F00C9450120C94561207
:1024A000A1EDB1E0EEEBF8E50E94E127E6EAF7E501
:1024B0000E94EF2AE1EDF1E00E9470290E94ED29CF
:1024C000EDE0F0E0ADECB1E00E94DE28A4E1B2E086
:1024D0008C918F5F8C9300911402063010F40C9451
:1024E000741281E0809314020C949E12053011F056
:1024F0000C949E12A7E0B2E08C918F5F8C930091B8
:102500000702013110F40C948E1281E080930702CF
:10251000A1EEB1E0EEE9F7E50E94E127E6EAF7E592
:102520000E94EF2AE1EEF1E00E9470290E94ED295D
:10253000EDE0F0E0A5EEB1E00E94DE28A0E0B1E021
:102540008C9181FB16F00C944C1300911502013014
:1025500011F00C94C812A4E0B2E08C918F5F8C93C0
:1025600000910402093081E008F480E08F9300912B
:1025700004020B3081E008F080E09F9189238823DA
:1025800011F40C94C61288E0809304020C940A1390
:10259000023011F00C94DC12A9E0B2E08C918F5F54
:1025A0008C9300910902093011F00C94DA1288E042
:1025B000809309020C940A13033011F00C94F0126A
:1025C000A5ECB1E08C918F5F8C930091C501043034
:1025D00010F40C94EE1281E08093C5010C940A1360
:1025E000043011F00C940413A4E1B2E08C918F5FDD
:1025F0008C9300911402063010F40C94021381E0C5
:10260000809314020C940A13053011F00C940A13F1
:102610000E945316E4EAFAE50E948C23E4EBFAE503
:102620000E948C23E6EBFAE50E948C23A0E4B5E03F
:10263000EDEDF1E0552744E00E94F1250E9484234E
:10264000E6EBFAE50E948C23A0E4B5E0EDEDF1E0C5
:10265000552744E00E94F1250E948423E6EBFAE529
:102660000E948C23AAEFB1E00E948623E6EBFAE5F4
:102670000E948C23A0E4B5E0E4E0F2E00E9461282F
:102680000E948423E6EBFAE50E948C23AFEFB1E0D1
:102690000E9486230E9493237091160278607093A3
:1026A00016020895A5E1B2E08C918F5F8C930091A2
:1026B0001502083081E008F480E08F930091150244
:1026C0000A3081E008F080E09F918923882311F48B
:1026D0000C946D1381E0809315020E94EE1508950D
:1026E000709100017260709300010E94EE154C9988
:1026F0000C947C130E945213F89478940091150264
:10270000013011F00C94A613E1E3F3E0A4E0B2E091
:102710007BE70E94F92883E08093030182E08093A5
:102720000401882780930501E6E7FBE50E94A523C5
:10273000A0E4B5E0E4E0F2E00E9461280E949D235D
:10274000E0E8FBE50E94A5230C940815023011F087
:102750000C94C51383E08093030182E0809304010D
:10276000882780930501E8EAFBE50E94A523A0E401
:10277000B5E0E9E0F2E00E9461280E949D23E0E8D4
:10278000FBE50E94A5230C940815033011F00C946E
:10279000231483E08093030182E08093040188275F
:1027A00080930501E6E5FCE50E94A5230091C501A3
:1027B000013011F00C94F113A5EFB1E0E8E3F9E575
:1027C0000E94A32786E08093030182E080930401A6
:1027D000882780930501EEEBFBE50E94A5230C946E
:1027E0002114023011F00C940A14A5EFB1E0ECE8CA
:1027F000F9E50E94A32786E08093030182E080939D
:102800000401882780930501ECECFBE50E94A523D9
:102810000C942114033011F00C942114A5EFB1E0B5
:10282000EEEEF8E50E94A32786E08093030182E0A4
:1028300080930401882780930501EAEDFBE50E945F
:10284000A5230C940815043011F00C94B31483E004
:102850008093030182E0809304018827809305011F
:10286000E8E6FCE50E94A52300911402013011F076
:102870000C944F14ADEBB1E0EAEAF8E50E94E127D1
:1028800086E08093030182E080930401882780938F
:102890000501E6EFFBE50E94A5230C94B11402307C
:1028A00011F00C946814ADEBB1E0EEEAF8E50E948B
:1028B000E12786E08093030182E08093040188276A
:1028C00080930501E4E0FCE50E94A5230C94B1147B
:1028D000033011F00C948114ADEBB1E0E2EBF8E5BC
:1028E0000E94E12786E08093030182E08093040147
:1028F000882780930501E2E1FCE50E94A5230C9462
:10290000B114043011F00C949A14ADEBB1E0E6EB85
:10291000F8E50E94E12786E08093030182E080933E
:102920000401882780930501E0E2FCE50E94A523CD
:102930000C94B114053011F00C94B114ADEBB1E06E
:10294000E2EBF7E50E94E12786E08093030182E055
:1029500080930401882780930501EEE2FCE50E9444
:10296000A5230C940815053011F00C94EE1483E0A7
:102970008093030182E080930401882780930501FE
:10298000ECE3FCE50E94A523E0E8FBE50E94A5231B
:1029900085E08093030182E080930401882780937F
:1029A0000501E8E7FCE50E94A523E6E9FBE50E94B6
:1029B000A52386E08093030182E0809304018827A9
:1029C00080930501E8E8FCE50E94A523E6E9FBE524
:1029D0000E94A5230E9453160C940815063011F08E
:1029E0000C94081583E08093030182E08093040136
:1029F000882780930501E6E9FCE50E94A5237091F4
:102A000000017260709300010E9455150C943815F6
:102A100078944C990C941E158CE291E00E94052448
:102A20004C990C941E15709100017D7F70930001EC
:102A30000E94EE150E94EE150C94381500911502B7
:102A4000073011F00C942E1581E0809312027091E2
:102A500000017260709300010C94311583E0809343
:102A60001202A0E0B1E08C9181FB16F00C94771378
:102A70000E942C250E9455150E94450E84E690E088
:102A80000E940524EAE3FBE50E948C23A0E4B5E064
:102A9000E9E0F2E00E9461280E9484230E949323CF
:102AA00082E390E00E9405240895E5E2F3E0A9EDB9
:102AB000B1E094E07BE70E94FC28E9E2F3E0A1EEBC
:102AC000B1E094E07BE70E94FC28EDE2F3E0A9EEA0
:102AD000B1E094E07BE70E94FC28E2E3F3E0A5E0AC
:102AE000B2E07BE70E94F928E3E3F3E0A6E0B2E07E
:102AF0007BE70E94F928E4E2F3E0A5ECB1E07BE794
:102B00000E94F928E4E3F3E0A9E0B2E07BE70E9449
:102B1000F928E1E3F3E0A4E0B2E07BE70E94F928C2
:102B2000E0E2F3E0ADEBB1E094E07BE70E94FC284B
:102B30000895E4E2F3E0A5ECB1E00E94152988E0F5
:102B400080930902E1E3F3E0A4E0B2E00E941529DA
:102B5000ADEBB1E0E0E2F3E094E00E9418290895C3
:102B6000A7E0B1E0E2ECF8E50E94E127A9EDB1E0D1
:102B7000EAE9F7E50E94E127A1EEB1E0EEE9F7E529
:102B80000E94E127A9EEB1E0E2EAF7E50E94E12721
:102B9000A1EFB1E0EAEAF7E50E94E12781E0809346
:102BA000060281E08093070208950E94EE15A2E1DB
:102BB000B2E08C918F5F8C9300911202043011F07F
:102BC0000C94E51581E080931202709116027860F2
:102BD0007093160280E0809330020895289882E373
:102BE00090E00E940524289A82E390E00E94052448
:102BF000089570911602786070931602A6E1B2E013
:102C00008C9180FB882780F9809580FBA6E1B2E05B
:102C10008C9180F98C930E94EE15A0E0B1E08C912C
:102C200084FB882780F9809580FBA0E0B1E08C913F
:102C300084F98C93A3E1B2E08C918F5F8C93009127
:102C40001302063010F40C94281681E080931302CE
:102C50004C990C9440168CE291E00E9405244C990A
:102C60000C944016709100017D7F709300010E94CA
:102C7000EE150E94EE1570910001786070930001CE
:102C800080E08093300208951C990C945016709146
:102C900000017460709300015D9A5E980C94521666
:102CA0005E9A5D98089570910001777F709300019E
:102CB0008CE291E00E9405242398249A0E94F2233A
:102CC000A8E8B1E08C9300918801003018F011F071
:102CD0000C946C160C949B16ACEBB1E08C918F5F4E
:102CE0008C9380918801ACEBB1E0AD90BB24A8E857
:102CF000B1E0AA0DBB1D8C93009188010A3011F040
:102D00000C948A167091000170647093000180E049
:102D10008093BC010091BC01023318F011F00C94B7
:102D200093160C949B1680E08093BC017091000177
:102D30007F7B70930001A0E0B1E08C9186FB16F0E0
:102D40000C94B216709100017F7B7093000180E0BB
:102D50008093BC01E9E8F1E0A0E2B1E00E94D9284B
:102D60000E94FF164C990C94CA168CE291E00E94C6
:102D700005244C990C94CA16709100017D7F7093C4
:102D800000010E94EE150E94EE157091000178601E
:102D900070930001A0E0B1E08C9183FB16F00C94DD
:102DA0005E1670910001777F7093000186E080933A
:102DB000150281E090E0A6E8B1E08D939C93249801
:102DC000239A8EEB0E941625ECEFF9E3A1E0B1E027
:102DD000ED93FC9385E08093030182E080930401EE
:102DE000882780930501E8E7FCE50E94A523E6E932
:102DF000FBE50E94A52381E080930601089584E30A
:102E00000E949327E0E2F1E003E0A881B9810E94EB
:102E1000EB28A881B981ECE9FCE50E9435290FB6C1
:102E200084E3481A80E0580A22960FBE11F00C94F1
:102E300023170E94B817A0E2B1E088278C93A3E57E
:102E4000B1E088278C9384E30E949327E0E2F1E0CD
:102E500003E0A881B9810E94EB28A881B981E0EA4A
:102E6000FCE50E9435290FB684E3481A80E0580A31
:102E700022960FBE11F00C945C1784E0E0E2F1E0C2
:102E800002E00A93A3E5B1E00E94E428A3E5B1E0E3
:102E90000E94A728AFE1B1E00C93AFE1B1E0BA9393
:102EA000AA930E94091C2296A0E2B1E088278C9385
:102EB000A3E5B1E088278C9384E30E949327E0E2A6
:102EC000F1E003E0A881B9810E94EB28A881B981D3
:102ED000E4EAFCE50E9435290FB684E3481A80E055
:102EE000580A22960FBE11F00C9480170E94791C8C
:102EF000A0E2B1E088278C93A3E5B1E088278C930A
:102F000084E30E949327E0E2F1E003E0A881B98125
:102F10000E94EB28A881B981E8EAFCE50E943529E6
:102F20000FB684E3481A80E0580A22960FBE11F0CB
:102F30000C94A4170E949818A0E2B1E088278C9303
:102F4000A3E5B1E088278C93A0E2B1E0ECEAFCE5D0
:102F50000E94352911F00C94B7170E94A91AA0E21B
:102F6000B1E088278C93A3E5B1E088278C9308957E
:102F700081E080931F0100911F01083218F011F0C9
:102F80000C942C18E2EBF7E50E94E22AEFE1F1E065
:102F9000A190BB24ECEFFFEFAA0CBB1CAA0CBB1C3E
:102FA000EA0DFB1DADE0BB2794E07BE70E94FC2807
:102FB000EFE1F1E0A190BB24EFE9F0E0EA0DFB1DA9
:102FC000A0E1BB2780E08C937BE70E94F928A42D29
:102FD000B52DE0EBFCE50E94A327EFE1F1E00191C4
:102FE000112749E050E00E949927EFEBF0E0E00F55
:102FF000F11FD2017BE70E940A29EFE1F1E0A190E5
:10300000BB24EEE2F2E0AA0CBB1CEA0DFB1D00E0C3
:1030100010E0A0E1BB277BE70E94FB28E2EBF7E58D
:103020000E94E22AEFE1F1E0A190BB24ECE7F2E09C
:10303000AA0CBB1CAA0CBB1CEA0DFB1DADE0BB27F8
:1030400094E07BE70E94FC28AFE1B1E08C918F5FB8
:103050008C9310F40C94BB17E6EBFCE50E94D6238E
:103060000E94DD230895A7E0B1E0E881F981A190F5
:10307000BB24ECEFFFEFAA0CBB1CAA0CBB1CEA0D97
:10308000FB1D94E00E941829E881F981A190BB24DE
:10309000EFE9F0E0EA0DFB1DABE0B1E00E9415297D
:1030A000E881F9810191112749E050E00E949927B8
:1030B000EFEBF0E0E00FF11FA0E1B1E098E00E943B
:1030C0001F29E0E1F1E008E0A0E1B1E00E94EB2877
:1030D000E881F981A190BB24EEE2F2E0AA0CBB1CCE
:1030E000EA0DFB1DA9E1B1E00E941729ABE1B1E0B7
:1030F000E881F981A190BB24ECE7F2E0AA0CBB1CAB
:10310000AA0CBB1CEA0DFB1D94E00E941829E6EAFC
:10311000F7E50E94EF2AEBE1F1E00E9470290E949E
:10312000ED29EDE0F0E0ADEBB1E00E94DE2808957E
:1031300081E00E94932781E00E94932781E00E9412
:10314000932781E00E94932781E00E94932781E0EA
:103150000E94932781E00E94932781E00E94932799
:1031600081E00E94932781E00E94932785E10E94DD
:10317000932782E00E94932781E00E94932784E0B6
:103180000E949327A0E2B1E0EEECFCE52FEF91E086
:103190000E94AE27AC89BD890C93AC89BD890C9186
:1031A00041E0040FAE89BF890C93AE89BF899C9121
:1031B0009A93A0E2B1E0EEECFCE52FEF0E94A92784
:1031C000AA89BB890C93AA89BB890C9141E0040FA1
:1031D000AE89BF890C93AE89BF899C919A93A0E276
:1031E000B1E0EEECFCE52FEF0E94A927A889B98990
:1031F0000C93A889B9890C9141E0040FAE89BF896D
:103200000C93AE89BF899C919A93A0E2B1E0EEEC59
:10321000FCE52FEF0E94A927AE85BF850C93AE85F4
:10322000BF850C9141E0040FAE89BF890C93AE8934
:10323000BF899C919A93A0E2B1E0EEECFCE52FEF00
:103240000E94A927AC85BD850C93AC85BD850C91EA
:1032500041E0040FAE89BF890C93AE89BF899C9170
:103260009A93A0E2B1E0EEECFCE52FEF0E94A927D3
:10327000AA85BB850C93AA85BB850C9141E0040F00
:10328000AE89BF890C93AE89BF899C919A93A0E2C5
:10329000B1E0EEECFCE52FEF0E94A927A885B985E7
:1032A0000C93AC89BD890C9141E0040FAE89BF89B4
:1032B0000C93AA89BB890C91AE89BF894C91041BE0
:1032C000A88DB98D0C93AE89BF898C91E0E2F1E0B5
:1032D000A88DB98D0C910A93AF81B8850E94E4281E
:1032E000AE81BF810E94A728AA8DBB8D0C93AA89AD
:1032F000BB890C9141E0040FAE89BF890C93A8896A
:10330000B9890C91AE89BF894C91041BA88DB98DE8
:103310000C93AE89BF898C91E0E2F1E0A88DB98D64
:103320000C910A93AF81B8850E94E428AE81BF81D9
:103330000E94FC2AEDE0F0E0A881B9810E94DE281D
:10334000E6EAF7E50E94EF2AE881F9810E947029F8
:103350000E94ED29EDE0F0E0A881B9810E94DE280D
:10336000EA8DFB8DA190BB24ECEFFFEFAA0CBB1CF8
:10337000AA0CBB1CEA0DFB1DA881B98194E07BE778
:103380000E94FC28A889B9890C9141E0040FAE89FC
:10339000BF890C93AE85BF850C91AE89BF894C91D6
:1033A000041BA88DB98D0C93AE89BF898C91E0E286
:1033B000F1E0A88DB98D0C910A93AF81B8850E9478
:1033C000E428AE81BF810E94A728AA81BB810C930B
:1033D000EA8DFB8DA190BB24EFE9F0E0EA0DFB1D27
:1033E000AA81BB817BE70E94F928AE85BF850C913D
:1033F00041E0040FAE89BF890C93AC85BD850C916B
:10340000AE89BF894C91041BA88DB98D0C93AE89F0
:10341000BF898C91E0E2F1E0A88DB98D0C910A93FF
:10342000AF81B8850E94E428EE81FF8108E0AE817B
:10343000BF810E94EB28EA8DFB8D0191112749E0A5
:1034400050E00E949927EFEBF0E0E00FF11FAE8112
:10345000BF817BE70E940A29AC85BD850C9141E0C4
:10346000040FAE89BF890C93AA85BB850C91AE89E8
:10347000BF894C91041BA88DB98D0C93AE89BF896F
:103480008C91E0E2F1E0A88DB98D0C910A93AF81A7
:10349000B8850E94E428AE81BF810E94A728AC8134
:1034A000BD810D931C93EA8DFB8DA190BB24EEE2B0
:1034B000F2E0AA0CBB1CEA0DFB1DAC81BD817BE7D1
:1034C0000E94FB28AA85BB850C9141E0040FAE89C0
:1034D000BF890C93A885B9850C91AE89BF894C91A1
:1034E000041BA88DB98D0C93AE89BF898C91E0E245
:1034F000F1E0A88DB98D0C910A93AF81B8850E9437
:10350000E428AE81BF810E94FC2AEDE0F0E0A881B2
:10351000B9810E94DE28EA8DFB8DA190BB24ECE7E7
:10352000F2E0AA0CBB1CAA0CBB1CEA0DFB1DA88177
:10353000B98194E07BE70E94FC28E0EDFCE50E9465
:10354000D6230E94DD2386E2481A80E0580A6C9652
:103550000895E6ECF8E50E94E22AE0E0F0E0ADE054
:10356000BB2794E07BE70E94FC28E0EAF0E0A0E1C2
:10357000BB2782E18C937BE70E94F928A42DB52D0F
:10358000E8EDFCE50E94A327E8ECF0E0D2017BE740
:103590000E940A29E0E3F2E001E911E0A0E1BB2783
:1035A0007BE70E94FB28EAECF8E50E94E22AE0E8CB
:1035B000F2E0ADE0BB2794E07BE70E94FC28EEEC54
:1035C000F8E50E94E22AE4E0F0E0ADE0BB2794E0F9
:1035D0007BE70E94FC28E1EAF0E0A0E1BB2783E161
:1035E0008C937BE70E94F928A42DB52DE2EEFCE533
:1035F0000E94A327E1EDF0E0D2017BE70E940A29B7
:10360000E2E3F2E002E911E0A0E1BB277BE70E94E0
:10361000FB28E2EDF8E50E94E22AE4E8F2E0ADE002
:10362000BB2794E07BE70E94FC28E6EDF8E50E94CA
:10363000E22AE8E0F0E0ADE0BB2794E07BE70E94FF
:10364000FC28E2EAF0E0A0E1BB2784E18C937BE771
:103650000E94F928A42DB52DECEEFCE50E94A327CD
:10366000EAEDF0E0D2017BE70E940A29E4E3F2E010
:1036700003E911E0A0E1BB277BE70E94FB28EAED0C
:10368000F8E50E94E22AE8E8F2E0ADE0BB2794E02A
:103690007BE70E94FC28EEEDF8E50E94E22AECE0D0
:1036A000F0E0ADE0BB2794E07BE70E94FC28E3EA72
:1036B000F0E0A0E1BB2785E18C937BE70E94F9282D
:1036C000A42DB52DE6EFFCE50E94A327E3EEF0E084
:1036D000D2017BE70E940A29E6E3F2E004E911E067
:1036E000A0E1BB277BE70E94FB28E2EEF8E50E9401
:1036F000E22AECE8F2E0ADE0BB2794E07BE70E9431
:10370000FC28E6EEF8E50E94E22AE0E1F0E0ADE018
:10371000BB2794E07BE70E94FC28E4EAF0E0A0E10C
:10372000BB2786E18C937BE70E94F928A42DB52D59
:10373000E0E0FDE50E94A327ECEEF0E0D2017BE79C
:103740000E940A29E8E3F2E005E911E0A0E1BB27C5
:103750007BE70E94FB28EAEEF8E50E94E22AE0E916
:10376000F2E0ADE0BB2794E07BE70E94FC28EAE0B2
:10377000FDE50E94D6230E94DD230895E0E2FDE5E9
:103780000E94D623E4EBFAE50E94D623EEECFCE59A
:103790000E94D623A0E4B5E0E7E0F1E0552744E03D
:1037A0000E94F1250E94E123EEECFCE50E94D62365
:1037B000A0E4B5E0EBE0F1E00E9461280E94E12383
:1037C000EEECFCE50E94D623A0E1B1E00E94E323E9
:1037D000EEECFCE50E94D623A0E4B5E0E9E1F1E0DF
:1037E0000E945A280E94E123EEECFCE50E94D623B9
:1037F000A0E4B5E0EBE1F1E0552744E00E94F125BB
:103800000E94E123E6E2FDE50E94D6230E94DD232B
:10381000089584E00E949327AA81BB81BA93AA935A
:103820000E9433182296E6EAF7E50E94EF2AE7E0C5
:10383000F1E00E9470290E94462AEDE0F0E00E942B
:103840008029A881B981EDE0FF270E94DE28E0E20F
:10385000FDE50E94D623A0E4B5E0EA81FB810E9449
:1038600061280E94E123EEECFCE50E94D623A0E44F
:10387000B5E0E881F9810E9454280E94E123EEEC32
:10388000FCE50E94D623A0E4B5E0EBE0F1E00E9465
:1038900061280E94E123EEECFCE50E94D623A0E122
:1038A000B1E00E94E323EEECFCE50E94D623A0E405
:1038B000B5E0E9E1F1E00E945A280E94E123EEEC34
:1038C000FCE50E94D623A0E4B5E0EBE1F1E055274A
:1038D00044E00E94F1250E94E123E6E2FDE50E941A
:1038E000D6230E94DD2384E0481A80E0580A2296FD
:1038F000089584E00E94932781E080931F01009146
:103900001F01083218F011F00C94AE1CA881B98187
:10391000EFE1F1E0A190BB24ECEFFFEFAA0CBB1CA0
:10392000AA0CBB1CEA0DFB1D94E00E941829E8813B
:10393000F9810E947029E2EBF7E50E94EF2A0E94CC
:10394000572911F00C94A61C0C94AE1CAFE1B1E009
:103950008C918F5F8C9310F40C947F1CAFE1B1E0DD
:103960008C9181508C93ECE2FDE50E94D623A0E47B
:10397000B5E0EFE1F1E00E9461280E94E1230E949E
:10398000DD2384E0481A80E0580A229608950E94B8
:10399000EE1584E08093300208953054008040207A
:1039A0001008AA020804AA020402AA3C0204AA01FE
:1039B0000408AA03083040C000AA0300FF00AA4D73
:1039C00000FF00AA0300FF00AA4D00FF00AA0300A9
:1039D000FF00AA4D00FF00AA0300FF00AA4D00FF50
:1039E00000AA03000304081020AA032040AA3F40B5
:1039F00020AA03201008040300AA02000106060002
:103A000000000000000000005F0000000003000351
:103A10000000147F147F1400042A7F2A100023134F
:103A20000864620036495620500000030000000080
:103A3000001C2241000041221C0000002A1C7F1CA7
:103A40002A0008083E0808000040703000000808FE
:103A5000080808000000606000006010080403000F
:103A60003E5149453E0000427F40000062514949B5
:103A70004600224149493600181412117F0027459B
:103A8000454539003E4545453900016111090700AA
:103A90003649494936000E5151513E000000363634
:103AA00000000040763600000008142200001414C4
:103AB0001414140000221408000002015109060029
:103AC0003E4955550E007C1211127C007F49494930
:103AD00036003E41414122007F4141221C007F4986
:103AE000494941007F09090901003E4141517200E5
:103AF0007F0808087F0000417F4100002040413FCF
:103B000001007F08142241007F40404060007F0296
:103B10000C027F007F0204087F003E4141413E00CD
:103B20007F1111110E003E4151617E007F0919295C
:103B3000460026494949320001017F0101003F400A
:103B400040403F001F2040201F003F4038403F00C2
:103B500063140814630007087008070061514945A1
:103B6000430000007F414100030408106000414110
:103B70007F00000004020102040040404040404039
:103B8000010200000000304A4A3C40007F4848489B
:103B90003000384444442000304848487F003854BE
:103BA0005454180000087E0900000854545438008A
:103BB0007F080404780000487A4000000020403D5F
:103BC00000007F101028440000007F0000007C04EB
:103BD0007C0478007C0804047800384444443800AD
:103BE0007C14141408000814147C40007C0804049D
:103BF000080048545454240000043F4400003C4052
:103C000040207C001C2040201C003C4030403C00F8
:103C10004428102844000C5050503C004464544C3C
:103C2000440000000836410000007F0000004136DB
:103C30000800000008040804000000000000000064
:103C40000000000000000000000000000000000074
:103C50000000000000000000000000000000400024
:103C600040004000000000000000000000000000D4
:103C7000143E555541001308640260000000000026
:103C80000000000000000000000000000000000034
:103C90000000000000000000000000000000000024
:103CA0000000000000000000000000000000000014
:103CB00000000000000000000000000000000018EC
:103CC0003C3C180000000000000000000000000064
:103CD000003C24243C000000000000000000000024
:103CE00000000000000000000000000000000000D4
:103CF00000000000000000000000000000000000C4
:103D000000000000000000000000000000000000B3
:103D10000000000000000000005A24245A000000A7
:103D2000000000000000770000000000000000001C
:103D30007C55545554003E415D55413E0000000005
:103D4000000008142A142200020202020E000000E1
:103D50000000000000000000000000000000000063
:103D600006090906000000242E24000000000000BF
:103D70000000000000000000000000000000FC2027
:103D800040403C00040E7E027E000000080000005F
:103D90003855545518007810207E020000000000AD
:103DA000000022142A140800000000000000000097
:103DB0000000000000000000000000027802000087
:103DC0007C1211127C007F49494930007F494949E2
:103DD00036007F0101010100407E417F40007F49A4
:103DE0004949410077087E08770022414949360059
:103DF0007F2010087F007F2011087F007F08142299
:103E00004100403E01017F007F0204027F007F08E5
:103E100008087F003E4141413E007F0101017F00D3
:103E20007F09090906003E414141220001017F014D
:103E30000100074848483F000C127F120C00631431
:103E4000081463003F20203F6000070808087F0037
:103E50007F407C407F003F203C203F60017F4848FE
:103E600030007F4830007F007F48484830002241C2
:103E700049493E007F083E413E00462919097F001E
:103E80002054545478007854545420007C54545492
:103E900028007C04040404000854545438003854A6
:103EA000545418006C1078106C00284454542800A6
:103EB0003C4040407C003C4044407C007C1010284A
:103EC0004400403804047C007C0810087C007C100E
:103ED00010107C003844444438007C0404047C0006
:103EE0007C14141408003844444428007C047C04E6
:103EF00078000C5050503C0008147C1408004428F2
:103F0000102844001C20203C60000C1010107C0085
:103F10003C4078407C001C2038203C60047C5050A1
:103F200020007C5020007C007C5050502000284411
:103F3000545438007C1038443800085434147C0041
:103F4000020A140000000000000000000000000051
:103F5000000000000000000000000000FE00000063
:103F60000000000000001B000000000000001E0018
:103F700000001E0000000000000000000000000023
:103F80000020A07826A07826200001190701190733
:103F90000101010000001C2642FF82020000000017
:103FA0001810103F110F00001C2222229C403008E4
:103FB000040210080403000E1111110E00805C624F
:103FC000A2321C0000800708101011131C181601E3
:103FD000000000001E0000000000000000000000C3
:103FE00000000000000000E0180C040202000000C5
:103FF0000007183020000000000202040C18E00046
:10400000000000000020301807000000000818F031
:104010004EF0180800000000000000000000000042
:1040200000000000E00000000000020202021F0287
:10403000020202000000000000000000000000007A
:104040000018380000000000000000000000000020
:10405000000000000101010101010000000000005A
:104060000000000000000000001818000000000020
:104070000000000000C0300C02000000300C030003
:104080000000000000F00C0202020CF0000000032F
:104090000C1010100C03000000040404FE000000CB
:1040A0000000001010101F10101000000006020287
:1040B00002C23C0000000018141211101000000091
:1040C000000002424242BC0000000000101010102C
:1040D0000F00000000C0201804FE000000000302D2
:1040E0000202021F0202000000003E222242820061
:1040F00000000000101010080700000000F04C2223
:10410000222242800000000708101010080700005B
:1041100000020202C2320A06000000001807000076
:1041200000000000001CA24242A2A21C0000000FDE
:10413000101010100906000000788402020284F8B2
:1041400000000000101111110C03000000000060BD
:1041500060000000000000000018180000000000CF
:10416000000000606000000000000000001838003F
:10417000000000000000000080804040200000009F
:104180000303040408081000008080808080808081
:1041900080000004040404040404040000204040DF
:1041A00080800000000000100808040403030000E1
:1041B000000E02028242261C00000000001B0000CC
:1041C00000000000F01804E2120A8AFC0000030C50
:1041D000181314161B070404000080701830C00068
:1041E0000000100E0302020202030C1000F888887F
:1041F000888848300000001F10101010110E0000B9
:10420000C0301008080808180000030C081010102F
:104210001010000000F80808080810E00000001F57
:10422000101010100807000000F808080808080817
:104230000000001F111111111110000000F80808F2
:10424000080808080000001F01010101010000002A
:1042500000C0301008080808180000030C081010EF
:1042600011111F0000F80000000000F80000001FFE
:1042700001010101011F000000080808F8080808F2
:104280000000001010101F101010000000000008A7
:104290000808F80000000000101010100F000000C7
:1042A00000F88080402010080000001F0001020478
:1042B0000408100000F80000000000000000001FCB
:1042C0001010101010100000F838E00000C038F88E
:1042D00000001F0001070601001F000000F8106029
:1042E000800000F80000001F00000106081F000009
:1042F00000E0100808080810E0000007081010107F
:104300001008070000F80808080888700000001F5F
:10431000010101010000000000E010080808081079
:10432000E0000007081010103008070000F8080827
:10433000088870000000001F01010304081000003D
:104340000070488888080818000000181010101124
:10435000090E000008080808F8080808080000000E
:1043600000001F000000000000F80000000000F83E
:104370000000000718101010080700000830C000E7
:10438000000000C0300800000106181807000000F7
:1043900018E00000E0C00000E01800031C0F00015E
:1043A0000E1C0300081020408080402010081008D8
:1043B00004020101020408100810608000804020FF
:1043C0001008000000001F0000000000000808089E
:1043D0000888482818000018141211101010100036
:1043E000000000FE0202020200000000003F000088
:1043F0000000000000020C30C000000000000000BF
:10440000000000030C3000000002020202FE000067
:10441000000000000000003F00000000000000E07D
:10442000380E708000000004030000000003040048
:1044300000000000000000000000202020202020BC
:1044400020202020000000000102000000000000E9
:104450000000000000000000000020202020C0001C
:104460000000000C121111091F10000000FE402076
:10447000202060800000001F0810101008070000B6
:10448000008040202020202000000007081010108D
:104490001010000000804020202040FE0000000797
:1044A00018101010081F000000804020202020C09D
:1044B000000000070911111111110000002020FC5B
:1044C0002422222222000000001F00000000000021
:1044D00000804020202040E000000007181010104D
:1044E000083F000000FE8040202020C00000001F88
:1044F00000000000001F000000202026E600000051
:104500000000000000001F0000000000000020204C
:1045100026E60000000000000000003F0000000050
:1045200000FE0000804040200000001F0103040442
:10453000081000000000020202FE0000000000005F
:104540000000001F00000000E0402020C0402020AC
:10455000C0001F0000001F0000001F0000E0C0405E
:10456000202020C00000001F00000000001F0000ED
:10457000008040202020408000000007081010101C
:104580000807000000E04020202060800000003F7D
:10459000081010100807000000804020202040E094
:1045A0000000000718101010083F00000000E08015
:1045B000402020E0000000001F000000000000007C
:1045C00000C020202020200000000018111112122D
:1045D0000C000000002020F8202020200000000017
:1045E000000F10101010000000E000000000E000BC
:1045F0000000000F101010081F00000020C0000075
:10460000000000C0200000010618100C030000008C
:1046100060800000C080000080600007180E01016B
:104620000E1807000020408000008040200000108D
:10463000080403030408100020C00000000000006C
:10464000C0200000030638180601000000202020CA
:104650002020A0602000001018141211101010006B
:1046600000000000FC0202020000000001013E0008
:104670000000000000000000FE000000000000003C
:1046800000003F00000000000000020202FC0000E9
:10469000000000000000003E01010000008080805A
:1046A000000000000080030000000101020202017E
:1046B0000080C0201020C0800000001F10101010CB
:1046C000101F000005D00E94992700FC0CD008950F
:1046D0000024E89457FF02C009D0689400F80BD07A
:1046E00010F80124089502D009D0089550954095FE
:1046F0004F5F5F4F0895E89417FF08950095109558
:104700000F5F1F4F68940895A0E4B5E08D91882352
:1047100011F00CD0FBCF08950E94D927802D11F005
:1047200005D0FACF08958DE001D08AE00090C00056
:1047300005FEFCCF8093C6000895A0E4B5E08D91FE
:10474000882311F00FD0FBCF08950E94D927802D28
:1047500011F008D0FACF089588EE93E056D0319743
:10476000D9F708950C943C253197F1F70895689492
:1047700062F80895E89462F808958F939F9383E612
:1047800090E00197F1F79F918F91089580952AE02D
:1047900090E0089410F42C9802C02C9A0000EDDFF1
:1047A000ECDF969587952A95A9F708950E94D92759
:1047B000802D11F0EBDFFACF08958DE0E7DF8AE07E
:1047C000E5CFA0E4B5E08D91882311F0DFDFFBCFCA
:1047D00008958F939F9383E690E00197F1F79F915F
:1047E0008F9108951B9B02C08827089529E01B998B
:1047F000FECFEFDFEEDFEDDF88941B9908942A955A
:1048000019F087959795F6CF0895EF93FF93EE27CC
:10481000E82BE92B31F0EAEFF0E03197F1F701975F
:10482000D1F7FF91EF9108958DE207FD8D938F2DC4
:10483000881F802F881F8F57082F6894F7F8802FC4
:1048400087FF15C080958395082F80E38D938EE2B6
:104850008D93802F815228F080E38D9399279C932C
:10486000089544270A95802F09F196D01FC08052E1
:1048700030F09EE49D9381E48D939D93EFCF442788
:10488000DF92EF92FF920F938FE1801B11F0082FC0
:1048900083D089D09EE29D930F91FF90EF90DF909F
:1048A00044270395003209F4D7CF2BD03F93E8E398
:1048B000F9E438E12F2D1E2D0D2DFF24EE24DD24EB
:1048C0004427000F111F221FA8F42F923F920E942D
:1048D000D927102C0E94D927202C0E94D927302CB0
:1048E0000E94D9273197410DD21CE31CF01C3F9048
:1048F0002F9001C0339631963A9519F73F9107D022
:10490000AFCFDD0CEE1CFF1C0A95D9F708950027E8
:1049100019E058D08F93802B11F0039501C08F912F
:104920001A95B9F7802F882309F496CF8F91805D6F
:104930008D930A95D9F792CF0065CD1D80B2E60E12
:1049400040597307A0ACB90350D6DC01286BEE00C8
:1049500094357700CA9A3B0065CD1D00B2E60E0083
:1049600059730700ACB90300D6DC01006BEE000000
:10497000357700009A3B0000CD1D0000E60E0000D8
:1049800073070000B9030000DC010000EE00000026
:10499000770000003B000000F694E794D794479519
:1049A0000A95D1F7089500270DD08F9303958F2D89
:1049B0008E298D29842BC1F78F91805D8D930A9567
:1049C000D9F74CCF1F930F93002710E2440FDD1C43
:1049D000EE1CFF1C001F802F9AE0890B10F0082F9F
:1049E00043951A9599F7802F0F911F9108952B9851
:1049F00084E699270E9405242B9A8AE099270E9431
:104A000005244198439A81E211D088EC0FD086E0CA
:104A10000DD083E10BD080E209D08CE007D008955F
:104A2000863219F481E0809334020895429801C0DF
:104A3000429A7F93439898E0880F10F4409A01C0FF
:104A4000409800000000419A0000000041989A95AB
:104A500099F7439A7F91089500E480E2E7DF802F81
:104A6000E5DF80E8E3DF882714E5E2DF1A95E9F760
:104A70000395063491F7089520913402213069F4AA
:104A8000282F203808F02FE7206881E2CFDF822F1F
:104A9000CDDF80E0809334020895EF93FF9350912F
:104AA00003015F9370900401E0910101F091020114
:104AB0000E94D927202D0E94D927302D0E94D92766
:104AC000002D0E94D927602D8052482F0E9429294D
:104AD000E40FF51FCC241124E22E603059F1DD24BF
:104AE000DA94CD2CFF24032F0E94D92721F00A95B8
:104AF000E00FF11D03C0F3940A95B1F7FD1408F41B
:104B0000DF2CEA9479F7E22EFF24032F3197C89522
:104B1000002021F00A95E01BF10903C0F3940A95E7
:104B2000A9F7FC1408F4CF2CEA9471F7D31611F40A
:104B3000D62ECC2470920401732F7C19409104016D
:104B4000509103015F930E94E7255F91603041F02F
:104B5000DD2031F05D2D0E94D9275A95E1F77D19AE
:104B60000E94D927802D50910501552309F0809589
:104B700040910401453514F40E9418255091040118
:104B80005395509304017A9559F7EC0DF11D60305F
:104B900081F050910501762F8827552309F08095E3
:104BA0000E9418257A95C1F750910401560F509331
:104BB0000401509103015395509303012A9509F084
:104BC000B9CF5F9150930301FF91EF9108954A95FA
:104BD0005A9580E22BDF80E4850F28DF80E8840F80
:104BE00025CF0E9470290E94C62917FF03C08DE2BD
:104BF0008D931127003821F4E0ECFEE40C94A327F8
:104C00000F3741F4FF2019F4E6EBFEE4F7CFE2EBB7
:104C1000FEE4F4CF4A934A934A935A93BA93AA93E1
:104C2000BB270F5F02F5BB27802F0A950E94D02972
:104C30008D3E90F4E0E1FFE4A3E00E94EF2A0E94A1
:104C40005729BB1FB0FF06C070970E94EF2A0E9431
:104C5000462A3C96AA9589F7ECE0FFE40E94EF2AE9
:104C60000E94462A22C0093058F1033178F10A31F6
:104C700030F418E08BE192E9E4ECFEE42EC00A95F2
:104C80000E94D029E4E0FFE4BFEFA3E00E94EF2AF6
:104C90000E945729BB1FB0FD06C038960E94EF2A1C
:104CA0000E94462A3C97AA9589F7B095BB0F0E94AF
:104CB000C629039513E08AEF99E0F816090740F436
:104CC00013E08BE094E0E8EDFEE407C016E001C0DD
:104CD000B39583E194E2ECECFEE46A81BF3F19F402
:104CE000BB2711276260BD836A831C83A881B981B9
:104CF00060E36D93A883B9836D93081B0195AA2483
:104D0000BB246A816A7F002339F0F694E794D79434
:104D1000B794A7940A95F7CF19E000270E94EF2ACD
:104D2000CC248FEF74E0AC14B206D306E406F5068B
:104D300030F0AC18B20AD30AE40AF50A21F1881F50
:104D40007A9531F05695479537952795C794EBCFCF
:104D5000809522D041F0969508F7FE2CED2CDB2CA7
:104D6000BA2CAA24DBCF25D05D813C812B8170D069
:104D7000277021F02BD06CD0E8F301C03CD04CD090
:104D800078D0269608958894881F7A95E9F78095BB
:104D900003D049F38827FCCF806360FD06C08033D1
:104DA00011F0616002C0039561FD8D9360FD1A955D
:104DB000089599278E919C9385338E9108F0839561
:104DC0008A3308F080E38C93C0F70895732F720F35
:104DD00061FF701B0AD01296785019F050F38E9331
:104DE00080E38E937150EAF70895A881B981A70FE7
:104DF0008827B81F089579E061FD700FF6DF48E05D
:104E0000431B400F8AF381F399274A9569F38E91EA
:104E1000803351F79C93F9CF732F61FF701B73950B
:104E2000A881B981EA2FFB2F11978191803361FF0F
:104E300009F08D937A9511F48EE28D9381918823F8
:104E4000C1F7772311F480E38D9388278C9308951D
:104E5000889462FD0895002359F4A881B9818C914A
:104E6000803331F0552321F053953350646008941A
:104E700008955523E9F085E48D931AF48DE28D931E
:104E80005195652F660F560F5A3010F060E503D02C
:104E900068E001D0DACF8FEF74E0561708F0561BA8
:104EA000881F7A9511F06695F8CF809580638D9371
:104EB00008954E414E00496E66696E69747900002E
:104EC000302E300000404B4C0020A107000050C3A2
:104ED000000088130000F40100000032000000050B
:104EE00000008000CCCCCC0C14AE47019CC4200048
:104EF000DC460300E353000063080000D700000015
:104F0000150000001CC25367A5D4685300247449DF
:104F100015BE9A17CCBC8C2BBD37863501911191EB
:104F200021913081089599275A924A92480E591E2C
:104F300008950F92B801469F8001479F100D569F1C
:104F4000100D0F9008950E94D9270D920020D9F7D7
:104F5000089599910027A90FB01F1197492F4A95DD
:104F60005E2F6F2FE89411274395203019F0C895D4
:104F7000802D01C080818823B9F07C917723A1F036
:104F8000781739F40EF0042F139568941196319622
:104F9000EBCF112321F0411BA11B1127B10BE8948A
:104FA000E52FF62F1196E0CF882311F00027089502
:104FB0000895C89531960020089591E005C092E0CB
:104FC00003C094E001C098E0F4DF0D929A95E1F7F8
:104FD000089599278D9193958823E1F793951196DC
:104FE0008C9311978E919A95D1F70895EA2FFB2F04
:104FF00000244C918D9103948E32E1F711248D9110
:1050000013948823E1F71A94101640F41197202F77
:105010002119239580E38D932A95E9F7113039F50D
:105020009927AE2FBF2FA00DB91FA00FB91F8C91CC
:105030009C93853308F421C031E08E918E32E9F3E0
:105040008D3241F0830F8A3319F480E331E001C0DF
:1050500033278C93AE1789F7332341F0AE2FBF2F40
:10506000B8DF81E34D3209F43196808308958827B3
:10507000E00DF81FE00FF81F80830895040F151F3F
:10508000261F371F0895000F111F221F331F089579
:1050900000951095209530950F5F1F4F2F4F3F4F74
:1050A0000895019110810FC00E948E270EC00E94AA
:1050B0008E2710C00191108117FF05C03FEF2FEF21
:1050C00004C0008111272227332737FF03C0E0DF08
:1050D0008DE28D93CF92DF92EF92AA24BB24CC2451
:1050E000DD24EE2440E2EAE0FF2755E093E38081EF
:1050F000890F87FD9F7083FD907F891B81935A954F
:10510000A9F7C1DFAA1CBB1CCC1CDD1CEE1C4A95F8
:1051100051F7E894EFE0FF2782910CD0EB30E0F7F5
:105120001EF068948A2D0AD088278D93EF90DF9027
:10513000CF900895982F829501D0892F8F70805D30
:1051400026F0803309F4089568948D93089500271C
:105150001127222733271DD08A3328F4803318F0F3
:1051600005D015D0F9CF0EF493CF089580538F93C7
:10517000402F512F622F732F86DF85DF7FDF83DF84
:105180008F919927080F191F291F391F08958D9195
:105190000895E894FCDF8032E9F38B32D9F389304B
:1051A000C9F38D3211F46894F2CF089588278D9356
:1051B000089581918D938823E1F7089594E081917A
:1051C0008D939A95E1F7089509919191992351F062
:1051D0008A95D9F73197002329F081918D930A950B
:1051E0008823C9F7E3CFF999FECFE1BDF2BD31962F
:1051F000089591E001C092E07B3751F47FB7F894B5
:10520000F2DF8D9180BDFA9AF99A9A95C9F77FBF1E
:1052100077270895E8DF8D917B3729F480BDFA9ACE
:10522000F99A8823B9F77727089591E001C092E0B1
:10523000DADFF89A80B58D939A95D1F70895D3DF88
:10524000F89A80B58D93882319F09A95C1F79D93AC
:105250000895FF935527F8E0469508F4500F5795A9
:105260004795FA95D1F7FF910895689401C0E894A5
:10527000AF93BF938D9116F0919103C00E94D927EF
:10528000902D891718F011F48823A1F7BF91AF91E1
:105290000895B7FE089590E8B91611F4D0FE089568
:1052A0009FEFD91AE90AF90A09F4039508950F92B4
:1052B0008F939F93D216E306F4060FB680E890E82A
:1052C000802795270FBE890739F00FB6892B87FDF8
:1052D00002C081E008260FBE9F918F910F90089524
:1052E000D190E190F19001910895219131914191F6
:1052F00051910895502F2D2D3E2D4F2D612F089542
:10530000EFDF992711278F2D880F80E8F82A802F4B
:10531000881F08F41FEF41F08F57082F07FD04C0C6
:10532000003240F08FEF01C08827982FD82EE82E4A
:10533000F82E09C08FE1801B082FF694E794D794CC
:1053400097950A95D1F7112351F09095D094E09458
:10535000F09481E0980F8827D81EE81EF81E0F2DC4
:10536000FE2CED2CD92E0895D094E094F09491E089
:10537000D90E9927E91EF91E10950895652F90E81A
:10538000440F551F5927990F47956078102F90E8C3
:10539000FF0C001F0927990FF79410780038089523
:1053A000FF0C90E89027110F9795F794092F089517
:1053B0002DEC3CEC4CEC5DE366270FC091DF9ADFEF
:1053C000DD24EE2490E8F92E0FE307C08EDF05C040
:1053D0002227332740E251E46627552351F1002369
:1053E00081F1CCDF71F11627005850580894050B55
:1053F00018F407FD03C025C007FD23C04695379567
:105400002795F694E794D79425D0FF202AF0DD0C59
:10541000EE1CFF1C015073F09D2D969548F0DD2089
:105420003AF4EE202AF491E0D90E9927E91EF91EEC
:10543000B7CF07C09FE7092FF92A9FEFD92EE92E92
:105440000895DD24EE24FF240027112708950FE797
:105450009FEFF2CF9F929924AA24BB2488E1D21611
:10546000E306F40628F0D21AE30AF40A089401C00D
:105470008894991CAA1CBB1CDD0CEE1CFF1C8A9591
:1054800071F7D92CEA2CFB2C9F90089577DFD9F087
:105490005038C9F016270058952F90580894091FC6
:1054A00012F418F40EC008F00EC00FD0FF202AF03E
:1054B000BB0CDD1CEE1CFF1C02C0039513F0E9DEE3
:1054C0006FCF0C941A2A0C94212A9F92FF92EF928C
:1054D0008D2DFF24EE24DD24BB2493E0849F100156
:1054E000829FB00CD11CE21CF31C839FD00CE11CEA
:1054F0002224F21C9A9531F0BD2CDE2CEF2CFF24D7
:105500008F91ECCF9F900895F0DE38DF503829F06E
:1055100090E869270CC00AF045D042CF5FE322270C
:105520003327442701C0E1DE29DF5038B1F30038CA
:1055300099F3902F951B8BF312F434D0FACF983156
:1055400018F0222733274427983028F0232F342FB0
:1055500044279850F9CF992329F0469537952795F8
:105560009A95D9F7912F962742F014D0B0F6F79478
:10557000E794D7940F5F8BF65DCF10D051F008F40D
:10558000F3DEFF2052F2DD0CEE1CFF1C0150CBF7C6
:1055900051CF57CFD20EE31EF41E0895D21AE30A5C
:1055A000F40A0895DF92EF92FF920F931F93D22E89
:1055B000E32EF42E052F162F6F915F914F913F919F
:1055C0002F9108950E94D927D02C0E94D927E02C32
:1055D0000E94D927F02C0E94D927002D08950E94FF
:1055E000D927202D0E94D927302D0E94D927402D60
:1055F0000E94D927502D08950E94BA2388278A93A4
:105600008A931FDF11278D918032E9F31197BBD068
:1056100098F08D3229F4109511968C91B4D060F0E9
:105620008E3229F411968C91AED008F446C02296A1
:105630000E94B72381E008958C91A5D0D8F51196EA
:1056400046D0D0F703958D919ED0E0F38E3229F4A9
:105650008C9199D010F41196FBCF853419F08536D2
:1056600009F055C011968C918ED060F08D3219F0F2
:105670008B3221F0DCCF08800094088211968C9147
:1056800082D0A8F68053898311968C917CD058F4EF
:105690009981990F990F0980900D990F8053890F67
:1056A0008983873220F68981988199230AF481952C
:1056B000080F2DC08E3289F611968C9164D068F651
:1056C00006D018F011960A95F8CF1196C1CF4F2D3C
:1056D0003E2D2D2DDD0CEE1CFF1CA8F0DD0CEE1C6C
:1056E000FF1C88F0D20EE31EF41E68F0DD0CEE1CE9
:1056F000FF1C48F0805309F06894D80E8827E81EF4
:10570000F81E08F00895F42EE32ED22E089534D01A
:1057100019F116F5098308E921D0069588278795A0
:105720009F2D9F77980FF92E0150000F110F0795AD
:105730008981882379F01AF48195898306C038DE3F
:1057400089818A958983D9F705C042DE89818A9546
:105750008983D9F72296089574DEFCCF0DD041F0ED
:10576000FF2032F00A9531F0DD0CEE1CFF1CD2F761
:10577000889408950894089500240D280E280F2871
:10578000002A00200895803320F08A3310F4089412
:105790000895889408958000B149E073B0493C1C95
:1057A000884A00C8AF4900401C466043844A000054
:1057B000FA420000000000008642CDCC8F42CDCCE2
:1057C000944200009A4266669F420000A542CDCCFA
:1057D000AA420000B1420000B7429A99BD42CDCC26
:1057E000C2420000C8420000CF426666D642CDCC1D
:1057F000DD429A99E5429A99ED420000F6429A9963
:10580000FE42CDCC034300800843CD4C0D433333DF
:1058100012436666174333B31C433333224366E6B1
:105820002743CDCC2D4333B3334333333A43CDCC2D
:10583000404300804B4333B352439A195A4333B326
:1058400061439A996943CDCC7143CD4C7A430000B2
:105850002A43B07BB0496887B049D046B149A04ED1
:10586000B149F094B14900007A440050C347361D55
:10587000884A301E884A2A1F884A2420884A1E21C6
:10588000884A1822884A1223884A0C24884A062506
:10589000884A0026884AFA26884AF427884AEE2849
:1058A000884AE829884AE22A884A3333F3400000CC
:1058B000B040CDCCCC3F9A99193F0093A349408981
:1058C000954A003FB149CD8CD8430000803F9A995A
:1058D000D8430000004066A6D8430000404033B3E0
:1058E000D8430000804000C0D8430000A0403030C2
:1058F000303000004452413831385F555331322E38
:10590000424153005648462F5548462054525800AD
:10591000415820656C656B74726F6E696B61000035
:105920005665722E20003030303100003030303279
:105930000000303030330000303030340000303080
:105940003035000030303036000030303037000065
:1059500030303038000030303039000030303130F5
:105960000000303031310000303031320000303052
:105970003133000030303134000030303135000038
:1059800030303136000030303137000030303138BF
:10599000000030303139000030303230000030301B
:1059A000323100003030323200003030323300000B
:1059B0003030323400003030323500003030323692
:1059C00000003030323700003030323800003030E4
:1059D00032390000303033300000303033310000D5
:1059E0003030333200003030333300003030333465
:1059F00000003030333500003030333600003030B6
:105A0000333700003030333800002053494D504CBC
:105A10004558204D4F4445202000205245504541D7
:105A2000544552204D4F444520200000200043485B
:105A30002055000020202020202020202020202071
:105A40000000434820560000202020202020202055
:105A5000202020202020200043480000202020205B
:105A600020005458504C3D00487A2020200020450A
:105A700043484F4C494E4B2000002020202000007E
:105A80002020202020202020202020202020202016
:105A9000200020434820000020202020202020201B
:105AA0002020000041542B444D4F53455447524F42
:105AB00055503D0030002C002046524545205345AE
:105AC00054200000537465702031322C35206B480F
:105AD0007A20202000005374657020313030206B14
