:100000000C9434000C94150F0C94890F1895000073
:10001000189500001895000018950000189500002C
:10002000189500001895000018950000189500001C
:10003000189500001895000018950000189500000C
:1000400018950000189500001895000018950000FC
:1000500018950000189500001895000018950000EC
:1000600018950000189500008FEF8DBFC0ECE8E5F3
:100070004E2E88E08EBFD7E0F5E05F2EA89584B7BE
:10008000082E877F84BF88E1992780936000909332
:100090006000EEEFF7E0A0E0B1E088278D933197A4
:1000A000E9F78CE08093C40080E08093C50088E18C
:1000B0008093C10072E07093C000662470910001CB
:1000C0007F7770930001239A3B9A3A9A389A399A2B
:1000D0000E9483240E9483240E94B82481E20E940B
:1000E000A2248EEB0E94A22481E080930601249A30
:1000F0002C9A23987894709100017062709300019B
:10010000A5ECB1E0EEEAF6E50E946D27ADECB1E0BA
:10011000E2EBF6E50E946D27A1ECB1E0EEEAF6E530
:100120000E946D27A5EDB1E0E6EBF6E50E946D2794
:10013000ADEDB1E0EAEBF6E50E946D27EEEBF6E5FA
:100140000E947B2AE1ECF1E00E94FC280E947929C0
:10015000EDE0F0E0A1ECB1E00E946A28A5EEB1E08C
:10016000E2ECF6E50E946D27709100017F7E7093AE
:10017000000170910001777F70930001AEEEB1E055
:10018000EAEEF7E50E942F27A3EFB1E0EAEEF7E5EC
:100190000E942F27ECE7F3E0A0E1B0E00E94A12845
:1001A0000A3018F011F00C94D7000C94E000ECE742
:1001B000F3E0A0E1BB2781E08C937BE70E948528D8
:1001C000ECE7F3E0A8EFB1E00E94A12880E1809382
:1001D000F90181E08093FA0181E08093FB0188E0DE
:1001E0008093FC01E0E8F3E0A0E1B0E00E94A128E8
:1001F0000A3018F011F00C94FF000C940801E0E8AC
:10020000F3E0A0E1BB2788E08C937BE70E94852880
:10021000E0E8F3E0ADEFB1E00E94A12870910001A9
:100220007B7F70930001559A569A709100017E7FF2
:1002300070930001209A289AA2E0B2E0E6ECF6E57D
:100240000E946D2700E010E020E030E0AEEFB1E06A
:100250000D931D932D933C9381E080930902E1E877
:10026000F3E0A0E1B0E00E94A1280A3018F011F0FC
:100270000C943C010C944501E1E8F3E0A0E1BB27BC
:1002800081E08C937BE70E94852881E080930702C0
:1002900083E08093080283E08093B501E1E8F3E016
:1002A000A6E0B2E00E94A12870910A027F777093C5
:1002B0000A0280E080930B028CE00E949C24EAE416
:1002C000FEE3A1E0B1E0ED93FC9381E080930301B4
:1002D0008AE080930401882780930501E0EFF7E529
:1002E0000E943123E6E0F9E3A1E0B1E0ED93FC9355
:1002F00084E08093030181E0809304018827809348
:100300000501ECEFF7E50E9431238FEA80930C02A0
:1003100000910C02033C18F011F00C94A20181E250
:100320000E94A22480910C020E94A22488EC90E0FA
:100330000E949123ACE0B2E08C918F5F8C9310F41B
:100340000C948801E2E0F0E00E9438230E948324AC
:100350000E94B82481E20E94A22483EC0E94A2247D
:100360000E94AD155398529854985C9A5A9A5B9A89
:1003700022981A9A70910A027B7F70930A027091F8
:100380000A02726070930A0270910A027E7F709373
:100390000A0224981C9A579A5F9A0E94401581E09D
:1003A00085BD80E084BD7894809169008C7F8260F7
:1003B0008093690080916900837F886080936900E1
:1003C000E99AE89A0E94B824E0EAF0E0A0E1B0E0FF
:1003D0000E94A1280F3F11F00C94F30185E0809357
:1003E00006020C94F60181E0809306027091680089
:1003F0007460709368007CE170936D007091680088
:1004000071607093680070916B00706170936B0005
:1004100070910A02786070930A020E946E15EEEBEA
:10042000F6E50E947B2AEDEDF1E00E94FC280E9497
:100430007929EDE0F0E0A1EEB1E00E946A281C9974
:100440000C9425025F980C9426025F9A709100012B
:100450007D7F709300010E940316A3E2B0E00C912F
:1004600004FB81E00EF080E08F93A0E0B1E08C917E
:1004700082FB81E00EF080E09F918923882311F4B4
:100480000C945002709100017B7F7093000184EF07
:1004900091E00E94912370910A02786070930A02A1
:1004A0005498A1E1B2E09C9197FF04C04C9B10C00E
:1004B0009F779C934C990CC089E19F9390E00E9498
:1004C00091239F914C9904C090689C930E9494152D
:1004D00000910602013011F00C948B07709100011D
:1004E0007F7E70930001A6E0B1E0BA93AA930E94C8
:1004F000CD17229600912001013011F00C94850255
:10050000709100017F7E7093000100912001023004
:1005100011F00C94900270910001706170930001D1
:10052000A0E0B1E08C9184FB16F00C940D03E7E0A1
:10053000F1E00E94FC28EAECF6E50E947B2A0E948A
:10054000E32818F011F00C94A7020C94DB02E7E00A
:10055000F1E0A9ECB1E00E946A280091200102308C
:1005600011F00C94C502EEECF6E50E947B2AE9EC52
:10057000F1E00E94FC280E94112AEDE0F0E0A9ECD5
:10058000B1E00E946A280C94D902033011F00C9457
:10059000D902EEECF6E50E947B2AE9ECF1E00E943C
:1005A000FC280E94202AEDE0F0E0A9ECB1E00E94D6
:1005B0006A280C940D03E7E0F1E0A9ECB1E00E9499
:1005C0006A2800912001023011F00C94F902E2ED4A
:1005D000F6E50E947B2AE9ECF1E00E94FC280E94EB
:1005E000112AEDE0F0E0A9ECB1E00E946A280C9439
:1005F0000D03033011F00C940D03E2EDF6E50E94BB
:100600007B2AE9ECF1E00E94FC280E94202AEDE020
:10061000F0E0A9ECB1E00E946A2800910B010030E3
:1006200011F00C942103ACE0B1E0E6EDF6E50E9498
:100630006D27AEEEB1E0EAEEF7E50E942F270C94AD
:10064000CB05013011F00C943303ACE0B1E0EAEDDE
:10065000F6E50E946D27AEEEB1E0ECE0F8E50E9411
:100660002F270C94CB05023011F00C944503ACE01D
:10067000B1E0EEEDF6E50E946D27AEEEB1E0E2E10D
:10068000F8E50E942F270C94CB05033011F00C9451
:100690005703ACE0B1E0E2EEF6E50E946D27AEEE66
:1006A000B1E0E8E1F8E50E942F270C94CB05043077
:1006B00011F00C946903ACE0B1E0E6EEF6E50E94BF
:1006C0006D27AEEEB1E0EEE1F8E50E942F270C9425
:1006D000CB05053011F00C947B03ACE0B1E0EAEE01
:1006E000F6E50E946D27AEEEB1E0E4E2F8E50E9487
:1006F0002F270C94CB05063011F00C948D03ACE041
:10070000B1E0EEEEF6E50E946D27AEEEB1E0EAE272
:10071000F8E50E942F270C94CB05073011F00C94BC
:100720009F03ACE0B1E0E2EFF6E50E946D27AEEE8C
:10073000B1E0E0E3F8E50E942F270C94CB050830E8
:1007400011F00C94B103ACE0B1E0E6EFF6E50E94E5
:100750006D27AEEEB1E0E6E3F8E50E942F270C949A
:10076000CB05093011F00C94C303ACE0B1E0EAEF23
:10077000F6E50E946D27AEEEB1E0ECE3F8E50E94ED
:100780002F270C94CB050A3011F00C94D503ACE064
:10079000B1E0EEEFF6E50E946D27AEEEB1E0E2E4E7
:1007A000F8E50E942F270C94CB050B3011F00C9428
:1007B000E703ACE0B1E0E2E0F7E50E946D27AEEEC2
:1007C000B1E0E8E4F8E50E942F270C94CB050C304B
:1007D00011F00C94F903ACE0B1E0E6E0F7E50E941B
:1007E0006D27AEEEB1E0EEE4F8E50E942F270C9401
:1007F000CB050D3011F00C940B04ACE0B1E0EAE055
:10080000F7E50E946D27AEEEB1E0E4E5F8E50E9461
:100810002F270C94CB050E3011F00C941D04ACE086
:10082000B1E0EEE0F7E50E946D27AEEEB1E0EAE55B
:10083000F8E50E942F270C94CB050F3011F00C9493
:100840002F04ACE0B1E0E2E1F7E50E946D27AEEEE7
:10085000B1E0E0E6F8E50E942F270C94CB050031CB
:1008600011F00C944104ACE0B1E0E6E1F7E50E9440
:100870006D27AEEEB1E0E6E6F8E50E942F270C9476
:10088000CB05013111F00C945304ACE0B1E0EAE186
:10089000F7E50E946D27AEEEB1E0ECE6F8E50E94C8
:1008A0002F270C94CB05023111F00C946504ACE0B9
:1008B000B1E0EEE1F7E50E946D27AEEEB1E0E2E7D0
:1008C000F8E50E942F270C94CB05033111F00C940E
:1008D0007704ACE0B1E0E2E2F7E50E946D27AEEE0E
:1008E000B1E0E8E7F8E50E942F270C94CB0504312E
:1008F00011F00C948904ACE0B1E0E6E2F7E50E9467
:100900006D27AEEEB1E0EEE7F8E50E942F270C94DC
:10091000CB05053111F00C949B04ACE0B1E0EAE2A8
:10092000F7E50E946D27AEEEB1E0E4E8F8E50E943D
:100930002F270C94CB05063111F00C94AD04ACE0DC
:10094000B1E0EEE2F7E50E946D27AEEEB1E0EAE835
:10095000F8E50E942F270C94CB05073111F00C9479
:10096000BF04ACE0B1E0E2E3F7E50E946D27AEEE34
:10097000B1E0E0E9F8E50E942F270C94CB0508319F
:1009800011F00C94D104ACE0B1E0E6E3F7E50E948D
:100990006D27AEEEB1E0E6E9F8E50E942F270C9452
:1009A000CB05093111F00C94E304ACE0B1E0EAE3CB
:1009B000F7E50E946D27AEEEB1E0ECE9F8E50E94A4
:1009C0002F270C94CB050A3111F00C94F504ACE000
:1009D000B1E0EEE3F7E50E946D27AEEEB1E0E2EAAA
:1009E000F8E50E942F270C94CB050B3111F00C94E5
:1009F0000705ACE0B1E0E2E4F7E50E946D27AEEE5A
:100A0000B1E0E8EAF8E50E942F270C94CB050C3101
:100A100011F00C941905ACE0B1E0E6E4F7E50E94B2
:100A20006D27AEEEB1E0EEEAF8E50E942F270C94B8
:100A3000CB050D3111F00C942B05ACE0B1E0EAE4EC
:100A4000F7E50E946D27AEEEB1E0E4EBF8E50E9419
:100A50002F270C94CB050E3111F00C943D05ACE022
:100A6000B1E0EEE4F7E50E946D27AEEEB1E0EAEB0F
:100A7000F8E50E942F270C94CB050F3111F00C9450
:100A80004F05ACE0B1E0E2E5F7E50E946D27AEEE80
:100A9000B1E0E0ECF8E50E942F270C94CB05003282
:100AA00011F00C946105ACE0B1E0E6E5F7E50E94D9
:100AB0006D27AEEEB1E0E6ECF8E50E942F270C942E
:100AC000CB05013211F00C947305ACE0B1E0EAE51E
:100AD000F7E50E946D27AEEEB1E0ECECF8E50E9480
:100AE0002F270C94CB05023211F00C948505ACE055
:100AF000B1E0EEE5F7E50E946D27AEEEB1E0E2ED84
:100B0000F8E50E942F270C94CB05033211F00C94CA
:100B10009705ACE0B1E0E2E6F7E50E946D27AEEEA6
:100B2000B1E0E8EDF8E50E942F270C94CB050432E4
:100B300011F00C94A905ACE0B1E0E6E6F7E50E94FF
:100B40006D27AEEEB1E0EEEDF8E50E942F270C9494
:100B5000CB05053211F00C94BB05ACE0B1E0EAE640
:100B6000F7E50E946D27AEEEB1E0E4EEF8E50E94F5
:100B70002F270C94CB05063211F00C94CB05ACE07A
:100B8000B1E0EEE6F7E50E946D27AEEEB1E0EAEEE9
:100B9000F8E50E942F271C990C94D1055F980C94BE
:100BA000D2055F9A0E940316A3E2B0E00C9104FB09
:100BB00081E00EF080E08F93A0E0B1E08C9182FBA9
:100BC00081E00EF080E09F918923882311F40C943A
:100BD000F705709100017B7F7093000184EF91E035
:100BE0000E94912370910A02786070930A02F8942F
:100BF000E6E0F9E3A1E0B1E0ED93FC93A0E0B1E021
:100C00008C9184FB16F40C94140681E0809303010C
:100C100085E08093040181E080930501E0EFF8E531
:100C20000E9431230C94210681E08093030181E02E
:100C30008093040181E080930501E0E0F9E50E94E2
:100C40003123EAE4FEE3A1E0B1E0ED93FC9383E01D
:100C50008093030182E0809304018827809305013B
:100C6000A0E4B5E0E7E0F1E0552744E00E947D25EF
:100C70000E942923E2E1F9E50E943123A0E0B1E0DE
:100C80008C9184FB16F00C947A061C9B0C946106E4
:100C900083E08093030182E080930401882780939E
:100CA0000501A0E4B5E0E7E0F1E0552744E00E944B
:100CB0007D250E942923E2E1F9E50E9431230C946D
:100CC000780683E08093030182E080930401882703
:100CD00080930501A0E4B5E0E9ECF1E0552744E09C
:100CE0000E947D250E942923E2E1F9E50E9431233B
:100CF0000C94910683E08093030182E080930401C9
:100D0000882780930501A0E4B5E0E7E0F1E05527EE
:100D100044E00E947D250E942923E2E1F9E50E943A
:100D200031235498A1E1B2E09C9197FF04C04C9B01
:100D300010C09F779C934C990CC089E19F9390E0E1
:100D40000E9491239F914C9904C090689C930E94AB
:100D50009415E6E0F9E3A1E0B1E0ED93FC93A0E0A7
:100D6000B1E08C9184FB16F40C940907E7E0F1E004
:100D70000E94FC28EAECF6E50E947B2A0E94E32808
:100D800018F011F00C94C6060C94E10686E08093EE
:100D9000030182E080930401882780930501E4E148
:100DA000F9E50E943123A0E4B5E0EEE1F1E00E9414
:100DB000E6270E942923EAE1F9E50E9431230C94F9
:100DC000FA0686E08093030182E08093040188277D
:100DD00080930501E8E2F9E50E943123A0E4B5E043
:100DE000EEE1F1E00E94E6270E942923EAE1F9E51D
:100DF0000E94312385E08093030182E08093040107
:100E0000882780930501EEE2F9E50E9431230C94D6
:100E1000550786E08093030182E0809304018827D0
:100E200080930501EEE3F9E50E943123A0E4B5E0EB
:100E3000EEE1F1E00E94E6270E942923E2E1F9E5D4
:100E40000E943123A0E1B1E00E942B23E2E4F9E506
:100E50000E943123A0E4B5E0AF93BF93ECE0F1E052
:100E60000E94FC280E94A02311E001E0BF91AF91F5
:100E70000E948227E0E4F5E0A6EBB1E00E9465283D
:100E800085E08093030182E08093040188278093AA
:100E90000501E8E4F9E50E943123A6EBB1E00E94E8
:100EA0002B23E0E5F9E50E9431237894AAE0B2E033
:100EB0008C9183FB16F00C947007E7E0F1E0ADEB4A
:100EC000B1E00E946A28A0E0B1E08C9184FB16F4A6
:100ED0000C946E070E945A0E0C9470070E94A70E85
:100EE0000E941F23AAE0B2E08C9182FB16F00C94C2
:100EF0007E0773B7707F756073BF8895AAE0B2E014
:100F00008C9182FB882780F9809580FBAAE0B2E073
:100F10008C9182F98C9300910602023011F00C94AE
:100F2000B908E6E0F9E3A1E0B1E0ED93FC9381E0DC
:100F30008093030185E08093040181E080930501A3
:100F4000E6E5F9E50E943123E2E4F9E50E94312368
:100F5000EEEBF6E50E947B2AEDECF1E00E94FC2826
:100F60000E947929EDE0F0E0A1EDB1E00E946A284D
:100F7000EAE4FEE3A1E0B1E0ED93FC9383E080932B
:100F8000030182E080930401882780930501A0E497
:100F9000B5E0E1EDF1E0552744E00E947D250E9497
:100FA0002923E6E0F9E3A1E0B1E0ED93FC93F894A6
:100FB00085E08093030182E0809304018827809379
:100FC0000501E2E6F9E50E94312386E08093030102
:100FD00082E080930401882780930501E4E7F9E526
:100FE0000E943123A0E4B5E0EAEFF1E00E94ED2792
:100FF0000E942923EAE7F9E50E94312378940091C1
:10100000FA01013011F00C940F08ADECB1E0E2EB05
:10101000F6E50E946D270C9453080C946908023081
:1010200011F00C941D08ADECB1E0E2E7F7E50E9489
:101030006D270C9453080C946908033011F00C943C
:101040002B08ADECB1E0E6E7F7E50E946D270C94C4
:1010500053080C946908043011F00C943908ADEC75
:10106000B1E0EAE7F7E50E946D270C9453080C9471
:101070006908053011F00C944708ADECB1E0EEE7DB
:10108000F7E50E946D270C9453080C94690806300C
:1010900011F00C946908ADECB1E0E2E8F7E50E94CC
:1010A0006D270C945308AEEEB1E0E2E7F8E50E943C
:1010B0002F27EEEBF6E50E947B2AEDECF1E00E9493
:1010C000FC280E947929EDE0F0E0A1EDB1E00E945A
:1010D0006A28AAE0B2E08C9183FB16F00C94B90860
:1010E00070910A02777F70930A020E944015E6E829
:1010F000F9E50E941823E6E9F9E50E941823E8E9DA
:10110000F9E50E941823A0E4B5E0E1EDF1E05527F0
:1011100044E00E947D250E941023E8E9F9E50E9441
:101120001823A0E4B5E0E1EDF1E0552744E00E948A
:101130007D250E941023E8E9F9E50E941823AEEE10
:10114000B1E00E941223E8E9F9E50E941823A0E427
:10115000B5E0E8EFF1E00E94ED270E941023E8E9F6
:10116000F9E50E941823A3EFB1E00E9412230E9428
:101170001F2300910602033011F00C94CA0A0E944A
:10118000B824E6E0F9E3A1E0B1E0ED93FC9381E05F
:101190008093030187E08093040181E0809305013F
:1011A000EAE9F9E50E9431231C990C94DA085F986A
:1011B0000C94DB085F9A0E9403165498A1E1B2E0F8
:1011C0009C9197FF04C04C9B10C09F779C934C99B7
:1011D0000CC089E19F9390E00E9491239F914C99CC
:1011E00004C090689C930E94B815EAE4FEE3A1E075
:1011F000B1E0ED93FC931C9B0C94130983E0809366
:10120000030182E080930401882780930501A0E414
:10121000B5E0E1ECF1E0552744E00E947D250E9415
:1012200029230C94260983E08093030182E08093B4
:101230000401882780930501A0E4B5E0E1EEF1E028
:10124000552744E00E947D250E942923E6E0F9E32A
:10125000A1E0B1E0ED93FC9300910702013011F0A1
:101260000C944709A2E0B2E0E6ECF6E50E946D2797
:1012700086E08093030182E08093040188278093B5
:101280000501E6EAF9E50E9431230C949009023049
:1012900011F00C946009A2E0B2E0E6E8F7E50E94E4
:1012A0006D2786E08093030182E080930401882704
:1012B00080930501E8EBF9E50E9431230C94900935
:1012C000033011F00C947909A2E0B2E0EEEBF6E500
:1012D0000E946D2786E08093030182E080930401E1
:1012E000882780930501E8ECF9E50E9431230C94EE
:1012F0009009043011F00C949009A2E0B2E0EAE801
:10130000F7E50E946D2786E08093030182E08093D9
:101310000401882780930501E8EDF9E50E94312357
:101320000091B501013011F00C94AD09F894A9EECB
:10133000B1E0EEE1F8E50E942F2785E080930301FC
:1013400082E080930401882780930501EAEEF9E5A5
:101350000E94312378940C94E109023011F00C942E
:10136000C809F894A9EEB1E0E2E7F8E50E942F275A
:1013700085E08093030182E08093040188278093B5
:101380000501E8EFF9E50E94312378940C94E10916
:10139000033011F00C94E109F894A9EEB1E0EAEE03
:1013A000F7E50E942F2785E08093030182E0809378
:1013B0000401882780930501E6E0FAE50E943123C5
:1013C000789482E08093030182E08093040188276F
:1013D00080930501E2E1FAE50E943123A0E4B5E043
:1013E000E9EBF1E0552744E00E947D250E94292386
:1013F000EAE1FAE50E943123E9EBF1E00E940129DC
:10140000E1ECF1E00E94FC280E94112AEDE0F0E0FE
:10141000A1EEB1E00E946A28AAE0B2E08C9183FBC1
:1014200016F00C94860A70910A02777F70930A0274
:10143000E6E8F9E50E941823E6E9F9E50E94182399
:10144000E8E9F9E50E941823A0E4B5E0E1EEF1E057
:10145000552744E00E947D250E941023E8E9F9E524
:101460000E941823A0E4B5E0E1ECF1E0552744E048
:101470000E947D250E941023E8E9F9E50E941823C7
:10148000AEEEB1E00E941223E8E9F9E50E941823CC
:10149000A0E4B5E0E8EFF1E00E94ED270E94102300
:1014A000E8E9F9E50E941823A3EFB1E00E941223B6
:1014B0000E941F23EEE1FAE50E941823A0E4B5E0A4
:1014C000EDEFF1E00E94ED270E9410230E941F2300
:1014D000E0E3FAE50E941823A0E4B5E0ECEFF1E0C8
:1014E0000E94ED270E941023E8E9F9E50E941823E5
:1014F000E6E9F9E50E941823E8E9F9E50E941823D6
:10150000E6E9F9E50E9418230E941F230E940316B2
:101510000E941F23AAE0B2E08C9182FB16F00C948B
:10152000960A73B7707F756073BF8895AAE0B2E0C2
:101530008C9182FB882780F9809580FBAAE0B2E03D
:101540008C9182F98C93A0E0B1E08C9183FB16F032
:101550000C94D4080E9440150E94B8247091000198
:10156000777F70930001A2E0B2E0E6ECF6E50E941E
:101570006D2784E08093060281E080930902AEEE3D
:10158000B1E0EAEEF7E50E942F2770910A02786039
:1015900070930A0200910602043011F00C946D0C55
:1015A0000091FB01013011F00C94E00AA5EDB1E0CF
:1015B000E6EBF6E50E946D270C94B00B0C94C00B83
:1015C000023011F00C94EE0AA5EDB1E0EEE8F7E57B
:1015D0000E946D270C94B00B0C94C00B033011F0DB
:1015E0000C94FC0AA5EDB1E0E2E9F7E50E946D2755
:1015F0000C94B00B0C94C00B043011F00C940A0B3B
:10160000A5EDB1E0E6E9F7E50E946D270C94B00B7B
:101610000C94C00B053011F00C94180BA5EDB1E043
:10162000EAE9F7E50E946D270C94B00B0C94C00B0F
:10163000063011F00C94260BA5EDB1E0EEE9F7E5CC
:101640000E946D270C94B00B0C94C00B073011F066
:101650000C94340BA5EDB1E0E2EAF7E50E946D27AA
:101660000C94B00B0C94C00B083011F00C94420B8E
:10167000A5EDB1E0E6EAF7E50E946D270C94B00B0A
:101680000C94C00B093011F00C94500BA5EDB1E097
:10169000EAEAF7E50E946D270C94B00B0C94C00B9E
:1016A0000A3011F00C945E0BA5EDB1E0EEEAF7E51F
:1016B0000E946D270C94B00B0C94C00B0B3011F0F2
:1016C0000C946C0BA5EDB1E0E2EBF7E50E946D2701
:1016D0000C94B00B0C94C00B0C3011F00C947A0BE2
:1016E000A5EDB1E0E6EBF7E50E946D270C94B00B99
:1016F0000C94C00B0D3011F00C94880BA5EDB1E0EB
:10170000EAEBF7E50E946D270C94B00B0C94C00B2C
:101710000E3011F00C94960BA5EDB1E0EEEBF7E571
:101720000E946D270C94B00B0C94C00B0F3011F07D
:101730000C94A40BA5EDB1E0E2ECF7E50E946D2757
:101740000C94B00B0C94C00B003111F00C94C00B36
:10175000A5EDB1E0E6ECF7E50E946D270C94B00B27
:10176000EEEBF6E50E947B2AE5EDF1E00E94FC2815
:101770000E947929EDE0F0E0A9EDB1E00E946A282D
:10178000E6E0F9E3A1E0B1E0ED93FC9381E0809322
:10179000030185E08093040181E080930501EEE37D
:1017A000FAE50E943123EEEBF6E50E947B2AE5ED97
:1017B000F1E00E94FC280E947929EDE0F0E0A9ED1B
:1017C000B1E00E946A28EAE4FEE3A1E0B1E0ED9313
:1017D000FC9383E08093030182E0809304018827D7
:1017E00080930501A0E4B5E0E9EDF1E0552744E080
:1017F0000E947D250E942923E6E0F9E3A1E0B1E003
:10180000ED93FC93F89486E08093030182E080934B
:101810000401882780930501ECE4FAE50E94312356
:10182000A0E4B5E0EBEFF1E00E94ED270E94292350
:10183000E2E1F9E50E9431237894AAE0B2E08C91CC
:1018400083FB16F00C946D0C70910A02777F7093F5
:101850000A020E944015E6E8F9E50E941823E6E92D
:10186000F9E50E941823E8E9F9E50E941823A0E4AD
:10187000B5E0E9EDF1E0552744E00E947D250E94A6
:101880001023E8E9F9E50E941823A0E4B5E0E9EDAA
:10189000F1E0552744E00E947D250E941023E8E9ED
:1018A000F9E50E941823AEEEB1E00E941223E8E9A8
:1018B000F9E50E941823A0E4B5E0E8EFF1E00E940A
:1018C000ED270E941023E8E9F9E50E941823A3EF11
:1018D000B1E00E9412230E941F23009106020530EE
:1018E00011F00C94230E81E0809309020E94B82429
:1018F0000E940316F89481E08093030185E08093B1
:10190000040181E080930501E0E5FAE50E943123BE
:1019100078945498A1E1B2E09C9197FF04C04C9B4D
:1019200010C09F779C934C990CC089E19F9390E0E5
:101930000E9491239F914C9904C090689C930E94AF
:10194000881300910902013011F00C94E00C83E03F
:101950008093030182E0809304018827809305012E
:10196000EAE5FAE50E943123A0E4B5E0E8EFF1E012
:101970000E94ED270E942923E4E6FAE50E94312324
:1019800085E08093030182E080930401882780939F
:101990000501ECE6FAE50E943123EAE7FAE50E9448
:1019A000312386E08093030182E08093040188273D
:1019B00080930501EEE7FAE50E9431230C94120EA4
:1019C000023011F00C940C0D83E08093030182E04F
:1019D00080930401882780930501ECE8FAE50E94D2
:1019E0003123A0E4B5E0EDEFF1E00E94ED270E9485
:1019F0002923E4E6FAE50E94312386E0809303017F
:101A000082E080930401882780930501EEE7FAE5E0
:101A10000E9431230C94120E033011F00C946A0DC5
:101A200083E08093030182E0809304018827809300
:101A30000501E6E9FAE50E9431230091B501013084
:101A400011F00C94380DA9EEB1E0EEE1F8E50E943A
:101A50002F2786E08093030182E08093040188278A
:101A600080930501EAEEF9E50E9431230C94680D9C
:101A7000023011F00C94510DA9EEB1E0E2E7F8E567
:101A80000E942F2786E08093030182E08093040167
:101A9000882780930501E8EFF9E50E9431230C9433
:101AA000680D033011F00C94680DA9EEB1E0EAEE78
:101AB000F7E50E942F2786E08093030182E0809360
:101AC0000401882780930501E2EAFAE50E943123A8
:101AD0000C94120E043011F00C94C80D83E0809326
:101AE000030182E080930401882780930501E0EBE5
:101AF000FAE50E94312300910802013011F00C94A4
:101B0000960DA9EBB1E0EEECF6E50E946D2786E0BC
:101B10008093030182E0809304018827809305016C
:101B2000EEEBFAE50E9431230C94C60D023011F061
:101B30000C94AF0DA9EBB1E0E2EDF6E50E946D2744
:101B400086E08093030182E08093040188278093DC
:101B50000501ECECFAE50E9431230C94C60D03302C
:101B600011F00C94C60DA9EBB1E0E6EDF6E50E948C
:101B70006D2786E08093030182E08093040188272B
:101B800080930501EAEDFAE50E9431230C94120ED0
:101B9000053011F00C94FD0D83E08093030182E089
:101BA00080930401882780930501E8EEFAE50E94FE
:101BB0003123E4E6FAE50E94312385E080930301B6
:101BC00082E080930401882780930501ECE6FAE522
:101BD0000E943123EAE7FAE50E94312386E08093F0
:101BE000030182E080930401882780930501EEE7DA
:101BF000FAE50E9431230C94120E063011F00C9479
:101C0000120E83E08093030182E080930401882711
:101C100080930501E6EFFAE50E943123E2E4F9E55D
:101C20000E943123789400910602013011F00C9447
:101C3000780C0E94B82481E08093060270910A0219
:101C40007B7F70930A025498A1E1B2E09C9197FFC8
:101C500004C04C9B10C09F779C934C990CC089E1A9
:101C60009F9390E00E9491239F914C9904C09068AB
:101C70009C930E9494150E941F23AAE0B2E08C91CD
:101C800082FB16F00C94490E73B7707F756073BFBA
:101C90008895AAE0B2E08C9182FB882780F9809534
:101CA00080FBAAE0B2E08C9182F98C930C941F0225
:101CB000F894FFCF70910A02777F70930A027091B7
:101CC0000A02746070930A02E6E8F9E50E9418239C
:101CD000E6E9F9E50E941823E8E9F9E50E941823EE
:101CE000A0E4B5E0EDEBF1E0552744E00E947D254E
:101CF0000E941023E8E9F9E50E941823A0E4B5E06A
:101D0000EDEBF1E0552744E00E947D250E94102371
:101D1000E8E9F9E50E941823AEEEB1E00E94122333
:101D2000E8E9F9E50E941823A0E4B5E0E8EFF1E066
:101D30000E94ED270E941023E8E9F9E50E9418238C
:101D4000A3EFB1E00E9412230E941F230895709117
:101D50000A02746070930A0270910A02777F70938E
:101D60000A02E6E8F9E50E941823E6E9F9E50E948F
:101D70001823E8E9F9E50E941823A0E4B5E0E9ECAE
:101D8000F1E0552744E00E947D250E941023E8E9F8
:101D9000F9E50E941823A0E4B5E0E7E0F1E055275B
:101DA00044E00E947D250E941023E8E9F9E50E94A5
:101DB0001823AEEEB1E00E941223E8E9F9E50E9493
:101DC0001823A0E4B5E0E8EFF1E00E94ED270E94BF
:101DD0001023E8E9F9E50E941823A3EFB1E00E947F
:101DE00012230E941F230895F894A0E1B2E0E89422
:101DF0004C9109B1882703FD816002FD8260841740
:101E000011F4B6F310C08C934295840F823049F0E0
:101E1000803139F0833229F0813319F00E94FD0FAF
:101E200002C00E94BF11789408950F921F922F92C2
:101E30003F924F925F927F92AF92BF920F931F9308
:101E40002F933F934F935F936F937F938F939F93C2
:101E5000AF93BF93CF93DF93EF93FF938FB78F939E
:101E6000F894A9E2B0E00C9102FB81E00EF080E072
:101E70008F93A9E2B0E00C9103FB81E00EF480E0C7
:101E80009F918923882311F40C944D0F70910A02BD
:101E9000706470930A020E94FD0FA9E2B0E00C91F9
:101EA00002FB81E00EF480E08F93A9E2B0E00C9198
:101EB00003FB81E00EF080E09F918923882311F4D9
:101EC0000C94690F70910A02706470930A020E9468
:101ED000FD0F789480E080930F028F918FBFFF9168
:101EE000EF91DF91CF91BF91AF919F918F917F91B2
:101EF0006F915F914F913F912F911F910F91BF90E3
:101F0000AF907F905F904F903F902F901F900F90D9
:101F100018950F921F922F923F924F925F927F924D
:101F2000AF92BF920F931F932F933F934F935F9363
:101F30006F937F938F939F93AF93BF93CF93DF93D1
:101F4000EF93FF938FB78F93F894A9E2B0E00C91D1
:101F500003FB81E00EF080E08F93A9E2B0E00C91EA
:101F600002FB81E00EF480E09F918923882311F425
:101F70000C94C10F70910A02706470930A020E945F
:101F8000BF11A9E2B0E00C9103FB81E00EF480E008
:101F90008F93A9E2B0E00C9102FB81E00EF080E0AB
:101FA0009F918923882311F40C94DD0F70910A020C
:101FB000706470930A020E94BF11789480E080934D
:101FC0000F028F918FBFFF91EF91DF91CF91BF9162
:101FD000AF919F918F917F916F915F914F913F91C1
:101FE0002F911F910F91BF90AF907F905F904F9076
:101FF0003F902F901F900F901895AAE0B2E08C911F
:1020000086FB16F00C94B91170910A027F7B7093D5
:102010000A02AAE0B2E08C9184FB882780F98095BF
:1020200080FBAAE0B2E08C9184F98C93A0E0B1E04F
:102030008C9181FB16F40C94391080910902815027
:102040008093090200910902003081E009F080E0EC
:102050008F93009109020F3F81E010F009F080E0BA
:102060009F918923882311F40C94391086E0809382
:1020700009020E94D51B00910602013011F00C9458
:102080005210809106018150809306010091060153
:10209000003011F00C9450108091210180930601C2
:1020A0000C940911023011F00C948B108091FA01FC
:1020B00081508093FA010091FA01003081E010F024
:1020C00009F080E08F930091FA010A3080E010F06F
:1020D00009F081E09F91892B882311F40C947910E9
:1020E00086E08093FA01ADECB1E0E2E8F7E50E940A
:1020F0006D27EEEBF6E50E947B2AEDECF1E00E9405
:10210000FC280E947929EDE0F0E0A1EDB1E00E9409
:102110006A280C940911033011F00C94D210E2E0FB
:10212000F2E00E940129E5ECF1E00E94FC280E9407
:10213000112AEDE0F0E0A5ECB1E00E946A28E5ECA0
:10214000F1E00E94FC28EAECF7E50E947B2A0E945D
:10215000E32810F00C94B210A5ECB1E0EAECF7E53E
:102160000E946D27EEEBF6E50E947B2AE5ECF1E09C
:102170000E94FC280E947929EDE0F0E0A1ECB1E09A
:102180000E946A2880910802815080930802009181
:102190000802003011F00C94D01083E08093080204
:1021A0000C940911043011F00C9409118091FB0179
:1021B00081508093FB010091FB01003081E010F021
:1021C00009F080E08F930091FB01013180E010F075
:1021D00009F081E09F91892B882311F40C94F91068
:1021E00080E18093FB01A5EDB1E0E6ECF7E50E940C
:1021F0006D27EEEBF6E50E947B2AE5EDF1E00E940B
:10220000FC280E947929EDE0F0E0A9EDB1E00E9400
:102210006A28A0E0B1E08C9181FB16F00C94B91112
:1022200000910902013011F00C9435118091F801F0
:1022300081508093F8010091F8010F3F81E010F088
:1022400009F080E08F930091F8010A3080E010F0EF
:1022500009F081E09F918923882311F40C943311B4
:1022600080E08093F8010C947711023011F00C9407
:1022700049118091FD0181508093FD010091FD0184
:102280000F3F11F00C94471180E08093FD010C94F6
:102290007711033011F00C945D118091B5018150DC
:1022A0008093B5010091B501003011F00C945B11E1
:1022B00083E08093B5010C947711043011F00C94F5
:1022C00071118091080281508093080200910802E8
:1022D000003011F00C946F1183E0809308020C948D
:1022E0007711053011F00C9477110E941216E6E870
:1022F000F9E50E941823E6E9F9E50E941823E8E9C8
:10230000F9E50E941823A0E4B5E0E1EDF1E05527DE
:1023100044E00E947D250E941023E8E9F9E50E942F
:102320001823A0E4B5E0E1EDF1E0552744E00E9478
:102330007D250E941023E8E9F9E50E941823AEEEFE
:10234000B1E00E941223E8E9F9E50E941823A0E415
:10235000B5E0E8EFF1E00E94ED270E941023E8E9E4
:10236000F9E50E941823A3EFB1E00E9412230E9416
:102370001F2370910A02786070930A020895AAE000
:10238000B2E08C9186FB16F00C94641370910A02F3
:102390007F7B70930A02AAE0B2E08C9185FB8827CC
:1023A00080F9809580FBAAE0B2E08C9185F98C934E
:1023B000A0E0B1E08C9181FB16F40C94FA11A9E035
:1023C000B2E08C918F5F8C9300910902083081E01C
:1023D00008F480E08F93009109020A3081E008F050
:1023E00080E09F918923882311F40C94FA1181E0F5
:1023F000809309020E94D51B00910602013011F062
:102400000C941712A6E0B1E08C918F5F8C934091F1
:10241000210100910601041718F011F00C9412121A
:102420000C94151281E0809306010C94B6120230D0
:1024300011F00C944112AAEFB1E08C918F5F8C9354
:102440000091FA01073010F40C942F1281E0809370
:10245000FA01ADECB1E0E2EBF6E50E946D27EEEBA0
:10246000F6E50E947B2AEDECF1E00E94FC280E9438
:102470007929EDE0F0E0A1EDB1E00E946A280C942A
:10248000B612033011F00C948E12E2E0F2E00E94DA
:102490000129E5ECF1E00E94FC280E94202AEDE0F1
:1024A000F0E0A5ECB1E00E946A28E5ECF1E00E94C2
:1024B000FC28EEECF7E50E947B2A0E94E32818F046
:1024C00011F00C9465120C946B12A5ECB1E0EEECDB
:1024D000F7E50E946D27EEEBF6E50E947B2AE5EC1E
:1024E000F1E00E94FC280E947929EDE0F0E0A1ECE7
:1024F000B1E00E946A28A8E0B2E08C918F5F8C93D3
:1025000000910802043018F011F00C9489120C9418
:102510008C1281E0809308020C94B612043011F002
:102520000C94B612ABEFB1E08C918F5F8C9300915D
:10253000FB01013110F40C94A61281E08093FB01A1
:10254000A5EDB1E0E6EBF6E50E946D27EEEBF6E5D2
:102550000E947B2AE5EDF1E00E94FC280E94792987
:10256000EDE0F0E0A9EDB1E00E946A28A0E0B1E062
:102570008C9181FB16F00C946413009109020130D8
:1025800011F00C94E012A8EFB1E08C918F5F8C9366
:102590000091F801093081E008F480E08F93009108
:1025A000F8010B3081E008F080E09F9189238823B7
:1025B00011F40C94DE1288E08093F8010C9422133D
:1025C000023011F00C94F412ADEFB1E08C918F5FFA
:1025D0008C930091FD01093011F00C94F21288E007
:1025E0008093FD010C942213033011F00C94081316
:1025F000A5EBB1E08C918F5F8C930091B501043015
:1026000010F40C94061381E08093B5010C9422130E
:10261000043011F00C941C13A8E0B2E08C918F5F91
:102620008C9300910802043010F40C941A1381E08A
:10263000809308020C942213053011F00C9422139D
:102640000E941216E6E8F9E50E941823E6E9F9E58A
:102650000E941823E8E9F9E50E941823A0E4B5E0F8
:10266000E1EDF1E0552744E00E947D250E94102312
:10267000E8E9F9E50E941823A0E4B5E0E1EDF1E016
:10268000552744E00E947D250E941023E8E9F9E5E2
:102690000E941823AEEEB1E00E941223E8E9F9E5AA
:1026A0000E941823A0E4B5E0E8EFF1E00E94ED27D6
:1026B0000E941023E8E9F9E50E941823A3EFB1E096
:1026C0000E9412230E941F2370910A027860709367
:1026D0000A020895A9E0B2E08C918F5F8C9300917B
:1026E0000902083081E008F480E08F93009109022C
:1026F0000A3081E008F080E09F918923882311F45B
:102700000C94851381E0809309020E94AD15089511
:10271000709100017260709300010E94AD154C9998
:102720000C9494130E946A13F8947894009109020F
:10273000013011F00C94BE13ECE7F3E0A8EFB1E028
:102740007BE70E94852883E08093030182E08093E9
:102750000401882780930501EAE5FAE50E94312308
:10276000A0E4B5E0E8EFF1E00E94ED270E94292304
:10277000E4E6FAE50E9431230C94F514023011F0DE
:102780000C94E413E0E8F3E0ADEFB1E07BE70E94E6
:10279000852883E08093030182E0809304018827E9
:1027A00080930501ECE8FAE50E943123A0E4B5E04E
:1027B000EDEFF1E00E94ED270E942923E4E6FAE51F
:1027C0000E9431230C94F514033011F00C94421440
:1027D00083E08093030182E0809304018827809343
:1027E0000501E2E0FBE50E9431230091B5010130D3
:1027F00011F00C941014A9EEB1E0EEE1F8E50E949E
:102800002F2786E08093030182E0809304018827CC
:1028100080930501EAEEF9E50E9431230C944014FF
:10282000023011F00C942914A9EEB1E0E2E7F8E5CA
:102830000E942F2786E08093030182E080930401A9
:10284000882780930501E8EFF9E50E9431230C9475
:102850004014033011F00C944014A9EEB1E0EAEEFC
:10286000F7E50E942F2786E08093030182E08093A2
:102870000401882780930501E2EAFAE50E943123EA
:102880000C94F514043011F00C94A01483E08093A0
:10289000030182E080930401882780930501E4E12D
:1028A000FBE50E94312300910802013011F00C94E5
:1028B0006E14A9EBB1E0EEECF6E50E946D2786E020
:1028C0008093030182E080930401882780930501AF
:1028D000EEEBFAE50E9431230C949E14023011F0C5
:1028E0000C948714A9EBB1E0E2EDF6E50E946D27A8
:1028F00086E08093030182E080930401882780931F
:102900000501ECECFAE50E9431230C949E1403308F
:1029100011F00C949E14A9EBB1E0E6EDF6E50E94EF
:102920006D2786E08093030182E08093040188276D
:1029300080930501EAEDFAE50E9431230C94F51429
:10294000053011F00C94DB1483E08093030182E0E6
:1029500080930401882780930501E8EEFAE50E9440
:102960003123E4E6FAE50E94312385E080930301F8
:1029700082E080930401882780930501E4E2FBE56F
:102980000E943123EAE7FAE50E94312386E0809332
:10299000030182E080930401882780930501E0E32E
:1029A000FBE50E943123EAE7FAE50E9431230E9409
:1029B00012160C94F514063011F00C94F51483E003
:1029C0008093030182E080930401882780930501AE
:1029D000EEE3FBE50E943123709100017260709379
:1029E00000010E9440150C94251578944C990C9484
:1029F0000B158CE291E00E9491234C990C940B15DD
:102A0000709100017D7F709300010E94AD150E94BE
:102A1000AD150C94251500910902073011F00C94A6
:102A20001B1581E080930602709100017260709323
:102A300000010C941E1585E080930602A0E0B1E031
:102A40008C9181FB16F00C948F130E94B8240E9485
:102A50005A0E84E690E00E949123EEE1FAE50E948E
:102A60001823A0E4B5E0EDEFF1E00E94ED270E940D
:102A700010230E941F2382E390E00E949123089577
:102A8000E0E7F3E0ADECB1E094E07BE70E9488285A
:102A9000E4E7F3E0A5EDB1E094E07BE70E9488284D
:102AA000E8E7F3E0ADEDB1E094E07BE70E94882831
:102AB000EDE7F3E0A9EFB1E07BE70E948528EEE7C0
:102AC000F3E0AAEFB1E07BE70E948528EFE7F3E0AF
:102AD000ABEFB1E07BE70E94852808950895A7E059
:102AE000B1E0E2EDF7E50E946D27ADECB1E0E2EB7D
:102AF000F6E50E946D27A5EDB1E0E6EBF6E50E9454
:102B00006D27ADEDB1E0EAEBF6E50E946D27A5EE8D
:102B1000B1E0E2ECF6E50E946D2781E08093FA01D6
:102B200081E08093FB0108950E94AD15A6E0B2E01C
:102B30008C918F5F8C9300910602063011F00C94FB
:102B4000A41581E08093060270910A027860709368
:102B50000A0280E080930F020895289882E390E0B3
:102B60000E949123289A82E390E00E949123089585
:102B700070910A02786070930A02AAE0B2E08C9128
:102B800080FB882780F9809580FBAAE0B2E08C91D9
:102B900080F98C930E94AD15A0E0B1E08C9184FB8C
:102BA000882780F9809580FBA0E0B1E08C9184F9C2
:102BB0008C93A7E0B2E08C918F5F8C930091070219
:102BC000063010F40C94E71581E0809307024C99CD
:102BD0000C94FF158CE291E00E9491234C990C9487
:102BE000FF15709100017D7F709300010E94AD156B
:102BF0000E94AD157091000178607093000180E033
:102C000080930F0208951C990C940F167091000187
:102C10007460709300015D9A5E980C9411165E9A30
:102C20005D98089570910001777F709300018CE2A8
:102C300091E00E9491232398249A0E947E23AAE87F
:102C4000B1E08C9300918A01003018F011F00C94DF
:102C50002B160C945A16A4EBB1E08C918F5F8C93D9
:102C600080918A01A4EBB1E0AD90BB24AAE8B1E069
:102C7000AA0DBB1D8C9300918A010A3011F00C94AF
:102C800049167091000170647093000180E0809398
:102C9000B4010091B401083218F011F00C945216EE
:102CA0000C945A1680E08093B401709100017F7BF0
:102CB00070930001A0E0B1E08C9186FB16F00C94BB
:102CC0007116709100017F7B7093000180E080930A
:102CD000B401EBE8F1E0A2E2B1E00E9465280E94B5
:102CE000A0164C990C9489168CE291E00E949123D5
:102CF0004C990C948916709100017D7F70930001AE
:102D00000E94AD150E94AD1570910001786070931E
:102D10000001A0E0B1E08C9183FB16F00C941D162D
:102D200070910001777F7093000186E08093090223
:102D300081E090E0A8E8B1E08D939C9324980895F9
:102D400084E30E941F27E2E2F1E003E0A881B98159
:102D50000E947728A881B981E4E4FBE50E94C1289C
:102D60000FB684E3481A80E0580A22960FBE11F08D
:102D70000C94C4160E945917A2E2B1E088278C93E4
:102D8000A5E5B1E088278C9384E30E941F27E2E247
:102D9000F1E003E0A881B9810E947728A881B98178
:102DA000E8E4FBE50E94C1280FB684E3481A80E0FE
:102DB000580A22960FBE11F00C94FD1684E0E2E250
:102DC000F1E002E00A93A5E5B1E00E947028A5E5D4
:102DD000B1E00E943328A1E2B1E00C93A1E2B1E09E
:102DE000BA93AA930E94671B2296A2E2B1E08827B9
:102DF0008C93A5E5B1E088278C9384E30E941F277C
:102E0000E2E2F1E003E0A881B9810E947728A8817D
:102E1000B981ECE4FBE50E94C1280FB684E3481AAF
:102E200080E0580A22960FBE11F00C9421170E94E0
:102E3000D51BA2E2B1E088278C93A5E5B1E08827F5
:102E40008C9384E30E941F27E2E2F1E003E0A88173
:102E5000B9810E947728A881B981E0E5FBE50E944D
:102E6000C1280FB684E3481A80E0580A22960FBEA4
:102E700011F00C9445170E941618A2E2B1E08827C1
:102E80008C93A5E5B1E088278C93A2E2B1E0E4E55C
:102E9000FBE50E94C12811F00C9458170E94181AE3
:102EA000A2E2B1E088278C93A5E5B1E088278C9356
:102EB000089581E08093210100912101083218F0EA
:102EC00011F00C94C617E6EDF6E50E946E2AE1E2D9
:102ED000F1E0A190BB24ECEFFFEFAA0CBB1CAA0C05
:102EE000BB1CEA0DFB1DADE0BB2794E07BE70E9415
:102EF0008828E1E2F1E0A190BB24EFE9F0E0EA0DDF
:102F0000FB1DA0E1BB2780E08C937BE70E94852816
:102F1000A42DB52DE8E5FBE50E942F27E1E2F1E0C5
:102F2000019111274EE050E00E942527EAEBF0E0E6
:102F3000E00FF11FD2017BE70E949628E1E2F1E069
:102F4000A190BB24E6EFF2E0AA0CBB1CEA0DFB1D2E
:102F500000E010E0A0E1BB277BE70E948728E1E2C8
:102F6000F1E0A190BB24E7E4F3E0EA0DFB1DA0E152
:102F7000BB2780E08C937BE70E948528A1E2B1E02B
:102F80008C918F5F8C9310F40C945C17EEE5FBE54D
:102F90000E9462230E9469230895A7E0B1E0E881BE
:102FA000F981A190BB24ECEFFFEFAA0CBB1CAA0C8B
:102FB000BB1CEA0DFB1D94E00E94A428E881F98166
:102FC000A190BB24EFE9F0E0EA0DFB1DABE0B1E01E
:102FD0000E94A128E881F981019111274EE050E07B
:102FE0000E942527EAEBF0E0E00FF11FA0E1B1E03D
:102FF0009DE00E94AB28E881F981A190BB24E6EF17
:10300000F2E0AA0CBB1CEA0DFB1DAEE1B1E00E9490
:10301000A328E881F981A190BB24E7E4F3E0EA0D5D
:10302000FB1DA0E2B1E00E94A128089581E00E946A
:103030001F2781E00E941F2781E00E941F2781E057
:103040000E941F2781E00E941F2781E00E941F2706
:1030500081E00E941F2781E00E941F2781E00E94DB
:103060001F2781E00E941F278EE00E941F2782E019
:103070000E941F2781E00E941F2784E00E941F27D3
:10308000A2E2B1E0E6E7FBE52FEF91E00E943A27EC
:10309000AC89BD890C93AC89BD890C9141E0040FCA
:1030A000AE89BF890C93AE89BF899C919A93A2E2A5
:1030B000B1E0E6E7FBE52FEF0E943527AA89BB893F
:1030C0000C93AA89BB890C9141E0040FAE89BF899A
:1030D0000C93AE89BF899C919A93A2E2B1E0E6E796
:1030E000FBE52FEF0E943527A889B9890C93A889A1
:1030F000B9890C9141E0040FAE89BF890C93AE8968
:10310000BF899C919A93A2E2B1E0E6E7FBE52FEF3D
:103110000E943527AE85BF850C93AE85BF850C9187
:1031200041E0040FAE89BF890C93AE89BF899C91A1
:103130009A93A2E2B1E0E6E7FBE52FEF0E94352784
:10314000AC85BD850C93AC85BD850C9141E0040F29
:10315000AE89BF890C93AE89BF899C919A93A2E2F4
:10316000B1E0E6E7FBE52FEF0E943527AA85BB8596
:103170000C93AA85BB850C9141E0040FAE89BF89F1
:103180000C93AE89BF899C919A93A2E2B1E0E6E7E5
:10319000FBE52FEF0E943527A885B9850C93AC89F4
:1031A000BD890C9141E0040FAE89BF890C93AA89B7
:1031B000BB890C91AE89BF894C91041BA88DB98D38
:1031C0000C93AE89BF898C91E2E2F1E0A88DB98DB4
:1031D0000C910A93AF81B8850E947028AE81BF819F
:1031E0000E943328AA8DBB8D0C93AA89BB890C91B0
:1031F00041E0040FAE89BF890C93A889B9890C916D
:10320000AE89BF894C91041BA88DB98D0C93AE89F2
:10321000BF898C91E2E2F1E0A88DB98D0C910A93FF
:10322000AF81B8850E947028AE81BF810E94882A34
:10323000EDE0F0E0A881B9810E946A28EEEBF6E5A6
:103240000E947B2AE881F9810E94FC280E9479294A
:10325000EDE0F0E0A881B9810E946A28EA8DFB8D3B
:10326000A190BB24ECEFFFEFAA0CBB1CAA0CBB1C6B
:10327000EA0DFB1DA881B98194E07BE70E948828B4
:10328000A889B9890C9141E0040FAE89BF890C93DC
:10329000AE85BF850C91AE89BF894C91041BA88D6A
:1032A000B98D0C93AE89BF898C91E2E2F1E0A88DD3
:1032B000B98D0C910A93AF81B8850E947028AE81B8
:1032C000BF810E943328AA81BB810C93EA8DFB8DBC
:1032D000A190BB24EFE9F0E0EA0DFB1DAA81BB81C0
:1032E0007BE70E948528AE85BF850C9141E0040FE5
:1032F000AE89BF890C93AC85BD850C91AE89BF8921
:103300004C91041BA88DB98D0C93AE89BF898C910B
:10331000E2E2F1E0A88DB98D0C910A93AF81B885F6
:103320000E947028EA8DFB8D019111274EE050E03C
:103330000E942527EAEBF0E0E00FF11FAE81BF818C
:103340007BE70E949628AC85BD850C9141E0040F77
:10335000AE89BF890C93AA85BB850C91AE89BF89C4
:103360004C91041BA88DB98D0C93AE89BF898C91AB
:10337000E2E2F1E0A88DB98D0C910A93AF81B88596
:103380000E947028AE81BF810E943328AC81BD812C
:103390000D931C93EA8DFB8DA190BB24E6EFF2E028
:1033A000AA0CBB1CEA0DFB1DAC81BD817BE70E9412
:1033B0008728AA85BB850C9141E0040FAE89BF899F
:1033C0000C93A885B9850C91AE89BF894C91041BDB
:1033D000A88DB98D0C93AE89BF898C91E2E2F1E0A2
:1033E000A88DB98D0C910A93AF81B8850E94702881
:1033F000AE81BF810E943328AA81BB810C93EA8DE4
:10340000FB8DA190BB24E7E4F3E0EA0DFB1DAA814C
:10341000BB817BE70E948528E8E7FBE50E946223E9
:103420000E9469238FE1481A80E0580A6C9608953B
:10343000E6EDF7E50E946E2AE0E0F0E0ADE0BB27A4
:1034400094E07BE70E948828E0EAF0E0A0E1BB2757
:1034500082E18C937BE70E948528A42DB52DE0E8BE
:10346000FBE50E942F27E8ECF0E0D2017BE70E9409
:103470009628E8EFF2E001E911E0A0E1BB277BE745
:103480000E948728E8E4F3E0A0E1BB2781E08C9369
:103490007BE70E948528EAEDF7E50E946E2AE4E0CA
:1034A000F0E0ADE0BB2794E07BE70E948828E1EAEA
:1034B000F0E0A0E1BB2783E18C937BE70E948528A5
:1034C000A42DB52DEAE8FBE50E942F27E6EDF0E0FC
:1034D000D2017BE70E949628EAEFF2E002E911E0D0
:1034E000A0E1BB277BE70E948728E9E4F3E0A0E1A5
:1034F000BB2782E08C937BE70E948528EEEDF7E501
:103500000E946E2AE8E0F0E0ADE0BB2794E07BE7A4
:103510000E948828E2EAF0E0A0E1BB2784E18C93D6
:103520007BE70E948528A42DB52DE4E9FBE50E94E8
:103530002F27E4EEF0E0D2017BE70E949628ECEF23
:10354000F2E003E911E0A0E1BB277BE70E948728B6
:10355000EAE4F3E0A0E1BB2783E08C937BE70E94E1
:103560008528E2EEF7E50E946E2AECE0F0E0ADE09F
:10357000BB2794E07BE70E948828E3EAF0E0A0E123
:10358000BB2785E18C937BE70E948528A42DB52D70
:10359000EEE9FBE50E942F27E2EFF0E0D2017BE7A6
:1035A0000E949628EEEFF2E004E911E0A0E1BB27CB
:1035B0007BE70E948728EBE4F3E0A0E1BB2784E0EF
:1035C0008C937BE70E948528E6EEF7E50E946E2A41
:1035D000E0E1F0E0ADE0BB2794E07BE70E948828C3
:1035E000E4EAF0E0A0E1BB2786E18C937BE70E9450
:1035F0008528A42DB52DE8EAFBE50E942F27E0E001
:10360000F1E0D2017BE70E949628E0E0F3E005E9D3
:1036100011E0A0E1BB277BE70E948728ECE4F3E000
:10362000A0E1BB2785E08C937BE70E948528E2EB35
:10363000FBE50E9462230E9469230895E8ECFBE504
:103640000E946223E6E9F9E50E946223E6E7FBE5D2
:103650000E946223A0E4B5E0E7E0F1E0552744E0F2
:103660000E947D250E946D23E6E7FBE50E94622310
:10367000A0E4B5E0EBE0F1E00E94ED270E946D23AD
:10368000E6E7FBE50E946223A0E1B1E00E946F2320
:10369000E6E7FBE50E946223A0E4B5E0EEE1F1E09D
:1036A0000E94E6270E946D23E6E7FBE50E94622365
:1036B000A0E4B5E0E0E2F1E00E94ED270E946D2376
:1036C000EEECFBE50E9462230E946923089584E0EA
:1036D0000E941F27AA81BB81BA93AA930E94CD178B
:1036E0002296EEEBF6E50E947B2AE7E0F1E00E94ED
:1036F000FC280E94D229EDE0F0E00E940C29A8816C
:10370000B981EDE0FF270E946A28E8ECFBE50E9402
:103710006223A0E4B5E0EA81FB810E94ED270E94CC
:103720006D23E6E7FBE50E946223A0E4B5E0E881B3
:10373000F9810E94E0270E946D23E6E7FBE50E94E5
:103740006223A0E4B5E0EBE0F1E00E94ED270E94E7
:103750006D23E6E7FBE50E946223A0E1B1E00E9451
:103760006F23E6E7FBE50E946223A0E4B5E0EEE10B
:10377000F1E00E94E6270E946D23E6E7FBE50E9448
:103780006223A0E4B5E0E0E2F1E00E94ED270E94B0
:103790006D23EEECFBE50E9462230E94692384E026
:1037A000481A80E0580A2296089584E00E941F2754
:1037B00081E08093210100912101083218F011F07D
:1037C0000C940A1CA881B981E1E2F1E0A190BB242C
:1037D000ECEFFFEFAA0CBB1CAA0CBB1CEA0DFB1DF7
:1037E00094E00E94A428E881F9810E94FC28E6ED7B
:1037F000F6E50E947B2A0E94E32811F00C94021C3B
:103800000C940A1CA1E2B1E08C918F5F8C9310F4B0
:103810000C94DB1BA1E2B1E08C9181508C93E4ED20
:10382000FBE50E946223A0E4B5E0E1E2F1E00E9442
:10383000ED270E946D230E94692384E0481A80E0EE
:10384000580A22960895ADE0B2E00E94E722ADE06A
:10385000B2E00D911C9102345FE0150718F011F0F1
:103860000C94341C0C943F1C80E090E0ADE0B2E07E
:103870008D939C93AFE0B2E08C918F5F8C9300911D
:103880000F02033018F011F00C94481C0C944B1CE0
:1038900084E080930F0208950E94AD1584E0809328
:1038A0000F0208953054008040201008AA02080436
:1038B000AA020402AA3C0204AA010408AA030830CE
:1038C00040C000AA0300FF00AA4D00FF00AA0300A9
:1038D000FF00AA4D00FF00AA0300FF00AA4D00FF51
:1038E00000AA0300FF00AA4D00FF00AA0300030482
:1038F000081020AA032040AA3F4020AA0320100855
:10390000040300AA020001060600000000000000F7
:1039100000005F000000000300030000147F147F1C
:103920001400042A7F2A1000231308646200364919
:1039300056205000000300000000001C224100003F
:1039400041221C0000002A1C7F1C2A0008083E0897
:103950000800004070300000080808080800000057
:10396000606000006010080403003E5149453E00BD
:1039700000427F40000062514949460022414949C6
:103980003600181412117F002745454539003E4581
:10399000454539000161110907003649494936009A
:1039A0000E5151513E000000363600000040763680
:1039B0000000000814220000141414141400002243
:1039C000140800000201510906003E4955550E0039
:1039D0007C1211127C007F49494936003E41414129
:1039E00022007F4141221C007F49494941007F0953
:1039F000090901003E41415172007F0808087F001B
:103A000000417F4100002040413F01007F08142217
:103A100041007F40404060007F020C027F007F0237
:103A200004087F003E4141413E007F1111110E000C
:103A30003E4151617E007F091929460026494949C6
:103A4000320001017F0101003F4040403F001F2044
:103A500040201F003F4038403F00631408146300BB
:103A600007087008070061514945430000007F4185
:103A7000410003040810600041417F00000004027F
:103A800001020400404040404040010200000000AC
:103A9000304A4A3C40007F4848483000384444445B
:103AA0002000304848487F0038545454180000081B
:103AB0007E0900000854545438007F08040478003C
:103AC00000487A4000000020403D00007F10102890
:103AD000440000007F0000007C047C0478007C0827
:103AE000040478003844444438007C14141408005A
:103AF0000814147C40007C08040408004854545402
:103B0000240000043F4400003C4040207C001C2076
:103B100040201C003C4030403C0044281028440019
:103B20000C5050503C004464544C44000000083693
:103B3000410000007F00000041360800000008043A
:103B40000804000000000000000000000000000069
:103B50000000000000000000000000000000000065
:103B60000000000000000000400040004000000095
:103B700000000000000000000000143E5555410008
:103B80001308640260000000000000000000000054
:103B90000000000000000000000000000000000025
:103BA0000000000000000000000000000000000015
:103BB0000000000000000000000000000000000005
:103BC000000000000000000000183C3C180000004D
:103BD00000000000000000000000003C24243C0025
:103BE00000000000000000000000000000000000D5
:103BF00000000000000000000000000000000000C5
:103C000000000000000000000000000000000000B4
:103C100000000000000000000000000000000000A4
:103C20000000005A24245A00000000000000000098
:103C3000770000000000000000007C55545554003F
:103C40003E415D55413E00000000000008142A146A
:103C50002200020202020E0000000000000000002C
:103C60000000000000000000000006090906000036
:103C700000242E24000000000000000000000000CE
:103C80000000000000000000FC2040403C00040E4A
:103C90007E027E00000008000000385554551800D0
:103CA0007810207E020000000000000022142A1478
:103CB00008000000000000000000000000000000FC
:103CC000000000000002780200007C1211127C004B
:103CD0007F49494930007F49494936007F01010148
:103CE0000100407E417F40007F49494941007708FB
:103CF0007E0877002241494936007F2010087F0066
:103D00007F2011087F007F0814224100403E0101FE
:103D10007F007F0204027F007F0808087F003E4189
:103D200041413E007F0101017F007F090909060032
:103D30003E414141220001017F01010007484848FE
:103D40003F000C127F120C006314081463003F2024
:103D5000203F6000070808087F007F407C407F000C
:103D60003F203C203F60017F484830007F483000C2
:103D70007F007F4848483000224149493E007F0883
:103D80003E413E00462919097F00205454547800D2
:103D90007854545420007C54545428007C04040467
:103DA00004000854545438003854545418006C100B
:103DB00078106C002844545428003C4040407C005B
:103DC0003C4044407C007C101028440040380404EF
:103DD0007C007C0810087C007C1010107C003844AB
:103DE000444438007C0404047C007C14141408004F
:103DF0003844444428007C047C0478000C50505023
:103E00003C0008147C1408004428102844001C209E
:103E1000203C60000C1010107C003C4078407C007E
:103E20001C2038203C60047C505020007C50200036
:103E30007C007C50505020002844545438007C10A2
:103E400038443800085434147C00020A140000007E
:103E50000000000000000000000000000000000062
:103E6000000000000000FE00000000000000000054
:103E70001B000000000000001E0000001E000000EB
:103E8000000000000000000000000020A07826A034
:103E9000782620000119070119070101010000001F
:103EA0001C2642FF8202000000001810103F110F74
:103EB00000001C2222229C40300804021008040347
:103EC000000E1111110E00805C62A2321C000080F5
:103ED0000708101011131C181601000000001E0026
:103EE00000000000000000000000000000000000D2
:103EF00000E0180C04020200000000071830200047
:103F00000000000202040C18E00000000000002085
:103F1000301807000000000818F04EF018080000E4
:103F20000000000000000000000000000000E000B1
:103F300000000000020202021F0202020200000052
:103F40000000000000000000000000183800000021
:103F5000000000000000000000000000000001015F
:103F6000010101010000000000000000000000004D
:103F7000000000181800000000000000000000C051
:103F8000300C02000000300C03000000000000F0C4
:103F90000C0202020CF0000000030C1010100C03C5
:103FA000000000040404FE000000000000101010D7
:103FB0001F10101000000006020202C23C000000A8
:103FC00000181412111010000000000002424242BA
:103FD000BC0000000000101010100F00000000C016
:103FE000201804FE0000000003020202021F020269
:103FF000000000003E22224282000000000010105B
:1040000010080700000000F04C222222428000002D
:104010000007081010100807000000020202C23258
:104020000A06000000001807000000000000001C45
:10403000A24242A2A21C0000000F1010101009069C
:10404000000000788402020284F8000000001011D1
:1040500011110C030000000000606000000000006F
:104060000000001818000000000000000060600060
:1040700000000000000000183800000000000000F0
:104080000000808040402000000003030404080872
:104090001000008080808080808080000004040404
:1040A000040404040400002040408080000000005C
:1040B00000100808040403030000000E02028242FC
:1040C000261C00000000001B000000000000F0188B
:1040D00004E2120A8AFC0000030C181314161B07D2
:1040E0000404000080701830C0000000100E0302AD
:1040F000020202030C1000F888888888483000000B
:10410000001F10101010110E0000C0301008080819
:1041100008180000030C081010101010000000F820
:104120000808080810E00000001F10101010080711
:10413000000000F80808080808080000001F111116
:1041400011111110000000F8080808080808000004
:10415000001F010101010100000000C0301008082B
:104160000808180000030C08101011111F0000F8B7
:104170000000000000F80000001F01010101011F04
:10418000000000080808F8080808000000101010D7
:104190001F1010100000000000080808F8000000C0
:1041A0000000101010100F00000000F88080402068
:1041B00010080000001F000102040408100000F8AD
:1041C0000000000000000000001F10101010101070
:1041D0000000F838E00000C038F800001F000107B8
:1041E0000601001F000000F81060800000F80000C9
:1041F000001F00000106081F000000E0100808086A
:104200000810E0000007081010101008070000F860
:104210000808080888700000001F01010101000063
:10422000000000E0100808080810E000000708106F
:1042300010103008070000F8080808887000000017
:10424000001F01010304081000000070488888085E
:1042500008180000001810101011090E00000808BE
:104260000808F80808080800000000001F00000007
:10427000000000F80000000000F80000000718101F
:104280001010080700000830C000000000C030080F
:104290000000010618180700000018E00000E0C048
:1042A0000000E01800031C0F00010E1C03000810A2
:1042B0002040808040201008100804020101020400
:1042C00008100810608000804020100800000000E6
:1042D0001F0000000000000808080888482818008F
:1042E00000181412111010101000000000FE02023D
:1042F000020200000000003F000000000000000279
:104300000C30C000000000000000000000030C3072
:1043100000000002020202FE000000000000000097
:10432000003F00000000000000E0380E7080000038
:10433000000403000000000304000000000000006F
:10434000000000002020202020202020202000002D
:10435000000001020000000000000000000000005A
:104360000000000020202020C0000000000C1211DE
:1043700011091F10000000FE402020206080000076
:10438000001F0810101008070000008040202020A7
:1043900020200000000708101010101000000080FE
:1043A0004020202040FE0000000718101010081FB9
:1043B000000000804020202020C0000000070911DC
:1043C000111111110000002020FC242222222200C1
:1043D0000000001F0000000000000080402020209E
:1043E00040E00000000718101010083F000000FE19
:1043F0008040202020C00000001F00000000001F9F
:10440000000000202026E600000000000000000060
:104410001F00000000000000202026E60000000031
:1044200000000000003F0000000000FE000080408F
:1044300040200000001F01030404081000000000D9
:10444000020202FE0000000000000000001F000049
:104450000000E0402020C0402020C0001F000000DD
:104460001F0000001F0000E0C040202020C000000E
:10447000001F00000000001F0000008040202020DE
:10448000408000000007081010100807000000E03E
:104490004020202060800000003F08101010080716
:1044A000000000804020202040E00000000718109D
:1044B0001010083F00000000E080402020E00000D5
:1044C00000001F0000000000000000C0202020208D
:1044D000200000000018111112120C000000002032
:1044E00020F82020202000000000000F10101010E5
:1044F000000000E000000000E0000000000F1010CD
:1045000010081F00000020C00000000000C02000B4
:1045100000010618100C0300000060800000C0803D
:10452000000080600007180E01010E18070000202F
:1045300040800000804020000010080403030408AD
:10454000100020C0000000000000C0200000030692
:10455000381806010000002020202020A060200044
:104560000010181412111010100000000000FC02BE
:1045700002020000000001013E00000000000000F7
:104580000000FE0000000000000000003F000000EE
:1045900000000000020202FC000000000000000019
:1045A000003E0101000000808080000000000080CB
:1045B000030000000101020202010080C02010205F
:1045C000C0800000001F10101010101F0000ED919F
:1045D000FC91EF5FFF4FFC93EE93089505D00E948E
:1045E000252700FC0CD008950024E89457FF02C052
:1045F00009D0689400F80BD010F80124089502D077
:1046000009D00895509540954F5F5F4F0895E89405
:1046100017FF0895009510950F5F1F4F6894089538
:10462000A0E4B5E08D91882311F00CD0FBCF089564
:104630000E946527802D11F005D0FACF08958DE0F6
:1046400001D08AE00090C00005FEFCCF8093C60038
:104650000895A0E4B5E08D91882311F00FD0FBCF31
:1046600008950E946527802D11F008D0FACF089593
:1046700088EE93E056D03197D9F708950C94C8246A
:104680003197F1F70895689462F80895E89462F814
:1046900008958F939F9383E690E00197F1F79F91A0
:1046A0008F91089580952AE090E0089410F42C985A
:1046B00002C02C9A0000EDDFECDF969587952A95D5
:1046C000A9F708950E946527802D11F0EBDFFACF3E
:1046D00008958DE0E7DF8AE0E5CFA0E4B5E08D91B5
:1046E000882311F0DFDFFBCF08958F939F9383E63C
:1046F00090E00197F1F79F918F9108951B9B02C065
:104700008827089529E01B99FECFEFDFEEDFEDDF6C
:1047100088941B9908942A9519F087959795F6CF58
:104720000895EF93FF93EE27E82BE92B31F0EAEFA2
:10473000F0E03197F1F70197D1F7FF91EF910895EC
:104740008DE207FD8D938F2D881F802F881F8F5737
:10475000082F6894F7F8802F87FF15C08095839500
:10476000082F80E38D938EE28D93802F815228F065
:1047700080E38D9399279C93089544270A95802F71
:1047800009F196D01FC0805230F09EE49D9381E4E1
:104790008D939D93EFCF4427DF92EF92FF920F937B
:1047A0008FE1801B11F0082F83D089D09EE29D936A
:1047B0000F91FF90EF90DF9044270395003209F4AA
:1047C000D7CF2BD03F93E0E5F8E438E12F2D1E2D15
:1047D0000D2DFF24EE24DD244427000F111F221F7E
:1047E000A8F42F923F920E946527102C0E94652703
:1047F000202C0E946527302C0E9465273197410D9F
:10480000D21CE31CF01C3F902F9001C033963196D0
:104810003A9519F73F9107D0AFCFDD0CEE1CFF1C86
:104820000A95D9F70895002719E058D08F93802B67
:1048300011F0039501C08F911A95B9F7802F882345
:1048400009F496CF8F91805D8D930A95D9F792CF19
:104850000065CD1D80B2E60E40597307A0ACB903C8
:1048600050D6DC01286BEE0094357700CA9A3B00E5
:1048700065CD1D00B2E60E0059730700ACB9030008
:10488000D6DC01006BEE0000357700009A3B00009B
:10489000CD1D0000E60E000073070000B903000004
:1048A000DC010000EE000000770000003B0000008B
:1048B000F694E794D79447950A95D1F70895002781
:1048C0000DD08F9303958F2D8E298D29842BC1F7C1
:1048D0008F91805D8D930A95D9F74CCF1F930F93DD
:1048E000002710E2440FDD1CEE1CFF1C001F802F70
:1048F0009AE0890B10F0082F43951A9599F7802FAD
:104900000F911F9108952B9884E699270E94912377
:104910002B9A8AE099270E9491234198439A81E239
:1049200011D088EC0FD086E00DD083E10BD080E26F
:1049300009D08CE007D00895863219F481E0809385
:1049400013020895429801C0429A7F93439898E0D9
:10495000880F10F4409A01C0409800000000419A6E
:104960000000000041989A9599F7439A7F91089525
:1049700000E480E2E7DF802FE5DF80E8E3DF8827DF
:1049800014E5E2DF1A95E9F70395063491F70895E7
:1049900020911302213069F4282F203808F02FE7E6
:1049A000206881E2CFDF822FCDDF80E08093130289
:1049B0000895EF93FF93509103015F93709004016A
:1049C000E0910101F09102010E946527202D0E94D3
:1049D0006527302D0E946527002D0E946527602DD8
:1049E0008052482F0E94B528E40FF51FCC241124D3
:1049F000E22E603059F1DD24DA94CD2CFF24032F10
:104A00000E94652721F00A95E00FF11D03C0F39481
:104A10000A95B1F7FD1408F4DF2CEA9479F7E22E39
:104A2000FF24032F3197C895002021F00A95E01B41
:104A3000F10903C0F3940A95A9F7FC1408F4CF2CEC
:104A4000EA9471F7D31611F4D62ECC247092040197
:104A5000732F7C1940910401509103015F930E94D0
:104A600073255F91603041F0DD2031F05D2D0E94B3
:104A700065275A95E1F77D190E946527802D509191
:104A80000501552309F0809540910401453514F442
:104A90000E94A424509104015395509304017A95E7
:104AA00059F7EC0DF11D603081F050910501762F22
:104AB0008827552309F080950E94A4247A95C1F790
:104AC00050910401560F50930401509103015395E6
:104AD000509303012A9509F0B9CF5F9150930301D8
:104AE000FF91EF9108954A955A9580E22BDF80E47B
:104AF000850F28DF80E8840F25CF0E94FC280E94C4
:104B0000522917FF03C08DE28D931127003821F43D
:104B1000E8EDFDE40C942F270F3741F4FF2019F442
:104B2000EEECFDE4F7CFEAECFDE4F4CF4A934A93D0
:104B30004A935A93BA93AA93BB270F5F02F5BB27F8
:104B4000802F0A950E945C298D3E90F4E8E2FEE4F5
:104B5000A3E00E947B2A0E94E328BB1FB0FF06C08F
:104B600070970E947B2A0E94D2293C96AA9589F7C9
:104B7000E4E2FEE40E947B2A0E94D22922C009308E
:104B800058F1033178F10A3130F418E08BE192E901
:104B9000ECEDFDE42EC00A950E945C29ECE1FEE4F8
:104BA000BFEFA3E00E947B2A0E94E328BB1FB0FD59
:104BB00006C038960E947B2A0E94D2293C97AA956B
:104BC00089F7B095BB0F0E945229039513E08AEF35
:104BD00099E0F816090740F413E08BE094E0E0EF69
:104BE000FDE407C016E001C0B39583E194E2E4EE72
:104BF000FDE46A81BF3F19F4BB2711276260BD83C2
:104C00006A831C83A881B98160E36D93A883B9830B
:104C10006D93081B0195AA24BB246A816A7F002337
:104C200039F0F694E794D794B794A7940A95F7CF00
:104C300019E000270E947B2ACC248FEF74E0AC148B
:104C4000B206D306E406F50630F0AC18B20AD30A71
:104C5000E40AF50A21F1881F7A9531F056954795B7
:104C600037952795C794EBCF809522D041F0969544
:104C700008F7FE2CED2CDB2CBA2CAA24DBCF25D098
:104C80005D813C812B8170D0277021F02BD06CD0BE
:104C9000E8F301C03CD04CD078D026960895889493
:104CA000881F7A95E9F7809503D049F38827FCCFD0
:104CB000806360FD06C0803311F0616002C003951F
:104CC00061FD8D9360FD1A95089599278E919C93AF
:104CD00085338E9108F083958A3308F080E38C93B6
:104CE000C0F70895732F720F61FF701B0AD01296E0
:104CF000785019F050F38E9380E38E937150EAF759
:104D00000895A881B981A70F8827B81F089579E071
:104D100061FD700FF6DF48E0431B400F8AF381F31B
:104D200099274A9569F38E91803351F79C93F9CF77
:104D3000732F61FF701B7395A881B981EA2FFB2F38
:104D400011978191803361FF09F08D937A9511F469
:104D50008EE28D9381918823C1F7772311F480E34C
:104D60008D9388278C930895889462FD089500237D
:104D700059F4A881B9818C91803331F0552321F009
:104D8000539533506460089408955523E9F085E401
:104D90008D931AF48DE28D935195652F660F560F02
:104DA0005A3010F060E503D068E001D0DACF8FEF21
:104DB00074E0561708F0561B881F7A9511F0669517
:104DC000F8CF809580638D9308954E414E00496ED3
:104DD00066696E6974790000302E300000404B4CDB
:104DE0000020A107000050C3000088130000F40158
:104DF000000000320000000500008000CCCCCC0C8C
:104E000014AE47019CC42000DC460300E3530000BD
:104E100063080000D7000000150000001CC25367A3
:104E2000A5D468530024744915BE9A17CCBC8C2BAA
:104E3000BD378635019111912191308108959927CF
:104E40005A924A92480E591E08950F92B801469FF1
:104E50008001479F100D569F100D0F9008950E94DE
:104E600065270D920020D9F7089599910027A90F81
:104E7000B01F1197492F4A955E2F6F2FE894112785
:104E80004395203019F0C895802D01C0808188237A
:104E9000B9F07C917723A1F0781739F40EF0042F44
:104EA0001395689411963196EBCF112321F0411B95
:104EB000A11B1127B10BE894E52FF62F1196E0CF37
:104EC000882311F0002708950895C8953196002091
:104ED000089591E005C092E003C094E001C098E01D
:104EE000F4DF0D929A95E1F7089599278D919395A6
:104EF0008823E1F7939511968C9311978E919A954B
:104F0000D1F70895EA2FFB2F00244C918D91039443
:104F10008E32E1F711248D9113948823E1F71A94CE
:104F2000101640F41197202F2119239580E38D93BB
:104F30002A95E9F7113039F59927AE2FBF2FA00D2B
:104F4000B91FA00FB91F8C919C93853308F421C021
:104F500031E08E918E32E9F38D3241F0830F8A3346
:104F600019F480E331E001C033278C93AE1789F741
:104F7000332341F0AE2FBF2FB8DF81E34D3209F468
:104F80003196808308958827E00DF81FE00FF81F01
:104F900080830895040F151F261F371F0895000FE3
:104FA000111F221F331F08950095109520953095ED
:104FB0000F5F1F4F2F4F3F4F0895019110810FC07A
:104FC0000E941A270EC00E941A2710C0019110815A
:104FD00017FF05C03FEF2FEF04C0008111272227E4
:104FE000332737FF03C0E0DF8DE28D93CF92DF924E
:104FF000EF92AA24BB24CC24DD24EE2440E2EAE094
:10500000FF2755E093E38081890F87FD9F7083FD23
:10501000907F891B81935A95A9F7C1DFAA1CBB1CFD
:10502000CC1CDD1CEE1C4A9551F7E894EFE0FF27FD
:1050300082910CD0EB30E0F71EF068948A2D0AD0F4
:1050400088278D93EF90DF90CF900895982F8295C9
:1050500001D0892F8F70805D26F0803309F4089588
:1050600068948D93089500271127222733271DD098
:105070008A3328F4803318F005D015D0F9CF0EF418
:1050800093CF089580538F93402F512F622F732F0A
:1050900086DF85DF7FDF83DF8F919927080F191F58
:1050A000291F391F08958D910895E894FCDF8032FF
:1050B000E9F38B32D9F38930C9F38D3211F4689456
:1050C000F2CF089588278D93089581918D93882339
:1050D000E1F7089594E081918D939A95E1F7089511
:1050E00009919191992351F08A95D9F7319700232D
:1050F00029F081918D930A958823C9F7E3CFF99917
:10510000FECFE1BDF2BD3196089591E001C092E07D
:105110007B3751F47FB7F894F2DF8D9180BDFA9A16
:10512000F99A9A95C9F77FBF77270895E8DF8D919F
:105130007B3729F480BDFA9AF99A8823B9F7772743
:10514000089591E001C092E0DADFF89A80B58D937E
:105150009A95D1F70895D3DFF89A80B58D93882377
:1051600019F09A95C1F79D930895FF935527F8E09C
:10517000469508F4500F57954795FA95D1F7FF914A
:105180000895689401C0E894AF93BF938D9116F091
:10519000919103C00E946527902D891718F011F492
:1051A0008823A1F7BF91AF910895B7FE089590E8C5
:1051B000B91611F4D0FE08959FEFD91AE90AF90A39
:1051C00009F4039508950F928F939F93D216E306E7
:1051D000F4060FB680E890E8802795270FBE890770
:1051E00039F00FB6892B87FD02C081E008260FBE7B
:1051F0009F918F910F900895D190E190F19001913E
:10520000089521913191419151910895502F2D2D63
:105210003E2D4F2D612F0895EFDF992711278F2DF8
:10522000880F80E8F82A802F881F08F41FEF41F0CC
:105230008F57082F07FD04C0003240F08FEF01C0E8
:105240008827982FD82EE82EF82E09C08FE1801BD2
:10525000082FF694E794D79497950A95D1F71123E0
:1052600051F09095D094E094F09481E0980F8827C5
:10527000D81EE81EF81E0F2DFE2CED2CD92E0895F9
:10528000D094E094F09491E0D90E9927E91EF91E8C
:1052900010950895652F90E8440F551F5927990FD1
:1052A00047956078102F90E8FF0C001F0927990F91
:1052B000F794107800380895FF0C90E89027110FAC
:1052C0009795F794092F08952DEC3CEC4CEC5DE399
:1052D00066270FC091DF9ADFDD24EE2490E8F92ED7
:1052E0000FE307C08EDF05C02227332740E251E4D9
:1052F0006627552351F1002381F1CCDF71F1162788
:10530000005850580894050B18F407FD03C025C039
:1053100007FD23C0469537952795F694E794D794D3
:1053200025D0FF202AF0DD0CEE1CFF1C015073F08D
:105330009D2D969548F0DD203AF4EE202AF491E078
:10534000D90E9927E91EF91EB7CF07C09FE7092F8D
:10535000F92A9FEFD92EE92E0895DD24EE24FF24AB
:105360000027112708950FE79FEFF2CF9F9299240E
:10537000AA24BB2488E1D216E306F40628F0D21A48
:10538000E30AF40A089401C08894991CAA1CBB1C67
:10539000DD0CEE1CFF1C8A9571F7D92CEA2CFB2C36
:1053A0009F90089577DFD9F05038C9F0162700583C
:1053B000952F90580894091F12F418F40EC008F0A5
:1053C0000EC00FD0FF202AF0BB0CDD1CEE1CFF1C12
:1053D00002C0039513F0E9DE6FCF0C94A6290C945C
:1053E000AD299F92FF92EF928D2DFF24EE24DD24B4
:1053F000BB2493E0849F1001829FB00CD11CE21C5F
:10540000F31C839FD00CE11C2224F21C9A9531F0EE
:10541000BD2CDE2CEF2CFF248F91ECCF9F900895B4
:10542000F0DE38DF503829F090E869270CC00AF028
:1054300045D042CF5FE322273327442701C0E1DE76
:1054400029DF5038B1F3003899F3902F951B8BF377
:1054500012F434D0FACF983118F02227332744279A
:10546000983028F0232F342F44279850F9CF9923D0
:1054700029F04695379527959A95D9F7912F962734
:1054800042F014D0B0F6F794E794D7940F5F8BF600
:105490005DCF10D051F008F4F3DEFF2052F2DD0CA6
:1054A000EE1CFF1C0150CBF751CF57CFD20EE31E9D
:1054B000F41E0895D21AE30AF40A0895DF92EF92D7
:1054C000FF920F931F93D22EE32EF42E052F162F4B
:1054D0006F915F914F913F912F9108950E946527A1
:1054E000D02C0E946527E02C0E946527F02C0E949A
:1054F0006527002D08950E946527202D0E946527AD
:10550000302D0E946527402D0E946527502D08955B
:105510000E94462388278A938A931FDF11278D9143
:105520008032E9F31197BBD098F08D3229F41095B1
:1055300011968C91B4D060F08E3229F411968C9132
:10554000AED008F446C022960E94432381E008951D
:105550008C91A5D0D8F5119646D0D0F703958D91B2
:105560009ED0E0F38E3229F48C9199D010F41196EC
:10557000FBCF853419F0853609F055C011968C9112
:105580008ED060F08D3219F08B3221F0DCCF0880A4
:105590000094088211968C9182D0A8F6805389835A
:1055A00011968C917CD058F49981990F990F0980AC
:1055B000900D990F8053890F8983873220F6898156
:1055C000988199230AF48195080F2DC08E3289F6AF
:1055D00011968C9164D068F606D018F011960A9551
:1055E000F8CF1196C1CF4F2D3E2D2D2DDD0CEE1C89
:1055F000FF1CA8F0DD0CEE1CFF1C88F0D20EE31E91
:10560000F41E68F0DD0CEE1CFF1C48F0805309F01E
:105610006894D80E8827E81EF81E08F00895F42E26
:10562000E32ED22E089534D019F116F5098308E936
:1056300021D00695882787959F2D9F77980FF92E63
:105640000150000F110F07958981882379F01AF412
:105650008195898306C038DE89818A958983D9F747
:1056600005C042DE89818A958983D9F722960895FB
:1056700074DEFCCF0DD041F0FF2032F00A9531F0FE
:10568000DD0CEE1CFF1CD2F7889408950894089551
:1056900000240D280E280F28002A002008958033AA
:1056A00020F08A3310F408940895889408958000B7
:1056B000B149E073B0493C1C884A00C8AF4900407A
:1056C0001C466043844A0000FA4200002A433333F8
:1056D000F3409A99193F0000000000008642CDCCAB
:1056E0008F42CDCC944200009A4266669F420000F1
:1056F000A542CDCCAA420000B1420000B7429A991F
:10570000BD42CDCCC2420000C8420000CF42666616
:10571000D642CDCCDD429A99E5429A99ED420000FD
:10572000F6429A99FE42CDCC034300800843CD4C0B
:105730000D43333312436666174333B31C4333338D
:10574000224366E62743CDCC2D4333B33343333373
:105750003A43CDCC404300804B4333B352439A1974
:105760005A4333B361439A996943CDCC7143CD4CCD
:105770007A43B07BB0496887B049D046B149A04E62
:10578000B149F094B14900007A440050C347361D36
:10579000884A301E884A2A1F884A2420884A1E21A7
:1057A000884A1822884A1223884A0C24884A0625E7
:1057B000884A0026884AFA26884AF427884AEE282A
:1057C000884AE829884AE22A884A0093A3494089FE
:1057D000954A003FB149CD8CD8439A99D84366A6E3
:1057E000D84333B3D84300C0D84330303030000002
:1057F0005648462F55484620545258004158206577
:105800006C656B74726F6E696B61000030303031A3
:1058100000003030303200003030303300003030A3
:105820003034000030303035000030303036000089
:105830003030303700003030303800003030303910
:105840000000303031300000303031310000303075
:10585000313200003030313300003030313400005C
:1058600030303135000030303136000030303137E3
:105870000000303031380000303031390000303035
:10588000323000003030323100003030323200002F
:1058900030303233000030303234000030303235B6
:1058A0000000303032360000303032370000303007
:1058B00032380000303032390000303033300000F0
:1058C0003030333100003030333200003030333389
:1058D00000003030333400003030333500003030D9
:1058E00033360000303033370000303033380000BA
:1058F0002053494D504C4558204D4F4445202000E1
:10590000205245504541544552204D4F444520209A
:1059100000002000434820550000202020202020A7
:105920002020202020200000434820560000202076
:10593000202020202020202020202020200043483C
:1059400000002020202000005458737562743D0030
:10595000487A20202000204543484F4C494E4B2098
:105960000000202020202020202020202020202077
:10597000202020002043482000002020202020203C
:1059800020202020000041542B444D4F53455447C4
:10599000524F55503D0030002C00204652454520C6
:1059A000534554200000537465702031322C35204B
:1059B0006B487A202020000053746570203130300D
:1059C000206B487A20202000537465702031204DD0
:1059D000487A202020202000537465702031302028
:1059E0004D487A2020202020000054585375623DF5
:1059F00038382E3520487A0054585375623D31327C
:105A0000332E30487A0054585375623D3020487A1E
:105A100000005458206F66663D004D487A0041549E
:105A20002B444D4F534554564F4C554D453D00006A
:105A300041542B444D4F5345544D49433D00205054
:105A40004D52206368616E6E656C200043482000F3
:105A500020534554555020200000537175656C63E8
:105A6000683D2000202020202020200050726573F7
:105A70007320656E636F6465720020200000202033
:105A8000202020202020202020202000566F6C7510
:105A90006D653D20000043544353532020202020B7
:105AA000000054585375623D3020487A2020200071
:105AB0005458206F66667365742020202000545867
:105AC0006F663D372E364D487A20200054586F6659
:105AD0003D3630306B487A20200054586F663D20A8
