:100000000C9434000C94E60A0C945A0B18950000DA
:10001000189500001895000018950000189500002C
:10002000189500001895000018950000189500001C
:10003000189500001895000018950000189500000C
:1000400018950000189500001895000018950000FC
:1000500018950000189500001895000018950000EC
:1000600018950000189500008FEF8DBFC0ECE8E5F3
:100070004E2E88E08EBFD7E0F5E05F2EA89584B7BE
:10008000082E877F84BF88E1992780936000909332
:100090006000EEEFF7E0A0E0B1E088278D933197A4
:1000A000E9F78CE08093C40080E08093C50088E18C
:1000B0008093C10072E07093C000662470910001CB
:1000C0007F7770930001239A3B9A3A9A389A399A2B
:1000D0000E94F91E0E94F91E0E942E1F81E20E94BA
:1000E000181F8EEB0E94181F81E080930601249A4E
:1000F0002C9A23987894709100017062709300019B
:10010000ACEBB1E0EAE9FBE40E94E321A4ECB1E04E
:10011000EEE9FBE40E94E321ACECB1E0E2EAFBE4AF
:100120000E94E321A4EDB1E0E6EAFBE40E94E321B2
:10013000709100017F7E7093000170910001777FC4
:1001400070930001A8EDB1E0EAE8FCE40E94A5216B
:10015000ADEDB1E0EAE8FCE40E94A521ECE7F3E0B4
:10016000A0E1B0E00E9417230A3018F011F00C94BF
:10017000BB000C94C400ECE7F3E0A0E1BB2781E0F6
:100180008C937BE70E94FB22ECE7F3E0A2EEB1E068
:100190000E94172380E18093E30181E08093E401D2
:1001A00081E08093E50188E08093E601E0E8F3E0F8
:1001B000A0E1B0E00E9417230A3018F011F00C946F
:1001C000E3000C94EC00E0E8F3E0A0E1BB2788E05A
:1001D0008C937BE70E94FB22E0E8F3E0A7EEB1E01E
:1001E0000E941723709100017B7F70930001559A44
:1001F000569A209A289AACEEB1E0EAEAFBE40E9413
:10020000E32100E010E020E030E0A8EEB1E00D9343
:100210001D932D933C9381E08093F201E1E8F3E09C
:10022000A0E1B0E00E9417230A3018F011F00C94FE
:100230001B010C942401E1E8F3E0A0E1BB2781E07D
:100240008C937BE70E94FB2281E08093F101E1E83F
:10025000F3E0A0EFB1E00E941723709100017E7FD0
:100260007093000180E08093F4018CE00E94121FE3
:10027000A6EFB1E0E0E9FCE40E94A52188E0E6EF0A
:10028000F1E004E00A93A6E0B2E00E94E622E6E391
:10029000F3E3A1E0B1E0ED93FC9381E080930301EF
:1002A0008AE080930401882780930501E0EAFCE45A
:1002B0000E94A71DE2EFFDE2A1E0B1E0ED93FC9307
:1002C00084E08093030181E0809304018827809378
:1002D0000501ECEAFCE40E94A71D85E08093030180
:1002E00081E080930401882780930501ECEBFCE416
:1002F0000E94A71DA6E0B2E00E94A11D8FEA809394
:10030000F5010091F501033C18F011F00C949B01EC
:1003100081E20E94181F8091F5010E94181F88EC4D
:1003200090E00E94071EA5EFB1E08C918F5F8C9347
:1003300010F40C948101E2E0F0E00E94AE1D0E94F6
:10034000F91E0E942E1F81E20E94181F83EC0E945A
:10035000181F0E9407105398529854985C9A5A9A02
:100360005B9A22981A9A7091F301777F7093F30148
:100370007091F30174607093F3017091F3017D7FCC
:100380007093F30124981C9A579A5F9A0E949A0FCF
:1003900081E085BD80E084BD7894809169008C7F88
:1003A00082608093690080916900837F8860809378
:1003B0006900E99AE89A0E942E1FE0EAF0E0A0E1C5
:1003C000B0E00E9417230F3F11F00C94EC0183E082
:1003D0008093F0010C94EF0181E08093F001709123
:1003E00068007460709368007CE170936D00709198
:1003F000680071607093680070916B007061709319
:100400006B007091F30170617093F3010E94C80F4B
:10041000EEEAFBE40E94F124ECECF1E00E9472238E
:100420000E94EF23EDE0F0E0A0EDB1E00E94E022B9
:100430001C990C941E025F980C941F025F9A709195
:1004400000017D7F709300010E945D10A3E2B0E087
:100450000C9104FB81E00EF080E08F93A0E0B1E00E
:100460008C9182FB81E00EF080E09F9189238823AC
:1004700011F40C944902709100017B7F709300018C
:1004800084EF91E00E94071E7091F30170617093F8
:10049000F3015498A3EFB1E09C9190FF04C04C9BF2
:1004A00010C09E7F9C934C990CC089E19F9390E073
:1004B0000E94071E9F914C9904C091609C930E94DA
:1004C000EE0F0091F001013011F00C94A107709132
:1004D00000017F7E70930001A6E0B1E0BA93AA9379
:1004E0000E944312229600911F01013011F00C94DA
:1004F0007E02709100017F7E7093000100911F01C8
:10050000023011F00C9489027091000170617093B7
:10051000000100911F01033011F00C9494027091BE
:100520000001706170930001A0E0B1E08C9184FB48
:1005300016F00C941103E7E0F1E00E947223E2EB65
:10054000FBE40E94F1240E94592318F011F00C944E
:10055000AB020C94DF02E7E0F1E0A8EBB1E00E940F
:10056000E02200911F01023011F00C94C902E6EB69
:10057000FBE40E94F124E8EBF1E00E9472230E9468
:100580008724EDE0F0E0A8EBB1E00E94E0220C94BB
:10059000DD02033011F00C94DD02E6EBFBE40E9477
:1005A000F124E8EBF1E00E9472230E949624EDE032
:1005B000F0E0A8EBB1E00E94E0220C941103E7E028
:1005C000F1E0A8EBB1E00E94E02200911F010230AF
:1005D00011F00C94FD02EAEBFBE40E94F124E8EB3D
:1005E000F1E00E9472230E948724EDE0F0E0A8EB86
:1005F000B1E00E94E0220C941103033011F00C943E
:100600001103EAEBFBE40E94F124E8EBF1E00E9425
:1006100072230E949624EDE0F0E0A8EBB1E00E9486
:10062000E02200910B01003011F00C942503ACE0A6
:10063000B1E0EEEBFBE40E94E321A8EDB1E0EAE8D3
:10064000FCE40E94A5210C94CF05013011F00C941C
:100650003703ACE0B1E0E2ECFBE40E94E321A8ED5B
:10066000B1E0E2ECFCE40E94A5210C94CF0502303D
:1006700011F00C944903ACE0B1E0E6ECFBE40E941D
:10068000E321A8EDB1E0E8ECFCE40E94A5210C9484
:10069000CF05033011F00C945B03ACE0B1E0EAEC61
:1006A000FBE40E94E321A8EDB1E0EEECFCE40E9443
:1006B000A5210C94CF05043011F00C946D03ACE02F
:1006C000B1E0EEECFBE40E94E321A8EDB1E0E4ED43
:1006D000FCE40E94A5210C94CF05053011F00C9488
:1006E0007F03ACE0B1E0E2EDFBE40E94E321A8ED82
:1006F000B1E0EAEDFCE40E94A5210C94CF050630A0
:1007000011F00C949103ACE0B1E0E6EDFBE40E9443
:10071000E321A8EDB1E0E0EEFCE40E94A5210C94F9
:10072000CF05073011F00C94A303ACE0B1E0EAED83
:10073000FBE40E94E321A8EDB1E0E6EEFCE40E94B8
:10074000A5210C94CF05083011F00C94B503ACE052
:10075000B1E0EEEDFBE40E94E321A8EDB1E0ECEEA8
:10076000FCE40E94A5210C94CF05093011F00C94F3
:10077000C703ACE0B1E0E2EEFBE40E94E321A8EDA8
:10078000B1E0E2EFFCE40E94A5210C94CF050A3011
:1007900011F00C94D903ACE0B1E0E6EEFBE40E946A
:1007A000E321A8EDB1E0E8EFFCE40E94A5210C9460
:1007B000CF050B3011F00C94EB03ACE0B1E0EAEEA6
:1007C000FBE40E94E321A8EDB1E0EEEFFCE40E941F
:1007D000A5210C94CF050C3011F00C94FD03ACE076
:1007E000B1E0EEEEFBE40E94E321A8EDB1E0E4E02D
:1007F000FDE40E94A5210C94CF050D3011F00C945E
:100800000F04ACE0B1E0E2EFFBE40E94E321A8EDCD
:10081000B1E0EAE0FDE40E94A5210C94CF050E3082
:1008200011F00C942104ACE0B1E0E6EFFBE40E948F
:10083000E321A8EDB1E0E0E1FDE40E94A5210C94E4
:10084000CF050F3011F00C943304ACE0B1E0EAEFC7
:10085000FBE40E94E321A8EDB1E0E6E1FDE40E94A3
:10086000A5210C94CF05003111F00C944504ACE0A7
:10087000B1E0EEEFFBE40E94E321A8EDB1E0ECE192
:10088000FDE40E94A5210C94CF05013111F00C94D8
:100890005704ACE0B1E0E2E0FCE40E94E321A8ED03
:1008A000B1E0E2E2FDE40E94A5210C94CF05023103
:1008B00011F00C946904ACE0B1E0E6E0FCE40E94C5
:1008C000E321A8EDB1E0E8E2FDE40E94A5210C944B
:1008D000CF05033111F00C947B04ACE0B1E0EAE009
:1008E000FCE40E94E321A8EDB1E0EEE2FDE40E9409
:1008F000A5210C94CF05043111F00C948D04ACE0CB
:10090000B1E0EEE0FCE40E94E321A8EDB1E0E4E315
:10091000FDE40E94A5210C94CF05053111F00C9443
:100920009F04ACE0B1E0E2E1FCE40E94E321A8ED29
:10093000B1E0EAE3FDE40E94A5210C94CF05063165
:1009400011F00C94B104ACE0B1E0E6E1FCE40E94EB
:10095000E321A8EDB1E0E0E4FDE40E94A5210C94C0
:10096000CF05073111F00C94C304ACE0B1E0EAE12B
:10097000FCE40E94E321A8EDB1E0E6E4FDE40E947E
:10098000A5210C94CF05083111F00C94D504ACE0EE
:10099000B1E0EEE1FCE40E94E321A8EDB1E0ECE47B
:1009A000FDE40E94A5210C94CF05093111F00C94AF
:1009B000E704ACE0B1E0E2E2FCE40E94E321A8ED50
:1009C000B1E0E2E5FDE40E94A5210C94CF050A31D7
:1009D00011F00C94F904ACE0B1E0E6E2FCE40E9412
:1009E000E321A8EDB1E0E8E5FDE40E94A5210C9427
:1009F000CF050B3111F00C940B05ACE0B1E0EAE24D
:100A0000FCE40E94E321A8EDB1E0EEE5FDE40E94E4
:100A1000A5210C94CF050C3111F00C941D05ACE010
:100A2000B1E0EEE2FCE40E94E321A8EDB1E0E4E6EF
:100A3000FDE40E94A5210C94CF050D3111F00C941A
:100A40002F05ACE0B1E0E2E3FCE40E94E321A8ED75
:100A5000B1E0EAE6FDE40E94A5210C94CF050E3139
:100A600011F00C944105ACE0B1E0E6E3FCE40E9437
:100A7000E321A8EDB1E0E0E7FDE40E94A5210C949C
:100A8000CF050F3111F00C945305ACE0B1E0EAE36F
:100A9000FCE40E94E321A8EDB1E0E6E7FDE40E945A
:100AA000A5210C94CF05003211F00C946505ACE043
:100AB000B1E0EEE3FCE40E94E321A8EDB1E0ECE755
:100AC000FDE40E94A5210C94CF05013211F00C9495
:100AD0007705ACE0B1E0E2E4FCE40E94E321A8ED9C
:100AE000B1E0E2E8FDE40E94A5210C94CF050232BA
:100AF00011F00C948905ACE0B1E0E6E4FCE40E945E
:100B0000E321A8EDB1E0E8E8FDE40E94A5210C9402
:100B1000CF05033211F00C949B05ACE0B1E0EAE4A0
:100B2000FCE40E94E321A8EDB1E0EEE8FDE40E94C0
:100B3000A5210C94CF05043211F00C94AD05ACE066
:100B4000B1E0EEE4FCE40E94E321A8EDB1E0E4E9C9
:100B5000FDE40E94A5210C94CF05053211F00C9400
:100B6000BF05ACE0B1E0E2E5FCE40E94E321A8EDC2
:100B7000B1E0EAE9FDE40E94A5210C94CF0506321C
:100B800011F00C94CF05ACE0B1E0E6E5FCE40E9486
:100B9000E321A8EDB1E0E0EAFDE40E94A5211C9963
:100BA0000C94D5055F980C94D6055F9A0E945D1051
:100BB000A3E2B0E00C9104FB81E00EF080E08F93A3
:100BC000A0E0B1E08C9182FB81E00EF080E09F918B
:100BD0008923882311F40C94FB05709100017B7F1D
:100BE0007093000184EF91E00E94071E7091F30161
:100BF00070617093F301F894E2EFFDE2A1E0B1E0DF
:100C0000ED93FC93A0E0B1E08C9184FB16F40C947E
:100C1000180681E08093030185E08093040181E060
:100C200080930501E6EAFDE40E94A71D0C942506C9
:100C300081E08093030181E08093040181E080934F
:100C40000501E6EBFDE40E94A71D7894E6E3F3E3DB
:100C5000A1E0B1E0ED93FC9383E08093030182E097
:100C600080930401882780930501A0E4B5E0E7E0C4
:100C7000F1E0552744E00E94F31F0E949F1DE8EC1D
:100C8000FDE40E94A71DA0E0B1E08C9184FB16F06A
:100C90000C947F061C9B0C94660683E080930301F2
:100CA00082E080930401882780930501A0E4B5E0E9
:100CB000E7E0F1E0552744E00E94F31F0E949F1DEA
:100CC000E8ECFDE40E94A71D0C947D0683E0809370
:100CD000030182E080930401882780930501A0E44A
:100CE000B5E0E8EBF1E0552744E00E94F31F0E94D5
:100CF0009F1DE8ECFDE40E94A71D0C94960683E07E
:100D00008093030182E0809304018827809305018A
:100D1000A0E4B5E0E7E0F1E0552744E00E94F31FCE
:100D20000E949F1DE8ECFDE40E94A71D5498A3EFCC
:100D3000B1E09C9190FF04C04C9B10C09E7F9C939F
:100D40004C990CC089E19F9390E00E94071E9F91EF
:100D50004C9904C091609C930E94EE0FE2EFFDE27B
:100D6000A1E0B1E0ED93FC93F894A0E0B1E08C91A8
:100D700084FB16F40C941F07E7E0F1E00E94722355
:100D8000E2EBFBE40E94F1240E94592318F011F0D9
:100D90000C94CC060C94EF0686E08093030182E06D
:100DA00080930401882780930501EAECFDE40E940A
:100DB000A71DA0E4B5E0EDE1F1E00E945C220E94F5
:100DC0009F1DE8ECFDE40E94A71DA3E1B1E00E9495
:100DD000A11DEEECFDE40E94A71D0C94100786E017
:100DE0008093030182E080930401882780930501AA
:100DF000EAECFDE40E94A71DA0E4B5E0EDE1F1E01E
:100E00000E945C220E949F1DE8ECFDE40E94A71D49
:100E1000A3E1B1E00E94A11DEEECFDE40E94A71D3C
:100E200085E08093030182E080930401882780930A
:100E30000501E6EDFDE40E94A71D0C946B0786E01A
:100E40008093030182E08093040188278093050149
:100E5000EAECFDE40E94A71DA0E4B5E0EDE1F1E0BD
:100E60000E945C220E949F1DE8ECFDE40E94A71DE9
:100E7000A3E1B1E00E94A11DE4EEFDE40E94A71DE4
:100E8000A0E4B5E0AF93BF93ECE0F1E00E947223E1
:100E90000E94161E11E001E0BF91AF910E94F8215F
:100EA000E0E4F5E0A0E1B1E00E94DB2285E0809380
:100EB000030182E080930401882780930501EAEE14
:100EC000FDE40E94A71DA0E1B1E00E94A11DE0EF9A
:100ED000FDE40E94A71D7894A3EFB1E08C9184FB00
:100EE00016F00C948607E7E0F1E0A4EBB1E00E9475
:100EF000E022A0E0B1E08C9184FB16F40C9484070E
:100F00000E942B0A0C9486070E94780A0E94951D65
:100F1000A3EFB1E08C9183FB16F00C94940773B7A8
:100F2000707F756073BF8895A3EFB1E08C9183FBF0
:100F3000882780F9809580FBA3EFB1E08C9183F93D
:100F40008C930091F001023011F00C941E090E9464
:100F50002E1FE2EFFDE2A1E0B1E0ED93FC9381E012
:100F60008093030185E08093040181E08093050173
:100F7000E6EFFDE40E94A71D1C990C94C2075F9840
:100F80000C94C3075F9A0E945D105498A3EFB1E0E0
:100F90009C9190FF04C04C9B10C09E7F9C934C99E9
:100FA0000CC089E19F9390E00E94071E9F914C998D
:100FB00004C091609C930E941210E6E3F3E3A1E069
:100FC000B1E0ED93FC9383E08093030187E080938D
:100FD0000401882780930501A0E4B5E0E0EDF1E08D
:100FE000552744E00E94F31F0E949F1DE2EFFDE29F
:100FF000A1E0B1E0ED93FC930091F101013011F01B
:101000000C941708ACEEB1E0EAEAFBE40E94E3219D
:1010100086E08093030187E0809304018827809312
:101020000501E2E0FEE40E94A71D0C946008023076
:1010300011F00C943008ACEEB1E0EAE5FCE40E945B
:10104000E32186E08093030187E0809304018827F1
:1010500080930501E4E1FEE40E94A71D0C94600862
:10106000033011F00C944908ACEEB1E0EEEAFBE479
:101070000E94E32186E08093030187E080930401CE
:10108000882780930501E4E2FEE40E94A71D0C94EA
:101090006008043011F00C946008ACEEB1E0EEE5AD
:1010A000FCE40E94E32186E08093030187E08093C3
:1010B0000401882780930501E4E3FEE40E94A71D54
:1010C000A3EFB1E08C9184FB16F00C94DA087091D8
:1010D000F3017F7E7093F301E6E4FEE40E948E1D2F
:1010E000E6E5FEE40E948E1DE8E5FEE40E948E1D0A
:1010F000A0E4B5E0E0EDF1E0552744E00E94F31FE5
:101100000E94861DE8E5FEE40E948E1DA0E4B5E085
:10111000E0EDF1E0552744E00E94F31F0E94861D98
:10112000E8E5FEE40E948E1DA8EDB1E00E94881D56
:10113000E8E5FEE40E948E1DA0E4B5E0E2EEF1E0F9
:101140000E9463220E94861DE8E5FEE40E948E1D37
:10115000ADEDB1E00E94881D0E94951DEAE5FEE418
:101160000E948E1DA0E4B5E0E7EEF1E00E9463224C
:101170000E94861D0E94951DECE6FEE40E948E1DD5
:10118000A0E4B5E0E6EEF1E00E9463220E94861D35
:10119000E8E5FEE40E948E1DE6E5FEE40E948E1D59
:1011A000E8E5FEE40E948E1DE6E5FEE40E948E1D49
:1011B0000E94951D0E945D100E94951DA3EFB1E055
:1011C0008C9183FB16F00C94EA0873B7707F7560FE
:1011D00073BF8895A3EFB1E08C9183FB882780F9DA
:1011E000809580FBA3EFB1E08C9183F98C93A0E014
:1011F000B1E08C9183FB16F00C94BC070E949A0F0F
:101200000E942E1F70910001777F70930001ACEE59
:10121000B1E0EAEAFBE40E94E32183E08093F0017D
:1012200081E08093F201A8EDB1E0EAE8FCE40E94DD
:10123000A5217091F30170617093F3010091F001A9
:10124000033011F00C94F40981E08093F2010E94C4
:101250002E1F0E945D1081E08093030185E0809342
:10126000040181E080930501EAE7FEE40E94A71DE6
:101270005498A3EFB1E09C9190FF04C04C9B10C028
:101280009E7F9C934C990CC089E19F9390E00E94B3
:10129000071E9F914C9904C091609C930E94CC0EB4
:1012A0000091F201013011F00C948409F89483E06C
:1012B0008093030188E080930401882780930501CF
:1012C000E4E8FEE40E94A71DA0E4B5E0E2EEF1E050
:1012D0000E9463220E949F1DEEECFDE40E94A71D68
:1012E00085E08093030188E0809304018827809340
:1012F0000501EEE8FEE40E94A71DECE9FEE40E9471
:10130000A71D78940C94E409023011F00C94A509FF
:10131000F89483E08093030188E080930401882798
:1013200080930501E0EAFEE40E94A71DA0E4B5E079
:10133000E7EEF1E00E9463220E949F1DEEECFDE4C7
:101340000E94A71D78940C94E409033011F00C94CA
:10135000CF09F89483E08093030188E0809304012F
:10136000882780930501EAEAFEE40E94A71DEEECBF
:10137000FDE40E94A71D85E08093030188E080932F
:101380000401882780930501EEE8FEE40E94A71D72
:10139000ECE9FEE40E94A71D78940C94E409043063
:1013A00011F00C94E40983E08093030188E08093BA
:1013B0000401882780930501E8EBFEE40E94A71D45
:1013C000E6ECFEE40E94A71D0091F001013011F04F
:1013D0000C9429090E942E1F81E08093F0017091E6
:1013E000F301777F7093F3015498A3EFB1E09C91E0
:1013F00090FF04C04C9B10C09E7F9C934C990CC0E6
:1014000089E19F9390E00E94071E9F914C9904C030
:1014100091609C930E94EE0F0E94951DA3EFB1E096
:101420008C9183FB16F00C941A0A73B7707F756069
:1014300073BF8895A3EFB1E08C9183FB882780F977
:10144000809580FBA3EFB1E08C9183F98C930C9491
:101450001802F894FFCF7091F3017F7E7093F3012F
:101460007091F30178607093F301E6E4FEE40E946A
:101470008E1DE6E5FEE40E948E1DE8E5FEE40E9476
:101480008E1DA0E4B5E0E4EBF1E0552744E00E94B6
:10149000F31F0E94861DE8E5FEE40E948E1DA0E475
:1014A000B5E0E4EBF1E0552744E00E94F31F0E9411
:1014B000861DE8E5FEE40E948E1DA8EDB1E00E94C5
:1014C000881DE8E5FEE40E948E1DA0E4B5E0E2EE92
:1014D000F1E00E9463220E94861DE8E5FEE40E947E
:1014E0008E1DADEDB1E00E94881D0E94951D0895EE
:1014F0007091F30178607093F3017091F3017F7E36
:101500007093F301E6E4FEE40E948E1DE6E5FEE43E
:101510000E948E1DE8E5FEE40E948E1DA0E4B5E069
:10152000E8EBF1E0552744E00E94F31F0E94861D7E
:10153000E8E5FEE40E948E1DA0E4B5E0E7E0F1E0FE
:10154000552744E00E94F31F0E94861DE8E5FEE453
:101550000E948E1DA8EDB1E00E94881DE8E5FEE422
:101560000E948E1DA0E4B5E0E2EEF1E00E9463224D
:101570000E94861DE8E5FEE40E948E1DADEDB1E0FF
:101580000E94881D0E94951D0895F894AEE0B2E077
:10159000E8944C9109B1882703FD816002FD8260C7
:1015A000841711F4B6F310C08C934295840F8230E7
:1015B00049F0803139F0833229F0813319F00E94EB
:1015C000CE0B02C00E945A0D789408950F921F927C
:1015D0002F923F924F925F927F92AF92BF920F9362
:1015E0001F932F933F934F935F936F937F938F93AB
:1015F0009F93AF93BF93CF93DF93EF93FF938FB7F7
:101600008F93F894A9E2B0E00C9102FB81E00EF018
:1016100080E08F93A9E2B0E00C9103FB81E00EF42F
:1016200080E09F918923882311F40C941E0B709104
:10163000F30170687093F3010E94CE0BA9E2B0E051
:101640000C9102FB81E00EF480E08F93A9E2B0E000
:101650000C9103FB81E00EF080E09F9189238823A9
:1016600011F40C943A0B7091F30170687093F301CC
:101670000E94CE0B789480E080930D028F918FBFF3
:10168000FF91EF91DF91CF91BF91AF919F918F919A
:101690007F916F915F914F913F912F911F910F918A
:1016A000BF90AF907F905F904F903F902F901F9092
:1016B0000F9018950F921F922F923F924F925F9228
:1016C0007F92AF92BF920F931F932F933F934F93AD
:1016D0005F936F937F938F939F93AF93BF93CF93BA
:1016E000DF93EF93FF938FB78F93F894A9E2B0E065
:1016F0000C9103FB81E00EF080E08F93A9E2B0E053
:101700000C9102FB81E00EF480E09F9189238823F5
:1017100011F40C94920B7091F30170687093F301C3
:101720000E945A0DA9E2B0E00C9103FB81E00EF497
:1017300080E08F93A9E2B0E00C9102FB81E00EF013
:1017400080E09F918923882311F40C94AE0B709153
:10175000F30170687093F3010E945A0D789480E051
:1017600080930D028F918FBFFF91EF91DF91CF9109
:10177000BF91AF919F918F917F916F915F914F91A9
:101780003F912F911F910F91BF90AF907F905F90ED
:101790004F903F902F901F900F901895A3EFB1E0BE
:1017A0008C9187FB16F00C94540D7091F3017F77A8
:1017B0007093F301A3EFB1E08C9185FB882780F94A
:1017C000809580FBA3EFB1E08C9185F98C93A0E02C
:1017D000B1E08C9181FB16F40C940A0C8091F2011B
:1017E00081508093F2010091F201003081E009F014
:1017F00080E08F930091F2010F3F81E010F009F03B
:1018000080E09F918923882311F40C940A0C84E0D2
:101810008093F2010E944B160091F001013011F00B
:101820000C94230C80910601815080930601009155
:101830000601003011F00C94210C8091200180935E
:1018400006010C94CC0C063011F00C945C0C8091C9
:10185000E40181508093E4010091E401003081E0D3
:1018600010F009F080E08F930091E4010A3080E0ED
:1018700010F009F081E09F91892B882311F40C94DA
:101880004A0C86E08093E401ACEBB1E0E2E6FCE4D4
:101890000E94E321EEEAFBE40E94F124ECEBF1E08C
:1018A0000E9472230E94EF23EDE0F0E0A0ECB1E093
:1018B0000E94E0220C94CC0C023011F00C94950C98
:1018C000ECEEF1E00E947723ECECF1E00E94722351
:1018D0000E948724EDE0F0E0ACECB1E00E94E02251
:1018E000ECECF1E00E947223E6E6FCE40E94F124B5
:1018F0000E94592310F00C94830CACECB1E0E6E6A6
:10190000FCE40E94E321EEEAFBE40E94F124ECEC0B
:10191000F1E00E9472230E94EF23EDE0F0E0A0EDE1
:10192000B1E00E94E0220C94CC0C033011F00C9436
:10193000CC0C8091E50181508093E5010091E50197
:10194000003081E010F009F080E08F930091E50114
:10195000013180E010F009F081E09F91892B88230C
:1019600011F40C94BC0C80E18093E501A4ECB1E08F
:10197000EAE6FCE40E94E321EEEAFBE40E94F124A3
:10198000E4ECF1E00E9472230E94EF23EDE0F0E02E
:10199000A8ECB1E00E94E022A0E0B1E08C9181FBD4
:1019A00016F00C94540D0091F201013011F00C94DA
:1019B000F80C8091E20181508093E2010091E201F4
:1019C0000F3F81E010F009F080E08F930091E20179
:1019D0000A3080E010F009F081E09F91892388238C
:1019E00011F40C94F60C80E08093E2010C94120D3B
:1019F000023011F00C940C0D8091E701815080931E
:101A0000E7010091E7010F3F11F00C940A0D80E00F
:101A10008093E7010C94120D033011F00C94120D19
:101A20000E946C10E6E4FEE40E948E1DE6E5FEE4F2
:101A30000E948E1DE8E5FEE40E948E1DA0E4B5E044
:101A4000E0ECF1E0552744E00E94F31F0E94861D60
:101A5000E8E5FEE40E948E1DA0E4B5E0E0ECF1E0D4
:101A6000552744E00E94F31F0E94861DE8E5FEE42E
:101A70000E948E1DA8EDB1E00E94881DE8E5FEE4FD
:101A80000E948E1DA0E4B5E0E2EEF1E00E94632228
:101A90000E94861DE8E5FEE40E948E1DADEDB1E0DA
:101AA0000E94881D0E94951D7091F30170617093D2
:101AB000F3010895A3EFB1E08C9187FB16F00C942D
:101AC000C60E7091F3017F777093F301A3EFB1E03D
:101AD0008C9186FB882780F9809580FBA3EFB1E08D
:101AE0008C9186F98C93A0E0B1E08C9181FB16F487
:101AF0000C94950DA2EFB1E08C918F5F8C930091C7
:101B0000F201053081E008F480E08F930091F2014A
:101B10000A3081E008F080E09F918923882311F446
:101B20000C94950D81E08093F2010E944B16009178
:101B3000F001013011F00C94B20DA6E0B1E08C91EF
:101B40008F5F8C934091200100910601041718F0DB
:101B500011F00C94AD0D0C94B00D81E08093060152
:101B60000C94400E063011F00C94DC0DA4EEB1E0A4
:101B70008C918F5F8C930091E401073010F40C94EA
:101B8000CA0D81E08093E401ACEBB1E0EAE9FBE44B
:101B90000E94E321EEEAFBE40E94F124ECEBF1E089
:101BA0000E9472230E94EF23EDE0F0E0A0ECB1E090
:101BB0000E94E0220C94400E023011F00C94180E9A
:101BC000ECEEF1E00E947723ECECF1E00E9472234E
:101BD0000E949624EDE0F0E0ACECB1E00E94E0223F
:101BE000ECECF1E00E947223EEE6FCE40E94F124AA
:101BF0000E94592318F011F00C94000E0C94060E5C
:101C0000ACECB1E0EEE6FCE40E94E321EEEAFBE49A
:101C10000E94F124ECECF1E00E9472230E94EF2379
:101C2000EDE0F0E0A0EDB1E00E94E0220C94400E67
:101C3000033011F00C94400EA5EEB1E08C918F5F53
:101C40008C930091E501013110F40C94300E81E089
:101C50008093E501A4ECB1E0EEE9FBE40E94E3210E
:101C6000EEEAFBE40E94F124E4ECF1E00E9472232E
:101C70000E94EF23EDE0F0E0A8ECB1E00E94E0224A
:101C8000A0E0B1E08C9181FB16F00C94C60E00919F
:101C9000F201013011F00C946A0EA2EEB1E08C91C9
:101CA0008F5F8C930091E201093081E008F480E0BD
:101CB0008F930091E2010B3081E008F080E09F916A
:101CC0008923882311F40C94680E88E08093E20144
:101CD0000C94840E023011F00C947E0EA7EEB1E04D
:101CE0008C918F5F8C930091E701093011F00C9477
:101CF0007C0E88E08093E7010C94840E033011F091
:101D00000C94840E0E946C10E6E4FEE40E948E1D8A
:101D1000E6E5FEE40E948E1DE8E5FEE40E948E1DCD
:101D2000A0E4B5E0E0ECF1E0552744E00E94F31FA9
:101D30000E94861DE8E5FEE40E948E1DA0E4B5E049
:101D4000E0ECF1E0552744E00E94F31F0E94861D5D
:101D5000E8E5FEE40E948E1DA8EDB1E00E94881D1A
:101D6000E8E5FEE40E948E1DA0E4B5E0E2EEF1E0BD
:101D70000E9463220E94861DE8E5FEE40E948E1DFB
:101D8000ADEDB1E00E94881D0E94951D7091F30198
:101D900070617093F3010895709100017260709307
:101DA00000010E9407100091F201013011F00C9423
:101DB000FB0EECE7F3E0A2EEB1E07BE70E94FB2232
:101DC00083E08093030188E0809304018827809357
:101DD0000501E4E8FEE40E94A71DA0E4B5E0E2EE00
:101DE000F1E00E9463220E949F1DEEECFDE40E9440
:101DF000A71D0C94600F023011F00C94210FE0E845
:101E0000F3E0A7EEB1E07BE70E94FB2283E0809342
:101E1000030188E080930401882780930501E0EAAC
:101E2000FEE40E94A71DA0E4B5E0E7EEF1E00E9409
:101E300063220E949F1DEEECFDE40E94A71D0C94FE
:101E4000600F033011F00C944B0F85E08093030179
:101E500088E080930401882780930501ECECFEE480
:101E60000E94A71DECE9FEE40E94A71D86E0809376
:101E7000030188E080930401882780930501E8ED41
:101E8000FEE40E94A71DECE9FEE40E94A71D0E944B
:101E90006C100C94600F043011F00C94600F83E010
:101EA0008093030188E080930401882780930501D3
:101EB000E6EEFEE40E94A71D0E949A0F0C947C0F90
:101EC0004C990C94750F8CE291E00E94071E4C997E
:101ED0000C94750F709100017D7F709300010E943A
:101EE00007100E9407100C947C0FA0E0B1E08C91C9
:101EF00081FB16F40C94D30E0E942E1F0E942B0A15
:101F000084E690E00E94071EEAE5FEE40E948E1D32
:101F1000A0E4B5E0E7EEF1E00E9463220E94861D96
:101F20000E94951D82E390E00E94071E81E080934D
:101F3000F0010895E0E7F3E0ACEBB1E094E07BE77B
:101F40000E94FE22E4E7F3E0A4ECB1E094E07BE73A
:101F50000E94FE22E8E7F3E0ACECB1E094E07BE71E
:101F60000E94FE22EDE7F3E0A3EEB1E07BE70E94E2
:101F7000FB22EEE7F3E0A4EEB1E07BE70E94FB2258
:101F8000EFE7F3E0A5EEB1E07BE70E94FB220895C6
:101F90000895A7E0B1E0E2E7FCE40E94E321ACEBA6
:101FA000B1E0EAE9FBE40E94E321A4ECB1E0EEE950
:101FB000FBE40E94E321ACECB1E0E2EAFBE40E9426
:101FC000E321A4EDB1E0E6EAFBE40E94E32181E035
:101FD0008093E40181E08093E50108950E94071059
:101FE000A0EFB1E08C918F5F8C930091F0010430F1
:101FF00011F00C94FE0F81E08093F0017091F301D9
:1020000070617093F30180E080930D020895289829
:1020100082E390E00E94071E289A82E390E00E94EB
:10202000071E08957091F30170617093F301A3EF9F
:10203000B1E08C9181FB882780F9809580FBA3EF2C
:10204000B1E08C9181F98C930E940710A0E0B1E07F
:102050008C9184FB882780F9809580FBA0E0B1E01B
:102060008C9184F98C93A1EFB1E08C918F5F8C936C
:102070000091F101063010F40C94411081E080933E
:10208000F1014C990C9459108CE291E00E94071ECA
:102090004C990C945910709100017D7F7093000150
:1020A0000E9407100E9407107091000178607093E1
:1020B000000180E080930D0208951C990C94691032
:1020C000709100017460709300015D9A5E980C94A9
:1020D0006B105E9A5D98089570910001777F709300
:1020E00000018CE291E00E94071E2398249A0E942E
:1020F000F41DA9E8B1E08C9300918901003018F03B
:1021000011F00C9485100C94B410A3EBB1E08C91F9
:102110008F5F8C9380918901A3EBB1E0AD90BB24DC
:10212000A9E8B1E0AA0DBB1D8C93009189010A308A
:1021300011F00C94A3107091000170647093000171
:1021400080E08093B3010091B301083218F011F0E0
:102150000C94AC100C94B41080E08093B301709197
:1021600000017F7B70930001A0E0B1E08C9186FBC1
:1021700016F00C94CB10709100017F7B70930001DE
:1021800080E08093B301EAE8F1E0A1E2B1E00E94CF
:10219000DB220E9416114C990C94E3108CE291E022
:1021A0000E94071E4C990C94E310709100017D7FF2
:1021B000709300010E9407100E94071070910001A7
:1021C000786070930001A0E0B1E08C9183FB16F081
:1021D0000C94771070910001777F7093000185E077
:1021E0008093F20181E090E0A7E8B1E08D939C93A9
:1021F00024980E94F91EE2EFFDE2A1E0B1E0ED9328
:10220000FC9385E08093030188E080930401882794
:1022100080930501E4EFFEE40E94A71DECE9FEE4D3
:102220000E94A71D81E080930601089584E30E9427
:102230009521E1E2F1E003E0A881B9810E94ED225D
:10224000A881B981E4E0FFE40E9437230FB684E35C
:10225000481A80E0580A22960FBE11F00C943A11E9
:102260000E94CF11A1E2B1E088278C93A4E5B1E0F0
:1022700088278C9384E30E949521E1E2F1E003E05A
:10228000A881B9810E94ED22A881B981E8E0FFE42C
:102290000E9437230FB684E3481A80E0580A22963A
:1022A0000FBE11F00C94731184E0E1E2F1E002E062
:1022B0000A93A4E5B1E00E94E622A4E5B1E00E9401
:1022C000A922A0E2B1E00C93A0E2B1E0BA93AA93F4
:1022D0000E94DD152296A1E2B1E088278C93A4E547
:1022E000B1E088278C9384E30E949521E1E2F1E03C
:1022F00003E0A881B9810E94ED22A881B981ECE0B8
:10230000FFE40E9437230FB684E3481A80E0580A9E
:1023100022960FBE11F00C9497110E944B16A1E269
:10232000B1E088278C93A4E5B1E088278C9384E3FF
:102330000E949521E1E2F1E003E0A881B9810E94C9
:10234000ED22A881B981E0E1FFE40E9437230FB6B6
:1023500084E3481A80E0580A22960FBE11F00C94CC
:10236000BB110E948C12A1E2B1E088278C93A4E5F6
:10237000B1E088278C93A1E2B1E0E4E1FFE40E94A0
:10238000372311F00C94CE110E948E14A1E2B1E01B
:1023900088278C93A4E5B1E088278C93089581E089
:1023A0008093200100912001083218F011F00C9464
:1023B0003C12EEEBFBE40E94E424E0E2F1E0A190A9
:1023C000BB24ECEFFFEFAA0CBB1CAA0CBB1CEA0D54
:1023D000FB1DADE0BB2794E07BE70E94FE22E0E21C
:1023E000F1E0A190BB24EFE9F0E0EA0DFB1DA0E1D4
:1023F000BB2780E08C937BE70E94FB22A42DB52DA8
:10240000E8E1FFE40E94A521E0E2F1E0019111275B
:102410004EE050E00E949B21EAEBF0E0E00FF11F5C
:10242000D2017BE70E940C23E0E2F1E0A190BB2403
:10243000E6EFF2E0AA0CBB1CEA0DFB1D00E010E089
:10244000A0E1BB277BE70E94FD22E0E2F1E0A19042
:10245000BB24E7E4F3E0EA0DFB1DA0E1BB2780E02D
:102460008C937BE70E94FB22A0E2B1E08C918F5F0E
:102470008C9310F40C94D211EEE1FFE40E94D81D6D
:102480000E94DF1D0895A7E0B1E0E881F981A190E5
:10249000BB24ECEFFFEFAA0CBB1CAA0CBB1CEA0D83
:1024A000FB1D94E00E941A23E881F981A190BB24CE
:1024B000EFE9F0E0EA0DFB1DABE0B1E00E9417236D
:1024C000E881F981019111274EE050E00E949B21A3
:1024D000EAEBF0E0E00FF11FA3E1B1E09DE00E9424
:1024E0002123E881F981A190BB24E6EFF2E0AA0C58
:1024F000BB1CEA0DFB1DADE1B1E00E941923E88190
:10250000F981A190BB24E7E4F3E0EA0DFB1DAFE104
:10251000B1E00E941723089581E00E94952181E097
:102520000E94952181E00E94952181E00E949521E1
:1025300081E00E94952181E00E94952181E00E9426
:10254000952181E00E94952181E00E94952181E002
:102550000E9495218AE00E94952182E00E949521A7
:1025600081E00E94952184E00E949521A1E2B1E0E2
:10257000E6E3FFE42FEF91E00E94B021AC89BD8932
:102580000C93AC89BD890C9141E0040FAE89BF89E1
:102590000C93AE89BF899C919A93A1E2B1E0E6E3E6
:1025A000FFE42FEF0E94AB21AA89BB890C93AA8973
:1025B000BB890C9141E0040FAE89BF890C93AE89B1
:1025C000BF899C919A93A1E2B1E0E6E3FFE42FEF8B
:1025D0000E94AB21A889B9890C93A889B9890C916B
:1025E00041E0040FAE89BF890C93AE89BF899C91ED
:1025F0009A93A1E2B1E0E6E3FFE42FEF0E94AB2162
:10260000AE85BF850C93AE85BF850C9141E0040F6C
:10261000AE89BF890C93AE89BF899C919A93A1E240
:10262000B1E0E6E3FFE42FEF0E94AB21AC85BD856E
:102630000C93AC85BD850C9141E0040FAE89BF8938
:102640000C93AE89BF899C919A93A1E2B1E0E6E335
:10265000FFE42FEF0E94AB21AA85BB850C93AA85CE
:10266000BB850C9141E0040FAE89BF890C93AE8904
:10267000BF899C919A93A1E2B1E0E6E3FFE42FEFDA
:102680000E94AB21A885B9850C93AC89BD890C91BA
:1026900041E0040FAE89BF890C93AA89BB890C91D4
:1026A000AE89BF894C91041BA88DB98D0C93AE895E
:1026B000BF898C91E1E2F1E0A88DB98D0C910A936C
:1026C000AF81B8850E94E622AE81BF810E94A92217
:1026D000AA8DBB8D0C93AA89BB890C9141E0040F94
:1026E000AE89BF890C93A889B9890C91AE89BF893D
:1026F0004C91041BA88DB98D0C93AE89BF898C9128
:10270000E1E2F1E0A88DB98D0C910A93AF81B88513
:102710000E94E622AE81BF810E94FE24EDE0F0E03F
:10272000A881B9810E94E022EEEAFBE40E94F12434
:10273000E881F9810E9472230E94EF23EDE0F0E02E
:10274000A881B9810E94E022EA8DFB8DA190BB2473
:10275000ECEFFFEFAA0CBB1CAA0CBB1CEA0DFB1D87
:10276000A881B98194E07BE70E94FE22A889B989FB
:102770000C9141E0040FAE89BF890C93AE85BF85F3
:102780000C91AE89BF894C91041BA88DB98D0C9317
:10279000AE89BF898C91E1E2F1E0A88DB98D0C91F1
:1027A0000A93AF81B8850E94E622AE81BF810E9464
:1027B000A922AA81BB810C93EA8DFB8DA190BB2439
:1027C000EFE9F0E0EA0DFB1DAA81BB817BE70E94E7
:1027D000FB22AE85BF850C9141E0040FAE89BF8915
:1027E0000C93AC85BD850C91AE89BF894C91041BBF
:1027F000A88DB98D0C93AE89BF898C91E1E2F1E08F
:10280000A88DB98D0C910A93AF81B8850E94E622FC
:10281000EA8DFB8D019111274EE050E00E949B2133
:10282000EAEBF0E0E00FF11FAE81BF817BE70E9491
:102830000C23AC85BD850C9141E0040FAE89BF89A6
:102840000C93AA85BB850C91AE89BF894C91041B62
:10285000A88DB98D0C93AE89BF898C91E1E2F1E02E
:10286000A88DB98D0C910A93AF81B8850E94E6229C
:10287000AE81BF810E94A922AC81BD810D931C93C2
:10288000EA8DFB8DA190BB24E6EFF2E0AA0CBB1C05
:10289000EA0DFB1DAC81BD817BE70E94FD22AA856C
:1028A000BB850C9141E0040FAE89BF890C93A885CC
:1028B000B9850C91AE89BF894C91041BA88DB98D47
:1028C0000C93AE89BF898C91E1E2F1E0A88DB98DBE
:1028D0000C910A93AF81B8850E94E622AE81BF8138
:1028E0000E94A922AA81BB810C93EA8DFB8DA19045
:1028F000BB24E7E4F3E0EA0DFB1DAA81BB817BE783
:102900000E94FB22E8E3FFE40E94D81D0E94DF1D25
:102910008BE1481A80E0580A6C960895E6E7FCE4DB
:102920000E94E424E0E0F0E0ADE0BB2794E07BE728
:102930000E94FE22E0EAF0E0A0E1BB2782E18C9356
:102940007BE70E94FB22A42DB52DE0E4FFE40E946A
:10295000A521E8ECF0E0D2017BE70E940C23E8EF30
:10296000F2E001E911E0A0E1BB277BE70E94FD2234
:10297000E8E4F3E0A0E1BB2781E08C937BE70E94D1
:10298000FB22EAE7FCE40E94E424E4E0F0E0ADE0AE
:10299000BB2794E07BE70E94FE22E1EAF0E0A0E1A1
:1029A000BB2783E18C937BE70E94FB22A42DB52DEE
:1029B000EAE4FFE40E94A521E6EDF0E0D2017BE726
:1029C0000E940C23EAEFF2E002E911E0A0E1BB274C
:1029D0007BE70E94FD22E9E4F3E0A0E1BB2782E06F
:1029E0008C937BE70E94FB22EEE7FCE40E94E42448
:1029F000E8E0F0E0ADE0BB2794E07BE70E94FE2238
:102A0000E2EAF0E0A0E1BB2784E18C937BE70E943F
:102A1000FB22A42DB52DE4E5FFE40E94A521E4EE00
:102A2000F0E0D2017BE70E940C23ECEFF2E003E937
:102A300011E0A0E1BB277BE70E94FD22EAE4F3E07E
:102A4000A0E1BB2783E08C937BE70E94FB22E2E8B6
:102A5000FCE40E94E424ECE0F0E0ADE0BB2794E06D
:102A60007BE70E94FE22E3EAF0E0A0E1BB2785E1DC
:102A70008C937BE70E94FB22A42DB52DEEE5FFE4AD
:102A80000E94A521E2EFF0E0D2017BE70E940C2337
:102A9000EEEFF2E004E911E0A0E1BB277BE70E9442
:102AA000FD22EBE4F3E0A0E1BB2784E08C937BE71D
:102AB0000E94FB22E6E8FCE40E94E424E0E1F0E06E
:102AC000ADE0BB2794E07BE70E94FE22E4EAF0E061
:102AD000A0E1BB2786E18C937BE70E94FB22A42D1B
:102AE000B52DE8E6FFE40E94A521E0E0F1E0D20187
:102AF0007BE70E940C23E0E0F3E005E911E0A0E1B0
:102B0000BB277BE70E94FD22ECE4F3E0A0E1BB27BA
:102B100085E08C937BE70E94FB22E2E7FFE40E94C2
:102B2000D81D0E94DF1D0895E8E8FFE40E94D81D2B
:102B3000E6E5FEE40E94D81DE6E3FFE40E94D81D0E
:102B4000A0E4B5E0E7E0F1E0552744E00E94F31F80
:102B50000E94E31DE6E3FFE40E94D81DA0E4B5E077
:102B6000EBE0F1E00E9463220E94E31DE6E3FFE454
:102B70000E94D81DA3E1B1E00E94E51DE6E3FFE459
:102B80000E94D81DA0E4B5E0EDE1F1E00E945C22D6
:102B90000E94E31DE6E3FFE40E94D81DA0E4B5E037
:102BA000EFE1F1E00E9463220E94E31DEEE8FFE402
:102BB0000E94D81D0E94DF1D089584E00E94952187
:102BC000AA81BB81BA93AA930E9443122296EEEA8D
:102BD000FBE40E94F124E7E0F1E00E9472230E94EE
:102BE0004824EDE0F0E00E948223A881B981EDE065
:102BF000FF270E94E022E8E8FFE40E94D81DA0E43D
:102C0000B5E0EA81FB810E9463220E94E31DE6E3B6
:102C1000FFE40E94D81DA0E4B5E0E881F9810E949C
:102C200056220E94E31DE6E3FFE40E94D81DA0E4C3
:102C3000B5E0EBE0F1E00E9463220E94E31DE6E3D1
:102C4000FFE40E94D81DA3E1B1E00E94E51DE6E388
:102C5000FFE40E94D81DA0E4B5E0EDE1F1E00E94A0
:102C60005C220E94E31DE6E3FFE40E94D81DA0E47D
:102C7000B5E0EFE1F1E00E9463220E94E31DEEE87F
:102C8000FFE40E94D81D0E94DF1D84E0481A80E006
:102C9000580A2296089584E00E94952181E080934D
:102CA000200100912001083218F011F00C948016D8
:102CB000A881B981E0E2F1E0A190BB24ECEFFFEF45
:102CC000AA0CBB1CAA0CBB1CEA0DFB1D94E00E94C5
:102CD0001A23E881F9810E947223EEEBFBE40E9443
:102CE000F1240E94592311F00C9478160C9480164C
:102CF000A0E2B1E08C918F5F8C9310F40C9451168C
:102D0000A0E2B1E08C9181508C93E4E9FFE40E9451
:102D1000D81DA0E4B5E0E0E2F1E00E9463220E9449
:102D2000E31D0E94DF1D84E0481A80E0580A2296C5
:102D30000895ABE0B2E00E945D1DABE0B2E00D9102
:102D40001C9102345FE0150718F011F00C94AA16DC
:102D50000C94B51680E090E0ABE0B2E08D939C93CC
:102D6000ADE0B2E08C918F5F8C9300910D02033047
:102D700018F011F00C94BE160C94C11684E08093E8
:102D80000D0208950E94071084E080930D020895BB
:102D90003054008040201008AA020804AA0204024D
:102DA000AA3C0204AA010408AA03083040C000AAF1
:102DB0000300FF00AA4D00FF00AA0300FF00AA4D78
:102DC00000FF00AA0300FF00AA4D00FF00AA0300B5
:102DD000FF00AA4D00FF00AA03000304081020AA68
:102DE000032040AA3F4020AA03201008040300AAA1
:102DF00002000106060000000000000000005F0065
:102E00000000000300030000147F147F1400042A54
:102E10007F2A1000231308646200364956205000B0
:102E2000000300000000001C2241000041221C00A1
:102E300000002A1C7F1C2A0008083E0808000040E9
:102E400070300000080808080800000060600000FA
:102E50006010080403003E5149453E0000427F4097
:102E60000000625149494600224149493600181480
:102E700012117F002745454539003E45454539003B
:102E80000161110907003649494936000E51515177
:102E90003E00000036360000004076360000000894
:102EA000142200001414141414000022140800004A
:102EB0000201510906003E4955550E007C121112BF
:102EC0007C007F49494936003E41414122007F4113
:102ED00041221C007F49494941007F09090901003D
:102EE0003E41415172007F0808087F0000417F4148
:102EF00000002040413F01007F08142241007F4034
:102F0000404060007F020C027F007F0204087F00C7
:102F10003E4141413E007F1111110E003E41516181
:102F20007E007F09192946002649494932000101DE
:102F30007F0101003F4040403F001F2040201F0014
:102F40003F4038403F0063140814630007087008CE
:102F5000070061514945430000007F4141000304DF
:102F60000810600041417F000000040201020400DB
:102F7000404040404040010200000000304A4A3CCE
:102F800040007F48484830003844444420003048DE
:102F900048487F0038545454180000087E09000047
:102FA0000854545438007F080404780000487A40DC
:102FB00000000020403D00007F1010284400000069
:102FC0007F0000007C047C0478007C080404780006
:102FD0003844444438007C14141408000814147C49
:102FE00040007C08040408004854545424000004A1
:102FF0003F4400003C4040207C001C2040201C003E
:103000003C4030403C004428102844000C505050B4
:103010003C004464544C4400000008364100000069
:103020007F0000004136080000000804080400008A
:103030000000000000000000000000000000000090
:103040000000000000000000000000000000000080
:1030500000000000400040004000000000000000B0
:10306000000000000000143E5555410013086402A2
:1030700060000000000000000000000000000000F0
:103080000000000000000000000000000000000040
:103090000000000000000000000000000000000030
:1030A0000000000000000000000000000000000020
:1030B0000000000000183C3C180000000000000068
:1030C000000000000000003C24243C000000000040
:1030D00000000000000000000000000000000000F0
:1030E00000000000000000000000000000000000E0
:1030F00000000000000000000000000000000000D0
:103100000000000000000000000000000000005A65
:1031100024245A0000000000000000007700000096
:103120000000000000007C55545554003E415D55A0
:10313000413E00000000000008142A142200020290
:1031400002020E000000000000000000000000006D
:1031500000000000000006090906000000242E24DB
:10316000000000000000000000000000000000005F
:1031700000000000FC2040403C00040E7E027E0067
:103180000000080000003855545518007810207EC3
:10319000020000000000000022142A1408000000B1
:1031A000000000000000000000000000000000001F
:1031B0000002780200007C1211127C007F4949490C
:1031C00030007F49494936007F0101010100407EFE
:1031D000417F40007F494949410077087E087700D8
:1031E0002241494936007F2010087F007F201108C6
:1031F0007F007F0814224100403E01017F007F02D2
:1032000004027F007F0808087F003E4141413E00E4
:103210007F0101017F007F09090906003E4141410C
:10322000220001017F010100074848483F000C12BD
:103230007F120C006314081463003F20203F6000DD
:10324000070808087F007F407C407F003F203C202B
:103250003F60017F484830007F4830007F007F4852
:1032600048483000224149493E007F083E413E0027
:10327000462919097F002054545478007854545436
:1032800020007C54545428007C0404040400085496
:10329000545438003854545418006C1078106C0092
:1032A0002844545428003C4040407C003C4044406A
:1032B0007C007C1010284400403804047C007C080A
:1032C00010087C007C1010107C0038444444380006
:1032D0007C0404047C007C14141408003844444426
:1032E00028007C047C0478000C5050503C000814EA
:1032F0007C1408004428102844001C20203C600056
:103300000C1010107C003C4078407C001C203820C1
:103310003C60047C505020007C5020007C007C509D
:10332000505020002844545438007C103844380051
:10333000085434147C00020A14000000000000004D
:10334000000000000000000000000000000000007D
:103350000000FE0000000000000000001B00000054
:10336000000000001E0000001E0000000000000021
:103370000000000000000020A07826A07826200091
:103380000119070119070101010000001C2642FF75
:103390008202000000001810103F110F00001C22D4
:1033A00022229C403008040210080403000E111170
:1033B000110E00805C62A2321C0000800708101011
:1033C00011131C181601000000001E000000000070
:1033D00000000000000000000000000000E0180CE9
:1033E0000402020000000007183020000000000264
:1033F00002040C18E0000000000000203018070054
:103400000000000818F04EF018080000000000004E
:1034100000000000000000000000E00000000000CC
:10342000020202021F02020202000000000000006D
:10343000000000000000001838000000000000003C
:103440000000000000000000000001010101010176
:103450000000000000000000000000000000001854
:103460001800000000000000000000C0300C020046
:103470000000300C03000000000000F00C0202020B
:103480000CF0000000030C1010100C0300000004EE
:103490000404FE0000000000001010101F101010A7
:1034A00000000006020202C23C00000000181412D4
:1034B000111010000000000002424242BC00000057
:1034C0000000101010100F00000000C0201804FEB3
:1034D0000000000003020202021F020200000000BE
:1034E0003E22224282000000000010101008070057
:1034F000000000F04C222222428000000007081049
:1035000010100807000000020202C2320A06000082
:1035100000001807000000000000001CA24242A2A8
:10352000A21C0000000F1010101009060000007807
:103530008402020284F800000000101111110C0333
:1035400000000000006060000000000000000018A3
:103550001800000000000000006060000000000093
:10356000000000183800000000000000000080800B
:1035700040402000000003030404080810000080FD
:10358000808080808080800000040404040404049F
:103590000400002040408080000000000010080867
:1035A000040403030000000E02028242261C0000F5
:1035B0000000001B000000000000F01804E2120AE6
:1035C0008AFC0000030C181314161B0704040000E7
:1035D00080701830C0000000100E030202020203C7
:1035E0000C1000F88888888848300000001F1010F0
:1035F0001010110E0000C030100808080818000054
:10360000030C081010101010000000F8080808083B
:1036100010E00000001F101010100807000000F854
:103620000808080808080000001F111111111110E6
:10363000000000F80808080808080000001F010141
:1036400001010100000000C030100808080818003F
:1036500000030C08101011111F0000F800000000FA
:1036600000F80000001F01010101011F0000000817
:103670000808F80808080000001010101F101010AB
:103680000000000000080808F8000000000010100A
:1036900010100F00000000F880804020100800008B
:1036A000001F000102040408100000F800000000E0
:1036B00000000000001F1010101010100000F8385B
:1036C000E00000C038F800001F0001070601001FDD
:1036D000000000F81060800000F80000001F0000EB
:1036E0000106081F000000E0100808080810E000AC
:1036F0000007081010101008070000F80808080854
:1037000088700000001F010101010000000000E0BE
:10371000100808080810E000000708101010300812
:10372000070000F80808088870000000001F010169
:10373000030408100000007048888808081800007A
:10374000001810101011090E000008080808F808E9
:1037500008080800000000001F000000000000F83A
:103760000000000000F80000000718101010080703
:1037700000000830C000000000C030080000010652
:1037800018180700000018E00000E0C00000E01872
:1037900000031C0F00010E1C030008102040808055
:1037A000402010081008040201010204081008104B
:1037B0006080008040201008000000001F00000012
:1037C000000000080808088848281800001814128B
:1037D000111010101000000000FE02020202000092
:1037E0000000003F00000000000000020C30C0009C
:1037F000000000000000000000030C300000000288
:10380000020202FE0000000000000000003F000075
:103810000000000000E0380E70800000000403008B
:103820000000000304000000000000000000000091
:103830002020202020202020202000000000010245
:103840000000000000000000000000000000000078
:1038500020202020C0000000000C121111091F10B0
:10386000000000FE4020202060800000001F0810A3
:1038700010100807000000804020202020200000B9
:1038800000070810101010100000008040202020B9
:1038900040FE0000000718101010081F00000080F4
:1038A0004020202020C00000000709111111111133
:1038B0000000002020FC2422222222000000001F01
:1038C00000000000000000804020202040E00000B8
:1038D000000718101010083F000000FE8040202054
:1038E00020C00000001F00000000001F000000209A
:1038F0002026E60000000000000000001F0000007D
:1039000000000000202026E600000000000000006B
:10391000003F0000000000FE00008040402000004A
:10392000001F01030404081000000000020202FE50
:103930000000000000000000001F00000000E04048
:103940002020C0402020C0001F0000001F000000F9
:103950001F0000E0C040202020C00000001F000029
:103960000000001F00000080402020204080000058
:103970000007081010100807000000E04020202079
:1039800060800000003F0810101008070000008051
:103990004020202040E00000000718101010083FD1
:1039A00000000000E080402020E0000000001F0038
:1039B00000000000000000C02020202020000000A7
:1039C0000018111112120C000000002020F8202015
:1039D000202000000000000F10101010000000E078
:1039E00000000000E0000000000F101010081F0091
:1039F000000020C00000000000C0200000010618E8
:103A0000100C0300000060800000C0800000806097
:103A10000007180E01010E1807000020408000006A
:103A2000804020000010080403030408100020C098
:103A3000000000000000C020000003063818060146
:103A40000000002020202020A0602000001018147A
:103A500012111010100000000000FC020202000011
:103A6000000001013E000000000000000000FE0018
:103A700000000000000000003F0000000000000007
:103A8000020202FC0000000000000000003E0101F4
:103A90000000008080800000000000800300000023
:103AA0000101020202010080C0201020C08000003D
:103AB000001F10101010101F0000ED91FC91EF5F1F
:103AC000FF4FFC93EE93089505D00E949B2100FCCC
:103AD0000CD008950024E89457FF02C009D06894E0
:103AE00000F80BD010F80124089502D009D00895F1
:103AF000509540954F5F5F4F0895E89417FF0895E4
:103B0000009510950F5F1F4F68940895A0E4B5E0ED
:103B10008D91882311F00CD0FBCF08950E94DB21FA
:103B2000802D11F005D0FACF08958DE001D08AE004
:103B30000090C00005FEFCCF8093C6000895A0E46D
:103B4000B5E08D91882311F00FD0FBCF08950E942E
:103B5000DB21802D11F008D0FACF089588EE93E094
:103B600056D03197D9F708950C943E1F3197F1F74D
:103B70000895689462F80895E89462F808958F9320
:103B80009F9383E690E00197F1F79F918F910895BD
:103B900080952AE090E0089410F42C9802C02C9AAA
:103BA0000000EDDFECDF969587952A95A9F708953B
:103BB0000E94DB21802D11F0EBDFFACF08958DE01C
:103BC000E7DF8AE0E5CFA0E4B5E08D91882311F02E
:103BD000DFDFFBCF08958F939F9383E690E00197FB
:103BE000F1F79F918F9108951B9B02C0882708953C
:103BF00029E01B99FECFEFDFEEDFEDDF88941B9904
:103C000008942A9519F087959795F6CF0895EF9324
:103C1000FF93EE27E82BE92B31F0EAEFF0E0319744
:103C2000F1F70197D1F7FF91EF9108958DE207FD2C
:103C30008D938F2D881F802F881F8F57082F689492
:103C4000F7F8802F87FF15C080958395082F80E3B4
:103C50008D938EE28D93802F815228F080E38D9397
:103C600099279C93089544270A95802F09F196D0AF
:103C70001FC0805230F09EE49D9381E48D939D930C
:103C8000EFCF4427DF92EF92FF920F938FE1801BDB
:103C900011F0082F83D089D09EE29D930F91FF9061
:103CA000EF90DF9044270395003209F4D7CF2BD053
:103CB0003F93ECE3FDE338E12F2D1E2D0D2DFF2466
:103CC000EE24DD244427000F111F221FA8F42F9299
:103CD0003F920E94DB21102C0E94DB21202C0E94AD
:103CE000DB21302C0E94DB213197410DD21CE31CDB
:103CF000F01C3F902F9001C0339631963A9519F7FA
:103D00003F9107D0AFCFDD0CEE1CFF1C0A95D9F711
:103D10000895002719E058D08F93802B11F0039558
:103D200001C08F911A95B9F7802F882309F496CF97
:103D30008F91805D8D930A95D9F792CF0065CD1D47
:103D400080B2E60E40597307A0ACB90350D6DC012F
:103D5000286BEE0094357700CA9A3B0065CD1D00B4
:103D6000B2E60E0059730700ACB90300D6DC0100BF
:103D70006BEE0000357700009A3B0000CD1D00007F
:103D8000E60E000073070000B9030000DC0100002C
:103D9000EE000000770000003B000000F694E7947E
:103DA000D79447950A95D1F7089500270DD08F93A2
:103DB00003958F2D8E298D29842BC1F78F91805DDE
:103DC0008D930A95D9F74CCF1F930F93002710E2DC
:103DD000440FDD1CEE1CFF1C001F802F9AE0890B96
:103DE00010F0082F43951A9599F7802F0F911F9186
:103DF00008952B9884E699270E94071E2B9A8AE043
:103E000099270E94071E4198439A81E211D088ECBD
:103E10000FD086E00DD083E10BD080E209D08CE09A
:103E200007D00895863219F481E080931002089536
:103E3000429801C0429A7F93439898E0880F10F40B
:103E4000409A01C0409800000000419A0000000024
:103E500041989A9599F7439A7F91089500E480E2FA
:103E6000E7DF802FE5DF80E8E3DF882714E5E2DF86
:103E70001A95E9F70395063491F7089520911002F9
:103E8000213069F4282F203808F02FE7206881E2DC
:103E9000CFDF822FCDDF80E0809310020895EF9373
:103EA000FF93509103015F9370900401E091010131
:103EB000F09102010E94DB21202D0E94DB21302D98
:103EC0000E94DB21002D0E94DB21602D8052482FB3
:103ED0000E942B23E40FF51FCC241124E22E603026
:103EE00059F1DD24DA94CD2CFF24032F0E94DB212D
:103EF00021F00A95E00FF11D03C0F3940A95B1F784
:103F0000FD1408F4DF2CEA9479F7E22EFF24032F46
:103F10003197C895002021F00A95E01BF10903C0F4
:103F2000F3940A95A9F7FC1408F4CF2CEA9471F7DE
:103F3000D31611F4D62ECC2470920401732F7C1961
:103F400040910401509103015F930E94E91F5F912A
:103F5000603041F0DD2031F05D2D0E94DB215A956B
:103F6000E1F77D190E94DB21802D50910501552339
:103F700009F0809540910401453514F40E941A1F00
:103F8000509104015395509304017A9559F7EC0D23
:103F9000F11D603081F050910501762F882755235F
:103FA00009F080950E941A1F7A95C1F7509104017B
:103FB000560F509304015091030153955093030100
:103FC0002A9509F0B9CF5F9150930301FF91EF91CA
:103FD00008954A955A9580E22BDF80E4850F28DF0B
:103FE00080E8840F25CF0E9472230E94C82317FF08
:103FF00003C08DE28D931127003821F4E4ECF2E444
:104000000C94A5210F3741F4FF2019F4EAEBF2E4F8
:10401000F7CFE6EBF2E4F4CF4A934A934A935A93EC
:10402000BA93AA93BB270F5F02F5BB27802F0A958F
:104030000E94D2238D3E90F4E4E1F3E4A3E00E94D9
:10404000F1240E945923BB1FB0FF06C070970E9445
:10405000F1240E9448243C96AA9589F7E0E1F3E414
:104060000E94F1240E94482422C0093058F10331F3
:1040700078F10A3130F418E08BE192E9E8ECF2E4EF
:104080002EC00A950E94D223E8E0F3E4BFEFA3E03C
:104090000E94F1240E945923BB1FB0FD06C0389630
:1040A0000E94F1240E9448243C97AA9589F7B09574
:1040B000BB0F0E94C823039513E08AEF99E0F8161E
:1040C000090740F413E08BE094E0ECEDF2E407C064
:1040D00016E001C0B39583E194E2E0EDF2E46A8179
:1040E000BF3F19F4BB2711276260BD836A831C831D
:1040F000A881B98160E36D93A883B9836D93081B90
:104100000195AA24BB246A816A7F002339F0F694C2
:10411000E794D794B794A7940A95F7CF19E00027AE
:104120000E94F124CC248FEF74E0AC14B206D306C5
:10413000E406F50630F0AC18B20AD30AE40AF50A30
:1041400021F1881F7A9531F0569547953795279537
:10415000C794EBCF809522D041F0969508F7FE2CBE
:10416000ED2CDB2CBA2CAA24DBCF25D05D813C8141
:104170002B8170D0277021F02BD06CD0E8F301C0D8
:104180003CD04CD078D0269608958894881F7A9594
:10419000E9F7809503D049F38827FCCF806360FD61
:1041A00006C0803311F0616002C0039561FD8D93FC
:1041B00060FD1A95089599278E919C9385338E9171
:1041C00008F083958A3308F080E38C93C0F7089554
:1041D000732F720F61FF701B0AD01296785019F07E
:1041E00050F38E9380E38E937150EAF70895A8817F
:1041F000B981A70F8827B81F089579E061FD700F76
:10420000F6DF48E0431B400F8AF381F399274A9574
:1042100069F38E91803351F79C93F9CF732F61FF2F
:10422000701B7395A881B981EA2FFB2F119781919B
:10423000803361FF09F08D937A9511F48EE28D93AE
:1042400081918823C1F7772311F480E38D93882728
:104250008C930895889462FD0895002359F4A881F1
:10426000B9818C91803331F0552321F0539533502F
:104270006460089408955523E9F085E48D931AF459
:104280008DE28D935195652F660F560F5A3010F0C1
:1042900060E503D068E001D0DACF8FEF74E0561705
:1042A00008F0561B881F7A9511F06695F8CF809517
:1042B00080638D9308954E414E00496E66696E6924
:1042C00074790000302E300000404B4C0020A107D4
:1042D000000050C3000088130000F4010000003209
:1042E0000000000500008000CCCCCC0C14AE4701CF
:1042F0009CC42000DC460300E35300006308000078
:10430000D7000000150000001CC25367A5D46853F5
:104310000024744915BE9A17CCBC8C2BBD3786354A
:104320000191119121913081089599275A924A92D1
:10433000480E591E08950F92B801469F8001479F6D
:10434000100D569F100D0F9008950E94DB210D92C5
:104350000020D9F7089599910027A90FB01F119750
:10436000492F4A955E2F6F2FE894112743952030EF
:1043700019F0C895802D01C080818823B9F07C9107
:104380007723A1F0781739F40EF0042F1395689471
:1043900011963196EBCF112321F0411BA11B112760
:1043A000B10BE894E52FF62F1196E0CF882311F09A
:1043B000002708950895C89531960020089591E04A
:1043C00005C092E003C094E001C098E0F4DF0D92D4
:1043D0009A95E1F7089599278D9193958823E1F7B0
:1043E000939511968C9311978E919A95D1F7089584
:1043F000EA2FFB2F00244C918D9103948E32E1F72C
:1044000011248D9113948823E1F71A94101640F427
:104410001197202F2119239580E38D932A95E9F791
:10442000113039F59927AE2FBF2FA00DB91FA00F5E
:10443000B91F8C919C93853308F421C031E08E9193
:104440008E32E9F38D3241F0830F8A3319F480E321
:1044500031E001C033278C93AE1789F7332341F045
:10446000AE2FBF2FB8DF81E34D3209F43196808340
:1044700008958827E00DF81FE00FF81F8083089546
:10448000040F151F261F371F0895000F111F221F2D
:10449000331F089500951095209530950F5F1F4F9D
:1044A0002F4F3F4F0895019110810FC00E9490211E
:1044B0000EC00E94902110C00191108117FF05C00D
:1044C0003FEF2FEF04C0008111272227332737FF4A
:1044D00003C0E0DF8DE28D93CF92DF92EF92AA24AA
:1044E000BB24CC24DD24EE2440E2EAE0FF2755E0A3
:1044F00093E38081890F87FD9F7083FD907F891BE7
:1045000081935A95A9F7C1DFAA1CBB1CCC1CDD1CEA
:10451000EE1C4A9551F7E894EFE0FF2782910CD00A
:10452000EB30E0F71EF068948A2D0AD088278D932F
:10453000EF90DF90CF900895982F829501D0892F2A
:104540008F70805D26F0803309F4089568948D9310
:10455000089500271127222733271DD08A3328F4F6
:10456000803318F005D015D0F9CF0EF493CF08950D
:1045700080538F93402F512F622F732F86DF85DF5B
:104580007FDF83DF8F919927080F191F291F391F9C
:1045900008958D910895E894FCDF8032E9F38B3221
:1045A000D9F38930C9F38D3211F46894F2CF0895AC
:1045B00088278D93089581918D938823E1F708953D
:1045C00094E081918D939A95E1F7089509919191E5
:1045D000992351F08A95D9F73197002329F08191D9
:1045E0008D930A958823C9F7E3CFF999FECFE1BDF2
:1045F000F2BD3196089591E001C092E07B3751F40D
:104600007FB7F894F2DF8D9180BDFA9AF99A9A9566
:10461000C9F77FBF77270895E8DF8D917B3729F4AD
:1046200080BDFA9AF99A8823B9F77727089591E01F
:1046300001C092E0DADFF89A80B58D939A95D1F7B0
:104640000895D3DFF89A80B58D93882319F09A9551
:10465000C1F79D930895FF935527F8E0469508F418
:10466000500F57954795FA95D1F7FF9108956894A3
:1046700001C0E894AF93BF938D9116F0919103C060
:104680000E94DB21902D891718F011F48823A1F7DF
:10469000BF91AF910895B7FE089590E8B91611F44F
:1046A000D0FE08959FEFD91AE90AF90A09F4039593
:1046B00008950F928F939F93D216E306F4060FB6D8
:1046C00080E890E8802795270FBE890739F00FB65C
:1046D000892B87FD02C081E008260FBE9F918F9134
:1046E0000F900895D190E190F1900191089521915A
:1046F0003191419151910895502F2D2D3E2D4F2DE7
:10470000612F0895EFDF992711278F2D880F80E8FB
:10471000F82A802F881F08F41FEF41F08F57082FC9
:1047200007FD04C0003240F08FEF01C08827982FAA
:10473000D82EE82EF82E09C08FE1801B082FF694A2
:10474000E794D79497950A95D1F7112351F0909556
:10475000D094E094F09481E0980F8827D81EE81E4A
:10476000F81E0F2DFE2CED2CD92E0895D094E09438
:10477000F09491E0D90E9927E91EF91E109508953D
:10478000652F90E8440F551F5927990F479560787A
:10479000102F90E8FF0C001F0927990FF79410784D
:1047A00000380895FF0C90E89027110F9795F79423
:1047B000092F08952DEC3CEC4CEC5DE366270FC00F
:1047C00091DF9ADFDD24EE2490E8F92E0FE307C095
:1047D0008EDF05C02227332740E251E466275523A8
:1047E00051F1002381F1CCDF71F1162700585058A8
:1047F0000894050B18F407FD03C025C007FD23C06E
:10480000469537952795F694E794D79425D0FF20C1
:104810002AF0DD0CEE1CFF1C015073F09D2D9695C7
:1048200048F0DD203AF4EE202AF491E0D90E9927E1
:10483000E91EF91EB7CF07C09FE7092FF92A9FEF9E
:10484000D92EE92E0895DD24EE24FF240027112718
:1048500008950FE79FEFF2CF9F929924AA24BB24DB
:1048600088E1D216E306F40628F0D21AE30AF40A25
:10487000089401C08894991CAA1CBB1CDD0CEE1C7A
:10488000FF1C8A9571F7D92CEA2CFB2C9F90089578
:1048900077DFD9F05038C9F016270058952F905877
:1048A0000894091F12F418F40EC008F00EC00FD0BF
:1048B000FF202AF0BB0CDD1CEE1CFF1C02C0039580
:1048C00013F0E9DE6FCF0C941C240C9423249F92E8
:1048D000FF92EF928D2DFF24EE24DD24BB2493E084
:1048E000849F1001829FB00CD11CE21CF31C839F9B
:1048F000D00CE11C2224F21C9A9531F0BD2CDE2C48
:10490000EF2CFF248F91ECCF9F900895F0DE38DFDD
:10491000503829F090E869270CC00AF045D042CF02
:104920005FE322273327442701C0E1DE29DF503827
:10493000B1F3003899F3902F951B8BF312F434D018
:10494000FACF983118F0222733274427983028F0DF
:10495000232F342F44279850F9CF992329F04695D7
:10496000379527959A95D9F7912F962742F014D02D
:10497000B0F6F794E794D7940F5F8BF65DCF10D025
:1049800051F008F4F3DEFF2052F2DD0CEE1CFF1CA8
:104990000150CBF751CF57CFD20EE31EF41E08952E
:1049A000D21AE30AF40A0895DF92EF92FF920F936E
:1049B0001F93D22EE32EF42E052F162F6F915F91A9
:1049C0004F913F912F9108950E94DB21D02C0E949E
:1049D000DB21E02C0E94DB21F02C0E94DB21002D4A
:1049E00008950E94DB21202D0E94DB21302D0E94A2
:1049F000DB21402D0E94DB21502D08950E94BC1D1B
:104A000088278A938A931FDF11278D918032E9F3DB
:104A10001197BBD098F08D3229F4109511968C9196
:104A2000B4D060F08E3229F411968C91AED008F497
:104A300046C022960E94B91D81E008958C91A5D0B0
:104A4000D8F5119646D0D0F703958D919ED0E0F31E
:104A50008E3229F48C9199D010F41196FBCF8534C5
:104A600019F0853609F055C011968C918ED060F002
:104A70008D3219F08B3221F0DCCF0880009408824F
:104A800011968C9182D0A8F68053898311968C91CF
:104A90007CD058F49981990F990F0980900D990F46
:104AA0008053890F8983873220F6898198819923E1
:104AB0000AF48195080F2DC08E3289F611968C91DB
:104AC00064D068F606D018F011960A95F8CF1196C2
:104AD000C1CF4F2D3E2D2D2DDD0CEE1CFF1CA8F05F
:104AE000DD0CEE1CFF1C88F0D20EE31EF41E68F0F5
:104AF000DD0CEE1CFF1C48F0805309F06894D80EC2
:104B00008827E81EF81E08F00895F42EE32ED22E12
:104B1000089534D019F116F5098308E921D00695D6
:104B2000882787959F2D9F77980FF92E0150000FAA
:104B3000110F07958981882379F01AF4819589836B
:104B400006C038DE89818A958983D9F705C042DE9F
:104B500089818A958983D9F72296089574DEFCCFDE
:104B60000DD041F0FF2032F00A9531F0DD0CEE1C43
:104B7000FF1CD2F7889408950894089500240D2806
:104B80000E280F28002A00200895803320F08A3351
:104B900010F40894089588940895E073B0493C1C7B
:104BA000884A00C8AF496043844A0000FA42004086
:104BB0001C4600002A430000A0409A99193F0000BB
:104BC000000000008642CDCC8F42CDCC9442000044
:104BD0009A4266669F420000A542CDCCAA420000E0
:104BE000B1420000B7429A99BD42CDCCC24200000A
:104BF000C8420000CF426666D642CDCCDD429A99CB
:104C0000E5429A99ED420000F6429A99FE42CDCCD7
:104C1000034300800843CD4C0D4333331243666693
:104C2000174333B31C433333224366E62743CDCCCB
:104C30002D4333B3334333333A43CDCC4043008029
:104C40004B4333B352439A195A4333B361439A994E
:104C50006943CDCC7143CD4C7A4300007A44005077
:104C6000C347F094B1490093A349E22A884A408996
:104C7000954A003FB149CD8CD8439A99D84366A64E
:104C8000D84333B3D84300C0D8433030303000006D
:104C90004452413831385F555331312E424153002F
:104CA0005648462F554846205452580041582065D2
:104CB0006C656B74726F6E696B6100005665722E65
:104CC00020003030303100003030303200003030E1
:104CD00030330000303030340000303030350000E8
:104CE000303030360000303030370000303030386F
:104CF00000003030303900003030313000003030CA
:104D000031310000303031320000303031330000BA
:104D10003030313400003030313500003030313641
:104D20000000303031370000303031380000303092
:104D30003139000030303230000030303231000084
:104D40003030323200003030323300003030323414
:104D50000000303032350000303032360000303064
:104D60003237000030303238000030303239000045
:104D700030303330000030303331000030303332E7
:104D80000000303033330000303033340000303036
:104D90003335000030303336000030303337000018
:104DA0003030333800002053494D504C4558204D89
:104DB0004F44452020002052455045415445522043
:104DC0004D4F444520200000200043480000202093
:104DD00020202020200020202020202020202020F3
:104DE000202000002020202020005458504C3D005E
:104DF000487A202020002046524545205345542023
:104E00000000537465702031322C35206B487A20B5
:104E1000202000005374657020313030206B487AB8
:104E200020202000537465702031204D487A2020C6
:104E30002020200053746570203130204D487A20A6
:104E400020202020000041542B444D4F534554470F
:104E5000524F55503D0030002C0041542B444D4FD3
:104E6000534554564F4C554D453D000041542B443D
:104E70004D4F5345544D49433D00205345545550E3
:104E800020200000537175656C63683D20005072EE
:104E900065737320656E636F646572002020000087
:104EA000566F6C756D653D2000004C4F41442043AA
:104EB00048414E4E454C53005361766520736574EE
:104EC00074696E6700002020202000004C6F6E6720
:104ED0002050726573732000456E632E20746F201E
:104EE0004578697400005361766520736574746950
:104EF0006E6773004C6F6E67205072657373206528
:104F00006E6300004D4349004D4352004D43430042
:104F10004D4357004D435400454D505459004D6585
:104F20006D6F7269657320696E697469616C697A05
:104F300065642E2E2E003B00557064204F4B000000
:104F40004C4A2D544553542031004C4A2D5445535E
:104F5000542032004C4A2D544553542033004C4ABF
:104F60002D544553542034004C4A2D54455354205D
:104F7000350054657374206461746120656E7465D6
:104F80007265642E2E2E00004D43523B00003B45BF
:0A4F90004E4400004D43433B000077
:00000001FF
