:100000000C9434000C94480F0C94BC0F189500000D
:10001000189500001895000018950000189500002C
:10002000189500001895000018950000189500001C
:10003000189500001895000018950000189500000C
:1000400018950000189500001895000018950000FC
:1000500018950000189500001895000018950000EC
:1000600018950000189500008FEF8DBFC0ECE8E5F3
:100070004E2E88E08EBFD7E0F5E05F2EA89584B7BE
:10008000082E877F84BF88E1992780936000909332
:100090006000EEEFF7E0A0E0B1E088278D933197A4
:1000A000E9F78CE08093C40080E08093C50088E18C
:1000B0008093C10072E07093C000662470910001CB
:1000C0007F7770930001239A3B9A3A9A389A399A2B
:1000D0000E9440250E9440250E94752581E20E94D1
:1000E0005F258EEB0E945F2581E080930601249AB4
:1000F0002C9A23987894709100017062709300019B
:10010000ADECB1E0E8E2F8E50E942A28A5EDB1E007
:10011000ECE2F8E50E942A28A9ECB1E0E8E2F8E573
:100120000E942A28ADEDB1E0E0E3F8E50E942A281C
:10013000A5EEB1E0E4E3F8E50E942A28E8E3F8E55B
:100140000E94382BE9ECF1E00E94B9290E94362A7E
:10015000EDE0F0E0A9ECB1E00E942729ADEEB1E0BE
:10016000ECE3F8E50E942A28709100017F7E7093ED
:10017000000170910001777F70930001A6EFB1E05C
:10018000E0E8F9E50E94EC27ABEFB1E0E0E8F9E543
:100190000E94EC27E1E3F3E0A0E1B0E00E945E29D9
:1001A0000A3018F011F00C94D7000C94E000E1E351
:1001B000F3E0A0E1BB2781E08C937BE70E9442291A
:1001C000E1E3F3E0A0E0B2E00E945E2980E18093E9
:1001D000010281E08093020281E08093030288E0C3
:1001E00080930402E4E3F3E0A0E1B0E00E945E2922
:1001F0000A3018F011F00C94FF000C940801E4E3AD
:10020000F3E0A0E1BB2788E08C937BE70E944229C2
:10021000E4E3F3E0A5E0B2E00E945E297091000102
:100220007B7F70930001559A569A709100017E7FF2
:1002300070930001209A289AAAE0B2E0E0E4F8E581
:100240000E942A2800E010E020E030E0A6E0B2E0C2
:100250000D931D932D933C9381E08093110281E0D7
:1002600080930F0283E08093100283E08093C101AA
:1002700082E080930E02709112027F7770931202D7
:1002800080E0809313028CE00E945925A5E1B2E042
:10029000E6E8F9E50E94EC2789E0E5E1F2E004E018
:1002A0000A93A5E2B2E00E942D29E2EDFFE3A1E06E
:1002B000B1E0ED93FC9381E0809303018AE08093A9
:1002C0000401882780930501E6E9F9E50E94EE2301
:1002D000EEE8FAE3A1E0B1E0ED93FC9384E08093D3
:1002E000030181E080930401882780930501E2EAFD
:1002F000F9E50E94EE2385E08093030181E080937D
:100300000401882780930501E2EBF9E50E94EE23C2
:10031000A5E2B2E00E94E8238FEA809314020091E4
:100320001402033C18F011F00C94A90181E20E9420
:100330005F25809114020E945F2584E690E00E9470
:100340004E24A4E1B2E08C918F5F8C9310F40C9456
:100350008F01E1E0F0E00E94F5230E9440250E9419
:10036000752581E20E945F2583EC0E945F250E9433
:1003700039165398529854985C9A5A9A5B9A2298D4
:100380001A9A709112027B7F70931202709112027E
:10039000726070931202709112027E7F709312024B
:1003A00024981C9A579A5F9A81E085BD80E084BDAD
:1003B0007894809169008C7F82608093690080913D
:1003C0006900837F886080936900E99AE89A0E94B7
:1003D0007525E0EAF0E0A0E1B0E00E945E290F3F61
:1003E00011F00C94F80185E080930E020C94FB014F
:1003F00081E080930E0270916800746070936800D1
:100400007CE170936D00709168007160709368007A
:1004100070916B00706170936B0070911202786044
:10042000709312020E94E415E8E3F8E50E94382B6D
:10043000E5EEF1E00E94B9290E94362AEDE0F0E0F5
:10044000A9EEB1E00E9427291C990C942A025F981A
:100450000C942B025F9A709100017D7F70930001D4
:100460000E948F16A3E2B0E00C9104FB81E00EF035
:1004700080E08F93A0E0B1E08C9182FB81E00EF0F0
:1004800080E09F918923882311F40C945502709188
:1004900000017B7F7093000184EF91E00E944E2465
:1004A000709112027860709312025498AEE2B2E03A
:1004B0009C9197FF04C04C9B10C09F779C934C99D4
:1004C0000CC089E19F9390E00E944E249F914C992B
:1004D00004C090689C930E94201600910E02013087
:1004E00011F00C943707709100017F7E709300012A
:1004F000A6E0B1E0BA93AA930E947C182296EBE1A1
:10050000F1E00E94B929E4E4F8E50E94382B0E944A
:10051000A02911F00C949102709100017F7E7093DC
:100520000001EBE1F1E00E94B929E4E4F8E50E9462
:10053000382B0E94A02911F40C94A30270910001A1
:10054000706170930001E7E0F1E0A1EDB1E00E947D
:100550002729EDEBF1E00E94BE29E1EDF1E00E94D8
:10056000B9290E94DD2AEDE0F0E0A1EDB1E00E94A2
:10057000272900910B01003011F00C94CD02ACE062
:10058000B1E0E4E4F8E50E942A28A6EFB1E0E0E853
:10059000F9E50E94EC270C947705013011F00C94DA
:1005A000DF02ACE0B1E0E8E4F8E50E942A28A6EF1B
:1005B000B1E0E8EBF9E50E94EC270C9477050230F6
:1005C00011F00C94F102ACE0B1E0ECE4F8E50E942B
:1005D0002A28A6EFB1E0EEEBF9E50E94EC270C9497
:1005E0007705033011F00C940303ACE0B1E0E0E5D3
:1005F000F8E50E942A28A6EFB1E0E4ECF9E50E94B4
:10060000EC270C947705043011F00C941503ACE042
:10061000B1E0E4E5F8E50E942A28A6EFB1E0EAECB3
:10062000F9E50E94EC270C947705053011F00C9445
:100630002703ACE0B1E0E8E5F8E50E942A28A6EF40
:10064000B1E0E0EDF9E50E94EC270C947705063067
:1006500011F00C943903ACE0B1E0ECE5F8E50E9450
:100660002A28A6EFB1E0E6EDF9E50E94EC270C940C
:100670007705073011F00C944B03ACE0B1E0E0E6F5
:10068000F8E50E942A28A6EFB1E0ECEDF9E50E941A
:10069000EC270C947705083011F00C945D03ACE066
:1006A000B1E0E4E6F8E50E942A28A6EFB1E0E2EE28
:1006B000F9E50E94EC270C947705093011F00C94B1
:1006C0006F03ACE0B1E0E8E6F8E50E942A28A6EF67
:1006D000B1E0E8EEF9E50E94EC270C9477050A30CA
:1006E00011F00C948103ACE0B1E0ECE6F8E50E9477
:1006F0002A28A6EFB1E0EEEEF9E50E94EC270C9473
:1007000077050B3011F00C949303ACE0B1E0E0E717
:10071000F8E50E942A28A6EFB1E0E4EFF9E50E948F
:10072000EC270C9477050C3011F00C94A503ACE089
:10073000B1E0E4E7F8E50E942A28A6EFB1E0EAEF8D
:10074000F9E50E94EC270C9477050D3011F00C941C
:10075000B703ACE0B1E0E8E7F8E50E942A28A6EF8D
:10076000B1E0E0E0FAE50E94EC270C9477050E304A
:1007700011F00C94C903ACE0B1E0ECE7F8E50E949D
:100780002A28A6EFB1E0E6E0FAE50E94EC270C94F7
:1007900077050F3011F00C94DB03ACE0B1E0E0E83A
:1007A000F8E50E942A28A6EFB1E0ECE0FAE50E9405
:1007B000EC270C947705003111F00C94ED03ACE0BC
:1007C000B1E0E4E8F8E50E942A28A6EFB1E0E2E112
:1007D000FAE50E94EC270C947705013111F00C9496
:1007E000FF03ACE0B1E0E8E8F8E50E942A28A6EFB4
:1007F000B1E0E8E1FAE50E94EC270C9477050231BC
:1008000011F00C941104ACE0B1E0ECE8F8E50E94C2
:100810002A28A6EFB1E0EEE1FAE50E94EC270C945D
:100820007705033111F00C942304ACE0B1E0E0E96A
:10083000F8E50E942A28A6EFB1E0E4E2FAE50E947A
:10084000EC270C947705043111F00C943504ACE0DE
:10085000B1E0E4E9F8E50E942A28A6EFB1E0EAE277
:10086000FAE50E94EC270C947705053111F00C9401
:100870004704ACE0B1E0E8E9F8E50E942A28A6EFD9
:10088000B1E0E0E3FAE50E94EC270C94770506312D
:1008900011F00C945904ACE0B1E0ECE9F8E50E94E9
:1008A0002A28A6EFB1E0E6E3FAE50E94EC270C94D3
:1008B0007705073111F00C946B04ACE0B1E0E0EA8D
:1008C000F8E50E942A28A6EFB1E0ECE3FAE50E94E1
:1008D000EC270C947705083111F00C947D04ACE002
:1008E000B1E0E4EAF8E50E942A28A6EFB1E0E2E4EC
:1008F000FAE50E94EC270C947705093111F00C946D
:100900008F04ACE0B1E0E8EAF8E50E942A28A6EFFF
:10091000B1E0E8E4FAE50E94EC270C9477050A318F
:1009200011F00C94A104ACE0B1E0ECEAF8E50E940F
:100930002A28A6EFB1E0EEE4FAE50E94EC270C9439
:1009400077050B3111F00C94B304ACE0B1E0E0EBAF
:10095000F8E50E942A28A6EFB1E0E4E5FAE50E9456
:10096000EC270C9477050C3111F00C94C504ACE025
:10097000B1E0E4EBF8E50E942A28A6EFB1E0EAE551
:10098000FAE50E94EC270C9477050D3111F00C94D8
:10099000D704ACE0B1E0E8EBF8E50E942A28A6EF26
:1009A000B1E0E0E6FAE50E94EC270C9477050E3101
:1009B00011F00C94E904ACE0B1E0ECEBF8E50E9436
:1009C0002A28A6EFB1E0E6E6FAE50E94EC270C94AF
:1009D00077050F3111F00C94FB04ACE0B1E0E0ECD2
:1009E000F8E50E942A28A6EFB1E0ECE6FAE50E94BD
:1009F000EC270C947705003211F00C940D05ACE057
:100A0000B1E0E4ECF8E50E942A28A6EFB1E0E2E7C5
:100A1000FAE50E94EC270C947705013211F00C9452
:100A20001F05ACE0B1E0E8ECF8E50E942A28A6EF4B
:100A3000B1E0E8E7FAE50E94EC270C947705023272
:100A400011F00C943105ACE0B1E0ECECF8E50E945B
:100A50002A28A6EFB1E0EEE7FAE50E94EC270C9415
:100A60007705033211F00C944305ACE0B1E0E0ED02
:100A7000F8E50E942A28A6EFB1E0E4E8FAE50E9432
:100A8000EC270C947705043211F00C945505ACE07A
:100A9000B1E0E4EDF8E50E942A28A6EFB1E0EAE82B
:100AA000FAE50E94EC270C947705053211F00C94BE
:100AB0006705ACE0B1E0E8EDF8E50E942A28A6EF72
:100AC000B1E0E0E9FAE50E94EC270C9477050632E4
:100AD00011F00C947705ACE0B1E0ECEDF8E50E9484
:100AE0002A28A6EFB1E0E6E9FAE50E94EC271C9976
:100AF0000C947D055F980C947E055F9A0E948F167A
:100B0000A3E2B0E00C9104FB81E00EF080E08F9353
:100B1000A0E0B1E08C9182FB81E00EF080E09F913B
:100B20008923882311F40C94A305709100017B7F25
:100B30007093000184EF91E00E944E2470911202A4
:100B4000786070931202F894EEE8FAE3A1E0B1E065
:100B5000ED93FC93A0E0B1E08C9184FB16F40C942F
:100B6000C00581E08093030185E08093040181E06A
:100B700080930501ECE9FAE50E94EE230C94CD0583
:100B800081E08093030181E08093040181E0809300
:100B90000501ECEAFAE50E94EE23E2EDFFE3A1E0B5
:100BA000B1E0ED93FC9383E08093030182E08093B6
:100BB0000401882780930501A0E4B5E0E7E0F1E0B7
:100BC000552744E00E943A260E94E623EEEBFAE520
:100BD0000E94EE23A0E0B1E08C9184FB16F00C940F
:100BE00026061C9B0C940D0683E08093030182E093
:100BF00080930401882780930501A0E4B5E0E7E035
:100C0000F1E0552744E00E943A260E94E623EEEBED
:100C1000FAE50E94EE230C94240683E080930301FE
:100C200082E080930401882780930501A0E4B5E069
:100C3000E1EDF1E0552744E00E943A260E94E623C8
:100C4000EEEBFAE50E94EE230C943D0683E08093E0
:100C5000030182E080930401882780930501A0E4CA
:100C6000B5E0E7E0F1E0552744E00E943A260E9413
:100C7000E623EEEBFAE50E94EE235498AEE2B2E0F2
:100C80009C9197FF04C04C9B10C09F779C934C99FC
:100C90000CC089E19F9390E00E944E249F914C9953
:100CA00004C090689C930E942016EEE8FAE3A1E04D
:100CB000B1E0ED93FC93A0E0B1E08C9184FB16F4DD
:100CC0000C94B506E7E0F1E00E94B929E0EEF8E502
:100CD0000E94382B0E94A02918F011F00C94720683
:100CE0000C948D0686E08093030182E080930401DA
:100CF000882780930501E0ECFAE50E94EE23A0E44A
:100D0000B5E0E9E1F1E00E94A3280E94E623E6ECC9
:100D1000FAE50E94EE230C94A60686E08093030178
:100D200082E080930401882780930501E4EDFAE5D1
:100D30000E94EE23A0E4B5E0E9E1F1E00E94A328DF
:100D40000E94E623E6ECFAE50E94EE2385E080931C
:100D5000030182E080930401882780930501EAED76
:100D6000FAE50E94EE230C94010786E080930301CC
:100D700082E080930401882780930501EAEEFAE57A
:100D80000E94EE23A0E4B5E0E9E1F1E00E94A3288F
:100D90000E94E623EEEBFAE50E94EE23A0E1B1E02B
:100DA0000E94E823EEEEFAE50E94EE23A0E4B5E00F
:100DB000AF93BF93ECE0F1E00E94B9290E945D245B
:100DC00011E001E0BF91AF910E943F28E0E4F5E01F
:100DD000A2ECB1E00E94222985E08093030182E029
:100DE00080930401882780930501E4EFFAE50E94CF
:100DF000EE23A2ECB1E00E94E823ECEFFAE50E94BA
:100E0000EE237894A2E1B2E08C9183FB16F00C946F
:100E10001C07E7E0F1E0A5ECB1E00E942729A0E083
:100E2000B1E08C9184FB16F40C941A070E948D0E8D
:100E30000C941C070E94DA0E0E94DC23A2E1B2E0AF
:100E40008C9182FB16F00C942A0773B7707F756043
:100E500073BF8895A2E1B2E08C9182FB882780F96C
:100E6000809580FBA2E1B2E08C9182F98C93009195
:100E70000E02023011F00C946508EEE8FAE3A1E0EE
:100E8000B1E0ED93FC9381E08093030185E08093D2
:100E9000040181E080930501E2E0FBE50E94EE237E
:100EA000EEE0FBE50E94EE23E8E3F8E50E94382B34
:100EB000E5EDF1E00E94B9290E94362AEDE0F0E06C
:100EC000A9EDB1E00E942729E2EDFFE3A1E0B1E046
:100ED000ED93FC9383E08093030182E0809304010F
:100EE000882780930501A0E4B5E0E9EDF1E05527FE
:100EF00044E00E943A260E94E623EEE8FAE3A1E0ED
:100F0000B1E0ED93FC93F89485E08093030182E0D7
:100F100080930401882780930501E4E1FBE50E94AA
:100F2000EE2386E08093030182E08093040188270A
:100F300080930501E6E2FBE50E94EE23A0E4B5E024
:100F4000E2E0F2E00E94AA280E94E623ECE2FBE540
:100F50000E94EE23789400910202013011F00C946B
:100F6000BB07A5EDB1E0ECE2F8E50E942A280C945D
:100F7000FF070C941508023011F00C94C907A5ED79
:100F8000B1E0E4EEF8E50E942A280C94FF070C94E7
:100F90001508033011F00C94D707A5EDB1E0E8EE89
:100FA000F8E50E942A280C94FF070C9415080430D9
:100FB00011F00C94E507A5EDB1E0ECEEF8E50E9428
:100FC0002A280C94FF070C941508053011F00C9496
:100FD000F307A5EDB1E0E0EFF8E50E942A280C94B4
:100FE000FF070C941508063011F00C941508A5EDB8
:100FF000B1E0E4EFF8E50E942A280C94FF07A6EF81
:10100000B1E0EEE1FAE50E94EC27E8E3F8E50E94A2
:10101000382BE5EDF1E00E94B9290E94362AEDE077
:10102000F0E0A9EDB1E00E942729A2E1B2E08C91A5
:1010300083FB16F00C94650870911202777F709311
:1010400012020E94A015E8E3FBE50E94D523E8E424
:10105000FBE50E94D523EAE4FBE50E94D523A0E44A
:10106000B5E0E9EDF1E0552744E00E943A260E9400
:10107000CD23EAE4FBE50E94D523A0E4B5E0E9ED49
:10108000F1E0552744E00E943A260E94CD23EAE48D
:10109000FBE50E94D523A6EFB1E00E94CF23EAE44E
:1010A000FBE50E94D523A0E4B5E0E0E0F2E00E9479
:1010B000AA280E94CD23EAE4FBE50E94D523ABEFEA
:1010C000B1E00E94CF230E94DC2300910E02033086
:1010D00011F00C94C10A0E947525EEE8FAE3A1E034
:1010E000B1E0ED93FC9381E08093030187E080936E
:1010F000040181E080930501ECE4FBE50E94EE230E
:101100001C990C9486085F980C9487085F9A0E943B
:101110008F165498AEE2B2E09C9197FF04C04C9BAE
:1011200010C09F779C934C990CC089E19F9390E0ED
:101130000E944E249F914C9904C090689C930E94F9
:101140004416E2EDFFE3A1E0B1E0ED93FC931C9BBC
:101150000C94BF0883E08093030182E08093040134
:10116000882780930501A0E4B5E0E9ECF1E055277C
:1011700044E00E943A260E94E6230C94D20883E0C1
:101180008093030182E08093040188278093050106
:10119000A0E4B5E0E9EEF1E0552744E00E943A26EC
:1011A0000E94E623EEE8FAE3A1E0B1E0ED93FC93C0
:1011B00000910F02013011F00C94F308AAE0B2E0A4
:1011C000E0E4F8E50E942A2886E08093030182E0AB
:1011D00080930401882780930501E8E5FBE50E94E0
:1011E000EE230C948709023011F00C940C09AAE04C
:1011F000B2E0E8EFF8E50E942A2886E08093030138
:1012000082E080930401882780930501EAE6FBE5EC
:101210000E94EE230C948709033011F00C942509E9
:10122000AAE0B2E0E8E3F8E50E942A2886E080938D
:10123000030182E080930401882780930501EAE797
:10124000FBE50E94EE230C948709043011F00C9406
:101250003E09AAE0B2E0ECEFF8E50E942A2886E019
:101260008093030182E08093040188278093050125
:10127000EAE8FBE50E94EE230C948709053011F0A3
:101280000C945709ADEBB1E0E0E0F9E50E942A28A3
:1012900086E08093030182E0809304018827809395
:1012A0000501ECE9FBE50E94EE230C94870906306A
:1012B00011F00C947009ADEBB1E0E4E0F9E50E94A7
:1012C0002A2886E08093030182E080930401882726
:1012D00080930501EAEAFBE50E94EE230C9487095E
:1012E000073011F00C948709ADEBB1E0E4E4F8E5C8
:1012F0000E942A2886E08093030182E08093040103
:10130000882780930501E8EBFBE50E94EE2300911E
:10131000C101013011F00C94A409F894A1EFB1E0DF
:10132000EAECF9E50E94EC2785E08093030182E076
:1013300080930401882780930501E6ECFBE50E9479
:10134000EE2378940C94D809023011F00C94BF0964
:10135000F894A1EFB1E0EEE1FAE50E94EC2785E018
:101360008093030182E08093040188278093050124
:10137000E4EDFBE50E94EE2378940C94D809033049
:1013800011F00C94D809F894A1EFB1E0E0E8F9E588
:101390000E94EC2785E08093030182E080930401A2
:1013A000882780930501E2EEFBE50E94EE23789406
:1013B00082E08093030182E0809304018827809378
:1013C0000501EEEEFBE50E94EE23A0E4B5E0EDEBB7
:1013D000F1E0552744E00E943A260E94E623E6EF1A
:1013E000FBE50E94EE23EDEBF1E00E94BE29E9EC63
:1013F000F1E00E94B9290E94DD2AEDE0F0E0A9EEBB
:10140000B1E00E942729A2E1B2E08C9183FB16F0A3
:101410000C947D0A70911202777F70931202E8E3B8
:10142000FBE50E94D523E8E4FBE50E94D523EAE42E
:10143000FBE50E94D523A0E4B5E0E9EEF1E05527F5
:1014400044E00E943A260E94CD23EAE4FBE50E9494
:10145000D523A0E4B5E0E9ECF1E0552744E00E9493
:101460003A260E94CD23EAE4FBE50E94D523A6EFAD
:10147000B1E00E94CF23EAE4FBE50E94D523A0E47B
:10148000B5E0E0E0F2E00E94AA280E94CD23EAE461
:10149000FBE50E94D523ABEFB1E00E94CF230E9471
:1014A000DC23EAEFFBE50E94D523A0E4B5E0E5E00C
:1014B000F2E00E94AA280E94CD230E94DC23ECE0E7
:1014C000FCE50E94D523A0E4B5E0E4E0F2E00E9450
:1014D000AA280E94CD23EAE4FBE50E94D523E8E494
:1014E000FBE50E94D523EAE4FBE50E94D523E8E46E
:1014F000FBE50E94D5230E94DC230E948F160E94E8
:10150000DC23A2E1B2E08C9182FB16F00C948D0AF0
:1015100073B7707F756073BF8895A2E1B2E08C915C
:1015200082FB882780F9809580FBA2E1B2E08C9154
:1015300082F98C93A0E0B1E08C9183FB16F00C94BF
:1015400080080E94A0150E94752570910001777F88
:1015500070930001AAE0B2E0E0E4F8E50E942A28D6
:1015600084E080930E0281E080931102A6EFB1E047
:10157000E0E8F9E50E94EC27709112027860709320
:10158000120200910E02043011F00C94640C0091D0
:101590000302013011F00C94D70AADEDB1E0E0E3A5
:1015A000F8E50E942A280C94A70B0C94B70B023084
:1015B00011F00C94E50AADEDB1E0E8E0F9E50E9428
:1015C0002A280C94A70B0C94B70B033011F00C9441
:1015D000F30AADEDB1E0ECE0F9E50E942A280C94A5
:1015E000A70B0C94B70B043011F00C94010BADED6C
:1015F000B1E0E0E1F9E50E942A280C94A70B0C94D5
:10160000B70B053011F00C940F0BADEDB1E0E4E138
:10161000F9E50E942A280C94A70B0C94B70B06300E
:1016200011F00C941D0BADEDB1E0E8E1F9E50E947D
:101630002A280C94A70B0C94B70B073011F00C94CC
:101640002B0BADEDB1E0ECE1F9E50E942A280C94FA
:10165000A70B0C94B70B083011F00C94390BADEDBF
:10166000B1E0E0E2F9E50E942A280C94A70B0C9463
:10167000B70B093011F00C94470BADEDB1E0E4E28B
:10168000F9E50E942A280C94A70B0C94B70B0A309A
:1016900011F00C94550BADEDB1E0E8E2F9E50E94D4
:1016A0002A280C94A70B0C94B70B0B3011F00C9458
:1016B000630BADEDB1E0ECE2F9E50E942A280C9451
:1016C000A70B0C94B70B0C3011F00C94710BADED13
:1016D000B1E0E0E3F9E50E942A280C94A70B0C94F2
:1016E000B70B0D3011F00C947F0BADEDB1E0E4E3DE
:1016F000F9E50E942A280C94A70B0C94B70B0E3026
:1017000011F00C948D0BADEDB1E0E8E3F9E50E942A
:101710002A280C94A70B0C94B70B0F3011F00C94E3
:101720009B0BADEDB1E0ECE3F9E50E942A280C94A7
:10173000A70B0C94B70B003111F00C94B70BADED67
:10174000B1E0E0E4F9E50E942A280C94A70BE8E355
:10175000F8E50E94382BEDEDF1E00E94B9290E94D6
:10176000362AEDE0F0E0A1EEB1E00E942729EEE894
:10177000FAE3A1E0B1E0ED93FC9381E080930301F3
:1017800085E08093040181E080930501EAE1FCE5B6
:101790000E94EE23E8E3F8E50E94382BEDEDF1E03E
:1017A0000E94B9290E94362AEDE0F0E0A1EEB1E0F6
:1017B0000E942729E2EDFFE3A1E0B1E0ED93FC9365
:1017C00083E08093030182E0809304018827809363
:1017D0000501A0E4B5E0E1EEF1E0552744E00E9408
:1017E0003A260E94E623EEE8FAE3A1E0B1E0ED93A9
:1017F000FC93F89486E08093030182E080930401D7
:10180000882780930501E8E2FCE50E94EE23A0E42E
:10181000B5E0E3E0F2E00E94AA280E94E623EEEBA6
:10182000FAE50E94EE237894A2E1B2E08C9183FB6A
:1018300016F00C94640C70911202777F7093120270
:101840000E94A015E8E3FBE50E94D523E8E4FBE550
:101850000E94D523EAE4FBE50E94D523A0E4B5E08D
:10186000E1EEF1E0552744E00E943A260E94CD23A4
:10187000EAE4FBE50E94D523A0E4B5E0E1EEF1E067
:10188000552744E00E943A260E94CD23EAE4FBE576
:101890000E94D523A6EFB1E00E94CF23EAE4FBE546
:1018A0000E94D523A0E4B5E0E0E0F2E00E94AA287F
:1018B0000E94CD23EAE4FBE50E94D523ABEFB1E023
:1018C0000E94CF230E94DC2300910E02053011F00C
:1018D0000C94560E81E0809311020E9475250E949F
:1018E0008F1681E08093030185E08093040181E0FD
:1018F00080930501ECE2FCE50E94EE235498AEE2F1
:10190000B2E09C9197FF04C04C9B10C09F779C93C2
:101910004C990CC089E19F9390E00E944E249F91C6
:101920004C9904C090689C930E94BB1300911102D3
:10193000013011F00C94D70CF89483E080930301EC
:1019400082E080930401882780930501E6E3FCE5AB
:101950000E94EE23A0E4B5E0E0E0F2E00E94AA28B5
:101960000E94E623E0E4FCE50E94EE2385E08093FC
:10197000030182E080930401882780930501E8E455
:10198000FCE50E94EE23E6E5FCE50E94EE2386E0FE
:101990008093030182E080930401882780930501EE
:1019A000EAE5FCE50E94EE2378940C94430E0230A5
:1019B00011F00C94050DF89483E08093030182E00C
:1019C00080930401882780930501E8E6FCE50E94E6
:1019D000EE23A0E4B5E0E5E0F2E00E94AA280E9430
:1019E000E623E0E4FCE50E94EE2386E08093030119
:1019F00082E080930401882780930501EAE5FCE5F5
:101A00000E94EE2378940C94430E033011F00C9452
:101A1000650DF89483E08093030182E080930401D4
:101A2000882780930501E2E7FCE50E94EE23789485
:101A30000091C101013011F00C94330DA1EFB1E020
:101A4000EAECF9E50E94EC2786E08093030182E04E
:101A500080930401882780930501E6ECFBE50E9452
:101A6000EE230C94630D023011F00C944C0DA1EF99
:101A7000B1E0EEE1FAE50E94EC2786E080930301F5
:101A800082E080930401882780930501E4EDFBE563
:101A90000E94EE230C94630D033011F00C94630D3F
:101AA000A1EFB1E0E0E8F9E50E94EC2786E0809341
:101AB000030182E080930401882780930501EEE70B
:101AC000FCE50E94EE230C94430E043011F00C94BC
:101AD000F70DF89483E08093030182E08093040182
:101AE000882780930501ECE8FCE50E94EE237894BA
:101AF00000911002013011F00C94930DADEBB1E0A8
:101B0000E0E0F9E50E942A2886E08093030182E064
:101B100080930401882780930501ECE9FBE50E948E
:101B2000EE230C94F50D023011F00C94AC0DADEBDE
:101B3000B1E0E4E4F9E50E942A2886E080930301FD
:101B400082E080930401882780930501EAE9FCE59F
:101B50000E94EE230C94F50D033011F00C94C50D8A
:101B6000ADEBB1E0E8E4F9E50E942A2886E0809335
:101B7000030182E080930401882780930501E8EA4D
:101B8000FCE50E94EE230C94F50D043011F00C944A
:101B9000DE0DADEBB1E0E4E0F9E50E942A2886E035
:101BA0008093030182E080930401882780930501DC
:101BB000EAEAFBE50E94EE230C94F50D053011F0E6
:101BC0000C94F50DADEBB1E0E4E4F8E50E942A28B1
:101BD00086E08093030182E080930401882780934C
:101BE0000501E8EBFBE50E94EE230C94430E053063
:101BF00011F00C942C0E83E08093030182E080931B
:101C00000401882780930501E6EBFCE50E94EE23A2
:101C1000E0E4FCE50E94EE2385E08093030182E08E
:101C200080930401882780930501E8E4FCE50E9485
:101C3000EE23E6E5FCE50E94EE2386E080930301B7
:101C400082E080930401882780930501EAE5FCE5A2
:101C50000E94EE230C94430E063011F00C94430EB8
:101C600083E08093030182E08093040188278093BE
:101C70000501E4ECFCE50E94EE23EEE0FBE50E94AA
:101C8000EE230E94A015789400910E02013011F00D
:101C90000C946F0C0E9475250E94A01581E0809322
:101CA0000E02709112027B7F709312025498AEE282
:101CB000B2E09C9197FF04C04C9B10C09F779C930F
:101CC0004C990CC089E19F9390E00E944E249F9113
:101CD0004C9904C090689C930E9420160E94DC23BB
:101CE000A2E1B2E08C9182FB16F00C947C0E73B7EB
:101CF000707F756073BF8895A2E1B2E08C9182FB22
:101D0000882780F9809580FBA2E1B2E08C9182F96E
:101D10008C930C942402F894FFCF70911202777F79
:101D20007093120270911202746070931202E8E3D1
:101D3000FBE50E94D523E8E4FBE50E94D523EAE415
:101D4000FBE50E94D523A0E4B5E0E5ECF1E05527E2
:101D500044E00E943A260E94CD23EAE4FBE50E947B
:101D6000D523A0E4B5E0E5ECF1E0552744E00E947E
:101D70003A260E94CD23EAE4FBE50E94D523A6EF94
:101D8000B1E00E94CF23EAE4FBE50E94D523A0E462
:101D9000B5E0E0E0F2E00E94AA280E94CD23EAE448
:101DA000FBE50E94D523ABEFB1E00E94CF230E9458
:101DB000DC23089570911202746070931202709186
:101DC0001202777F70931202E8E3FBE50E94D523AD
:101DD000E8E4FBE50E94D523EAE4FBE50E94D52375
:101DE000A0E4B5E0E1EDF1E0552744E00E943A2699
:101DF0000E94CD23EAE4FBE50E94D523A0E4B5E0F0
:101E0000E7E0F1E0552744E00E943A260E94CD2306
:101E1000EAE4FBE50E94D523A6EFB1E00E94CF23C0
:101E2000EAE4FBE50E94D523A0E4B5E0E0E0F2E0BF
:101E30000E94AA280E94CD23EAE4FBE50E94D52354
:101E4000ABEFB1E00E94CF230E94DC230895F89409
:101E5000ADE2B2E0E8944C9109B1882703FD8160BE
:101E600002FD8260841711F4B6F310C08C93429582
:101E7000840F823049F0803139F0833229F0813388
:101E800019F00E94301002C00E94F2117894089557
:101E90000F921F922F923F924F925F927F92AF923A
:101EA000BF920F931F932F933F934F935F936F9323
:101EB0007F938F939F93AF93BF93CF93DF93EF93D2
:101EC000FF938FB78F93F894A9E2B0E00C9102FBD7
:101ED00081E00EF080E08F93A9E2B0E00C9103FB6B
:101EE00081E00EF480E09F918923882311F40C9403
:101EF000800F709112027064709312020E94301071
:101F0000A9E2B0E00C9102FB81E00EF480E08F9337
:101F1000A9E2B0E00C9103FB81E00EF080E09F911C
:101F20008923882311F40C949C0F70911202706421
:101F3000709312020E943010789480E080932C02FB
:101F40008F918FBFFF91EF91DF91CF91BF91AF91B3
:101F50009F918F917F916F915F914F913F912F91C1
:101F60001F910F91BF90AF907F905F904F903F90E7
:101F70002F901F900F9018950F921F922F923F92C3
:101F80004F925F927F92AF92BF920F931F932F93C6
:101F90003F934F935F936F937F938F939F93AF93F1
:101FA000BF93CF93DF93EF93FF938FB78F93F89403
:101FB000A9E2B0E00C9103FB81E00EF080E08F938A
:101FC000A9E2B0E00C9102FB81E00EF480E09F9169
:101FD0008923882311F40C94F40F70911202706419
:101FE000709312020E94F211A9E2B0E00C9103FB7F
:101FF00081E00EF480E08F93A9E2B0E00C9102FB47
:1020000081E00EF080E09F918923882311F40C94E5
:102010001010709112027064709312020E94F211FB
:10202000789480E080932C028F918FBFFF91EF9185
:10203000DF91CF91BF91AF919F918F917F916F91E0
:102040005F914F913F912F911F910F91BF90AF9052
:102050007F905F904F903F902F901F900F9018951A
:10206000A2E1B2E08C9186FB16F00C94EC11709119
:1020700012027F7B70931202A2E1B2E08C9184FB8A
:10208000882780F9809580FBA2E1B2E08C9184F9E9
:102090008C93A0E0B1E08C9181FB16F40C946C1051
:1020A0008091110281508093110200911102003041
:1020B00081E009F080E08F93009111020F3F81E0F1
:1020C00010F009F080E09F918923882311F40C948B
:1020D0006C1086E0809311020E94C21C00910E02D7
:1020E000013011F00C94851080910601815080938D
:1020F000060100910601003011F00C9483108091CC
:102100001F01809306010C943C11023011F00C94D5
:10211000BE1080910202815080930202009102025F
:10212000003081E010F009F080E08F93009102020E
:102130000A3080E010F009F081E09F91892B88231C
:1021400011F40C94AC1086E080930202A5EDB1E08E
:10215000E4EFF8E50E942A28E8E3F8E50E94382B2E
:10216000E5EDF1E00E94B9290E94362AEDE0F0E0A9
:10217000A9EDB1E00E9427290C943C11033011F025
:102180000C940511EAE0F2E00E94BE29EDECF1E0CA
:102190000E94B9290E94CE2AEDE0F0E0ADECB1E05A
:1021A0000E942729EDECF1E00E94B929ECE4F9E561
:1021B0000E94382B0E94A02910F00C94E510ADEC81
:1021C000B1E0ECE4F9E50E942A28E8E3F8E50E9492
:1021D000382BEDECF1E00E94B9290E94362AEDE09F
:1021E000F0E0A9ECB1E00E94272980911002815013
:1021F0008093100200911002003011F00C94031132
:1022000083E0809310020C943C11043011F00C9484
:102210003C118091030281508093030200910302DC
:10222000003081E010F009F080E08F93009103020C
:10223000013180E010F009F081E09F91892B882323
:1022400011F40C942C1180E180930302ADEDB1E008
:10225000E0E4F9E50E942A28E8E3F8E50E94382B3B
:10226000EDEDF1E00E94B9290E94362AEDE0F0E0A0
:10227000A1EEB1E00E942729A0E0B1E08C9181FBA2
:1022800016F00C94EC1100911102013011F00C9435
:102290006811809100028150809300020091000239
:1022A0000F3F81E010F009F080E08F930091000271
:1022B0000A3080E010F009F081E09F9189238823A3
:1022C00011F40C94661180E0809300020C94AA1122
:1022D000023011F00C947C118091050281508093A2
:1022E0000502009105020F3F11F00C947A1180E075
:1022F000809305020C94AA11033011F00C949011F4
:102300008091C10181508093C1010091C1010030D1
:1023100011F00C948E1183E08093C1010C94AA11EA
:10232000043011F00C94A41180911002815080931C
:10233000100200911002003011F00C94A21185E0FF
:10234000809310020C94AA11053011F00C94AA117C
:102350000E949E16E8E3FBE50E94D523E8E4FBE536
:102360000E94D523EAE4FBE50E94D523A0E4B5E072
:10237000E9EDF1E0552744E00E943A260E94CD2382
:10238000EAE4FBE50E94D523A0E4B5E0E9EDF1E045
:10239000552744E00E943A260E94CD23EAE4FBE55B
:1023A0000E94D523A6EFB1E00E94CF23EAE4FBE52B
:1023B0000E94D523A0E4B5E0E0E0F2E00E94AA2864
:1023C0000E94CD23EAE4FBE50E94D523ABEFB1E008
:1023D0000E94CF230E94DC237091120278607093D8
:1023E00012020895A2E1B2E08C9186FB16F00C94E3
:1023F0009713709112027F7B70931202A2E1B2E0F8
:102400008C9185FB882780F9809580FBA2E1B2E062
:102410008C9185F98C93A0E0B1E08C9181FB16F44E
:102420000C942D12A1E1B2E08C918F5F8C930091FE
:102430001102083081E008F480E08F9300911102CE
:102440000A3081E008F080E09F918923882311F40D
:102450000C942D1281E0809311020E94C21C009105
:102460000E02013011F00C944A12A6E0B1E08C91FA
:102470008F5F8C9340911F0100910601041718F0A3
:1024800011F00C9445120C94481281E080930601DF
:102490000C94E912023011F00C947412A2E0B2E034
:1024A0008C918F5F8C9300910202073010F40C9492
:1024B000621281E080930202A5EDB1E0ECE2F8E562
:1024C0000E942A28E8E3F8E50E94382BE5EDF1E0C8
:1024D0000E94B9290E94362AEDE0F0E0A9EDB1E0B2
:1024E0000E9427290C94E912033011F00C94C112B8
:1024F000EAE0F2E00E94BE29EDECF1E00E94B92989
:102500000E94DD2AEDE0F0E0ADECB1E00E94272969
:10251000EDECF1E00E94B929E0E5F9E50E94382BE5
:102520000E94A02918F011F00C9498120C949E129D
:10253000ADECB1E0E0E5F9E50E942A28E8E3F8E532
:102540000E94382BEDECF1E00E94B9290E94362A56
:10255000EDE0F0E0A9ECB1E00E942729A0E1B2E0B3
:102560008C918F5F8C9300911002053018F011F060
:102570000C94BC120C94BF1281E0809310020C9456
:10258000E912043011F00C94E912A3E0B2E08C914E
:102590008F5F8C9300910302013110F40C94D912D7
:1025A00081E080930302ADEDB1E0E0E3F8E50E9445
:1025B0002A28E8E3F8E50E94382BEDEDF1E00E94CF
:1025C000B9290E94362AEDE0F0E0A1EEB1E00E94C8
:1025D0002729A0E0B1E08C9181FB16F00C949713B1
:1025E00000911102013011F00C941313A0E0B2E03D
:1025F0008C918F5F8C9300910002093081E008F488
:1026000080E08F93009100020B3081E008F080E0C1
:102610009F918923882311F40C94111388E08093EF
:1026200000020C945513023011F00C942713A5E00E
:10263000B2E08C918F5F8C9300910502093011F00C
:102640000C94251388E0809305020C9455130330F5
:1026500011F00C943B13A1ECB1E08C918F5F8C9343
:102660000091C101043010F40C94391381E080937F
:10267000C1010C945513043011F00C944F13A0E1D8
:10268000B2E08C918F5F8C9300911002053010F4B2
:102690000C944D1381E0809310020C945513053077
:1026A00011F00C9455130E949E16E8E3FBE50E947E
:1026B000D523E8E4FBE50E94D523EAE4FBE50E948C
:1026C000D523A0E4B5E0E9EDF1E0552744E00E9410
:1026D0003A260E94CD23EAE4FBE50E94D523A0E43C
:1026E000B5E0E9EDF1E0552744E00E943A260E946A
:1026F000CD23EAE4FBE50E94D523A6EFB1E00E94DA
:10270000CF23EAE4FBE50E94D523A0E4B5E0E0E0B6
:10271000F2E00E94AA280E94CD23EAE4FBE50E9491
:10272000D523ABEFB1E00E94CF230E94DC23709150
:1027300012027860709312020895A1E1B2E08C91C8
:102740008F5F8C9300911102083081E008F480E0E3
:102750008F93009111020A3081E008F080E09F9190
:102760008923882311F40C94B81381E0809311021B
:102770000E943916089570910001726070930001F3
:102780000E9439164C990C94C7130E949D13F8941B
:10279000789400911102013011F00C94F113E1E3EF
:1027A000F3E0A0E0B2E07BE70E94422983E080935F
:1027B000030182E080930401882780930501E6E30A
:1027C000FCE50E94EE23A0E4B5E0E0E0F2E00E9428
:1027D000AA280E94E623E0E4FCE50E94EE230C9484
:1027E0005315023011F00C94101483E08093030110
:1027F00082E080930401882780930501E8E6FCE5E8
:102800000E94EE23A0E4B5E0E5E0F2E00E94AA28F1
:102810000E94E623E0E4FCE50E94EE230C945315AD
:10282000033011F00C946E1483E08093030182E076
:1028300080930401882780930501E0EDFCE50E9468
:10284000EE230091C101013011F00C943C14A1EF72
:10285000B1E0EAECF9E50E94EC2786E08093030101
:1028600082E080930401882780930501E6ECFBE574
:102870000E94EE230C946C14023011F00C94551449
:10288000A1EFB1E0EEE1FAE50E94EC2786E080934B
:10289000030182E080930401882780930501E4ED21
:1028A000FBE50E94EE230C946C14033011F00C94A1
:1028B0006C14A1EFB1E0E0E8F9E50E94EC2786E0B6
:1028C0008093030182E080930401882780930501AF
:1028D000EEE7FCE50E94EE230C945315043011F052
:1028E0000C94FE1483E08093030182E08093040142
:1028F000882780930501E2EEFCE50E94EE2300911B
:102900001002013011F00C949A14ADEBB1E0E0E04C
:10291000F9E50E942A2886E08093030182E08093F3
:102920000401882780930501ECE9FBE50E94EE2372
:102930000C94FC14023011F00C94B314ADEBB1E024
:10294000E4E4F9E50E942A2886E08093030182E00E
:1029500080930401882780930501EAE9FCE50E9441
:10296000EE230C94FC14033011F00C94CC14ADEB5A
:10297000B1E0E8E4F9E50E942A2886E080930301AB
:1029800082E080930401882780930501E8EAFCE552
:102990000E94EE230C94FC14043011F00C94E51406
:1029A000ADEBB1E0E4E0F9E50E942A2886E08093EF
:1029B000030182E080930401882780930501EAEAFD
:1029C000FBE50E94EE230C94FC14053011F00C94EE
:1029D000FC14ADEBB1E0E4E4F8E50E942A2886E0BF
:1029E0008093030182E0809304018827809305018E
:1029F000E8EBFBE50E94EE230C945315053011F033
:102A00000C94391583E08093030182E080930401E4
:102A1000882780930501E6EBFCE50E94EE23E0E4C5
:102A2000FCE50E94EE2385E08093030182E0809321
:102A30000401882780930501E2EFFCE50E94EE2364
:102A4000E6E5FCE50E94EE2386E08093030182E048
:102A500080930401882780930501EEEFFCE50E9436
:102A6000EE23E6E5FCE50E94EE230E949E160C9400
:102A70005315063011F00C94531583E08093030135
:102A800082E080930401882780930501ECE0FDE556
:102A90000E94EE23709100017260709300010E9409
:102AA000A0150C94831578944C990C9469158CE2BC
:102AB00091E00E944E244C990C946915709100018C
:102AC0007D7F709300010E9439160E9439160C9484
:102AD000831500911102073011F00C94791581E0F3
:102AE00080930E02709100017260709300010C944B
:102AF0007C1585E080930E02A0E0B1E08C9181FB13
:102B000016F00C94C2130E9475250E94A0150E9415
:102B10008D0E84E690E00E944E24EAEFFBE50E94D1
:102B2000D523A0E4B5E0E5E0F2E00E94AA280E94E7
:102B3000CD230E94DC2382E390E00E944E2408957E
:102B4000E5E2F3E0A5EDB1E094E07BE70E944529E2
:102B5000E9E2F3E0ADEDB1E094E07BE70E944529C6
:102B6000EDE2F3E0A5EEB1E094E07BE70E944529B9
:102B7000E2E3F3E0A1E0B2E07BE70E944229E3E375
:102B8000F3E0A2E0B2E07BE70E944229E4E2F3E056
:102B9000A1ECB1E07BE70E944229E4E3F3E0A5E089
:102BA000B2E07BE70E944229E1E3F3E0A0E0B2E07B
:102BB0007BE70E944229E0E2F3E0ADEBB1E094E074
:102BC0007BE70E9445290895E4E2F3E0A1ECB1E03F
:102BD0000E945E2988E080930502E1E3F3E0A0E033
:102BE000B2E00E945E29ADEBB1E0E0E2F3E094E0F8
:102BF0000E9461290895A7E0B1E0E4E5F9E50E94AB
:102C00002A28A5EDB1E0ECE2F8E50E942A28ADED16
:102C1000B1E0E0E3F8E50E942A28A5EEB1E0E4E3A4
:102C2000F8E50E942A28ADEEB1E0ECE3F8E50E9459
:102C30002A2881E08093020281E0809303020895B4
:102C40000E943916AEE0B2E08C918F5F8C930091B8
:102C50000E02063011F00C94301681E080930E02C3
:102C60007091120278607093120280E080932C02BF
:102C70000895289882E390E00E944E24289A82E3E7
:102C800090E00E944E240895709112027860709333
:102C90001202A2E1B2E08C9180FB882780F9809536
:102CA00080FBA2E1B2E08C9180F98C930E943916EE
:102CB000A0E0B1E08C9184FB882780F9809580FBAF
:102CC000A0E0B1E08C9184F98C93AFE0B2E08C91FC
:102CD0008F5F8C9300910F02083010F40C947316E0
:102CE00081E080930F024C990C948B168CE291E05A
:102CF0000E944E244C990C948B16709100017D7F9C
:102D0000709300010E9439160E94391670910001DB
:102D100078607093000180E080932C0208951C99E4
:102D20000C949B16709100017460709300015D9A81
:102D30005E980C949D165E9A5D98089570910001BE
:102D4000777F709300018CE291E00E944E242398DB
:102D5000249A0E943B24A8E8B1E08C93009188015A
:102D6000003018F011F00C94B7160C94E616ACEB8A
:102D7000B1E08C918F5F8C9380918801ACEBB1E0D6
:102D8000AD90BB24A8E8B1E0AA0DBB1D8C930091C7
:102D900088010A3011F00C94D5167091000170640E
:102DA0007093000180E08093BC010091BC0102336C
:102DB00018F011F00C94DE160C94E61680E0809367
:102DC000BC01709100017F7B70930001A0E0B1E035
:102DD0008C9186FB16F00C94FD16709100017F7BA0
:102DE0007093000180E08093BC01E9E8F1E0A0E28B
:102DF000B1E00E9422290E9448174C990C941517A3
:102E00008CE291E00E944E244C990C94151770911D
:102E100000017D7F709300010E9439160E943916CF
:102E200070910001786070930001A0E0B1E08C9196
:102E300083FB16F00C94A91670910001777F7093B4
:102E4000000186E08093110281E090E0A6E8B1E005
:102E50008D939C9324980E944025EEE8FAE3A1E02C
:102E6000B1E0ED93FC9385E08093030188E08093CB
:102E70000401882780930501E2E1FDE50E94EE232D
:102E8000E6E5FCE50E94EE2381E0809306010895CB
:102E900084E30E94DC27E0E2F1E003E0A881B9814D
:102EA0000E943429A881B981E2E2FDE50E947E29D1
:102EB0000FB684E3481A80E0580A22960FBE11F03C
:102EC0000C946C170E940118A0E2B1E088278C9343
:102ED000A3E5B1E088278C9384E30E94DC27E0E23D
:102EE000F1E003E0A881B9810E943429A881B98169
:102EF000E6E2FDE50E947E290FB684E3481A80E0F1
:102F0000580A22960FBE11F00C94A51784E0E0E257
:102F1000F1E002E00A93A3E5B1E00E942D29A3E5C8
:102F2000B1E00E94F028AFE1B1E00C93AFE1B1E075
:102F3000BA93AA930E94521C2296A0E2B1E088277D
:102F40008C93A3E5B1E088278C9384E30E94DC276F
:102F5000E0E2F1E003E0A881B9810E943429A88170
:102F6000B981EAE2FDE50E947E290FB684E3481AA2
:102F700080E0580A22960FBE11F00C94C9170E94E7
:102F8000C21CA0E2B1E088278C93A3E5B1E08827BA
:102F90008C9384E30E94DC27E0E2F1E003E0A88167
:102FA000B9810E943429A881B981EEE2FDE50E9431
:102FB0007E290FB684E3481A80E0580A22960FBE95
:102FC00011F00C94ED170E94E118A0E2B1E08827FF
:102FD0008C93A3E5B1E088278C93A0E2B1E0E2E313
:102FE000FDE50E947E2911F00C9400180E94F21A4F
:102FF000A0E2B1E088278C93A3E5B1E088278C9309
:10300000089581E080931F0100911F01083218F09C
:1030100011F00C947518E4E4F8E50E942B2BEFE115
:10302000F1E0A190BB24ECEFFFEFAA0CBB1CAA0CB3
:10303000BB1CEA0DFB1DADE0BB2794E07BE70E94C3
:103040004529EFE1F1E0A190BB24EFE9F0E0EA0DC2
:10305000FB1DA0E1BB2780E08C937BE70E94422907
:10306000A42DB52DE6E3FDE50E94EC27EFE1F1E0AC
:103070000191112749E050E00E94E227EFEBF0E0D8
:10308000E00FF11FD2017BE70E945329EFE1F1E04D
:10309000A190BB24EEE2F2E0AA0CBB1CEA0DFB1DE2
:1030A00000E010E0A0E1BB277BE70E944429E4E4B4
:1030B000F8E50E942B2BEFE1F1E0A190BB24ECE7B7
:1030C000F2E0AA0CBB1CAA0CBB1CEA0DFB1DADE078
:1030D000BB2794E07BE70E944529AFE1B1E08C91EA
:1030E0008F5F8C9310F40C940418ECE3FDE50E94C0
:1030F0001F240E9426240895A7E0B1E0E881F98109
:10310000A190BB24ECEFFFEFAA0CBB1CAA0CBB1CCC
:10311000EA0DFB1D94E00E946129E881F981A190EC
:10312000BB24EFE9F0E0EA0DFB1DABE0B1E00E944B
:103130005E29E881F9810191112749E050E00E9460
:10314000E227EFEBF0E0E00FF11FA0E1B1E098E043
:103150000E946829E0E1F1E008E0A0E1B1E00E940E
:103160003429E881F981A190BB24EEE2F2E0AA0CB7
:10317000BB1CEA0DFB1DA9E1B1E00E946029ABE197
:10318000B1E0E881F981A190BB24ECE7F2E0AA0C60
:10319000BB1CAA0CBB1CEA0DFB1D94E00E9461291C
:1031A000E8E3F8E50E94382BEBE1F1E00E94B92951
:1031B0000E94362AEDE0F0E0ADEBB1E00E94272955
:1031C000089581E00E94DC2781E00E94DC2781E0F5
:1031D0000E94DC2781E00E94DC2781E00E94DC273E
:1031E00081E00E94DC2781E00E94DC2781E00E94D0
:1031F000DC2781E00E94DC2781E00E94DC2785E15A
:103200000E94DC2782E00E94DC2781E00E94DC270C
:1032100084E00E94DC27A0E2B1E0E4E5FDE52FEFC9
:1032200091E00E94F727AC89BD890C93AC89BD89D8
:103230000C9141E0040FAE89BF890C93AE89BF8920
:103240009C919A93A0E2B1E0E4E5FDE52FEF0E94A6
:10325000F227AA89BB890C93AA89BB890C9141E00A
:10326000040FAE89BF890C93AE89BF899C919A9354
:10327000A0E2B1E0E4E5FDE52FEF0E94F227A88986
:10328000B9890C93A889B9890C9141E0040FAE89E2
:10329000BF890C93AE89BF899C919A93A0E2B1E05B
:1032A000E4E5FDE52FEF0E94F227AE85BF850C9384
:1032B000AE85BF850C9141E0040FAE89BF890C93A8
:1032C000AE89BF899C919A93A0E2B1E0E4E5FDE567
:1032D0002FEF0E94F227AC85BD850C93AC85BD8590
:1032E0000C9141E0040FAE89BF890C93AE89BF8970
:1032F0009C919A93A0E2B1E0E4E5FDE52FEF0E94F6
:10330000F227AA85BB850C93AA85BB850C9141E069
:10331000040FAE89BF890C93AE89BF899C919A93A3
:10332000A0E2B1E0E4E5FDE52FEF0E94F227A885D9
:10333000B9850C93AC89BD890C9141E0040FAE892D
:10334000BF890C93AA89BB890C91AE89BF894C9126
:10335000041BA88DB98D0C93AE89BF898C91E0E2D6
:10336000F1E0A88DB98D0C910A93AF81B8850E94C8
:103370002D29AE81BF810E94F028AA8DBB8D0C93B0
:10338000AA89BB890C9141E0040FAE89BF890C93D7
:10339000A889B9890C91AE89BF894C91041BA88D6D
:1033A000B98D0C93AE89BF898C91E0E2F1E0A88DD4
:1033B000B98D0C910A93AF81B8850E942D29AE81F9
:1033C000BF810E94452BEDE0F0E0A881B9810E9409
:1033D0002729E8E3F8E50E94382BE881F9810E946B
:1033E000B9290E94362AEDE0F0E0A881B9810E9457
:1033F0002729EA8DFB8DA190BB24ECEFFFEFAA0CEF
:10340000BB1CAA0CBB1CEA0DFB1DA881B98194E072
:103410007BE70E944529A889B9890C9141E0040FF6
:10342000AE89BF890C93AE85BF850C91AE89BF89EB
:103430004C91041BA88DB98D0C93AE89BF898C91DA
:10344000E0E2F1E0A88DB98D0C910A93AF81B885C7
:103450000E942D29AE81BF810E94F028AA81BB81E4
:103460000C93EA8DFB8DA190BB24EFE9F0E0EA0D0F
:10347000FB1DAA81BB817BE70E944229AE85BF85E7
:103480000C9141E0040FAE89BF890C93AC85BD85DA
:103490000C91AE89BF894C91041BA88DB98D0C93FA
:1034A000AE89BF898C91E0E2F1E0A88DB98D0C91D5
:1034B0000A93AF81B8850E942D29EE81FF8108E033
:1034C000AE81BF810E943429EA8DFB8D01911127C5
:1034D00049E050E00E94E227EFEBF0E0E00FF11F3F
:1034E000AE81BF817BE70E945329AC85BD850C91DD
:1034F00041E0040FAE89BF890C93AA85BB850C916E
:10350000AE89BF894C91041BA88DB98D0C93AE89EF
:10351000BF898C91E0E2F1E0A88DB98D0C910A93FE
:10352000AF81B8850E942D29AE81BF810E94F0280D
:10353000AC81BD810D931C93EA8DFB8DA190BB24C2
:10354000EEE2F2E0AA0CBB1CEA0DFB1DAC81BD81D2
:103550007BE70E944429AA85BB850C9141E0040FBA
:10356000AE89BF890C93A885B9850C91AE89BF89B6
:103570004C91041BA88DB98D0C93AE89BF898C9199
:10358000E0E2F1E0A88DB98D0C910A93AF81B88586
:103590000E942D29AE81BF810E94452BEDE0F0E015
:1035A000A881B9810E942729EA8DFB8DA190BB24B7
:1035B000ECE7F2E0AA0CBB1CAA0CBB1CEA0DFB1D3D
:1035C000A881B98194E07BE70E944529E6E5FDE505
:1035D0000E941F240E94262486E2481A80E0580A8E
:1035E0006C960895E8E5F9E50E942B2BE0E0F0E009
:1035F000ADE0BB2794E07BE70E944529E0EAF0E0DC
:10360000A0E1BB2782E18C937BE70E944229A42D95
:10361000B52DEEE5FDE50E94EC27E8ECF0E0D201E7
:103620007BE70E945329E0E3F2E001E911E0A0E129
:10363000BB277BE70E944429ECE5F9E50E942B2B90
:10364000E0E8F2E0ADE0BB2794E07BE70E9445298B
:10365000E0E6F9E50E942B2BE4E0F0E0ADE0BB27CB
:1036600094E07BE70E944529E1EAF0E0A0E1BB2776
:1036700083E18C937BE70E944229A42DB52DE8E6D7
:10368000FDE50E94EC27E1EDF0E0D2017BE70E942E
:103690005329E2E3F2E002E911E0A0E1BB277BE776
:1036A0000E944429E4E6F9E50E942B2BE4E8F2E0CD
:1036B000ADE0BB2794E07BE70E944529E8E6F9E509
:1036C0000E942B2BE8E0F0E0ADE0BB2794E07BE725
:1036D0000E944529E2EAF0E0A0E1BB2784E18C9357
:1036E0007BE70E944229A42DB52DE2E7FDE50E946B
:1036F000EC27EAEDF0E0D2017BE70E945329E4E3F6
:10370000F2E003E911E0A0E1BB277BE70E94442936
:10371000ECE6F9E50E942B2BE8E8F2E0ADE0BB27F0
:1037200094E07BE70E944529E0E7F9E50E942B2B16
:10373000ECE0F0E0ADE0BB2794E07BE70E94452998
:10374000E3EAF0E0A0E1BB2785E18C937BE70E94F0
:103750004229A42DB52DECE7FDE50E94EC27E3EE10
:10376000F0E0D2017BE70E945329E6E3F2E004E9AE
:1037700011E0A0E1BB277BE70E944429E4E7F9E5DB
:103780000E942B2BECE8F2E0ADE0BB2794E07BE756
:103790000E944529E8E7F9E50E942B2BE0E1F0E0E3
:1037A000ADE0BB2794E07BE70E944529E4EAF0E026
:1037B000A0E1BB2786E18C937BE70E944229A42DE0
:1037C000B52DE6E8FDE50E94EC27ECEEF0E0D20135
:1037D0007BE70E945329E8E3F2E005E911E0A0E16C
:1037E000BB277BE70E944429ECE7F9E50E942B2BDD
:1037F000E0E9F2E0ADE0BB2794E07BE70E944529D9
:10380000E0E9FDE50E941F240E9426240895E6EACF
:10381000FDE50E941F24E8E4FBE50E941F24E4E587
:10382000FDE50E941F24A0E4B5E0E7E0F1E05527A4
:1038300044E00E943A260E942A24E4E5FDE50E9425
:103840001F24A0E4B5E0EBE0F1E00E94AA280E946A
:103850002A24E4E5FDE50E941F24A0E1B1E00E94D6
:103860002C24E4E5FDE50E941F24A0E4B5E0E9E195
:10387000F1E00E94A3280E942A24E4E5FDE50E94CD
:103880001F24A0E4B5E0EBE1F1E0552744E00E94FD
:103890003A260E942A24ECEAFDE50E941F240E9499
:1038A0002624089584E00E94DC27AA81BB81BA9374
:1038B000AA930E947C182296E8E3F8E50E94382B30
:1038C000E7E0F1E00E94B9290E948F2AEDE0F0E0E4
:1038D0000E94C929A881B981EDE0FF270E9427290C
:1038E000E6EAFDE50E941F24A0E4B5E0EA81FB8141
:1038F0000E94AA280E942A24E4E5FDE50E941F24D4
:10390000A0E4B5E0E881F9810E949D280E942A2464
:10391000E4E5FDE50E941F24A0E4B5E0EBE0F1E062
:103920000E94AA280E942A24E4E5FDE50E941F24A3
:10393000A0E1B1E00E942C24E4E5FDE50E941F24F3
:10394000A0E4B5E0E9E1F1E00E94A3280E942A2466
:10395000E4E5FDE50E941F24A0E4B5E0EBE1F1E021
:10396000552744E00E943A260E942A24ECEAFDE50D
:103970000E941F240E94262484E0481A80E0580AEE
:103980002296089584E00E94DC2781E080931F0145
:1039900000911F01083218F011F00C94F71CA88157
:1039A000B981EFE1F1E0A190BB24ECEFFFEFAA0CAD
:1039B000BB1CAA0CBB1CEA0DFB1D94E00E946129F4
:1039C000E881F9810E94B929E4E4F8E50E94382BE6
:1039D0000E94A02911F00C94EF1C0C94F71CAFE18D
:1039E000B1E08C918F5F8C9310F40C94C81CAFE104
:1039F000B1E08C9181508C93E2EBFDE50E941F2495
:103A0000A0E4B5E0EFE1F1E00E94AA280E942A2498
:103A10000E94262484E0481A80E0580A22960895DD
:103A20000E94391684E080932C020895305400805F
:103A300040201008AA020804AA020402AA3C0204B8
:103A4000AA010408AA03083040C000AA0300FF002E
:103A5000AA4D00FF00AA0300FF00AA4D00FF00AA24
:103A60000300FF00AA4D00FF00AA0300FF00AA4DBB
:103A700000FF00AA03000304081020AA032040AAA4
:103A80003F4020AA03201008040300AA02000106F8
:103A9000060000000000000000005F0000000003BE
:103AA00000030000147F147F1400042A7F2A1000F2
:103AB00023130864620036495620500000030000BA
:103AC0000000001C2241000041221C0000002A1CB2
:103AD0007F1C2A0008083E080800004070300000E3
:103AE0000808080808000000606000006010080472
:103AF00003003E5149453E0000427F4000006251B4
:103B000049494600224149493600181412117F00E4
:103B10002745454539003E454545390001611109B4
:103B200007003649494936000E5151513E00000008
:103B300036360000004076360000000814220000EF
:103B40001414141414000022140800000201510976
:103B500006003E4955550E007C1211127C007F492B
:103B6000494936003E41414122007F4141221C002B
:103B70007F49494941007F09090901003E414151FE
:103B800072007F0808087F0000417F41000020404C
:103B9000413F01007F08142241007F404040600007
:103BA0007F020C027F007F0204087F003E414141FA
:103BB0003E007F1111110E003E4151617E007F09D0
:103BC0001929460026494949320001017F010100B7
:103BD0003F4040403F001F2040201F003F403840F2
:103BE0003F00631408146300070870080700615160
:103BF0004945430000007F41410003040810600074
:103C000041417F00000004020102040040404040A6
:103C10004040010200000000304A4A3C40007F481A
:103C200048483000384444442000304848487F0029
:103C300038545454180000087E09000008545454A5
:103C400038007F080404780000487A400000002013
:103C5000403D00007F101028440000007F0000005D
:103C60007C047C0478007C080404780038444444D4
:103C700038007C14141408000814147C40007C08DC
:103C80000404080048545454240000043F44000035
:103C90003C4040207C001C2040201C003C40304028
:103CA0003C004428102844000C5050503C00446410
:103CB000544C440000000836410000007F00000022
:103CC000413608000000080408040000000000005D
:103CD00000000000000000000000000000000000E4
:103CE00000000000000000000000000000000000D4
:103CF0004000400040000000000000000000000004
:103D00000000143E55554100130864026000000095
:103D100000000000000000000000000000000000A3
:103D20000000000000000000000000000000000093
:103D30000000000000000000000000000000000083
:103D40000000000000000000000000000000000073
:103D500000183C3C180000000000000000000000BB
:103D60000000003C24243C00000000000000000093
:103D70000000000000000000000000000000000043
:103D80000000000000000000000000000000000033
:103D90000000000000000000000000000000000023
:103DA00000000000000000000000005A24245A0017
:103DB000000000000000000077000000000000008C
:103DC00000007C55545554003E415D55413E000075
:103DD0000000000008142A142200020202020E0051
:103DE00000000000000000000000000000000000D3
:103DF000000006090906000000242E24000000002F
:103E000000000000000000000000000000000000B2
:103E1000FC2040403C00040E7E027E0000000800B2
:103E200000003855545518007810207E020000001C
:103E30000000000022142A14080000000000000006
:103E400000000000000000000000000000027802F6
:103E500000007C1211127C007F49494930007F49E3
:103E6000494936007F0101010100407E417F400049
:103E70007F494949410077087E0877002241494936
:103E800036007F2010087F007F2011087F007F0808
:103E900014224100403E01017F007F0204027F00A6
:103EA0007F0808087F003E4141413E007F0101013B
:103EB0007F007F09090906003E41414122000101BE
:103EC0007F010100074848483F000C127F120C0098
:103ED0006314081463003F20203F600007080808AF
:103EE0007F007F407C407F003F203C203F60017F7F
:103EF000484830007F4830007F007F484848300005
:103F0000224149493E007F083E413E0046291909A9
:103F10007F002054545478007854545420007C542A
:103F2000545428007C0404040400085454543800F9
:103F30003854545418006C1078106C0028445454B1
:103F400028003C4040407C003C4044407C007C10C9
:103F500010284400403804047C007C0810087C00D1
:103F60007C1010107C003844444438007C04040465
:103F70007C007C14141408003844444428007C0459
:103F80007C0478000C5050503C0008147C1408004D
:103F90004428102844001C20203C60000C10101005
:103FA0007C003C4078407C001C2038203C60047C35
:103FB000505020007C5020007C007C50505020004D
:103FC0002844545438007C103844380008543414C1
:103FD0007C00020A14000000000000000000000045
:103FE0000000000000000000000000000000FE00D3
:103FF00000000000000000001B00000000000000A6
:104000001E0000001E000000000000000000000074
:1040100000000020A07826A07826200001190701C2
:1040200019070101010000001C2642FF8202000066
:1040300000001810103F110F00001C2222229C408B
:104040003008040210080403000E1111110E008044
:104050005C62A2321C0000800708101011131C18AB
:104060001601000000001E0000000000000000001B
:10407000000000000000000000E0180C0402020034
:1040800000000007183020000000000202040C1895
:10409000E0000000000000203018070000000008C9
:1040A00018F04EF0180800000000000000000000AA
:1040B000000000000000E000000000000202020218
:1040C0001F020202020000000000000000000000C9
:1040D0000000001838000000000000000000000090
:1040E00000000000000001010101010100000000CA
:1040F0000000000000000000000000181800000090
:1041000000000000000000C0300C02000000300C75
:1041100003000000000000F00C0202020CF000009E
:1041200000030C1010100C03000000040404FE0037
:1041300000000000001010101F10101000000006FA
:10414000020202C23C0000000018141211101000FC
:104150000000000002424242BC00000000001010BB
:1041600010100F00000000C0201804FE0000000026
:1041700003020202021F0202000000003E2222424D
:10418000820000000000101010080700000000F07E
:104190004C2222224280000000070810101008075D
:1041A000000000020202C2320A06000000001807E6
:1041B000000000000000001CA24242A2A21C00005D
:1041C000000F10101010090600000078840202028F
:1041D00084F800000000101111110C030000000011
:1041E00000606000000000000000001818000000DF
:1041F00000000000006060000000000000000018E7
:1042000038000000000000000000808040402000D6
:1042100000000303040408081000008080808080F0
:1042200080808000000404040404040404000020CE
:1042300040408080000000000010080804040303D0
:104240000000000E02028242261C00000000001B3B
:10425000000000000000F01804E2120A8AFC0000CE
:10426000030C181314161B07040400008070183088
:10427000C0000000100E0302020202030C1000F83E
:104280008888888848300000001F10101010110E18
:104290000000C0301008080808180000030C0810BF
:1042A00010101010000000F80808080810E00000C6
:1042B000001F101010100807000000F80808080878
:1042C00008080000001F111111111110000000F862
:1042D0000808080808080000001F0101010101008A
:1042E000000000C0301008080808180000030C087F
:1042F000101011111F0000F80000000000F800006D
:10430000001F01010101011F000000080808F80852
:1043100008080000001010101F101010000000000E
:1043200000080808F80000000000101010100F002E
:10433000000000F88080402010080000001F0001ED
:1043400002040408100000F8000000000000000053
:10435000001F1010101010100000F838E00000C00E
:1043600038F800001F0001070601001F000000F8D8
:104370001060800000F80000001F00000106081F08
:10438000000000E0100808080810E000000708100E
:1043900010101008070000F80808080888700000CE
:1043A000001F010101010000000000E010080808E2
:1043B0000810E0000007081010103008070000F88F
:1043C0000808088870000000001F0101030408109D
:1043D00000000070488888080818000000181010B5
:1043E0001011090E000008080808F808080808005D
:1043F000000000001F000000000000F800000000A6
:1044000000F800000007181010100807000008301E
:10441000C000000000C030080000010618180700A6
:10442000000018E00000E0C00000E01800031C0FCE
:1044300000010E1C0300081020408080402010085E
:1044400010080402010102040810081060800080B6
:1044500040201008000000001F00000000000008BD
:1044600008080888482818000018141211101010A5
:104470001000000000FE0202020200000000003FE7
:1044800000000000000000020C30C000000000002E
:104490000000000000030C3000000002020202FED7
:1044A0000000000000000000003F000000000000CD
:1044B00000E0380E708000000004030000000003DC
:1044C0000400000000000000000000002020202068
:1044D0002020202020200000000001020000000019
:1044E000000000000000000000000000202020204C
:1044F000C0000000000C121111091F10000000FE86
:104500004020202060800000001F081010100807C5
:10451000000000804020202020200000000708101C
:1045200010101010000000804020202040FE0000ED
:10453000000718101010081F0000008040202020E5
:1045400020C0000000070911111111110000002006
:1045500020FC2422222222000000001F0000000074
:10456000000000804020202040E0000000071810DC
:104570001010083F000000FE8040202020C00000F6
:10458000001F00000000001F000000202026E600A1
:1045900000000000000000001F00000000000000FC
:1045A000202026E60000000000000000003F000080
:1045B000000000FE0000804040200000001F0103BA
:1045C0000404081000000000020202FE00000000C7
:1045D00000000000001F00000000E0402020C0405C
:1045E0002020C0001F0000001F0000001F0000E08E
:1045F000C040202020C00000001F00000000001F5D
:1046000000000080402020204080000000070810AB
:1046100010100807000000E040202020608000000B
:10462000003F0810101008070000008040202020E4
:1046300040E00000000718101010083F00000000C4
:10464000E080402020E0000000001F00000000008B
:10465000000000C0202020202000000000181111C0
:1046600012120C000000002020F820202020000062
:104670000000000F10101010000000E0000000000B
:10468000E0000000000F101010081F00000020C004
:104690000000000000C0200000010618100C0300FC
:1046A000000060800000C080000080600007180EDD
:1046B00001010E180700002040800000804020000B
:1046C0000010080403030408100020C000000000CC
:1046D0000000C0200000030638180601000000207A
:1046E00020202020A06020000010181412111010AB
:1046F000100000000000FC020202000000000101A6
:104700003E000000000000000000FE00000000006D
:10471000000000003F00000000000000020202FC58
:104720000000000000000000003E010100000080C9
:1047300080800000000000800300000001010202F0
:1047400002010080C0201020C0800000001F101057
:104750001010101F000005D00E94E22700FC0CD0B2
:1047600008950024E89457FF02C009D0689400F827
:104770000BD010F80124089502D009D00895509567
:1047800040954F5F5F4F0895E89417FF0895009597
:1047900010950F5F1F4F68940895A0E4B5E08D91C8
:1047A000882311F00CD0FBCF08950E942228802D81
:1047B00011F005D0FACF08958DE001D08AE0009085
:1047C000C00005FEFCCF8093C6000895A0E4B5E0CC
:1047D0008D91882311F00FD0FBCF08950E942228DD
:1047E000802D11F008D0FACF089588EE93E056D0CE
:1047F0003197D9F708950C9485253197F1F70895ED
:10480000689462F80895E89462F808958F939F93EE
:1048100083E690E00197F1F79F918F91089580953D
:104820002AE090E0089410F42C9802C02C9A000022
:10483000EDDFECDF969587952A95A9F708950E94FC
:104840002228802D11F0EBDFFACF08958DE0E7DF0D
:104850008AE0E5CFA0E4B5E08D91882311F0DFDF99
:10486000FBCF08958F939F9383E690E00197F1F734
:104870009F918F9108951B9B02C08827089529E07E
:104880001B99FECFEFDFEEDFEDDF88941B990894D4
:104890002A9519F087959795F6CF0895EF93FF9392
:1048A000EE27E82BE92B31F0EAEFF0E03197F1F752
:1048B0000197D1F7FF91EF9108958DE207FD8D9358
:1048C0008F2D881F802F881F8F57082F6894F7F827
:1048D000802F87FF15C080958395082F80E38D93E7
:1048E0008EE28D93802F815228F080E38D9399275B
:1048F0009C93089544270A95802F09F196D01FC0F4
:10490000805230F09EE49D9381E48D939D93EFCF90
:104910004427DF92EF92FF920F938FE1801B11F0FB
:10492000082F83D089D09EE29D930F91FF90EF9046
:10493000DF9044270395003209F4D7CF2BD03F9363
:10494000EAECF9E438E12F2D1E2D0D2DFF24EE2485
:10495000DD244427000F111F221FA8F42F923F923D
:104960000E942228102C0E942228202C0E942228FB
:10497000302C0E9422283197410DD21CE31CF01CE0
:104980003F902F9001C0339631963A9519F73F9199
:1049900007D0AFCFDD0CEE1CFF1C0A95D9F70895A8
:1049A000002719E058D08F93802B11F0039501C098
:1049B0008F911A95B9F7802F882309F496CF8F919C
:1049C000805D8D930A95D9F792CF0065CD1D80B299
:1049D000E60E40597307A0ACB90350D6DC01286B32
:1049E000EE0094357700CA9A3B0065CD1D00B2E613
:1049F0000E0059730700ACB90300D6DC01006BEE62
:104A00000000357700009A3B0000CD1D0000E60E47
:104A1000000073070000B9030000DC010000EE0095
:104A20000000770000003B000000F694E794D79464
:104A300047950A95D1F7089500270DD08F930395D8
:104A40008F2D8E298D29842BC1F78F91805D8D93B9
:104A50000A95D9F74CCF1F930F93002710E2440F0C
:104A6000DD1CEE1CFF1C001F802F9AE0890B10F04C
:104A7000082F43951A9599F7802F0F911F9108954C
:104A80002B9884E699270E944E242B9A8AE0992736
:104A90000E944E244198439A81E211D088EC0FD0B5
:104AA00086E00DD083E10BD080E209D08CE007D006
:104AB0000895863219F481E0809330020895429877
:104AC00001C0429A7F93439898E0880F10F4409A6F
:104AD00001C0409800000000419A00000000419889
:104AE0009A9599F7439A7F91089500E480E2E7DF71
:104AF000802FE5DF80E8E3DF882714E5E2DF1A9501
:104B0000E9F70395063491F708952091300221309A
:104B100069F4282F203808F02FE7206881E2CFDFE2
:104B2000822FCDDF80E0809330020895EF93FF93D2
:104B3000509103015F9370900401E0910101F091A5
:104B400002010E942228202D0E942228302D0E943E
:104B50002228002D0E942228602D8052482F0E947A
:104B60007229E40FF51FCC241124E22E603059F194
:104B7000DD24DA94CD2CFF24032F0E94222821F07B
:104B80000A95E00FF11D03C0F3940A95B1F7FD14E7
:104B900008F4DF2CEA9479F7E22EFF24032F3197F3
:104BA000C895002021F00A95E01BF10903C0F39499
:104BB0000A95A9F7FC1408F4CF2CEA9471F7D316E0
:104BC00011F4D62ECC2470920401732F7C194091DD
:104BD0000401509103015F930E9430265F91603081
:104BE00041F0DD2031F05D2D0E9422285A95E1F739
:104BF0007D190E942228802D50910501552309F02E
:104C0000809540910401453514F40E94612550912E
:104C100004015395509304017A9559F7EC0DF11D59
:104C2000603081F050910501762F8827552309F0D7
:104C300080950E9461257A95C1F750910401560F25
:104C400050930401509103015395509303012A9509
:104C500009F0B9CF5F9150930301FF91EF9108954F
:104C60004A955A9580E22BDF80E4850F28DF80E8A3
:104C7000840F25CF0E94B9290E940F2A17FF03C075
:104C80008DE28D931127003821F4E2E5FFE40C94C6
:104C9000EC270F3741F4FF2019F4E8E4FFE4F7CFE5
:104CA000E4E4FFE4F4CF4A934A934A935A93BA93C5
:104CB000AA93BB270F5F02F5BB27802F0A950E949E
:104CC000192A8D3E90F4E2EAFFE4A3E00E94382B1B
:104CD0000E94A029BB1FB0FF06C070970E94382B0E
:104CE0000E948F2A3C96AA9589F7EEE9FFE40E947C
:104CF000382B0E948F2A22C0093058F1033178F1F5
:104D00000A3130F418E08BE192E9E6E5FFE42EC0C9
:104D10000A950E94192AE6E9FFE4BFEFA3E00E948A
:104D2000382B0E94A029BB1FB0FD06C038960E94F8
:104D3000382B0E948F2A3C97AA9589F7B095BB0F14
:104D40000E940F2A039513E08AEF99E0F8160907ED
:104D500040F413E08BE094E0EAE6FFE407C016E0DD
:104D600001C0B39583E194E2EEE5FFE46A81BF3FC1
:104D700019F4BB2711276260BD836A831C83A88155
:104D8000B98160E36D93A883B9836D93081B019586
:104D9000AA24BB246A816A7F002339F0F694E79441
:104DA000D794B794A7940A95F7CF19E000270E94EB
:104DB000382BCC248FEF74E0AC14B206D306E40693
:104DC000F50630F0AC18B20AD30AE40AF50A21F16C
:104DD000881F7A9531F05695479537952795C79452
:104DE000EBCF809522D041F0969508F7FE2CED2C64
:104DF000DB2CBA2CAA24DBCF25D05D813C812B8112
:104E000070D0277021F02BD06CD0E8F301C03CD0DB
:104E10004CD078D0269608958894881F7A95E9F723
:104E2000809503D049F38827FCCF806360FD06C0DE
:104E3000803311F0616002C0039561FD8D9360FDC8
:104E40001A95089599278E919C9385338E9108F039
:104E500083958A3308F080E38C93C0F70895732F0D
:104E6000720F61FF701B0AD01296785019F050F340
:104E70008E9380E38E937150EAF70895A881B981EB
:104E8000A70F8827B81F089579E061FD700FF6DF3E
:104E900048E0431B400F8AF381F399274A9569F351
:104EA0008E91803351F79C93F9CF732F61FF701B64
:104EB0007395A881B981EA2FFB2F119781918033D7
:104EC00061FF09F08D937A9511F48EE28D938191B3
:104ED0008823C1F7772311F480E38D9388278C937F
:104EE0000895889462FD0895002359F4A881B9813A
:104EF0008C91803331F0552321F053953350646009
:104F0000089408955523E9F085E48D931AF48DE211
:104F10008D935195652F660F560F5A3010F060E54E
:104F200003D068E001D0DACF8FEF74E0561708F0B5
:104F3000561B881F7A9511F06695F8CF809580638F
:104F40008D9308954E414E00496E66696E6974797D
:104F50000000302E300000404B4C0020A107000024
:104F600050C3000088130000F4010000003200006C
:104F7000000500008000CCCCCC0C14AE47019CC4D2
:104F80002000DC460300E353000063080000D70064
:104F90000000150000001CC25367A5D4685300240C
:104FA000744915BE9A17CCBC8C2BBD378635019140
:104FB000119121913081089599275A924A92480E71
:104FC000591E08950F92B801469F8001479F100D0A
:104FD000569F100D0F9008950E9422280D920020D8
:104FE000D9F7089599910027A90FB01F1197492F5C
:104FF0004A955E2F6F2FE89411274395203019F0C2
:10500000C895802D01C080818823B9F07C917723D9
:10501000A1F0781739F40EF0042F139568941196C7
:105020003196EBCF112321F0411BA11B1127B10BAE
:10503000E894E52FF62F1196E0CF882311F0002792
:1050400008950895C89531960020089591E005C00F
:1050500092E003C094E001C098E0F4DF0D929A95CD
:10506000E1F7089599278D9193958823E1F793951A
:1050700011968C9311978E919A95D1F70895EA2FF6
:10508000FB2F00244C918D9103948E32E1F7112473
:105090008D9113948823E1F71A94101640F4119718
:1050A000202F2119239580E38D932A95E9F711305C
:1050B00039F59927AE2FBF2FA00DB91FA00FB91F2B
:1050C0008C919C93853308F421C031E08E918E320F
:1050D000E9F38D3241F0830F8A3319F480E331E034
:1050E00001C033278C93AE1789F7332341F0AE2FDD
:1050F000BF2FB8DF81E34D3209F4319680830895E4
:105100008827E00DF81FE00FF81F80830895040F33
:10511000151F261F371F0895000F111F221F331F51
:10512000089500951095209530950F5F1F4F2F4FD4
:105130003F4F0895019110810FC00E94D7270EC0E4
:105140000E94D72710C00191108117FF05C03FEFC3
:105150002FEF04C0008111272227332737FF03C018
:10516000E0DF8DE28D93CF92DF92EF92AA24BB24F1
:10517000CC24DD24EE2440E2EAE0FF2755E093E36F
:105180008081890F87FD9F7083FD907F891B8193AC
:105190005A95A9F7C1DFAA1CBB1CCC1CDD1CEE1C58
:1051A0004A9551F7E894EFE0FF2782910CD0EB305D
:1051B000E0F71EF068948A2D0AD088278D93EF902F
:1051C000DF90CF900895982F829501D0892F8F700E
:1051D000805D26F0803309F4089568948D930895D6
:1051E00000271127222733271DD08A3328F4803344
:1051F00018F005D015D0F9CF0EF493CF0895805351
:105200008F93402F512F622F732F86DF85DF7FDF33
:1052100083DF8F919927080F191F291F391F0895C0
:105220008D910895E894FCDF8032E9F38B32D9F355
:105230008930C9F38D3211F46894F2CF089588272C
:105240008D93089581918D938823E1F7089594E0DB
:1052500081918D939A95E1F7089509919191992300
:1052600051F08A95D9F73197002329F081918D93D8
:105270000A958823C9F7E3CFF999FECFE1BDF2BDC6
:105280003196089591E001C092E07B3751F47FB7E9
:10529000F894F2DF8D9180BDFA9AF99A9A95C9F740
:1052A0007FBF77270895E8DF8D917B3729F480BD94
:1052B000FA9AF99A8823B9F77727089591E001C0FF
:1052C00092E0DADFF89A80B58D939A95D1F7089538
:1052D000D3DFF89A80B58D93882319F09A95C1F79A
:1052E0009D930895FF935527F8E0469508F4500FD5
:1052F00057954795FA95D1F7FF910895689401C0A5
:10530000E894AF93BF938D9116F0919103C00E94E2
:105310002228902D891718F011F48823A1F7BF9146
:10532000AF910895B7FE089590E8B91611F4D0FE34
:1053300008959FEFD91AE90AF90A09F40395089527
:105340000F928F939F93D216E306F4060FB680E870
:1053500090E8802795270FBE890739F00FB6892B73
:1053600087FD02C081E008260FBE9F918F910F90AC
:105370000895D190E190F19001910895219131919A
:10538000419151910895502F2D2D3E2D4F2D612F7C
:105390000895EFDF992711278F2D880F80E8F82ACD
:1053A000802F881F08F41FEF41F08F57082F07FD4B
:1053B00004C0003240F08FEF01C08827982FD82E0C
:1053C000E82EF82E09C08FE1801B082FF694E79491
:1053D000D79497950A95D1F7112351F09095D094D1
:1053E000E094F09481E0980F8827D81EE81EF81EFC
:1053F0000F2DFE2CED2CD92E0895D094E094F0942E
:1054000091E0D90E9927E91EF91E10950895652F90
:1054100090E8440F551F5927990F47956078102F32
:1054200090E8FF0C001F0927990FF79410780038B7
:105430000895FF0C90E89027110F9795F794092F86
:1054400008952DEC3CEC4CEC5DE366270FC091DF3A
:105450009ADFDD24EE2490E8F92E0FE307C08EDFFB
:1054600005C02227332740E251E46627552351F136
:10547000002381F1CCDF71F11627005850580894B1
:10548000050B18F407FD03C025C007FD23C0469592
:1054900037952795F694E794D79425D0FF202AF0E6
:1054A000DD0CEE1CFF1C015073F09D2D969548F00D
:1054B000DD203AF4EE202AF491E0D90E9927E91E76
:1054C000F91EB7CF07C09FE7092FF92A9FEFD92E02
:1054D000E92E0895DD24EE24FF24002711270895E6
:1054E0000FE79FEFF2CF9F929924AA24BB2488E173
:1054F000D216E306F40628F0D21AE30AF40A089456
:1055000001C08894991CAA1CBB1CDD0CEE1CFF1C5E
:105510008A9571F7D92CEA2CFB2C9F90089577DFA0
:10552000D9F05038C9F016270058952F9058089494
:10553000091F12F418F40EC008F00EC00FD0FF209F
:105540002AF0BB0CDD1CEE1CFF1C02C0039513F0FF
:10555000E9DE6FCF0C94632A0C946A2A9F92FF9223
:10556000EF928D2DFF24EE24DD24BB2493E0849F55
:105570001001829FB00CD11CE21CF31C839FD00C45
:10558000E11C2224F21C9A9531F0BD2CDE2CEF2C6C
:10559000FF248F91ECCF9F900895F0DE38DF5038D4
:1055A00029F090E869270CC00AF045D042CF5FE3AC
:1055B00022273327442701C0E1DE29DF5038B1F329
:1055C000003899F3902F951B8BF312F434D0FACF57
:1055D000983118F0222733274427983028F0232FBA
:1055E000342F44279850F9CF992329F046953795C1
:1055F00027959A95D9F7912F962742F014D0B0F6B7
:10560000F794E794D7940F5F8BF65DCF10D051F0ED
:1056100008F4F3DEFF2052F2DD0CEE1CFF1C0150FB
:10562000CBF751CF57CFD20EE31EF41E0895D21AF6
:10563000E30AF40A0895DF92EF92FF920F931F930B
:10564000D22EE32EF42E052F162F6F915F914F91DE
:105650003F912F9108950E942228D02C0E94222849
:10566000E02C0E942228F02C0E942228002D089570
:105670000E942228202D0E942228302D0E942228BC
:10568000402D0E942228502D08950E94032488272F
:105690008A938A931FDF11278D918032E9F3119746
:1056A000BBD098F08D3229F4109511968C91B4D01E
:1056B00060F08E3229F411968C91AED008F446C079
:1056C00022960E94002481E008958C91A5D0D8F5FF
:1056D000119646D0D0F703958D919ED0E0F38E328F
:1056E00029F48C9199D010F41196FBCF853419F0E0
:1056F000853609F055C011968C918ED060F08D32B0
:1057000019F08B3221F0DCCF0880009408821196CA
:105710008C9182D0A8F68053898311968C917CD08D
:1057200058F49981990F990F0980900D990F805322
:10573000890F8983873220F68981988199230AF419
:105740008195080F2DC08E3289F611968C9164D008
:1057500068F606D018F011960A95F8CF1196C1CFC9
:105760004F2D3E2D2D2DDD0CEE1CFF1CA8F0DD0C69
:10577000EE1CFF1C88F0D20EE31EF41E68F0DD0C58
:10578000EE1CFF1C48F0805309F06894D80E88275F
:10579000E81EF81E08F00895F42EE32ED22E089588
:1057A00034D019F116F5098308E921D00695882728
:1057B00087959F2D9F77980FF92E0150000F110F9D
:1057C00007958981882379F01AF48195898306C029
:1057D00038DE89818A958983D9F705C042DE8981BF
:1057E0008A958983D9F72296089574DEFCCF0DD06F
:1057F00041F0FF2032F00A9531F0DD0CEE1CFF1C69
:10580000D2F7889408950894089500240D280E284E
:105810000F28002A00200895803320F08A3310F4E6
:1058200008940895889408958000B149E073B049C0
:105830003C1C884A00C8AF4900401C466043844A6B
:105840000000FA420000000000008642CDCC8F42EA
:10585000CDCC944200009A4266669F420000A54269
:10586000CDCCAA420000B1420000B7429A99BD4295
:10587000CDCCC2420000C8420000CF426666D6428C
:10588000CDCCDD429A99E5429A99ED420000F6426C
:105890009A99FE42CDCC034300800843CD4C0D4382
:1058A000333312436666174333B31C433333224307
:1058B00066E62743CDCC2D4333B3334333333A43EA
:1058C000CDCC404300804B4333B352439A195A43E3
:1058D00033B361439A996943CDCC7143CD4C7A433C
:1058E00000002A43B07BB0496887B049D046B1492F
:1058F000A04EB149F094B14900007A440050C3472A
:105900003333F3409A99193F361D884A301E884A2E
:105910002A1F884A2420884A1E21884A1822884A39
:105920001223884A0C24884A0625884A0026884A79
:10593000FA26884AF427884AEE28884AE829884ABD
:10594000E22A884A0000B040CDCCCC3F0093A34966
:105950004089954A003FB149CD8CD8430000803F33
:105960009A99D8430000004066A6D8430000404002
:1059700033B3D8430000804000C0D8430000A040AB
:105980003030303000004452413831385F455531B5
:10599000312E424153005648462F55484620545216
:1059A0005800415820656C656B74726F6E696B614D
:1059B00000005665722E200030303031000030304B
:1059C00030320000303030330000303030340000EE
:1059D0003030303500003030303600003030303775
:1059E00000003030303800003030303900003030C6
:1059F00031300000303031310000303031320000C1
:105A00003030313300003030313400003030313547
:105A10000000303031360000303031370000303097
:105A20003138000030303139000030303230000081
:105A3000303032310000303032320000303032331A
:105A40000000303032340000303032350000303069
:105A5000323600003030323700003030323800004B
:105A600030303239000030303330000030303331E4
:105A7000000030303332000030303333000030303B
:105A8000333400003030333500003030333600001E
:105A90003030333700003030333800002053494D68
:105AA000504C4558204D4F44452020002052455031
:105AB0004541544552204D4F4445202000002000D0
:105AC0004348205500002020202020202020202096
:105AD00020200000434820560000202020202020C5
