:100000000C9434000C94CF0A0C94430B1895000008
:10001000189500001895000018950000189500002C
:10002000189500001895000018950000189500001C
:10003000189500001895000018950000189500000C
:1000400018950000189500001895000018950000FC
:1000500018950000189500001895000018950000EC
:1000600018950000189500008FEF8DBFC0ECE8E5F3
:100070004E2E88E08EBFD7E0F5E05F2EA89584B7BE
:10008000082E877F84BF88E1992780936000909332
:100090006000EEEFF7E0A0E0B1E088278D933197A4
:1000A000E9F78CE08093C40080E08093C50088E18C
:1000B0008093C10072E07093C000662470910001CB
:1000C0007F7770930001239A3B9A3A9A389A399A2B
:1000D0000E94101F0E94101F0E94451F81E20E9473
:1000E0002F1F8EEB0E942F1F81E080930601249A20
:1000F0002C9A23987894709100017062709300019B
:10010000A0ECB1E0E8ECFBE40E94FA21A8ECB1E03D
:10011000ECECFBE40E94FA21A0EDB1E0E0EDFBE4A1
:100120000E94FA21A8EDB1E0E4EDFBE40E94FA217F
:10013000709100017F7E7093000170910001777FC4
:1001400070930001ACEDB1E0E8EBFCE40E94BC214F
:10015000A1EEB1E0E8EBFCE40E94BC21ECE7F3E0A7
:10016000A0E1B0E00E942E230A3018F011F00C94A8
:10017000BB000C94C400ECE7F3E0A0E1BB2781E0F6
:100180008C937BE70E941223ECE7F3E0A6EEB1E04C
:100190000E942E2380E18093E70181E08093E801B3
:1001A00081E08093E90188E08093EA01E0E8F3E0F0
:1001B000A0E1B0E00E942E230A3018F011F00C9458
:1001C000E3000C94EC00E0E8F3E0A0E1BB2788E05A
:1001D0008C937BE70E941223E0E8F3E0ABEEB1E002
:1001E0000E942E23709100017B7F70930001559A2D
:1001F000569A209A289AA0EFB1E0E8EDFBE40E941D
:10020000FA2100E010E020E030E0ACEEB1E00D9328
:100210001D932D933C9381E08093F601E1E8F3E098
:10022000A0E1B0E00E942E230A3018F011F00C94E7
:100230001B010C942401E1E8F3E0A0E1BB2781E07D
:100240008C937BE70E94122381E08093F501E1E823
:10025000F3E0A4EFB1E00E942E23709100017E7FB5
:100260007093000180E08093F8018CE00E94291FC8
:10027000E4E6F3E3A1E0B1E0ED93FC9381E0809349
:1002800003018AE080930401882780930501EEEB47
:10029000FCE40E94BE1DE0E2FEE2A1E0B1E0ED93CD
:1002A000FC9384E08093030181E08093040188271C
:1002B00080930501EAECFCE40E94BE1D8FEA809366
:1002C000F9010091F901033C18F011F00C947B0145
:1002D00081E20E942F1F8091F9010E942F1F88EC5C
:1002E00090E00E941E1EA9EFB1E08C918F5F8C936D
:1002F00010F40C946101E2E0F0E00E94C51D0E9440
:10030000101F0E94451F81E20E942F1F83EC0E9454
:100310002F1F0E943A105398529854985C9A5A9AF8
:100320005B9A22981A9A7091F701777F7093F70180
:100330007091F70174607093F7017091F7017D7F00
:100340007093F70124981C9A579A5F9A0E94CD0FD8
:1003500081E085BD80E084BD7894809169008C7FC8
:1003600082608093690080916900837F88608093B8
:100370006900E99AE89A0E94451FE0EAF0E0A0E1EE
:10038000B0E00E942E230F3F11F00C94CC0185E0C9
:100390008093F4010C94CF0181E08093F40170917B
:1003A00068007460709368007CE170936D007091D8
:1003B000680071607093680070916B007061709359
:1003C0006B007091F70170617093F7010E94FB0F51
:1003D000ECEDFBE40E940825E0EDF1E00E948923AA
:1003E0000E940624EDE0F0E0A4EDB1E00E94F722C7
:1003F0001C990C94FE015F980C94FF015F9A709118
:1004000000017D7F709300010E949010A3E2B0E094
:100410000C9104FB81E00EF080E08F93A0E0B1E04E
:100420008C9182FB81E00EF080E09F9189238823EC
:1004300011F40C942902709100017B7F70930001EC
:1004400084EF91E00E941E1E7091F701706170931D
:10045000F7015498A7EFB1E09C9190FF04C04C9B2A
:1004600010C09E7F9C934C990CC089E19F9390E0B3
:100470000E941E1E9F914C9904C091609C930E9403
:1004800021100091F401013011F00C94710770916A
:1004900000017F7E70930001A6E0B1E0BA93AA93B9
:1004A0000E945A12229600912301013011F00C94FF
:1004B0005E02709100017F7E709300010091230124
:1004C000023011F00C946902709100017061709318
:1004D000000100912301033011F00C94740270911B
:1004E0000001706170930001A0E0B1E08C9184FB89
:1004F00016F00C94F102E7E0F1E00E948923E0EEAF
:10050000FBE40E9408250E94702318F011F00C945F
:100510008B020C94BF02E7E0F1E0ACEBB1E00E948B
:10052000F72200912301023011F00C94A902E4EEAD
:10053000FBE40E940825ECEBF1E00E9489230E9475
:100540009E24EDE0F0E0ACEBB1E00E94F7220C94C9
:10055000BD02033011F00C94BD02E4EEFBE40E94F6
:100560000825ECEBF1E00E9489230E94AD24EDE028
:10057000F0E0ACEBB1E00E94F7220C94F102E7E06E
:10058000F1E0ACEBB1E00E94F722009123010230D0
:1005900011F00C94DD02E8EEFBE40E940825ECEB80
:1005A000F1E00E9489230E949E24EDE0F0E0ACEB94
:1005B000B1E00E94F7220C94F102033011F00C9488
:1005C000F102E8EEFBE40E940825ECEBF1E00E946A
:1005D00089230E94AD24EDE0F0E0ACEBB1E00E9495
:1005E000F72200910B01003011F00C940503ACE0F0
:1005F000B1E0ECEEFBE40E94FA21ACEDB1E0E8EBF7
:10060000FCE40E94BC210C94AF05013011F00C9465
:100610001703ACE0B1E0E0EFFBE40E94FA21ACED9F
:10062000B1E0EAEDFCE40E94BC210C94AF0502307D
:1006300011F00C942903ACE0B1E0E4EFFBE40E947C
:10064000FA21ACEDB1E0E0EEFCE40E94BC210C9498
:10065000AF05033011F00C943B03ACE0B1E0E8EFE0
:10066000FBE40E94FA21ACEDB1E0E6EEFCE40E946E
:10067000BC210C94AF05043011F00C944D03ACE098
:10068000B1E0ECEFFBE40E94FA21ACEDB1E0ECEE5E
:10069000FCE40E94BC210C94AF05053011F00C94D1
:1006A0005F03ACE0B1E0E0E0FCE40E94FA21ACEDD5
:1006B000B1E0E2EFFCE40E94BC210C94AF050630EF
:1006C00011F00C947103ACE0B1E0E4E0FCE40E94B2
:1006D000FA21ACEDB1E0E8EFFCE40E94BC210C94FF
:1006E000AF05073011F00C948303ACE0B1E0E8E013
:1006F000FCE40E94FA21ACEDB1E0EEEFFCE40E94D4
:10070000BC210C94AF05083011F00C949503ACE0BB
:10071000B1E0ECE0FCE40E94FA21ACEDB1E0E4E0F1
:10072000FDE40E94BC210C94AF05093011F00C943B
:10073000A703ACE0B1E0E0E1FCE40E94FA21ACEDFB
:10074000B1E0EAE0FDE40E94BC210C94AF050A3060
:1007500011F00C94B903ACE0B1E0E4E1FCE40E94D8
:10076000FA21ACEDB1E0E0E1FDE40E94BC210C9483
:10077000AF050B3011F00C94CB03ACE0B1E0E8E135
:10078000FCE40E94FA21ACEDB1E0E6E1FDE40E9458
:10079000BC210C94AF050C3011F00C94DD03ACE0DF
:1007A000B1E0ECE1FCE40E94FA21ACEDB1E0ECE157
:1007B000FDE40E94BC210C94AF050D3011F00C94A7
:1007C000EF03ACE0B1E0E0E2FCE40E94FA21ACED22
:1007D000B1E0E2E2FDE40E94BC210C94AF050E30D2
:1007E00011F00C940104ACE0B1E0E4E2FCE40E94FE
:1007F000FA21ACEDB1E0E8E2FDE40E94BC210C94EA
:10080000AF050F3011F00C941304ACE0B1E0E8E256
:10081000FCE40E94FA21ACEDB1E0EEE2FDE40E94BE
:10082000BC210C94AF05003111F00C942504ACE010
:10083000B1E0ECE2FCE40E94FA21ACEDB1E0E4E3CB
:10084000FDE40E94BC210C94AF05013111F00C9421
:100850003704ACE0B1E0E0E3FCE40E94FA21ACED47
:10086000B1E0EAE3FDE40E94BC210C94AF05023143
:1008700011F00C944904ACE0B1E0E4E3FCE40E9424
:10088000FA21ACEDB1E0E0E4FDE40E94BC210C945F
:10089000AF05033111F00C945B04ACE0B1E0E8E388
:1008A000FCE40E94FA21ACEDB1E0E6E4FDE40E9434
:1008B000BC210C94AF05043111F00C946D04ACE034
:1008C000B1E0ECE3FCE40E94FA21ACEDB1E0ECE431
:1008D000FDE40E94BC210C94AF05053111F00C948D
:1008E0007F04ACE0B1E0E0E4FCE40E94FA21ACED6E
:1008F000B1E0E2E5FDE40E94BC210C94AF050631B5
:1009000011F00C949104ACE0B1E0E4E4FCE40E944A
:10091000FA21ACEDB1E0E8E5FDE40E94BC210C94C5
:10092000AF05073111F00C94A304ACE0B1E0E8E4AA
:10093000FCE40E94FA21ACEDB1E0EEE5FDE40E949A
:10094000BC210C94AF05083111F00C94B504ACE057
:10095000B1E0ECE4FCE40E94FA21ACEDB1E0E4E6A5
:10096000FDE40E94BC210C94AF05093111F00C94F8
:10097000C704ACE0B1E0E0E5FCE40E94FA21ACED94
:10098000B1E0EAE6FDE40E94BC210C94AF050A3117
:1009900011F00C94D904ACE0B1E0E4E5FCE40E9471
:1009A000FA21ACEDB1E0E0E7FDE40E94BC210C943B
:1009B000AF050B3111F00C94EB04ACE0B1E0E8E5CD
:1009C000FCE40E94FA21ACEDB1E0E6E7FDE40E9410
:1009D000BC210C94AF050C3111F00C94FD04ACE07B
:1009E000B1E0ECE5FCE40E94FA21ACEDB1E0ECE70B
:1009F000FDE40E94BC210C94AF050D3111F00C9464
:100A00000F05ACE0B1E0E0E6FCE40E94FA21ACEDB9
:100A1000B1E0E2E8FDE40E94BC210C94AF050E3188
:100A200011F00C942105ACE0B1E0E4E6FCE40E9496
:100A3000FA21ACEDB1E0E8E8FDE40E94BC210C94A1
:100A4000AF050F3111F00C943305ACE0B1E0E8E6EE
:100A5000FCE40E94FA21ACEDB1E0EEE8FDE40E9476
:100A6000BC210C94AF05003211F00C944505ACE0AC
:100A7000B1E0ECE6FCE40E94FA21ACEDB1E0E4E97F
:100A8000FDE40E94BC210C94AF05013211F00C94DE
:100A90005705ACE0B1E0E0E7FCE40E94FA21ACEDE0
:100AA000B1E0EAE9FDE40E94BC210C94AF050232FA
:100AB00011F00C946905ACE0B1E0E4E7FCE40E94BD
:100AC000FA21ACEDB1E0E0EAFDE40E94BC210C9417
:100AD000AF05033211F00C947B05ACE0B1E0E8E720
:100AE000FCE40E94FA21ACEDB1E0E6EAFDE40E94EC
:100AF000BC210C94AF05043211F00C948D05ACE0D0
:100B0000B1E0ECE7FCE40E94FA21ACEDB1E0ECEAE4
:100B1000FDE40E94BC210C94AF05053211F00C9449
:100B20009F05ACE0B1E0E0E8FCE40E94FA21ACED06
:100B3000B1E0E2EBFDE40E94BC210C94AF0506326B
:100B400011F00C94AF05ACE0B1E0E4E8FCE40E94E5
:100B5000FA21ACEDB1E0E8EBFDE40E94BC211C9968
:100B60000C94B5055F980C94B6055F9A0E9490109E
:100B7000A3E2B0E00C9104FB81E00EF080E08F93E3
:100B8000A0E0B1E08C9182FB81E00EF080E09F91CB
:100B90008923882311F40C94DB05709100017B7F7D
:100BA0007093000184EF91E00E941E1E7091F70186
:100BB00070617093F701F894E0E2FEE2A1E0B1E029
:100BC000ED93FC93A0E0B1E08C9184FB16F40C94BF
:100BD000F80581E08093030185E08093040181E0C2
:100BE00080930501EEEBFDE40E94BE1D0C9405060A
:100BF00081E08093030181E08093040181E0809390
:100C00000501EEECFDE40E94BE1D7894E4E6F3E3FA
:100C1000A1E0B1E0ED93FC9383E08093030187E0D2
:100C200080930401882780930501A0E4B5E0E7E004
:100C3000F1E0552744E00E940A200E94B61DE0EE34
:100C4000FDE40E94BE1DA0E0B1E08C9184FB16F093
:100C50000C945F061C9B0C94460683E08093030172
:100C600087E080930401882780930501A0E4B5E024
:100C7000E7E0F1E0552744E00E940A200E94B61DFB
:100C8000E0EEFDE40E94BE1D0C945D0683E08093BF
:100C9000030187E080930401882780930501A0E485
:100CA000B5E0ECEBF1E0552744E00E940A200E94F9
:100CB000B61DE0EEFDE40E94BE1D0C94760683E0B6
:100CC0008093030187E080930401882780930501C6
:100CD000A0E4B5E0E7E0F1E0552744E00E940A20F7
:100CE0000E94B61DE0EEFDE40E94BE1D5498A7EFE1
:100CF000B1E09C9190FF04C04C9B10C09E7F9C93E0
:100D00004C990CC089E19F9390E00E941E1E9F9118
:100D10004C9904C091609C930E942110E0E2FEE295
:100D2000A1E0B1E0ED93FC93F894A0E0B1E08C91E8
:100D300084FB16F40C94EF06E7E0F1E00E948923AF
:100D4000E0EEFBE40E9408250E94702318F011F0E9
:100D50000C94AC060C94C70686E08093030187E0F0
:100D600080930401882780930501E2EEFDE40E9450
:100D7000BE1DA0E4B5E0E1E2F1E00E9473220E9412
:100D8000B61DE8EEFDE40E94BE1D0C94E00686E070
:100D90008093030187E080930401882780930501F5
:100DA000E6EFFDE40E94BE1DA0E4B5E0E1E2F1E063
:100DB0000E9473220E94B61DE8EEFDE40E94BE1D53
:100DC00085E08093030187E0809304018827809366
:100DD0000501ECEFFDE40E94BE1D0C943B0786E08C
:100DE0008093030187E080930401882780930501A5
:100DF000ECE0FEE40E94BE1DA0E4B5E0E1E2F1E01B
:100E00000E9473220E94B61DE0EEFDE40E94BE1D0A
:100E1000A3E1B1E00E94B81DE0E1FEE40E94BE1D26
:100E2000A0E4B5E0AF93BF93ECE0F1E00E9489232A
:100E30000E942D1E11E001E0BF91AF910E940F2290
:100E4000E0E4F5E0A0E1B1E00E94F22285E08093C9
:100E5000030187E080930401882780930501E6E180
:100E6000FEE40E94BE1DA0E1B1E00E94B81DECE1CD
:100E7000FEE40E94BE1D7894A7EFB1E08C9184FB44
:100E800016F00C945607E7E0F1E0A8EBB1E00E9401
:100E9000F722A0E0B1E08C9184FB16F40C94540787
:100EA0000E94140A0C9456070E94610A0E94AC1D0D
:100EB000A7EFB1E08C9183FB16F00C94640773B735
:100EC000707F756073BF8895A7EFB1E08C9183FB4D
:100ED000882780F9809580FBA7EFB1E08C9183F99A
:100EE0008C930091F401023011F00C94EE080E94F2
:100EF000451FE0E2FEE2A1E0B1E0ED93FC9381E06A
:100F00008093030185E08093040181E080930501D3
:100F1000E2E2FEE40E94BE1D1C990C9492075F98C9
:100F20000C9493075F9A0E9490105498A7EFB1E039
:100F30009C9190FF04C04C9B10C09E7F9C934C9949
:100F40000CC089E19F9390E00E941E1E9F914C99D6
:100F500004C091609C930E944510E4E6F3E3A1E095
:100F6000B1E0ED93FC9383E08093030187E08093ED
:100F70000401882780930501A0E4B5E0E4EDF1E0E9
:100F8000552744E00E940A200E94B61DE0E2FEE2DE
:100F9000A1E0B1E0ED93FC930091F501013011F077
:100FA0000C94E707A0EFB1E0E8EDFBE40E94FA2122
:100FB00086E08093030187E0809304018827809373
:100FC0000501EEE2FEE40E94BE1D0C9430080230E2
:100FD00011F00C940008A0EFB1E0E8E8FCE40E94F6
:100FE000FA2186E08093030187E08093040188273B
:100FF00080930501E0E4FEE40E94BE1D0C943008DD
:10100000033011F00C941908A0EFB1E0ECEDFBE413
:101010000E94FA2186E08093030187E08093040117
:10102000882780930501E0E5FEE40E94BE1D0C9434
:101030003008043011F00C943008A0EFB1E0ECE877
:10104000FCE40E94FA2186E08093030187E080930C
:101050000401882780930501E0E6FEE40E94BE1D9E
:10106000A7EFB1E08C9184FB16F00C94AA08709164
:10107000F7017F7E7093F701E2E7FEE40E94A51D71
:10108000E2E8FEE40E94A51DE4E8FEE40E94A51D3E
:10109000A0E4B5E0E4EDF1E0552744E00E940A2029
:1010A0000E949D1DE4E8FEE40E94A51DA0E4B5E0B9
:1010B000E4EDF1E0552744E00E940A200E949D1DC6
:1010C000E4E8FEE40E94A51DACEDB1E00E949F1D86
:1010D000E4E8FEE40E94A51DA0E4B5E0E6EEF1E040
:1010E0000E947A220E949D1DE4E8FEE40E94A51D54
:1010F000A1EEB1E00E949F1D0E94AC1DE6E8FEE457
:101100000E94A51DA0E4B5E0EBEEF1E00E947A227A
:101110000E949D1D0E94AC1DE8E9FEE40E94A51DF1
:10112000A0E4B5E0EAEEF1E00E947A220E949D1D63
:10113000E4E8FEE40E94A51DE2E8FEE40E94A51D8D
:10114000E4E8FEE40E94A51DE2E8FEE40E94A51D7D
:101150000E94AC1D0E9490100E94AC1DA7EFB1E050
:101160008C9183FB16F00C94BA0873B7707F75608E
:1011700073BF8895A7EFB1E08C9183FB882780F936
:10118000809580FBA7EFB1E08C9183F98C93A0E070
:10119000B1E08C9183FB16F00C948C070E94CD0F6C
:1011A0000E94451F70910001777F70930001A0EFAE
:1011B000B1E0E8EDFBE40E94FA2183E08093F401C2
:1011C00081E08093F601ACEDB1E0E8EBFCE40E9435
:1011D000BC217091F70170617093F7010091F401E7
:1011E000033011F00C94DD0981E08093F6010E9438
:1011F000451F0E94901081E08093030185E0809359
:10120000040181E080930501E6EAFEE40E94BE1D30
:101210005498A7EFB1E09C9190FF04C04C9B10C084
:101220009E7F9C934C990CC089E19F9390E00E9413
:101230001E1E9F914C9904C091609C930E94E00EE9
:101240000091F601013011F00C94520983E0809373
:10125000030188E080930401882780930501E0EB77
:10126000FEE40E94BE1DA0E4B5E0E6EEF1E00E94BF
:101270007A220E94B61DEAEBFEE40E94BE1D85E0C4
:101280008093030188E080930401882780930501FF
:10129000E2ECFEE40E94BE1DE0EDFEE40E94BE1DF5
:1012A0000C94CD09023011F00C94710983E0809305
:1012B000030188E080930401882780930501E4ED11
:1012C000FEE40E94BE1DA0E4B5E0EBEEF1E00E945A
:1012D0007A220E94B61DEAEBFEE40E94BE1D0C9429
:1012E000CD09033011F00C94900983E08093030141
:1012F00088E080930401882780930501EEEDFEE4E9
:101300000E94BE1DA0E4B5E0EAEEF1E00E947A2260
:101310000E94B61DEAEBFEE40E94BE1D0C94CD09AE
:10132000043011F00C94B80983E08093030188E045
:1013300080930401882780930501ECEEFEE40E946F
:10134000BE1DEAEBFEE40E94BE1D85E08093030112
:1013500088E080930401882780930501E2ECFEE495
:101360000E94BE1DE0EDFEE40E94BE1D0C94CD095E
:10137000053011F00C94CD0983E08093030188E0DF
:1013800080930401882780930501EAEFFEE40E9420
:10139000BE1DE0E1FEE40E94BE1D0091F40101309B
:1013A00011F00C94F9080E94451F81E08093F4012C
:1013B0007091F701777F7093F7015498A7EFB1E030
:1013C0009C9190FF04C04C9B10C09E7F9C934C99B5
:1013D0000CC089E19F9390E00E941E1E9F914C9942
:1013E00004C091609C930E9421100E94AC1DA7EF45
:1013F000B1E08C9183FB16F00C94030A73B7707FF5
:10140000756073BF8895A7EFB1E08C9183FB882747
:1014100080F9809580FBA7EFB1E08C9183F98C93E4
:101420000C94F801F894FFCF7091F7017F7E7093D0
:10143000F7017091F70178607093F701E2E7FEE43D
:101440000E94A51DE2E8FEE40E94A51DE4E8FEE47A
:101450000E94A51DA0E4B5E0E8EBF1E0552744E0CB
:101460000E940A200E949D1DE4E8FEE40E94A51D42
:10147000A0E4B5E0E8EBF1E0552744E00E940A2043
:101480000E949D1DE4E8FEE40E94A51DACEDB1E0C4
:101490000E949F1DE4E8FEE40E94A51DA0E4B5E0C3
:1014A000E6EEF1E00E947A220E949D1DE4E8FEE44F
:1014B0000E94A51DA1EEB1E00E949F1D0E94AC1DDF
:1014C00008957091F70178607093F7017091F701BA
:1014D0007F7E7093F701E2E7FEE40E94A51DE2E83B
:1014E000FEE40E94A51DE4E8FEE40E94A51DA0E420
:1014F000B5E0ECEBF1E0552744E00E940A200E94A1
:101500009D1DE4E8FEE40E94A51DA0E4B5E0E7E02F
:10151000F1E0552744E00E940A200E949D1DE4E866
:10152000FEE40E94A51DACEDB1E00E949F1DE4E821
:10153000FEE40E94A51DA0E4B5E0E6EEF1E00E9405
:101540007A220E949D1DE4E8FEE40E94A51DA1EE02
:10155000B1E00E949F1D0E94AC1D0895F894ADEF6C
:10156000B1E0E8944C9109B1882703FD816002FD48
:101570008260841711F4B6F310C08C934295840FE7
:10158000823049F0803139F0833229F0813319F00B
:101590000E94B70B02C00E94570D789408950F92D5
:1015A0001F922F923F924F925F927F92AF92BF9283
:1015B0000F931F932F933F934F935F936F937F935B
:1015C0008F939F93AF93BF93CF93DF93EF93FF934B
:1015D0008FB78F93F894A9E2B0E00C9102FB81E001
:1015E0000EF080E08F93A9E2B0E00C9103FB81E064
:1015F0000EF480E09F918923882311F40C94070B4B
:101600007091F70170687093F7010E94B70BA9E21F
:10161000B0E00C9102FB81E00EF480E08F93A9E230
:10162000B0E00C9103FB81E00EF080E09F918923F4
:10163000882311F40C94230B7091F7017068709358
:10164000F7010E94B70B789480E08093FC018F91A2
:101650008FBFFF91EF91DF91CF91BF91AF919F919C
:101660008F917F916F915F914F913F912F911F913A
:101670000F91BF90AF907F905F904F903F902F90D1
:101680001F900F9018950F921F922F923F924F929A
:101690005F927F92AF92BF920F931F932F933F93CE
:1016A0004F935F936F937F938F939F93AF93BF936A
:1016B000CF93DF93EF93FF938FB78F93F894A9E2C3
:1016C000B0E00C9103FB81E00EF080E08F93A9E283
:1016D000B0E00C9102FB81E00EF480E09F91892341
:1016E000882311F40C947B0B7091F7017068709350
:1016F000F7010E94570DA9E2B0E00C9103FB81E0D5
:101700000EF480E08F93A9E2B0E00C9102FB81E03F
:101710000EF080E09F918923882311F40C94970B9D
:101720007091F70170687093F7010E94570D7894DB
:1017300080E08093FC018F918FBFFF91EF91DF914B
:10174000CF91BF91AF919F918F917F916F915F9159
:101750004F913F912F911F910F91BF90AF907F902C
:101760005F904F903F902F901F900F901895A7EF8C
:10177000B1E08C9187FB16F00C94510D7091F7013C
:101780007F777093F701A7EFB1E08C9185FB8827F5
:1017900080F9809580FBA7EFB1E08C9185F98C935F
:1017A000A0E0B1E08C9181FB16F40C94F30B8091D6
:1017B000F60181508093F6010091F601003081E03E
:1017C00009F080E08F930091F6010F3F81E010F067
:1017D00009F080E09F918923882311F40C94F30B86
:1017E00085E08093F6010E9462160091F4010130B9
:1017F00011F00C940C0C809106018150809306012D
:1018000000910601003011F00C940A0C8091240123
:10181000809306010C94B50C063011F00C94450C25
:101820008091E80181508093E8010091E801003047
:1018300081E010F009F080E08F930091E8010A3018
:1018400080E010F009F081E09F91892B882311F44A
:101850000C94330C86E08093E801A0ECB1E0E0E961
:10186000FCE40E94FA21ECEDFBE40E940825E0EC88
:10187000F1E00E9489230E940624EDE0F0E0A4EC50
:10188000B1E00E94F7220C94B50C023011F00C94D8
:101890007E0CE0EFF1E00E948E23E0EDF1E00E948B
:1018A00089230E949E24EDE0F0E0A0EDB1E00E94CB
:1018B000F722E0EDF1E00E948923E4E9FCE40E94D4
:1018C00008250E94702310F00C946C0CA0EDB1E080
:1018D000E4E9FCE40E94FA21ECEDFBE40E94082517
:1018E000E0EDF1E00E9489230E940624EDE0F0E0A3
:1018F000A4EDB1E00E94F7220C94B50C033011F076
:101900000C94B50C8091E90181508093E90100911C
:10191000E901003081E010F009F080E08F93009140
:10192000E901013180E010F009F081E09F91892BFD
:10193000882311F40C94A50C80E18093E901A8ECB4
:10194000B1E0E8E9FCE40E94FA21ECEDFBE40E943E
:101950000825E8ECF1E00E9489230E940624EDE0CE
:10196000F0E0ACECB1E00E94F722A0E0B1E08C9195
:1019700081FB16F00C94510D0091F601013011F02D
:101980000C94E10C8091E60181508093E601009176
:10199000E6010F3F81E010F009F080E08F930091A5
:1019A000E6010A3080E010F009F081E09F91892380
:1019B000882311F40C94DF0C80E08093E6010C94F2
:1019C0000F0D023011F00C94F50C8091EB01815059
:1019D0008093EB010091EB010F3F11F00C94F30C9D
:1019E00080E08093EB010C940F0D033011F00C9408
:1019F000090D8091EA0181508093EA010091EA018A
:101A00000F3F11F00C94070D80E08093EA010C94D5
:101A10000F0D043011F00C940F0D0E949F10E2E79F
:101A2000FEE40E94A51DE2E8FEE40E94A51DE4E894
:101A3000FEE40E94A51DA0E4B5E0E4ECF1E055272A
:101A400044E00E940A200E949D1DE4E8FEE40E94FA
:101A5000A51DA0E4B5E0E4ECF1E0552744E00E94C8
:101A60000A200E949D1DE4E8FEE40E94A51DACED45
:101A7000B1E00E949F1DE4E8FEE40E94A51DA0E4E1
:101A8000B5E0E6EEF1E00E947A220E949D1DE4E8B6
:101A9000FEE40E94A51DA1EEB1E00E949F1D0E94E0
:101AA000AC1D7091F70170617093F7010895A7EF75
:101AB000B1E08C9187FB16F00C94DA0E7091F7016F
:101AC0007F777093F701A7EFB1E08C9186FB8827B1
:101AD00080F9809580FBA7EFB1E08C9186F98C931B
:101AE000A0E0B1E08C9181FB16F40C94920DA6EF6E
:101AF000B1E08C918F5F8C930091F601063081E00C
:101B000008F480E08F930091F6010A3081E008F03C
:101B100080E09F918923882311F40C94920D81E039
:101B20008093F6010E9462160091F401013011F0D9
:101B30000C94AF0DA6E0B1E08C918F5F8C93409137
:101B4000240100910601041718F011F00C94AA0D5D
:101B50000C94AD0D81E0809306010C943D0E06308F
:101B600011F00C94D90DA8EEB1E08C918F5F8C939D
:101B70000091E801073010F40C94C70D81E08093C8
:101B8000E801A0ECB1E0E8ECFBE40E94FA21ECED06
:101B9000FBE40E940825E0ECF1E00E9489230E940A
:101BA0000624EDE0F0E0A4ECB1E00E94F7220C94F2
:101BB0003D0E023011F00C94150EE0EFF1E00E94A2
:101BC0008E23E0EDF1E00E9489230E94AD24EDE038
:101BD000F0E0A0EDB1E00E94F722E0EDF1E00E941C
:101BE0008923ECE9FCE40E9408250E94702318F088
:101BF00011F00C94FD0D0C94030EA0EDB1E0ECE996
:101C0000FCE40E94FA21ECEDFBE40E940825E0EDE3
:101C1000F1E00E9489230E940624EDE0F0E0A4EDAB
:101C2000B1E00E94F7220C943D0E033011F00C94A9
:101C30003D0EA9EEB1E08C918F5F8C930091E9018C
:101C4000013110F40C942D0E81E08093E901A8EC91
:101C5000B1E0ECECFBE40E94FA21ECEDFBE40E9425
:101C60000825E8ECF1E00E9489230E940624EDE0BB
:101C7000F0E0ACECB1E00E94F722A0E0B1E08C9182
:101C800081FB16F00C94DA0E0091F601013011F090
:101C90000C94670EA6EEB1E08C918F5F8C9300914F
:101CA000E601093081E008F480E08F930091E601BD
:101CB0000B3081E008F080E09F918923882311F4A4
:101CC0000C94650E88E08093E6010C94980E023027
:101CD00011F00C947B0EABEEB1E08C918F5F8C9386
:101CE0000091EB01093011F00C94790E88E080939B
:101CF000EB010C94980E033011F00C94920EAAEEA6
:101D0000B1E08C918F5F8C930091EA01083018F05C
:101D100011F00C948D0E0C94900E88E08093EA01E3
:101D20000C94980E043011F00C94980E0E949F10A1
:101D3000E2E7FEE40E94A51DE2E8FEE40E94A51D84
:101D4000E4E8FEE40E94A51DA0E4B5E0E4ECF1E0C7
:101D5000552744E00E940A200E949D1DE4E8FEE40D
:101D60000E94A51DA0E4B5E0E4ECF1E0552744E0B5
:101D70000E940A200E949D1DE4E8FEE40E94A51D29
:101D8000ACEDB1E00E949F1DE4E8FEE40E94A51DB9
:101D9000A0E4B5E0E6EEF1E00E947A220E949D1DEB
:101DA000E4E8FEE40E94A51DA1EEB1E00E949F1DA3
:101DB0000E94AC1D7091F70170617093F701089556
:101DC000709100017260709300010E943A100091BE
:101DD000F601013011F00C940F0FECE7F3E0A6EEE2
:101DE000B1E07BE70E94122383E08093030188E047
:101DF00080930401882780930501E0EBFEE40E94B4
:101E0000BE1DA0E4B5E0E6EEF1E00E947A220E9459
:101E1000B61DEAEBFEE40E94BE1D0C94930F023047
:101E200011F00C94350FE0E8F3E0ABEEB1E07BE7A6
:101E30000E94122383E08093030188E080930401D1
:101E4000882780930501E4EDFEE40E94BE1DA0E416
:101E5000B5E0EBEEF1E00E947A220E94B61DEAEBBB
:101E6000FEE40E94BE1D0C94930F033011F00C94FD
:101E7000540F83E08093030188E080930401882756
:101E800080930501EEEDFEE40E94BE1DA0E4B5E0E6
:101E9000EAEEF1E00E947A220E94B61DEAEBFEE42F
:101EA0000E94BE1D0C94930F043011F00C947E0F11
:101EB00085E08093030188E0809304018827809364
:101EC0000501E8E0FFE40E94BE1DE0EDFEE40E9493
:101ED000BE1D86E08093030188E08093040188277B
:101EE00080930501E4E1FFE40E94BE1DE0EDFEE405
:101EF0000E94BE1D0E949F100C94930F053011F09C
:101F00000C94930F83E08093030188E08093040195
:101F1000882780930501E2E2FFE40E94BE1D0E9433
:101F2000CD0F0C94AF0F4C990C94A80F8CE291E05C
:101F30000E941E1E4C990C94A80F709100017D7F89
:101F4000709300010E943A100E943A100C94AF0F57
:101F5000A0E0B1E08C9181FB16F40C94E70E0E9496
:101F6000451F0E94140A84E690E00E941E1EE6E8C7
:101F7000FEE40E94A51DA0E4B5E0EBEEF1E00E94B6
:101F80007A220E949D1D0E94AC1D82E390E00E9477
:101F90001E1E81E08093F4010895E0E7F3E0A0ECD9
:101FA000B1E094E07BE70E941523E4E7F3E0A8ECBE
:101FB000B1E094E07BE70E941523E8E7F3E0A0EDB1
:101FC000B1E094E07BE70E941523EDE7F3E0A7EE94
:101FD000B1E07BE70E941223EEE7F3E0A8EEB1E068
:101FE0007BE70E941223EFE7F3E0A9EEB1E07BE785
:101FF0000E94122308950895A7E0B1E0E0EAFCE40E
:102000000E94FA21A0ECB1E0E8ECFBE40E94FA2186
:10201000A8ECB1E0ECECFBE40E94FA21A0EDB1E009
:10202000E0EDFBE40E94FA21A8EDB1E0E4EDFBE471
:102030000E94FA2181E08093E80181E08093E90128
:1020400008950E943A10A4EFB1E08C918F5F8C93B9
:102050000091F401043011F00C94311081E0809370
:10206000F4017091F70170617093F70180E0809343
:10207000FC010895289882E390E00E941E1E289A91
:1020800082E390E00E941E1E08957091F701706136
:102090007093F701A7EFB1E08C9181FB882780F95D
:1020A000809580FBA7EFB1E08C9181F98C930E9421
:1020B0003A10A0E0B1E08C9184FB882780F98095EC
:1020C00080FBA0E0B1E08C9184F98C93A5EFB1E0A6
:1020D0008C918F5F8C930091F501063010F40C9475
:1020E000741081E08093F5014C990C948C108CE273
:1020F00091E00E941E1E4C990C948C10709100016E
:102100007D7F709300010E943A100E943A107091F6
:10211000000178607093000180E08093FC010895D5
:102120001C990C949C1070910001746070930001D4
:102130005D9A5E980C949E105E9A5D9808957091D9
:102140000001777F709300018CE291E00E941E1ED7
:102150002398249A0E940B1EADE8B1E08C93009165
:102160008D01003018F011F00C94B8100C94E710A9
:10217000A7EBB1E08C918F5F8C9380918D01A7EBE1
:10218000B1E0AD90BB24ADE8B1E0AA0DBB1D8C93CE
:1021900000918D010A3011F00C94D610709100015D
:1021A00070647093000180E08093B7010091B701E3
:1021B000083218F011F00C94DF100C94E71080E056
:1021C0008093B701709100017F7B70930001A0E0C4
:1021D000B1E08C9186FB16F00C94FE10709100011A
:1021E0007F7B7093000180E08093B701EEE8F1E01F
:1021F000A5E2B1E00E94F2220E942D114C990C94AC
:1022000016118CE291E00E941E1E4C990C9416113E
:10221000709100017D7F709300010E943A100E942E
:102220003A1070910001786070930001A0E0B1E075
:102230008C9183FB16F00C94AA1070910001777FAB
:102240007093000185E08093F60181E090E0ABE8B7
:10225000B1E08D939C932498089584E30E94AC216F
:10226000E5E2F1E003E0A881B9810E940423A8819E
:10227000B981E0E3FFE40E944E230FB684E3481ADD
:1022800080E0580A22960FBE11F00C9451110E9462
:10229000E611A5E2B1E088278C93A8E5B1E0882794
:1022A0008C9384E30E94AC21E5E2F1E003E0A88195
:1022B000B9810E940423A881B981E4E3FFE40E946C
:1022C0004E230FB684E3481A80E0580A22960FBEC8
:1022D00011F00C948A1184E0E5E2F1E002E00A9347
:1022E000A8E5B1E00E94FD22A8E5B1E00E94C0226D
:1022F000A4E2B1E00C93A4E2B1E0BA93AA930E94E5
:10230000F4152296A5E2B1E088278C93A8E5B1E008
:1023100088278C9384E30E94AC21E5E2F1E003E09E
:10232000A881B9810E940423A881B981E8E3FFE470
:102330000E944E230FB684E3481A80E0580A229682
:102340000FBE11F00C94AE110E946216A5E2B1E02E
:1023500088278C93A8E5B1E088278C9384E30E94BA
:10236000AC21E5E2F1E003E0A881B9810E940423F9
:10237000A881B981ECE3FFE40E944E230FB684E309
:10238000481A80E0580A22960FBE11F00C94D21120
:102390000E94A312A5E2B1E088278C93A8E5B1E0E2
:1023A00088278C93A5E2B1E0E0E4FFE40E944E238D
:1023B00011F00C94E5110E94A514A5E2B1E0882764
:1023C0008C93A8E5B1E088278C93089581E08093F1
:1023D000240100912401083218F011F00C945312DA
:1023E000ECEEFBE40E94FB24E4E2F1E0A190BB24CC
:1023F000ECEFFFEFAA0CBB1CAA0CBB1CEA0DFB1DEB
:10240000ADE0BB2794E07BE70E941523E4E2F1E016
:10241000A190BB24EFE9F0E0EA0DFB1DA0E1BB2792
:1024200080E08C937BE70E941223A42DB52DE4E479
:10243000FFE40E94BC21E4E2F1E0019111274EE0AB
:1024400050E00E94B221EAEBF0E0E00FF11FD20170
:102450007BE70E942323E4E2F1E0A190BB24E6EFB6
:10246000F2E0AA0CBB1CEA0DFB1D00E010E0A0E1AD
:10247000BB277BE70E941423E4E2F1E0A190BB2498
:10248000E7E4F3E0EA0DFB1DA0E1BB2780E08C93BD
:102490007BE70E941223A4E2B1E08C918F5F8C93C2
:1024A00010F40C94E911EAE4FFE40E94EF1D0E948D
:1024B000F61D0895A7E0B1E0E881F981A190BB2461
:1024C000ECEFFFEFAA0CBB1CAA0CBB1CEA0DFB1D1A
:1024D00094E00E943123E881F981A190BB24EFE9C7
:1024E000F0E0EA0DFB1DABE0B1E00E942E23E88195
:1024F000F981019111274EE050E00E94B221EAEBF0
:10250000F0E0E00FF11FA3E1B1E09DE00E9438236D
:10251000E881F981A190BB24E6EFF2E0AA0CBB1C94
:10252000EA0DFB1DA1E2B1E00E943023E881F981B0
:10253000A190BB24E7E4F3E0EA0DFB1DA3E2B1E0C8
:102540000E942E23089581E00E94AC2181E00E9428
:10255000AC2181E00E94AC2181E00E94AC2181E0AD
:102560000E94AC2181E00E94AC2181E00E94AC215C
:1025700081E00E94AC2181E00E94AC2181E00E94B8
:10258000AC218EE00E94AC2182E00E94AC2181E06F
:102590000E94AC2184E00E94AC21A5E2B1E0E2E619
:1025A000FFE42FEF91E00E94C721AC89BD890C9315
:1025B000AC89BD890C9141E0040FAE89BF890C93B1
:1025C000AE89BF899C919A93A5E2B1E0E2E6FFE46F
:1025D0002FEF0E94C221AA89BB890C93AA89BB89CB
:1025E0000C9141E0040FAE89BF890C93AE89BF897D
:1025F0009C919A93A5E2B1E0E2E6FFE42FEF0E94FE
:10260000C221A889B9890C93A889B9890C9141E0A4
:10261000040FAE89BF890C93AE89BF899C919A93B0
:10262000A5E2B1E0E2E6FFE42FEF0E94C221AE8511
:10263000BF850C93AE85BF850C9141E0040FAE8938
:10264000BF890C93AE89BF899C919A93A5E2B1E0B2
:10265000E2E6FFE42FEF0E94C221AC85BD850C931A
:10266000AC85BD850C9141E0040FAE89BF890C9308
:10267000AE89BF899C919A93A5E2B1E0E2E6FFE4BE
:102680002FEF0E94C221AA85BB850C93AA85BB852A
:102690000C9141E0040FAE89BF890C93AE89BF89CC
:1026A0009C919A93A5E2B1E0E2E6FFE42FEF0E944D
:1026B000C221A885B9850C93AC89BD890C9141E0F4
:1026C000040FAE89BF890C93AA89BB890C91AE898E
:1026D000BF894C91041BA88DB98D0C93AE89BF891D
:1026E0008C91E5E2F1E0A88DB98D0C910A93AF8150
:1026F000B8850E94FD22AE81BF810E94C022AA8DB2
:10270000BB8D0C93AA89BB890C9141E0040FAE8963
:10271000BF890C93A889B9890C91AE89BF894C9166
:10272000041BA88DB98D0C93AE89BF898C91E5E20D
:10273000F1E0A88DB98D0C910A93AF81B8850E9404
:10274000FD22AE81BF810E941525EDE0F0E0A88159
:10275000B9810E94F722ECEDFBE40E940825E88194
:10276000F9810E9489230E940624EDE0F0E0A8810F
:10277000B9810E94F722EA8DFB8DA190BB24ECEF7A
:10278000FFEFAA0CBB1CAA0CBB1CEA0DFB1DA88109
:10279000B98194E07BE70E941523A889B9890C913F
:1027A00041E0040FAE89BF890C93AE85BF850C91C3
:1027B000AE89BF894C91041BA88DB98D0C93AE894D
:1027C000BF898C91E5E2F1E0A88DB98D0C910A9357
:1027D000AF81B8850E94FD22AE81BF810E94C022D8
:1027E000AA81BB810C93EA8DFB8DA190BB24EFE9FC
:1027F000F0E0EA0DFB1DAA81BB817BE70E9412235A
:10280000AE85BF850C9141E0040FAE89BF890C9362
:10281000AC85BD850C91AE89BF894C91041BA88DF8
:10282000B98D0C93AE89BF898C91E5E2F1E0A88D5A
:10283000B98D0C910A93AF81B8850E94FD22EA8D73
:10284000FB8D019111274EE050E00E94B221EAEB8E
:10285000F0E0E00FF11FAE81BF817BE70E942323F0
:10286000AC85BD850C9141E0040FAE89BF890C9306
:10287000AA85BB850C91AE89BF894C91041BA88D9C
:10288000B98D0C93AE89BF898C91E5E2F1E0A88DFA
:10289000B98D0C910A93AF81B8850E94FD22AE815B
:1028A000BF810E94C022AC81BD810D931C93EA8D33
:1028B000FB8DA190BB24E6EFF2E0AA0CBB1CEA0D55
:1028C000FB1DAC81BD817BE70E941423AA85BB85DB
:1028D0000C9141E0040FAE89BF890C93A885B9859E
:1028E0000C91AE89BF894C91041BA88DB98D0C93B6
:1028F000AE89BF898C91E5E2F1E0A88DB98D0C918C
:102900000A93AF81B8850E94FD22AE81BF810E94EB
:10291000C022AA81BB810C93EA8DFB8DA190BB24C0
:10292000E7E4F3E0EA0DFB1DAA81BB817BE70E948F
:102930001223E4E6FFE40E94EF1D0E94F61D8FE1E2
:10294000481A80E0580A6C960895E4EAFCE40E9474
:10295000FB24E0E0F0E0ADE0BB2794E07BE70E94E1
:102960001523E0EAF0E0A0E1BB2782E18C937BE74E
:102970000E941223A42DB52DECE6FFE40E94BC2199
:10298000E8ECF0E0D2017BE70E942323E8EFF2E0DD
:1029900001E911E0A0E1BB277BE70E941423E8E4F2
:1029A000F3E0A0E1BB2781E08C937BE70E94122338
:1029B000E8EAFCE40E94FB24E4E0F0E0ADE0BB27A1
:1029C00094E07BE70E941523E1EAF0E0A0E1BB2759
:1029D00083E18C937BE70E941223A42DB52DE6E7BB
:1029E000FFE40E94BC21E6EDF0E0D2017BE70E940B
:1029F0002323EAEFF2E002E911E0A0E1BB277BE745
:102A00000E941423E9E4F3E0A0E1BB2782E08C9369
:102A10007BE70E941223ECEAFCE40E94FB24E8E03E
:102A2000F0E0ADE0BB2794E07BE70E941523E2EAEB
:102A3000F0E0A0E1BB2784E18C937BE70E941223A6
:102A4000A42DB52DE0E8FFE40E94BC21E4EEF0E007
:102A5000D2017BE70E942323ECEFF2E003E911E0CF
:102A6000A0E1BB277BE70E941423EAE4F3E0A0E1A6
:102A7000BB2783E08C937BE70E941223E0EBFCE40E
:102A80000E94FB24ECE0F0E0ADE0BB2794E07BE7A4
:102A90000E941523E3EAF0E0A0E1BB2785E18C93D7
:102AA0007BE70E941223A42DB52DEAE8FFE40E94E3
:102AB000BC21E2EFF0E0D2017BE70E942323EEEF9E
:102AC000F2E004E911E0A0E1BB277BE70E941423B8
:102AD000EBE4F3E0A0E1BB2784E08C937BE70E946A
:102AE0001223E4EBFCE40E94FB24E0E1F0E0ADE023
:102AF000BB2794E07BE70E941523E4EAF0E0A0E125
:102B0000BB2786E18C937BE70E941223A42DB52D71
:102B1000E4E9FFE40E94BC21E0E0F1E0D2017BE7C0
:102B20000E942323E0E0F3E005E911E0A0E1BB27E8
:102B30007BE70E941423ECE4F3E0A0E1BB2785E0EF
:102B40008C937BE70E941223EEE9FFE40E94EF1DC5
:102B50000E94F61D0895E4EBFFE40E94EF1DE2E8F9
:102B6000FEE40E94EF1DE2E6FFE40E94EF1DA0E4F8
:102B7000B5E0E7E0F1E0552744E00E940A200E941A
:102B8000FA1DE2E6FFE40E94EF1DA0E4B5E0EBE0F1
:102B9000F1E00E947A220E94FA1DE2E6FFE40E9420
:102BA000EF1DA3E1B1E00E94FC1DE2E6FFE40E94FC
:102BB000EF1DA0E4B5E0E1E2F1E00E9473220E9483
:102BC000FA1DE2E6FFE40E94EF1DA0E4B5E0E3E2B7
:102BD000F1E00E947A220E94FA1DEAEBFFE40E94D3
:102BE000EF1D0E94F61D089584E00E94AC21AA8189
:102BF000BB81BA93AA930E945A122296ECEDFBE491
:102C00000E940825E7E0F1E00E9489230E945F24EA
:102C1000EDE0F0E00E949923A881B981EDE0FF2763
:102C20000E94F722E4EBFFE40E94EF1DA0E4B5E070
:102C3000EA81FB810E947A220E94FA1DE2E6FFE40B
:102C40000E94EF1DA0E4B5E0E881F9810E946D22A9
:102C50000E94FA1DE2E6FFE40E94EF1DA0E4B5E049
:102C6000EBE0F1E00E947A220E94FA1DE2E6FFE426
:102C70000E94EF1DA3E1B1E00E94FC1DE2E6FFE42B
:102C80000E94EF1DA0E4B5E0E1E2F1E00E947322B2
:102C90000E94FA1DE2E6FFE40E94EF1DA0E4B5E009
:102CA000E3E2F1E00E947A220E94FA1DEAEBFFE4DF
:102CB0000E94EF1D0E94F61D84E0481A80E0580A29
:102CC0002296089584E00E94AC2181E08093240143
:102CD00000912401083218F011F00C949716A88185
:102CE000B981E4E2F1E0A190BB24ECEFFFEFAA0C84
:102CF000BB1CAA0CBB1CEA0DFB1D94E00E943123F7
:102D0000E881F9810E948923ECEEFBE40E9408250A
:102D10000E94702311F00C948F160C949716A4E265
:102D2000B1E08C918F5F8C9310F40C946816A4E240
:102D3000B1E08C9181508C93E0ECFFE40E94EF1D98
:102D4000A0E4B5E0E4E2F1E00E947A220E94FA1DDC
:102D50000E94F61D84E0481A80E0580A22960895E1
:102D6000AAEFB1E00E94741DAAEFB1E00D911C9191
:102D700002345FE0150718F011F00C94C1160C94A2
:102D8000CC1680E090E0AAEFB1E08D939C93ACEF7D
:102D9000B1E08C918F5F8C930091FC01033018F0AF
:102DA00011F00C94D5160C94D81684E08093FC0195
:102DB00008950E943A1084E08093FC0108953054F5
:102DC000008040201008AA020804AA020402AA3CBB
:102DD0000204AA010408AA03083040C000AA0300A4
:102DE000FF00AA4D00FF00AA0300FF00AA4D00FF4C
:102DF00000AA0300FF00AA4D00FF00AA0300FF0085
:102E0000AA4D00FF00AA03000304081020AA032013
:102E100040AA3F4020AA03201008040300AA020091
:102E20000106060000000000000000005F00000036
:102E3000000300030000147F147F1400042A7F2A7B
:102E40001000231308646200364956205000000326
:102E500000000000001C2241000041221C00000074
:102E60002A1C7F1C2A0008083E0808000040703019
:102E700000000808080808000000606000006010FA
:102E8000080403003E5149453E0000427F400000D7
:102E9000625149494600224149493600181412112D
:102EA0007F002745454539003E45454539000161CC
:102EB000110907003649494936000E5151513E006B
:102EC000000036360000004076360000000814226C
:102ED000000014141414140000221408000002014D
:102EE000510906003E4955550E007C1211127C0016
:102EF0007F49494936003E41414122007F414122FC
:102F00001C007F49494941007F09090901003E41F0
:102F1000415172007F0808087F0000417F41000096
:102F20002040413F01007F08142241007F40404083
:102F300060007F020C027F007F0204087F003E4198
:102F400041413E007F1111110E003E4151617E0052
:102F50007F091929460026494949320001017F01AC
:102F600001003F4040403F001F2040201F003F40E5
:102F700038403F0063140814630007087008070016
:102F800061514945430000007F414100030408109E
:102F9000600041417F000000040201020400404043
:102FA00040404040010200000000304A4A3C4000DE
:102FB0007F4848483000384444442000304848485E
:102FC0007F0038545454180000087E09000008544B
:102FD000545438007F080404780000487A40000008
:102FE0000020403D00007F101028440000007F00BA
:102FF00000007C047C0478007C08040478003844D9
:10300000444438007C14141408000814147C400054
:103010007C080404080048545454240000043F442D
:1030200000003C4040207C001C2040201C003C4014
:1030300030403C004428102844000C5050503C00C4
:103040004464544C440000000836410000007F00F6
:1030500000004136080000000804080400000000D9
:103060000000000000000000000000000000000060
:103070000000000000000000000000000000000050
:103080000000400040004000000000000000000080
:1030900000000000143E5555410013086402600012
:1030A0000000000000000000000000000000000020
:1030B0000000000000000000000000000000000010
:1030C0000000000000000000000000000000000000
:1030D00000000000000000000000000000000000F0
:1030E000000000183C3C1800000000000000000038
:1030F00000000000003C24243C0000000000000010
:1031000000000000000000000000000000000000BF
:1031100000000000000000000000000000000000AF
:10312000000000000000000000000000000000009F
:10313000000000000000000000000000005A2424ED
:103140005A000000000000000000770000000000AE
:10315000000000007C55545554003E415D55413EF1
:1031600000000000000008142A14220002020202DB
:103170000E00000000000000000000000000000041
:103180000000000006090906000000242E240000AB
:10319000000000000000000000000000000000002F
:1031A0000000FC2040403C00040E7E027E00000037
:1031B000080000003855545518007810207E020091
:1031C00000000000000022142A1408000000000083
:1031D00000000000000000000000000000000002ED
:1031E000780200007C1211127C007F4949493000AE
:1031F0007F49494936007F0101010100407E417F3E
:1032000040007F494949410077087E087700224104
:10321000494936007F2010087F007F2011087F0079
:103220007F0814224100403E01017F007F0204021A
:103230007F007F0808087F003E4141413E007F013A
:1032400001017F007F09090906003E41414122003A
:1032500001017F010100074848483F000C127F121E
:103260000C006314081463003F20203F600007082F
:1032700008087F007F407C407F003F203C203F606B
:10328000017F484830007F4830007F007F48484831
:103290003000224149493E007F083E413E00462918
:1032A00019097F0020545454780078545454200055
:1032B0007C54545428007C040404040008545454DE
:1032C00038003854545418006C1078106C0028449E
:1032D000545428003C4040407C003C4044407C002A
:1032E0007C1010284400403804047C007C0810083E
:1032F0007C007C1010107C003844444438007C046E
:1033000004047C007C14141408003844444428004D
:103310007C047C0478000C5050503C0008147C1451
:1033200008004428102844001C20203C60000C1099
:1033300010107C003C4078407C001C2038203C6011
:10334000047C505020007C5020007C007C50505069
:1033500020002844545438007C1038443800085465
:1033600034147C00020A1400000000000000000079
:10337000000000000000000000000000000000004D
:10338000FE0000000000000000001B000000000024
:1033900000001E0000001E000000000000000000F1
:1033A000000000000020A07826A078262000011947
:1033B000070119070101010000001C2642FF8202DB
:1033C000000000001810103F110F00001C222222E4
:1033D0009C403008040210080403000E1111110E65
:1033E00000805C62A2321C000080070810101113DC
:1033F0001C181601000000001E0000000000000064
:103400000000000000000000000000E0180C0402B2
:103410000200000000071830200000000002020433
:103420000C18E00000000000002030180700000029
:10343000000818F04EF0180800000000000000001E
:103440000000000000000000E00000000000020298
:1034500002021F0202020200000000000000000041
:10346000000000000018380000000000000000000C
:103470000000000000000000010101010101000046
:10348000000000000000000000000000001818000C
:10349000000000000000000000C0300C020000002E
:1034A000300C03000000000000F00C0202020CF0DF
:1034B000000000030C1010100C03000000040404B2
:1034C000FE0000000000001010101F10101000007F
:1034D0000006020202C23C00000000181412111083
:1034E00010000000000002424242BC000000000048
:1034F000101010100F00000000C0201804FE000083
:10350000000003020202021F0202000000003E222D
:103510002242820000000000101010080700000086
:1035200000F04C22222242800000000708101010F8
:103530000807000000020202C2320A060000000072
:103540001807000000000000001CA24242A2A21CBA
:103550000000000F1010101009060000007884020F
:10356000020284F800000000101111110C03000089
:10357000000000606000000000000000001818005B
:10358000000000000000006060000000000000007B
:10359000001838000000000000000000808040405B
:1035A000200000000303040408081000008080804D
:1035B000808080808000000404040404040404006B
:1035C0000020404080800000000000100808040433
:1035D00003030000000E02028242261C00000000CD
:1035E000001B000000000000F01804E2120A8AFC30
:1035F0000000030C181314161B070404000080704D
:103600001830C0000000100E0302020202030C106A
:1036100000F88888888848300000001F10101010BB
:10362000110E0000C0301008080808180000030C34
:10363000081010101010000000F80808080810E02A
:103640000000001F101010100807000000F8080804
:10365000080808080000001F1111111111100000C6
:1036600000F80808080808080000001F010101010F
:103670000100000000C0301008080808180000030E
:103680000C08101011111F0000F80000000000F8D5
:103690000000001F01010101011F000000080808CF
:1036A000F80808080000001010101F10101000008B
:1036B000000000080808F8000000000010101010BA
:1036C0000F00000000F88080402010080000001F5C
:1036D000000102040408100000F8000000000000CF
:1036E0000000001F1010101010100000F838E0004B
:1036F00000C038F800001F0001070601001F00008D
:1037000000F81060800000F80000001F00000106B3
:10371000081F000000E0100808080810E00000077B
:10372000081010101008070000F808080808887032
:103730000000001F010101010000000000E010086E
:1037400008080810E00000070810101030080700F3
:1037500000F80808088870000000001F0101030439
:103760000810000000704888880808180000001839
:1037700010101011090E000008080808F8080808C1
:103780000800000000001F000000000000F800001A
:10379000000000F8000000071810101008070000D3
:1037A0000830C000000000C03008000001061818F2
:1037B0000700000018E00000E0C00000E01800036F
:1037C0001C0F00010E1C03000810204080804020C8
:1037D000100810080402010102040810081060809B
:1037E000008040201008000000001F0000000000C2
:1037F000000808080888482818000018141211103A
:1038000010101000000000FE020202020000000082
:10381000003F00000000000000020C30C00000006B
:1038200000000000000000030C3000000002020253
:1038300002FE0000000000000000003F0000000049
:10384000000000E0380E708000000004030000005B
:103850000003040000000000000000000000202021
:103860002020202020202020000000000102000055
:103870000000000000000000000000000000202008
:103880002020C0000000000C121111091F100000C0
:1038900000FE4020202060800000001F0810101053
:1038A00008070000008040202020202000000007A2
:1038B000081010101010000000804020202040FE52
:1038C0000000000718101010081F000000804020A2
:1038D000202020C000000007091111111111000063
:1038E000002020FC2422222222000000001F0000D1
:1038F0000000000000804020202040E00000000781
:1039000018101010083F000000FE8040202020C04A
:103910000000001F00000000001F00000020202603
:10392000E60000000000000000001F000000000092
:103930000000202026E60000000000000000003FFC
:103940000000000000FE0000804040200000001F3A
:1039500001030404081000000000020202FE00003F
:10396000000000000000001F00000000E0402020D8
:10397000C0402020C0001F0000001F0000001F00EA
:1039800000E0C040202020C00000001F0000000018
:10399000001F000000804020202040800000000721
:1039A000081010100807000000E040202020608070
:1039B0000000003F081010100807000000804020A1
:1039C000202040E00000000718101010083F000001
:1039D0000000E080402020E0000000001F00000008
:1039E0000000000000C0202020202000000000185F
:1039F000111112120C000000002020F820202020BD
:103A000000000000000F10101010000000E0000087
:103A10000000E0000000000F101010081F00000060
:103A200020C00000000000C0200000010618100C9B
:103A30000300000060800000C0800000806000077C
:103A4000180E01010E180700002040800000804081
:103A500020000010080403030408100020C0000028
:103A600000000000C0200000030638180601000016
:103A7000002020202020A060200000101814121127
:103A80001010100000000000FC0202020000000004
:103A900001013E000000000000000000FE000000E8
:103AA0000000000000003F000000000000000202D3
:103AB00002FC0000000000000000003E01010000C8
:103AC00000808080000000000080030000000101F1
:103AD000020202010080C0201020C0800000001FF0
:103AE00010101010101F0000ED91FC91EF5FFF4FC0
:103AF000FC93EE93089505D00E94B22100FC0CD0F7
:103B000008950024E89457FF02C009D0689400F893
:103B10000BD010F80124089502D009D008955095D3
:103B200040954F5F5F4F0895E89417FF0895009503
:103B300010950F5F1F4F68940895A0E4B5E08D9134
:103B4000882311F00CD0FBCF08950E94F221802D24
:103B500011F005D0FACF08958DE001D08AE00090F1
:103B6000C00005FEFCCF8093C6000895A0E4B5E038
:103B70008D91882311F00FD0FBCF08950E94F22180
:103B8000802D11F008D0FACF089588EE93E056D03A
:103B90003197D9F708950C94551F3197F1F708958F
:103BA000689462F80895E89462F808958F939F935B
:103BB00083E690E00197F1F79F918F9108958095AA
:103BC0002AE090E0089410F42C9802C02C9A00008F
:103BD000EDDFECDF969587952A95A9F708950E9469
:103BE000F221802D11F0EBDFFACF08958DE0E7DFB1
:103BF0008AE0E5CFA0E4B5E08D91882311F0DFDF06
:103C0000FBCF08958F939F9383E690E00197F1F7A0
:103C10009F918F9108951B9B02C08827089529E0EA
:103C20001B99FECFEFDFEEDFEDDF88941B99089440
:103C30002A9519F087959795F6CF0895EF93FF93FE
:103C4000EE27E82BE92B31F0EAEFF0E03197F1F7BE
:103C50000197D1F7FF91EF9108958DE207FD8D93C4
:103C60008F2D881F802F881F8F57082F6894F7F893
:103C7000802F87FF15C080958395082F80E38D9353
:103C80008EE28D93802F815228F080E38D939927C7
:103C90009C93089544270A95802F09F196D01FC060
:103CA000805230F09EE49D9381E48D939D93EFCFFD
:103CB0004427DF92EF92FF920F938FE1801B11F068
:103CC000082F83D089D09EE29D930F91FF90EF90B3
:103CD000DF9044270395003209F4D7CF2BD03F93D0
:103CE000EAE6FDE338E12F2D1E2D0D2DFF24EE24F5
:103CF000DD244427000F111F221FA8F42F923F92AA
:103D00000E94F221102C0E94F221202C0E94F2210C
:103D1000302C0E94F2213197410DD21CE31CF01C83
:103D20003F902F9001C0339631963A9519F73F9105
:103D300007D0AFCFDD0CEE1CFF1C0A95D9F7089514
:103D4000002719E058D08F93802B11F0039501C004
:103D50008F911A95B9F7802F882309F496CF8F9108
:103D6000805D8D930A95D9F792CF0065CD1D80B205
:103D7000E60E40597307A0ACB90350D6DC01286B9E
:103D8000EE0094357700CA9A3B0065CD1D00B2E67F
:103D90000E0059730700ACB90300D6DC01006BEECE
:103DA0000000357700009A3B0000CD1D0000E60EB4
:103DB000000073070000B9030000DC010000EE0002
:103DC0000000770000003B000000F694E794D794D1
:103DD00047950A95D1F7089500270DD08F93039545
:103DE0008F2D8E298D29842BC1F78F91805D8D9326
:103DF0000A95D9F74CCF1F930F93002710E2440F79
:103E0000DD1CEE1CFF1C001F802F9AE0890B10F0B8
:103E1000082F43951A9599F7802F0F911F910895B8
:103E20002B9884E699270E941E1E2B9A8AE09927D8
:103E30000E941E1E4198439A81E211D088EC0FD057
:103E400086E00DD083E10BD080E209D08CE007D072
:103E50000895863219F481E08093FF010895429815
:103E600001C0429A7F93439898E0880F10F4409ADB
:103E700001C0409800000000419A000000004198F5
:103E80009A9599F7439A7F91089500E480E2E7DFDD
:103E9000802FE5DF80E8E3DF882714E5E2DF1A956D
:103EA000E9F70395063491F708952091FF01213039
:103EB00069F4282F203808F02FE7206881E2CFDF4F
:103EC000822FCDDF80E08093FF010895EF93FF9371
:103ED000509103015F9370900401E0910101F09112
:103EE00002010E94F221202D0E94F221302D0E9419
:103EF000F221002D0E94F221602D8052482F0E9455
:103F00004223E40FF51FCC241124E22E603059F136
:103F1000DD24DA94CD2CFF24032F0E94F22121F01E
:103F20000A95E00FF11D03C0F3940A95B1F7FD1453
:103F300008F4DF2CEA9479F7E22EFF24032F31975F
:103F4000C895002021F00A95E01BF10903C0F39405
:103F50000A95A9F7FC1408F4CF2CEA9471F7D3164C
:103F600011F4D62ECC2470920401732F7C19409149
:103F70000401509103015F930E9400205F91603023
:103F800041F0DD2031F05D2D0E94F2215A95E1F7DC
:103F90007D190E94F221802D50910501552309F0D1
:103FA000809540910401453514F40E94311F5091D1
:103FB00004015395509304017A9559F7EC0DF11DC6
:103FC000603081F050910501762F8827552309F044
:103FD00080950E94311F7A95C1F750910401560FC8
:103FE00050930401509103015395509303012A9576
:103FF00009F0B9CF5F9150930301FF91EF910895BC
:104000004A955A9580E22BDF80E4850F28DF80E80F
:10401000840F25CF0E9489230E94DF2317FF03C04E
:104020008DE28D931127003821F4E2EFF2E40C9435
:10403000BC210F3741F4FF2019F4E8EEF2E4F7CF8A
:10404000E4EEF2E4F4CF4A934A934A935A93BA9334
:10405000AA93BB270F5F02F5BB27802F0A950E940A
:10406000E9238D3E90F4E2E4F3E4A3E00E94082506
:104070000E947023BB1FB0FF06C070970E940825E6
:104080000E945F243C96AA9589F7EEE3F3E40E9430
:1040900008250E945F2422C0093058F1033178F1CD
:1040A0000A3130F418E08BE192E9E6EFF2E42EC039
:1040B0000A950E94E923E6E3F3E4BFEFA3E00E9440
:1040C00008250E947023BB1FB0FD06C038960E94D1
:1040D00008250E945F243C97AA9589F7B095BB0FED
:1040E0000E94DF23039513E08AEF99E0F816090791
:1040F00040F413E08BE094E0EAE0F3E407C016E05C
:1041000001C0B39583E194E2EEEFF2E46A81BF3F30
:1041100019F4BB2711276260BD836A831C83A881C1
:10412000B98160E36D93A883B9836D93081B0195F2
:10413000AA24BB246A816A7F002339F0F694E794AD
:10414000D794B794A7940A95F7CF19E000270E9457
:104150000825CC248FEF74E0AC14B206D306E40635
:10416000F50630F0AC18B20AD30AE40AF50A21F1D8
:10417000881F7A9531F05695479537952795C794BE
:10418000EBCF809522D041F0969508F7FE2CED2CD0
:10419000DB2CBA2CAA24DBCF25D05D813C812B817E
:1041A00070D0277021F02BD06CD0E8F301C03CD048
:1041B0004CD078D0269608958894881F7A95E9F790
:1041C000809503D049F38827FCCF806360FD06C04B
:1041D000803311F0616002C0039561FD8D9360FD35
:1041E0001A95089599278E919C9385338E9108F0A6
:1041F00083958A3308F080E38C93C0F70895732F7A
:10420000720F61FF701B0AD01296785019F050F3AC
:104210008E9380E38E937150EAF70895A881B98157
:10422000A70F8827B81F089579E061FD700FF6DFAA
:1042300048E0431B400F8AF381F399274A9569F3BD
:104240008E91803351F79C93F9CF732F61FF701BD0
:104250007395A881B981EA2FFB2F11978191803343
:1042600061FF09F08D937A9511F48EE28D9381911F
:104270008823C1F7772311F480E38D9388278C93EB
:104280000895889462FD0895002359F4A881B981A6
:104290008C91803331F0552321F053953350646075
:1042A000089408955523E9F085E48D931AF48DE27E
:1042B0008D935195652F660F560F5A3010F060E5BB
:1042C00003D068E001D0DACF8FEF74E0561708F022
:1042D000561B881F7A9511F06695F8CF80958063FC
:1042E0008D9308954E414E00496E66696E697479EA
:1042F0000000302E300000404B4C0020A107000091
:1043000050C3000088130000F401000000320000D8
:10431000000500008000CCCCCC0C14AE47019CC43E
:104320002000DC460300E353000063080000D700D0
:104330000000150000001CC25367A5D46853002478
:10434000744915BE9A17CCBC8C2BBD3786350191AC
:10435000119121913081089599275A924A92480EDD
:10436000591E08950F92B801469F8001479F100D76
:10437000569F100D0F9008950E94F2210D9200207B
:10438000D9F7089599910027A90FB01F1197492FC8
:104390004A955E2F6F2FE89411274395203019F02E
:1043A000C895802D01C080818823B9F07C91772346
:1043B000A1F0781739F40EF0042F13956894119634
:1043C0003196EBCF112321F0411BA11B1127B10B1B
:1043D000E894E52FF62F1196E0CF882311F00027FF
:1043E00008950895C89531960020089591E005C07C
:1043F00092E003C094E001C098E0F4DF0D929A953A
:10440000E1F7089599278D9193958823E1F7939586
:1044100011968C9311978E919A95D1F70895EA2F62
:10442000FB2F00244C918D9103948E32E1F71124DF
:104430008D9113948823E1F71A94101640F4119784
:10444000202F2119239580E38D932A95E9F71130C8
:1044500039F59927AE2FBF2FA00DB91FA00FB91F97
:104460008C919C93853308F421C031E08E918E327B
:10447000E9F38D3241F0830F8A3319F480E331E0A0
:1044800001C033278C93AE1789F7332341F0AE2F49
:10449000BF2FB8DF81E34D3209F431968083089550
:1044A0008827E00DF81FE00FF81F80830895040FA0
:1044B000151F261F371F0895000F111F221F331FBE
:1044C000089500951095209530950F5F1F4F2F4F41
:1044D0003F4F0895019110810FC00E94A7210EC087
:1044E0000E94A72110C00191108117FF05C03FEF66
:1044F0002FEF04C0008111272227332737FF03C085
:10450000E0DF8DE28D93CF92DF92EF92AA24BB245D
:10451000CC24DD24EE2440E2EAE0FF2755E093E3DB
:104520008081890F87FD9F7083FD907F891B819318
:104530005A95A9F7C1DFAA1CBB1CCC1CDD1CEE1CC4
:104540004A9551F7E894EFE0FF2782910CD0EB30C9
:10455000E0F71EF068948A2D0AD088278D93EF909B
:10456000DF90CF900895982F829501D0892F8F707A
:10457000805D26F0803309F4089568948D93089542
:1045800000271127222733271DD08A3328F48033B0
:1045900018F005D015D0F9CF0EF493CF08958053BD
:1045A0008F93402F512F622F732F86DF85DF7FDFA0
:1045B00083DF8F919927080F191F291F391F08952D
:1045C0008D910895E894FCDF8032E9F38B32D9F3C2
:1045D0008930C9F38D3211F46894F2CF0895882799
:1045E0008D93089581918D938823E1F7089594E048
:1045F00081918D939A95E1F708950991919199236D
:1046000051F08A95D9F73197002329F081918D9344
:104610000A958823C9F7E3CFF999FECFE1BDF2BD32
:104620003196089591E001C092E07B3751F47FB755
:10463000F894F2DF8D9180BDFA9AF99A9A95C9F7AC
:104640007FBF77270895E8DF8D917B3729F480BD00
:10465000FA9AF99A8823B9F77727089591E001C06B
:1046600092E0DADFF89A80B58D939A95D1F70895A4
:10467000D3DFF89A80B58D93882319F09A95C1F706
:104680009D930895FF935527F8E0469508F4500F41
:1046900057954795FA95D1F7FF910895689401C011
:1046A000E894AF93BF938D9116F0919103C00E944F
:1046B000F221902D891718F011F48823A1F7BF91EA
:1046C000AF910895B7FE089590E8B91611F4D0FEA1
:1046D00008959FEFD91AE90AF90A09F40395089594
:1046E0000F928F939F93D216E306F4060FB680E8DD
:1046F00090E8802795270FBE890739F00FB6892BE0
:1047000087FD02C081E008260FBE9F918F910F9018
:104710000895D190E190F190019108952191319106
:10472000419151910895502F2D2D3E2D4F2D612FE8
:104730000895EFDF992711278F2D880F80E8F82A39
:10474000802F881F08F41FEF41F08F57082F07FDB7
:1047500004C0003240F08FEF01C08827982FD82E78
:10476000E82EF82E09C08FE1801B082FF694E794FD
:10477000D79497950A95D1F7112351F09095D0943D
:10478000E094F09481E0980F8827D81EE81EF81E68
:104790000F2DFE2CED2CD92E0895D094E094F0949A
:1047A00091E0D90E9927E91EF91E10950895652FFD
:1047B00090E8440F551F5927990F47956078102F9F
:1047C00090E8FF0C001F0927990FF7941078003824
:1047D0000895FF0C90E89027110F9795F794092FF3
:1047E00008952DEC3CEC4CEC5DE366270FC091DFA7
:1047F0009ADFDD24EE2490E8F92E0FE307C08EDF68
:1048000005C02227332740E251E46627552351F1A2
:10481000002381F1CCDF71F116270058505808941D
:10482000050B18F407FD03C025C007FD23C04695FE
:1048300037952795F694E794D79425D0FF202AF052
:10484000DD0CEE1CFF1C015073F09D2D969548F079
:10485000DD203AF4EE202AF491E0D90E9927E91EE2
:10486000F91EB7CF07C09FE7092FF92A9FEFD92E6E
:10487000E92E0895DD24EE24FF2400271127089552
:104880000FE79FEFF2CF9F929924AA24BB2488E1DF
:10489000D216E306F40628F0D21AE30AF40A0894C2
:1048A00001C08894991CAA1CBB1CDD0CEE1CFF1CCB
:1048B0008A9571F7D92CEA2CFB2C9F90089577DF0D
:1048C000D9F05038C9F016270058952F9058089401
:1048D000091F12F418F40EC008F00EC00FD0FF200C
:1048E0002AF0BB0CDD1CEE1CFF1C02C0039513F06C
:1048F000E9DE6FCF0C9433240C943A249F92FF92FC
:10490000EF928D2DFF24EE24DD24BB2493E0849FC1
:104910001001829FB00CD11CE21CF31C839FD00CB1
:10492000E11C2224F21C9A9531F0BD2CDE2CEF2CD8
:10493000FF248F91ECCF9F900895F0DE38DF503840
:1049400029F090E869270CC00AF045D042CF5FE318
:1049500022273327442701C0E1DE29DF5038B1F395
:10496000003899F3902F951B8BF312F434D0FACFC3
:10497000983118F0222733274427983028F0232F26
:10498000342F44279850F9CF992329F0469537952D
:1049900027959A95D9F7912F962742F014D0B0F623
:1049A000F794E794D7940F5F8BF65DCF10D051F05A
:1049B00008F4F3DEFF2052F2DD0CEE1CFF1C015068
:1049C000CBF751CF57CFD20EE31EF41E0895D21A63
:1049D000E30AF40A0895DF92EF92FF920F931F9378
:1049E000D22EE32EF42E052F162F6F915F914F914B
:1049F0003F912F9108950E94F221D02C0E94F22124
:104A0000E02C0E94F221F02C0E94F221002D08954A
:104A10000E94F221202D0E94F221302D0E94F221CD
:104A2000402D0E94F221502D08950E94D31D882709
:104A30008A938A931FDF11278D918032E9F31197B2
:104A4000BBD098F08D3229F4109511968C91B4D08A
:104A500060F08E3229F411968C91AED008F446C0E5
:104A600022960E94D01D81E008958C91A5D0D8F5A2
:104A7000119646D0D0F703958D919ED0E0F38E32FB
:104A800029F48C9199D010F41196FBCF853419F04C
:104A9000853609F055C011968C918ED060F08D321C
:104AA00019F08B3221F0DCCF088000940882119637
:104AB0008C9182D0A8F68053898311968C917CD0FA
:104AC00058F49981990F990F0980900D990F80538F
:104AD000890F8983873220F68981988199230AF486
:104AE0008195080F2DC08E3289F611968C9164D075
:104AF00068F606D018F011960A95F8CF1196C1CF36
:104B00004F2D3E2D2D2DDD0CEE1CFF1CA8F0DD0CD5
:104B1000EE1CFF1C88F0D20EE31EF41E68F0DD0CC4
:104B2000EE1CFF1C48F0805309F06894D80E8827CB
:104B3000E81EF81E08F00895F42EE32ED22E0895F4
:104B400034D019F116F5098308E921D00695882794
:104B500087959F2D9F77980FF92E0150000F110F09
:104B600007958981882379F01AF48195898306C095
:104B700038DE89818A958983D9F705C042DE89812B
:104B80008A958983D9F72296089574DEFCCF0DD0DB
:104B900041F0FF2032F00A9531F0DD0CEE1CFF1CD5
:104BA000D2F7889408950894089500240D280E28BB
:104BB0000F28002A00200895803320F08A3310F453
:104BC0000894089588940895E073B0493C1C884A7D
:104BD00000C8AF496043844A0000FA4200401C46C6
:104BE00000002A430000A0409A99193F00000000ED
:104BF00000008642CDCC8F42CDCC944200009A4238
:104C000066669F420000A542CDCCAA420000B14298
:104C10000000B7429A99BD42CDCCC2420000C842C2
:104C20000000CF426666D642CDCCDD429A99E5427D
:104C30009A99ED420000F6429A99FE42CDCC034388
:104C400000800843CD4C0D4333331243666617434F
:104C500033B31C433333224366E62743CDCC2D4385
:104C600033B3334333333A43CDCC404300804B43DB
:104C700033B352439A195A4333B361439A99694300
:104C8000CDCC7143CD4C7A4300007A440050C347E9
:104C9000F094B1490093A349E22A884A4089954A91
:104CA000003FB149CD8CD8439A99D84366A6D843E2
:104CB00033B3D84300C0D8433030303000005648BA
:104CC000462F5548462054525800415820656C657F
:104CD0006B74726F6E696B610000303030310000B0
:104CE000303030320000303030330000303030347B
:104CF00000003030303500003030303600003030C9
:104D000030370000303030380000303030390000AB
:104D1000303031300000303031310000303031324D
:104D2000000030303133000030303134000030309A
:104D3000313500003030313600003030313700007E
:104D4000303031380000303031390000303032300E
:104D5000000030303231000030303232000030306C
:104D60003233000030303234000030303235000051
:104D700030303236000030303237000030303238D8
:104D80000000303032390000303033300000303035
:104D90003331000030303332000030303333000024
:104DA00030303334000030303335000030303336AB
:104DB00000003030333700003030333800002053EB
:104DC000494D504C4558204D4F444520200020521D
:104DD00045504541544552204D4F44452020000048
:104DE00020004348205500002020202020202020A3
:104DF00020202020000043482056000020202020B2
:104E000020202020202020202020200043480000B7
:104E10002020202000005458504C3D00487A20208B
:104E2000200020465245452053455420000053742D
:104E300065702031322C35206B487A20202000000C
:104E40005374657020313030206B487A2020200068
:104E5000537465702031204D487A20202020200096
:104E600053746570203130204D487A202020202056
:104E7000000041542B444D4F53455447524F555019
:104E80003D0030002C0041542B444D4F53455456A7
:104E90004F4C554D453D000041542B444D4F53451B
:104EA000544D49433D0020534554555020200000A7
:104EB000537175656C63683D200020202020202000
:104EC0002000507265737320656E636F64657200B5
:104ED00020200000566F6C756D653D2000004D6F01
:104EE000642E206C6576656C3D2000004C4F41447B
:104EF000204348414E4E454C530053617665207324
:104F0000657474696E6700004C6F6E67205072653F
:104F100073732000456E632E20746F20457869748A
:104F20000000536176652073657474696E67730061
:104F30004D4349004D4352004D4343004D435700FC
:104F40004D435400454D505459004D656D6F726985
:104F5000657320696E697469616C697A65642E2E67
:104F60002E003B00557064204F4B00004C4A2D54DE
:104F70004553542031004C4A2D544553542032009F
:104F80004C4A2D544553542033004C4A2D5445531C
:104F9000542034004C4A2D54455354203500546558
:104FA0007374206461746120656E74657265642E2B
:104FB0002E2E00004D43523B00003B454E44000066
:064FC0004D43433B0000DD
:00000001FF
