:100000000C9434000C943B0F0C94AF0F1895000027
:10001000189500001895000018950000189500002C
:10002000189500001895000018950000189500001C
:10003000189500001895000018950000189500000C
:1000400018950000189500001895000018950000FC
:1000500018950000189500001895000018950000EC
:1000600018950000189500008FEF8DBFC0ECE8E5F3
:100070004E2E88E08EBFD7E0F5E05F2EA89584B7BE
:10008000082E877F84BF88E1992780936000909332
:100090006000EEEFF7E0A0E0B1E088278D933197A4
:1000A000E9F78CE08093C40080E08093C50088E18C
:1000B0008093C10072E07093C000662470910001CB
:1000C0007F7770930001239A3B9A3A9A389A399A2B
:1000D0000E94C5240E94C5240E94FA2481E20E9445
:1000E000E4248EEB0E94E42481E080930601249AAC
:1000F0002C9A23987894709100017062709300019B
:10010000A1ECB1E0E2E3F7E50E94AF27A9ECB1E092
:10011000E6E3F7E50E94AF27ADEBB1E0E2E3F7E5F8
:100120000E94AF27A1EDB1E0EAE3F7E50E94AF2717
:10013000A9EDB1E0EEE3F7E50E94AF27E2E4F7E5D1
:100140000E94BD2AEDEBF1E00E943E290E94BB29EE
:10015000EDE0F0E0ADEBB1E00E94AC28A1EEB1E043
:10016000E6E4F7E50E94AF27709100017F7E70936F
:10017000000170910001777F70930001AAEEB1E059
:10018000EEE6F8E50E947127AFEEB1E0EEE6F8E5A5
:100190000E947127ECE7F3E0A0E1B0E00E94E328C1
:1001A0000A3018F011F00C94D7000C94E000ECE742
:1001B000F3E0A0E1BB2781E08C937BE70E94C72896
:1001C000ECE7F3E0A4EFB1E00E94E32880E1809344
:1001D000F50181E08093F60181E08093F70188E0EA
:1001E0008093F801E0E8F3E0A0E1B0E00E94E328AA
:1001F0000A3018F011F00C94FF000C940801E0E8AC
:10020000F3E0A0E1BB2788E08C937BE70E94C7283E
:10021000E0E8F3E0A9EFB1E00E94E328709100016B
:100220007B7F70930001559A569A709100017E7FF2
:1002300070930001209A289AAEEFB1E0EAE4F7E566
:100240000E94AF2700E010E020E030E0AAEFB1E02C
:100250000D931D932D933C9381E080930502E1E87B
:10026000F3E0A0E1B0E00E94E3280A3018F011F0BA
:100270000C943C010C944501E1E8F3E0A0E1BB27BC
:1002800081E08C937BE70E94C72881E08093030282
:1002900083E08093040283E08093B101E1E8F3E01E
:1002A000A2E0B2E00E94E328709106027F7770938B
:1002B000060280E0809307028CE00E94DE24A9E021
:1002C000B2E0E4E7F8E50E94712789E0E9E0F2E0B6
:1002D00004E00A93A9E1B2E00E94B228EEECFEE34A
:1002E000A1E0B1E0ED93FC9381E0809303018AE00B
:1002F00080930401882780930501E4E8F8E50E94D3
:100300007323EAE8F9E3A1E0B1E0ED93FC9384E024
:100310008093030181E08093040188278093050185
:10032000E0E9F8E50E94732385E08093030181E012
:1003300080930401882780930501E0EAF8E50E9494
:100340007323A9E1B2E00E946D238FEA8093080233
:1003500000910802033C18F011F00C94C20181E2F4
:100360000E94E424809108020E94E42488EC90E03A
:100370000E94D323A8E0B2E08C918F5F8C9310F49D
:100380000C94A801E2E0F0E00E947A230E94C524C8
:100390000E94FA2481E20E94E42483EC0E94E42477
:1003A0000E94D3155398529854985C9A5A9A5B9A23
:1003B00022981A9A709106027B7F709306027091C0
:1003C0000602726070930602709106027E7F70933F
:1003D000060224981C9A579A5F9A0E94661581E03B
:1003E00085BD80E084BD7894809169008C7F8260B7
:1003F0008093690080916900837F886080936900A1
:10040000E99AE89A0E94FA24E0EAF0E0A0E1B0E07C
:100410000E94E3280F3F11F00C94130285E08093B3
:1004200002020C94160281E080930202709168002F
:100430007460709368007CE170936D007091680047
:1004400071607093680070916B00706170936B00C5
:10045000709106027860709306020E949415E2E49F
:10046000F7E50E94BD2AE9EDF1E00E943E290E94D5
:10047000BB29EDE0F0E0ADEDB1E00E94AC281C99A5
:100480000C9445025F980C9446025F9A70910001AB
:100490007D7F709300010E942916A3E2B0E00C91C9
:1004A00004FB81E00EF080E08F93A0E0B1E08C913E
:1004B00082FB81E00EF080E09F918923882311F474
:1004C0000C947002709100017B7F7093000184EFA7
:1004D00091E00E94D3237091060278607093060227
:1004E0005498A2E2B2E09C9197FF04C04C9B10C0CC
:1004F0009F779C934C990CC089E19F9390E00E9458
:10050000D3239F914C9904C090689C930E94BA1584
:1005100000910202013011F00C94AB0770910001C0
:100520007F7E70930001A6E0B1E0BA93AA930E9487
:100530000F18229600911C01013011F00C94A502B5
:10054000709100017F7E7093000100911C010230C8
:1005500011F00C94B0027091000170617093000171
:10056000A0E0B1E08C9184FB16F00C942D03E7E041
:10057000F1E00E943E29EEE4F7E50E94BD2A0E94C8
:10058000252918F011F00C94C7020C94FB02E7E047
:10059000F1E0A5ECB1E00E94AC2800911C01023012
:1005A00011F00C94E502E2E5F7E50E94BD2AE5ECC6
:1005B000F1E00E943E290E94532AEDE0F0E0A5EC14
:1005C000B1E00E94AC280C94F902033011F00C94B5
:1005D000F902E2E5F7E50E94BD2AE5ECF1E00E94B0
:1005E0003E290E94622AEDE0F0E0A5ECB1E00E9415
:1005F000AC280C942D03E7E0F1E0A5ECB1E00E94FB
:10060000AC2800911C01023011F00C941903E6E5AE
:10061000F7E50E94BD2AE5ECF1E00E943E290E9428
:10062000532AEDE0F0E0A5ECB1E00E94AC280C9478
:100630002D03033011F00C942D03E6E5F7E50E943D
:10064000BD2AE5ECF1E00E943E290E94622AEDE01D
:10065000F0E0A5ECB1E00E94AC2800910B01003065
:1006600011F00C944103ACE0B1E0EAE5F7E50E943B
:10067000AF27AAEEB1E0EEE6F8E50E9471270C94F0
:10068000EB05013011F00C945303ACE0B1E0EEE562
:10069000F7E50E94AF27AAEEB1E0E6EAF8E50E948E
:1006A00071270C94EB05023011F00C946503ACE05B
:1006B000B1E0E2E6F7E50E94AF27AAEEB1E0ECEA8E
:1006C000F8E50E9471270C94EB05033011F00C94AF
:1006D0007703ACE0B1E0E6E6F7E50E94AF27AAEECB
:1006E000B1E0E2EBF8E50E9471270C94EB050430D1
:1006F00011F00C948903ACE0B1E0EAE6F7E50E9462
:10070000AF27AAEEB1E0E8EBF8E50E9471270C9460
:10071000EB05053011F00C949B03ACE0B1E0EEE684
:10072000F7E50E94AF27AAEEB1E0EEEBF8E50E94F4
:1007300071270C94EB05063011F00C94AD03ACE07E
:10074000B1E0E2E7F7E50E94AF27AAEEB1E0E4EC02
:10075000F8E50E9471270C94EB05073011F00C941A
:10076000BF03ACE0B1E0E6E7F7E50E94AF27AAEEF1
:10077000B1E0EAECF8E50E9471270C94EB05083033
:1007800011F00C94D103ACE0B1E0EAE7F7E50E9488
:10079000AF27AAEEB1E0E0EDF8E50E9471270C94D6
:1007A000EB05093011F00C94E303ACE0B1E0EEE7A7
:1007B000F7E50E94AF27AAEEB1E0E6EDF8E50E946A
:1007C00071270C94EB050A3011F00C94F503ACE0A2
:1007D000B1E0E2E8F7E50E94AF27AAEEB1E0ECED68
:1007E000F8E50E9471270C94EB050B3011F00C9486
:1007F0000704ACE0B1E0E6E8F7E50E94AF27AAEE17
:10080000B1E0E2EEF8E50E9471270C94EB050C30A4
:1008100011F00C941904ACE0B1E0EAE8F7E50E94AD
:10082000AF27AAEEB1E0E8EEF8E50E9471270C943C
:10083000EB050D3011F00C942B04ACE0B1E0EEE8C8
:10084000F7E50E94AF27AAEEB1E0EEEEF8E50E94D0
:1008500071270C94EB050E3011F00C943D04ACE0C4
:10086000B1E0E2E9F7E50E94AF27AAEEB1E0E4EFDC
:10087000F8E50E9471270C94EB050F3011F00C94F1
:100880004F04ACE0B1E0E6E9F7E50E94AF27AAEE3D
:10089000B1E0EAEFF8E50E9471270C94EB05003116
:1008A00011F00C946104ACE0B1E0EAE9F7E50E94D4
:1008B000AF27AAEEB1E0E0E0F9E50E9471270C94C1
:1008C000EB05013111F00C947304ACE0B1E0EEE9FA
:1008D000F7E50E94AF27AAEEB1E0E6E0F9E50E9455
:1008E00071270C94EB05023111F00C948504ACE0F7
:1008F000B1E0E2EAF7E50E94AF27AAEEB1E0ECE052
:10090000F9E50E9471270C94EB05033111F00C946A
:100910009704ACE0B1E0E6EAF7E50E94AF27AAEE63
:10092000B1E0E2E1F9E50E9471270C94EB05043196
:1009300011F00C94A904ACE0B1E0EAEAF7E50E94FA
:10094000AF27AAEEB1E0E8E1F9E50E9471270C9427
:10095000EB05053111F00C94BB04ACE0B1E0EEEA1C
:10096000F7E50E94AF27AAEEB1E0EEE1F9E50E94BB
:1009700071270C94EB05063111F00C94CD04ACE01A
:10098000B1E0E2EBF7E50E94AF27AAEEB1E0E4E2C6
:10099000F9E50E9471270C94EB05073111F00C94D6
:1009A000DF04ACE0B1E0E6EBF7E50E94AF27AAEE8A
:1009B000B1E0EAE2F9E50E9471270C94EB050831F9
:1009C00011F00C94F104ACE0B1E0EAEBF7E50E9421
:1009D000AF27AAEEB1E0E0E3F9E50E9471270C949D
:1009E000EB05093111F00C940305ACE0B1E0EEEB3E
:1009F000F7E50E94AF27AAEEB1E0E6E3F9E50E9431
:100A000071270C94EB050A3111F00C941505ACE03C
:100A1000B1E0E2ECF7E50E94AF27AAEEB1E0ECE32B
:100A2000F9E50E9471270C94EB050B3111F00C9441
:100A30002705ACE0B1E0E6ECF7E50E94AF27AAEEAF
:100A4000B1E0E2E4F9E50E9471270C94EB050C316A
:100A500011F00C943905ACE0B1E0EAECF7E50E9446
:100A6000AF27AAEEB1E0E8E4F9E50E9471270C9403
:100A7000EB050D3111F00C944B05ACE0B1E0EEEC60
:100A8000F7E50E94AF27AAEEB1E0EEE4F9E50E9497
:100A900071270C94EB050E3111F00C945D05ACE060
:100AA000B1E0E2EDF7E50E94AF27AAEEB1E0E4E5A0
:100AB000F9E50E9471270C94EB050F3111F00C94AD
:100AC0006F05ACE0B1E0E6EDF7E50E94AF27AAEED6
:100AD000B1E0EAE5F9E50E9471270C94EB050032DC
:100AE00011F00C948105ACE0B1E0EAEDF7E50E946D
:100AF000AF27AAEEB1E0E0E6F9E50E9471270C9479
:100B0000EB05013211F00C949305ACE0B1E0EEED91
:100B1000F7E50E94AF27AAEEB1E0E6E6F9E50E940C
:100B200071270C94EB05023211F00C94A505ACE092
:100B3000B1E0E2EEF7E50E94AF27AAEEB1E0ECE605
:100B4000F9E50E9471270C94EB05033211F00C9427
:100B5000B705ACE0B1E0E6EEF7E50E94AF27AAEEFC
:100B6000B1E0E2E7F9E50E9471270C94EB0504324D
:100B700011F00C94C905ACE0B1E0EAEEF7E50E9493
:100B8000AF27AAEEB1E0E8E7F9E50E9471270C94DF
:100B9000EB05053211F00C94DB05ACE0B1E0EEEEB4
:100BA000F7E50E94AF27AAEEB1E0EEE7F9E50E9473
:100BB00071270C94EB05063211F00C94EB05ACE0B8
:100BC000B1E0E2EFF7E50E94AF27AAEEB1E0E4E87A
:100BD000F9E50E9471271C990C94F1055F980C941B
:100BE000F2055F9A0E942916A3E2B0E00C9104FB83
:100BF00081E00EF080E08F93A0E0B1E08C9182FB69
:100C000081E00EF080E09F918923882311F40C94F9
:100C10001706709100017B7F7093000184EF91E0D3
:100C20000E94D32370910602786070930602F894B4
:100C3000EAE8F9E3A1E0B1E0ED93FC93A0E0B1E0D4
:100C40008C9184FB16F40C94340681E080930301AC
:100C500085E08093040181E080930501EAE8F9E5ED
:100C60000E9473230C94410681E08093030181E08C
:100C70008093040181E080930501EAE9F9E50E948F
:100C80007323EEECFEE3A1E0B1E0ED93FC9383E08F
:100C90008093030182E080930401882780930501FB
:100CA000A0E4B5E0E7E0F1E0552744E00E94BF256D
:100CB0000E946B23ECEAF9E50E947323A0E0B1E007
:100CC0008C9184FB16F00C949A061C9B0C94810664
:100CD00083E08093030182E080930401882780935E
:100CE0000501A0E4B5E0E7E0F1E0552744E00E940B
:100CF000BF250E946B23ECEAF9E50E9473230C9454
:100D0000980683E08093030182E0809304018827A2
:100D100080930501A0E4B5E0E5ECF1E0552744E05F
:100D20000E94BF250E946B23ECEAF9E50E94732321
:100D30000C94B10683E08093030182E08093040168
:100D4000882780930501A0E4B5E0E7E0F1E05527AE
:100D500044E00E94BF250E946B23ECEAF9E50E9463
:100D600073235498A2E2B2E09C9197FF04C04C9B7D
:100D700010C09F779C934C990CC089E19F9390E0A1
:100D80000E94D3239F914C9904C090689C930E9429
:100D9000BA15EAE8F9E3A1E0B1E0ED93FC93A0E035
:100DA000B1E08C9184FB16F40C942907E7E0F1E0A4
:100DB0000E943E29EEE4F7E50E94BD2A0E94252903
:100DC00018F011F00C94E6060C94010786E080936D
:100DD000030182E080930401882780930501EEEAF5
:100DE000F9E50E947323A0E4B5E0EAE1F1E00E9496
:100DF00028280E946B23E4EBF9E50E9473230C94EE
:100E00001A0786E08093030182E08093040188271B
:100E100080930501E2ECF9E50E947323A0E4B5E0BC
:100E2000EAE1F1E00E9428280E946B23E4EBF9E557
:100E30000E94732385E08093030182E08093040184
:100E4000882780930501E8ECF9E50E9473230C9450
:100E5000750786E08093030182E080930401882770
:100E600080930501E8EDF9E50E947323A0E4B5E065
:100E7000EAE1F1E00E9428280E946B23ECEAF9E500
:100E80000E947323A0E1B1E00E946D23ECEDF9E52F
:100E90000E947323A0E4B5E0AF93BF93ECE0F1E0D0
:100EA0000E943E290E94E22311E001E0BF91AF9130
:100EB0000E94C427E0E4F5E0A2EBB1E00E94A7287D
:100EC00085E08093030182E080930401882780936A
:100ED0000501E2EEF9E50E947323A2EBB1E00E9466
:100EE0006D23EAEEF9E50E9473237894A6E0B2E060
:100EF0008C9183FB16F00C949007E7E0F1E0A9EBEE
:100F0000B1E00E94AC28A0E0B1E08C9184FB16F423
:100F10000C948E070E94800E0C9490070E94CD0EB8
:100F20000E946123A6E0B2E08C9182FB16F00C9443
:100F30009E0773B7707F756073BF8895A6E0B2E0B7
:100F40008C9182FB882780F9809580FBA6E0B2E037
:100F50008C9182F98C9300910202023011F00C9472
:100F6000D908EAE8F9E3A1E0B1E0ED93FC9381E070
:100F70008093030185E08093040181E08093050163
:100F8000E0EFF9E50E947323ECEDF9E50E9473238D
:100F9000E2E4F7E50E94BD2AE9ECF1E00E943E2977
:100FA0000E94BB29EDE0F0E0ADECB1E00E94AC287E
:100FB000EEECFEE3A1E0B1E0ED93FC9383E08093DF
:100FC000030182E080930401882780930501A0E457
:100FD000B5E0EDECF1E0552744E00E94BF250E940A
:100FE0006B23EAE8F9E3A1E0B1E0ED93FC93F89418
:100FF00085E08093030182E0809304018827809339
:101000000501ECEFF9E50E94732386E0809303016C
:1010100082E080930401882780930501EEE0FAE5E1
:101020000E947323A0E4B5E0E6EFF1E00E942F28D0
:101030000E946B23E4E1FAE50E9473237894009107
:10104000F601013011F00C942F08A9ECB1E0E6E3B1
:10105000F7E50E94AF270C9473080C9489080230BE
:1010600011F00C943D08A9ECB1E0E6EFF7E50E9421
:10107000AF270C9473080C948908033011F00C947A
:101080004B08A9ECB1E0EAEFF7E50E94AF270C941A
:1010900073080C948908043011F00C945908A9ECD9
:1010A000B1E0EEEFF7E50E94AF270C9473080C94C3
:1010B0008908053011F00C946708A9ECB1E0E2E072
:1010C000F8E50E94AF270C9473080C948908063049
:1010D00011F00C948908A9ECB1E0E6E0F8E50E9473
:1010E000AF270C947308AAEEB1E0ECE0F9E50E949A
:1010F0007127E2E4F7E50E94BD2AE9ECF1E00E94E5
:101100003E290E94BB29EDE0F0E0ADECB1E00E9489
:10111000AC28A6E0B2E08C9183FB16F00C94D908C1
:1011200070910602777F709306020E946615E0E2D6
:10113000FAE50E945A23E0E3FAE50E945A23E2E32B
:10114000FAE50E945A23A0E4B5E0EDECF1E0552762
:1011500044E00E94BF250E945223E2E3FAE50E9488
:101160005A23A0E4B5E0EDECF1E0552744E00E94FD
:10117000BF250E945223E2E3FAE50E945A23AAEE19
:10118000B1E00E945423E2E3FAE50E945A23A0E46E
:10119000B5E0E4EFF1E00E942F280E945223E2E341
:1011A000FAE50E945A23AFEEB1E00E9454230E9458
:1011B000612300910202033011F00C94EA0A0E94AC
:1011C000FA24EAE8F9E3A1E0B1E0ED93FC9381E0D1
:1011D0008093030187E08093040181E080930501FF
:1011E000E4E3FAE50E9473231C990C94FA085F98D3
:1011F0000C94FB085F9A0E9429165498A2E2B2E070
:101200009C9197FF04C04C9B10C09F779C934C9976
:101210000CC089E19F9390E00E94D3239F914C9949
:1012200004C090689C930E94DE15EEECFEE3A1E002
:10123000B1E0ED93FC931C9B0C94330983E0809305
:10124000030182E080930401882780930501A0E4D4
:10125000B5E0EDEBF1E0552744E00E94BF250E9488
:101260006B230C94460983E08093030182E0809312
:101270000401882780930501A0E4B5E0EDEDF1E0DD
:10128000552744E00E94BF250E946B23EAE8F9E35A
:10129000A1E0B1E0ED93FC9300910302013011F065
:1012A0000C946709AEEFB1E0EAE4F7E50E94AF27DE
:1012B00086E08093030182E0809304018827809375
:1012C0000501E0E4FAE50E9473230C94B0090230B2
:1012D00011F00C948009AEEFB1E0EAE0F8E50E946D
:1012E000AF2786E08093030182E080930401882782
:1012F00080930501E2E5FAE50E9473230C94B0099E
:10130000033011F00C949909AEEFB1E0E2E4F7E597
:101310000E94AF2786E08093030182E0809304015E
:10132000882780930501E2E6FAE50E9473230C9476
:10133000B009043011F00C94B009AEEFB1E0EEE06A
:10134000F8E50E94AF2786E08093030182E0809356
:101350000401882780930501E2E7FAE50E947323E0
:101360000091B101013011F00C94CD09F894A5EE73
:10137000B1E0E8EBF8E50E94712785E08093030176
:1013800082E080930401882780930501E4E8FAE570
:101390000E94732378940C94010A023011F00C948B
:1013A000E809F894A5EEB1E0ECE0F9E50E947127B8
:1013B00085E08093030182E0809304018827809375
:1013C0000501E2E9FAE50E94732378940C94010A7E
:1013D000033011F00C94010AF894A5EEB1E0EEE6AA
:1013E000F8E50E94712785E08093030182E08093F5
:1013F0000401882780930501E0EAFAE50E9473233F
:10140000789482E08093030182E08093040188272E
:1014100080930501ECEAFAE50E947323A0E4B5E0AD
:10142000E5EBF1E0552744E00E94BF250E946B23C5
:10143000E4EBFAE50E947323E5EBF1E00E94432917
:10144000EDEBF1E00E943E290E94532AEDE0F0E02E
:10145000ADEDB1E00E94AC28A6E0B2E08C9183FB38
:1014600016F00C94A60A70910602777F709306021C
:10147000E0E2FAE50E945A23E0E3FAE50E945A23EB
:10148000E2E3FAE50E945A23A0E4B5E0EDEDF1E0D5
:10149000552744E00E94BF250E945223E2E3FAE56B
:1014A0000E945A23A0E4B5E0EDEBF1E0552744E0BB
:1014B0000E94BF250E945223E2E3FAE50E945A23CC
:1014C000AAEEB1E00E945423E2E3FAE50E945A2317
:1014D000A0E4B5E0E4EFF1E00E942F280E9452233F
:1014E000E2E3FAE50E945A23AFEEB1E00E945423F2
:1014F0000E946123E8EBFAE50E945A23A0E4B5E0DC
:10150000E9EFF1E00E942F280E9452230E946123FC
:10151000EAECFAE50E945A23A0E4B5E0E8EFF1E036
:101520000E942F280E945223E2E3FAE50E945A23E8
:10153000E0E3FAE50E945A23E2E3FAE50E945A2327
:10154000E0E3FAE50E945A230E9461230E942916D3
:101550000E946123A6E0B2E08C9182FB16F00C940D
:10156000B60A73B7707F756073BF8895A6E0B2E066
:101570008C9182FB882780F9809580FBA6E0B2E001
:101580008C9182F98C93A0E0B1E08C9183FB16F0F2
:101590000C94F4080E9466150E94FA2470910001D0
:1015A000777F70930001AEEFB1E0EAE4F7E50E94C7
:1015B000AF2784E08093020281E080930502AAEEC7
:1015C000B1E0EEE6F8E50E947127709106027860BE
:1015D0007093060200910202043011F00C948D0CFD
:1015E0000091F701013011F00C94000BA1EDB1E076
:1015F000EAE3F7E50E94AF270C94D00B0C94E00BC4
:10160000023011F00C940E0BA1EDB1E0E2E1F8E52F
:101610000E94AF270C94D00B0C94E00B033011F018
:101620000C941C0BA1EDB1E0E6E1F8E50E94AF27B8
:101630000C94D00B0C94E00B043011F00C942A0B9A
:10164000A1EDB1E0EAE1F8E50E94AF270C94D00BE0
:101650000C94E00B053011F00C94380BA1EDB1E0C7
:10166000EEE1F8E50E94AF270C94D00B0C94E00B50
:10167000063011F00C94460BA1EDB1E0E2E2F8E582
:101680000E94AF270C94D00B0C94E00B073011F0A4
:101690000C94540BA1EDB1E0E6E2F8E50E94AF270F
:1016A0000C94D00B0C94E00B083011F00C94620BEE
:1016B000A1EDB1E0EAE2F8E50E94AF270C94D00B6F
:1016C0000C94E00B093011F00C94700BA1EDB1E01B
:1016D000EEE2F8E50E94AF270C94D00B0C94E00BDF
:1016E0000A3011F00C947E0BA1EDB1E0E2E3F8E5D5
:1016F0000E94AF270C94D00B0C94E00B0B3011F030
:101700000C948C0BA1EDB1E0E6E3F8E50E94AF2765
:101710000C94D00B0C94E00B0C3011F00C949A0B41
:10172000A1EDB1E0EAE3F8E50E94AF270C94D00BFD
:101730000C94E00B0D3011F00C94A80BA1EDB1E06E
:10174000EEE3F8E50E94AF270C94D00B0C94E00B6D
:101750000E3011F00C94B60BA1EDB1E0E2E4F8E527
:101760000E94AF270C94D00B0C94E00B0F3011F0BB
:101770000C94C40BA1EDB1E0E6E4F8E50E94AF27BC
:101780000C94D00B0C94E00B003111F00C94E00B96
:10179000A1EDB1E0EAE4F8E50E94AF270C94D00B8C
:1017A000E2E4F7E50E94BD2AE1EDF1E00E943E2966
:1017B0000E94BB29EDE0F0E0A5EDB1E00E94AC286D
:1017C000EAE8F9E3A1E0B1E0ED93FC9381E08093D6
:1017D000030185E08093040181E080930501E8ED39
:1017E000FAE50E947323E2E4F7E50E94BD2AE1EDE9
:1017F000F1E00E943E290E94BB29EDE0F0E0A5ED5A
:10180000B1E00E94AC28EEECFEE3A1E0B1E0ED9384
:10181000FC9383E08093030182E080930401882796
:1018200080930501A0E4B5E0E5EDF1E0552744E043
:101830000E94BF250E946B23EAE8F9E3A1E0B1E032
:10184000ED93FC93F89486E08093030182E080930B
:101850000401882780930501E6EEFAE50E947323D0
:10186000A0E4B5E0E7EFF1E00E942F280E946B238F
:10187000ECEAF9E50E9473237894A6E0B2E08C913B
:1018800083FB16F00C948D0C70910602777F709399
:1018900006020E946615E0E2FAE50E945A23E0E3A0
:1018A000FAE50E945A23E2E3FAE50E945A23A0E4F3
:1018B000B5E0E5EDF1E0552744E00E94BF250E9428
:1018C0005223E2E3FAE50E945A23A0E4B5E0E5EDF5
:1018D000F1E0552744E00E94BF250E945223E2E335
:1018E000FAE50E945A23AAEEB1E00E945423E2E3F3
:1018F000FAE50E945A23A0E4B5E0E4EFF1E00E948B
:101900002F280E945223E2E3FAE50E945A23AFEE09
:10191000B1E00E9454230E9461230091020205302D
:1019200011F00C94490E81E0809305020E94FA2484
:101930000E94291681E08093030185E080930401D1
:1019400081E080930501EAEEFAE50E947323549842
:10195000A2E2B2E09C9197FF04C04C9B10C09F771D
:101960009C934C990CC089E19F9390E00E94D323F3
:101970009F914C9904C090689C930E94AE13009173
:101980000502013011F00C94000DF89483E080936F
:10199000030182E080930401882780930501E4EF2E
:1019A000FAE50E947323A0E4B5E0E4EFF1E00E94C1
:1019B0002F280E946B23EEEFFAE50E94732385E047
:1019C0008093030182E080930401882780930501BE
:1019D000E6E0FBE50E947323E4E1FBE50E9473234C
:1019E00086E08093030182E080930401882780933E
:1019F0000501E8E1FBE50E94732378940C94380E0E
:101A0000023011F00C942E0DF89483E080930301C2
:101A100082E080930401882780930501E6E2FBE5DC
:101A20000E947323A0E4B5E0E9EFF1E00E942F28C3
:101A30000E946B23EEEFFAE50E94732386E0809309
:101A4000030182E080930401882780930501E8E187
:101A5000FBE50E94732378940C94380E033011F048
:101A60000C948E0DF89483E08093030182E08093C0
:101A70000401882780930501E0E3FBE50E947323BE
:101A800078940091B101013011F00C945C0DA5EE39
:101A9000B1E0E8EBF8E50E94712786E0809303014E
:101AA00082E080930401882780930501E4E8FAE549
:101AB0000E9473230C948C0D023011F00C94750D60
:101AC000A5EEB1E0ECE0F9E50E94712786E0809395
:101AD000030182E080930401882780930501E2E9F5
:101AE000FAE50E9473230C948C0D033011F00C94D2
:101AF0008C0DA5EEB1E0EEE6F8E50E94712786E0D8
:101B00008093030182E0809304018827809305017C
:101B1000ECE3FBE50E9473230C94380E043011F0C3
:101B20000C94EE0DF89483E08093030182E080939F
:101B30000401882780930501EAE4FBE50E947323F2
:101B4000789400910402013011F00C94BC0DA5EBC7
:101B5000B1E0E2E5F7E50E94AF2786E0809303015C
:101B600082E080930401882780930501E8E5FBE586
:101B70000E9473230C94EC0D023011F00C94D50DDF
:101B8000A5EBB1E0E6E5F7E50E94AF2786E080939C
:101B9000030182E080930401882780930501E6E633
:101BA000FBE50E9473230C94EC0D033011F00C94B0
:101BB000EC0DA5EBB1E0EAE5F7E50E94AF2786E082
:101BC0008093030182E080930401882780930501BC
:101BD000E4E7FBE50E9473230C94380E053011F006
:101BE0000C94230E83E08093030182E08093040130
:101BF000882780930501E2E8FBE50E947323EEEF5E
:101C0000FAE50E94732385E08093030182E08093CC
:101C10000401882780930501E6E0FBE50E94732319
:101C2000E4E1FBE50E94732386E08093030182E0F8
:101C300080930401882780930501E8E1FBE50E9479
:101C400073230C94380E063011F00C94380E83E098
:101C50008093030182E0809304018827809305012B
:101C6000E0E9FBE50E947323ECEDF9E50E947323A4
:101C7000789400910202013011F00C94980C0E94AB
:101C8000FA2481E080930202709106027B7F7093B8
:101C900006025498A2E2B2E09C9197FF04C04C9BCC
:101CA00010C09F779C934C990CC089E19F9390E062
:101CB0000E94D3239F914C9904C090689C930E94EA
:101CC000BA150E946123A6E0B2E08C9182FB16F067
:101CD0000C946F0E73B7707F756073BF8895A6E024
:101CE000B2E08C9182FB882780F9809580FBA6E08A
:101CF000B2E08C9182F98C930C943F02F894FFCF60
:101D000070910602777F70930602709106027460EC
:101D100070930602E0E2FAE50E945A23E0E3FAE556
:101D20000E945A23E2E3FAE50E945A23A0E4B5E0B8
:101D3000E9EBF1E0552744E00E94BF250E945223C1
:101D4000E2E3FAE50E945A23A0E4B5E0E9EBF1E012
:101D5000552744E00E94BF250E945223E2E3FAE5A2
:101D60000E945A23AAEEB1E00E945423E2E3FAE56E
:101D70000E945A23A0E4B5E0E4EFF1E00E942F288E
:101D80000E945223E2E3FAE50E945A23AFEEB1E04B
:101D90000E9454230E94612308957091060274608A
:101DA0007093060270910602777F70930602E0E25C
:101DB000FAE50E945A23E0E3FAE50E945A23E2E39F
:101DC000FAE50E945A23A0E4B5E0E5ECF1E05527DE
:101DD00044E00E94BF250E945223E2E3FAE50E94FC
:101DE0005A23A0E4B5E0E7E0F1E0552744E00E9483
:101DF000BF250E945223E2E3FAE50E945A23AAEE8D
:101E0000B1E00E945423E2E3FAE50E945A23A0E4E1
:101E1000B5E0E4EFF1E00E942F280E945223E2E3B4
:101E2000FAE50E945A23AFEEB1E00E9454230E94CB
:101E300061230895F894A1E2B2E0E8944C9109B1CD
:101E4000882703FD816002FD8260841711F4B6F3D8
:101E500010C08C934295840F823049F0803139F064
:101E6000833229F0813319F00E94231002C00E94AE
:101E7000E511789408950F921F922F923F924F92FE
:101E80005F927F92AF92BF920F931F932F933F93D6
:101E90004F935F936F937F938F939F93AF93BF9372
:101EA000CF93DF93EF93FF938FB78F93F894A9E2CB
:101EB000B0E00C9102FB81E00EF080E08F93A9E28C
:101EC000B0E00C9103FB81E00EF480E09F91892348
:101ED000882311F40C94730F709106027064709350
:101EE00006020E942310A9E2B0E00C9102FB81E0FF
:101EF0000EF480E08F93A9E2B0E00C9103FB81E047
:101F00000EF080E09F918923882311F40C948F0FA9
:101F1000709106027064709306020E9423107894F8
:101F200080E0809320028F918FBFFF91EF91DF912E
:101F3000CF91BF91AF919F918F917F916F915F9161
:101F40004F913F912F911F910F91BF90AF907F9034
:101F50005F904F903F902F901F900F9018950F9289
:101F60001F922F923F924F925F927F92AF92BF92B9
:101F70000F931F932F933F934F935F936F937F9391
:101F80008F939F93AF93BF93CF93DF93EF93FF9381
:101F90008FB78F93F894A9E2B0E00C9103FB81E036
:101FA0000EF080E08F93A9E2B0E00C9102FB81E09B
:101FB0000EF480E09F918923882311F40C94E70F9D
:101FC000709106027064709306020E94E511A9E206
:101FD000B0E00C9103FB81E00EF480E08F93A9E266
:101FE000B0E00C9102FB81E00EF080E09F9189232C
:101FF000882311F40C94031070910602706470939E
:1020000006020E94E511789480E0809320028F916F
:102010008FBFFF91EF91DF91CF91BF91AF919F91D2
:102020008F917F916F915F914F913F912F911F9170
:102030000F91BF90AF907F905F904F903F902F9007
:102040001F900F901895A6E0B2E08C9186FB16F0D9
:102050000C94DF11709106027F7B70930602A6E05C
:10206000B2E08C9184FB882780F9809580FBA6E004
:10207000B2E08C9184F98C93A0E0B1E08C9181FB6B
:1020800016F40C945F108091050281508093050234
:1020900000910502003081E009F080E08F9300910B
:1020A00005020F3F81E010F009F080E09F91892345
:1020B000882311F40C945F1086E0809305020E943F
:1020C000171C00910202013011F00C9478108091DD
:1020D000060181508093060100910601003011F045
:1020E0000C94761080911D01809306010C942F11A1
:1020F000023011F00C94B1108091F6018150809360
:10210000F6010091F601003081E010F009F080E066
:102110008F930091F6010A3080E010F009F081E021
:102120009F91892B882311F40C949F1086E0809353
:10213000F601A9ECB1E0E6E0F8E50E94AF27E2E4A1
:10214000F7E50E94BD2AE9ECF1E00E943E290E94D9
:10215000BB29EDE0F0E0ADECB1E00E94AC280C94BE
:102160002F11033011F00C94F810EEEFF1E00E9403
:102170004329E1ECF1E00E943E290E94532AEDE060
:10218000F0E0A1ECB1E00E94AC28E1ECF1E00E94AB
:102190003E29EEE4F8E50E94BD2A0E94252910F0B0
:1021A0000C94D810A1ECB1E0EEE4F8E50E94AF2762
:1021B000E2E4F7E50E94BD2AE1ECF1E00E943E294D
:1021C0000E94BB29EDE0F0E0ADEBB1E00E94AC284D
:1021D0008091040281508093040200910402003037
:1021E00011F00C94F61083E0809304020C942F11EC
:1021F000043011F00C942F118091F70181508093DD
:10220000F7010091F701003081E010F009F080E063
:102210008F930091F701013180E010F009F081E027
:102220009F91892B882311F40C941F1180E18093D6
:10223000F701A1EDB1E0EAE4F8E50E94AF27E2E49E
:10224000F7E50E94BD2AE1EDF1E00E943E290E94DF
:10225000BB29EDE0F0E0A5EDB1E00E94AC28A0E0E4
:10226000B1E08C9181FB16F00C94DF110091050216
:10227000013011F00C945B118091F4018150809336
:10228000F4010091F4010F3F81E010F009F080E0CB
:102290008F930091F4010A3080E010F009F081E0A2
:1022A0009F918923882311F40C94591180E0809325
:1022B000F4010C949D11023011F00C946F11809177
:1022C000F90181508093F9010091F9010F3F11F05C
:1022D0000C946D1180E08093F9010C949D110330F2
:1022E00011F00C9483118091B10181508093B10160
:1022F0000091B101003011F00C94811183E08093C2
:10230000B1010C949D11043011F00C94971180913F
:10231000040281508093040200910402003011F005
:102320000C94951183E0809304020C949D11053068
:1023300011F00C949D110E943816E0E2FAE50E941B
:102340005A23E0E3FAE50E945A23E2E3FAE50E9409
:102350005A23A0E4B5E0EDECF1E0552744E00E94FB
:10236000BF250E945223E2E3FAE50E945A23A0E42B
:10237000B5E0EDECF1E0552744E00E94BF250E9456
:102380005223E2E3FAE50E945A23AAEEB1E00E944A
:102390005423E2E3FAE50E945A23A0E4B5E0E4EF17
:1023A000F1E00E942F280E945223E2E3FAE50E9406
:1023B0005A23AFEEB1E00E9454230E946123709132
:1023C00006027860709306020895A6E0B2E08C9150
:1023D00086FB16F00C948A13709106027F7B709333
:1023E0000602A6E0B2E08C9185FB882780F98095F3
:1023F00080FBA6E0B2E08C9185F98C93A0E0B1E07F
:102400008C9181FB16F40C942012A5E0B2E08C9123
:102410008F5F8C9300910502083081E008F480E022
:102420008F93009105020A3081E008F080E09F91CF
:102430008923882311F40C94201281E080930502F3
:102440000E94171C00910202013011F00C943D1201
:10245000A6E0B1E08C918F5F8C9340911D010091BB
:102460000601041718F011F00C9438120C943B126A
:1024700081E0809306010C94DC12023011F00C9480
:102480006712A6EFB1E08C918F5F8C930091F601FB
:10249000073010F40C94551281E08093F601A9ECFA
:1024A000B1E0E6E3F7E50E94AF27E2E4F7E50E943A
:1024B000BD2AE9ECF1E00E943E290E94BB29EDE033
:1024C000F0E0ADECB1E00E94AC280C94DC120330DB
:1024D00011F00C94B412EEEFF1E00E944329E1EC0C
:1024E000F1E00E943E290E94622AEDE0F0E0A1ECBA
:1024F000B1E00E94AC28E1ECF1E00E943E29E2E567
:10250000F8E50E94BD2A0E94252918F011F00C94CC
:102510008B120C949112A1ECB1E0E2E5F8E50E9477
:10252000AF27E2E4F7E50E94BD2AE1ECF1E00E946A
:102530003E290E94BB29EDE0F0E0ADEBB1E00E9446
:10254000AC28A4E0B2E08C918F5F8C9300910402E0
:10255000043018F011F00C94AF120C94B21281E018
:10256000809304020C94DC12043011F00C94DC1201
:10257000A7EFB1E08C918F5F8C930091F70101314F
:1025800010F40C94CC1281E08093F701A1EDB1E03E
:10259000EAE3F7E50E94AF27E2E4F7E50E94BD2AEF
:1025A000E1EDF1E00E943E290E94BB29EDE0F0E060
:1025B000A5EDB1E00E94AC28A0E0B1E08C9181FBD8
:1025C00016F00C948A1300910502013011F00C945E
:1025D0000613A4EFB1E08C918F5F8C930091F4010E
:1025E000093081E008F480E08F930091F4010B3012
:1025F00081E008F080E09F918923882311F40C94F6
:10260000041388E08093F4010C944813023011F015
:102610000C941A13A9EFB1E08C918F5F8C93009109
:10262000F901093011F00C94181388E08093F90136
:102630000C944813033011F00C942E13A1EBB1E06D
:102640008C918F5F8C930091B101043010F40C9445
:102650002C1381E08093B1010C944813043011F0E5
:102660000C944213A4E0B2E08C918F5F8C930091A4
:102670000402043010F40C94401381E080930402AF
:102680000C944813053011F00C9448130E9438162E
:10269000E0E2FAE50E945A23E0E3FAE50E945A23B9
:1026A000E2E3FAE50E945A23A0E4B5E0EDECF1E0A4
:1026B000552744E00E94BF250E945223E2E3FAE539
:1026C0000E945A23A0E4B5E0EDECF1E0552744E088
:1026D0000E94BF250E945223E2E3FAE50E945A239A
:1026E000AAEEB1E00E945423E2E3FAE50E945A23E5
:1026F000A0E4B5E0E4EFF1E00E942F280E9452230D
:10270000E2E3FAE50E945A23AFEEB1E00E945423BF
:102710000E9461237091060278607093060208950A
:10272000A5E0B2E08C918F5F8C9300910502083098
:1027300081E008F480E08F93009105020A3081E087
:1027400008F080E09F918923882311F40C94AB1347
:1027500081E0809305020E94D315089570910001D5
:102760007260709300010E94D3154C990C94BA13B7
:102770000E949013F894789400910502013011F0B2
:102780000C94E413ECE7F3E0A4EFB1E07BE70E94E4
:10279000C72883E08093030182E0809304018827A7
:1027A00080930501E4EFFAE50E947323A0E4B5E00D
:1027B000E4EFF1E00E942F280E946B23EEEFFAE590
:1027C0000E9473230C941B15023011F00C940A1410
:1027D000E0E8F3E0A9EFB1E07BE70E94C72883E0DF
:1027E0008093030182E08093040188278093050190
:1027F000E6E2FBE50E947323A0E4B5E0E9EFF1E037
:102800000E942F280E946B23EEEFFAE50E947323AB
:102810000C941B15033011F00C94681483E0809322
:10282000030182E080930401882780930501ECE98D
:10283000FBE50E9473230091B101013011F00C946B
:102840003614A5EEB1E0E8EBF8E50E94712786E0CA
:102850008093030182E0809304018827809305011F
:10286000E4E8FAE50E9473230C946614023011F038
:102870000C944F14A5EEB1E0ECE0F9E50E9471274D
:1028800086E08093030182E080930401882780938F
:102890000501E2E9FAE50E9473230C946614033003
:1028A00011F00C946614A5EEB1E0EEE6F8E50E9496
:1028B000712786E08093030182E0809304018827DA
:1028C00080930501ECE3FBE50E9473230C941B1538
:1028D000043011F00C94C61483E08093030182E06D
:1028E00080930401882780930501EEEAFBE50E94AE
:1028F000732300910402013011F00C949414A5EBA1
:10290000B1E0E2E5F7E50E94AF2786E0809303019E
:1029100082E080930401882780930501E8E5FBE5C8
:102920000E9473230C94C414023011F00C94AD1463
:10293000A5EBB1E0E6E5F7E50E94AF2786E08093DE
:10294000030182E080930401882780930501E6E675
:10295000FBE50E9473230C94C414033011F00C9413
:10296000C414A5EBB1E0EAE5F7E50E94AF2786E0E5
:102970008093030182E080930401882780930501FE
:10298000E4E7FBE50E9473230C941B15053011F05E
:102990000C94011583E08093030182E0809304018D
:1029A000882780930501E2E8FBE50E947323EEEFA0
:1029B000FAE50E94732385E08093030182E080930F
:1029C0000401882780930501EEEBFBE50E94732349
:1029D000E4E1FBE50E94732386E08093030182E03B
:1029E00080930401882780930501EAECFBE50E94AF
:1029F0007323E4E1FBE50E9473230E9438160C94D4
:102A00001B15063011F00C941B1583E08093030115
:102A100082E080930401882780930501E8EDFBE5BF
:102A20000E947323709100017260709300010E94F4
:102A300066150C944B1578944C990C9431158CE2D6
:102A400091E00E94D3234C990C94311570910001B0
:102A50007D7F709300010E94D3150E94D3150C94C2
:102A60004B1500910502073011F00C94411581E0DF
:102A700080930202709100017260709300010C94C7
:102A8000441585E080930202A0E0B1E08C9181FBC7
:102A900016F00C94B5130E94FA240E94800E84E66E
:102AA00090E00E94D323E8EBFAE50E945A23A0E4C9
:102AB000B5E0E9EFF1E00E942F280E9452230E9426
:102AC000612382E390E00E94D3230895E0E7F3E0DE
:102AD000A9ECB1E094E07BE70E94CA28E4E7F3E0C8
:102AE000A1EDB1E094E07BE70E94CA28E8E7F3E0BB
:102AF000A9EDB1E094E07BE70E94CA28EDE7F3E09E
:102B0000A5EFB1E07BE70E94C728EEE7F3E0A6EF70
:102B1000B1E07BE70E94C728EFE7F3E0A7EFB1E061
:102B20007BE70E94C72808950895A7E0B1E0E6E595
:102B3000F8E50E94AF27A9ECB1E0E6E3F7E50E94D3
:102B4000AF27A1EDB1E0EAE3F7E50E94AF27A9EDD9
:102B5000B1E0EEE3F7E50E94AF27A1EEB1E0E6E4D5
:102B6000F7E50E94AF2781E08093F60181E0809332
:102B7000F70108950E94D315A2E0B2E08C918F5F17
:102B80008C9300910202063011F00C94CA1581E07A
:102B9000809302027091060278607093060280E0D2
:102BA000809320020895289882E390E00E94D32326
:102BB000289A82E390E00E94D32308957091060240
:102BC000786070930602A6E0B2E08C9180FB8827C3
:102BD00080F9809580FBA6E0B2E08C9180F98C931F
:102BE0000E94D315A0E0B1E08C9184FB882780F986
:102BF000809580FBA0E0B1E08C9184F98C93A3E0F8
:102C0000B2E08C918F5F8C9300910302063010F438
:102C10000C940D1681E0809303024C990C942516B8
:102C20008CE291E00E94D3234C990C94251670916C
:102C300000017D7F709300010E94D3150E94D3157F
:102C40007091000178607093000180E08093200211
:102C500008951C990C94351670910001746070935E
:102C600000015D9A5E980C9437165E9A5D980895FF
:102C700070910001777F709300018CE291E00E94D7
:102C8000D3232398249A0E94C023A6E8B1E08C9312
:102C900000918601003018F011F00C9451160C943C
:102CA0008016A0EBB1E08C918F5F8C9380918601B0
:102CB000A0EBB1E0AD90BB24A6E8B1E0AA0DBB1D2E
:102CC0008C93009186010A3011F00C946F1670916C
:102CD000000170647093000180E08093B001009166
:102CE000B001083218F011F00C9478160C9480168C
:102CF00080E08093B001709100017F7B70930001B0
:102D0000A0E0B1E08C9186FB16F00C9497167091C0
:102D100000017F7B7093000180E08093B001E7E8C1
:102D2000F1E0AEE1B1E00E94A7280E94E2164C99C2
:102D30000C94AF168CE291E00E94D3234C990C9432
:102D4000AF16709100017D7F709300010E94D31532
:102D50000E94D31570910001786070930001A0E08B
:102D6000B1E08C9183FB16F00C9443167091000136
:102D7000777F7093000186E08093050281E090E008
:102D8000A4E8B1E08D939C9324980E94C524EAE8BE
:102D9000F9E3A1E0B1E0ED93FC9385E080930301BA
:102DA00088E080930401882780930501EEEDFBE520
:102DB0000E947323E4E1FBE50E94732381E080938A
:102DC0000601089584E30E946127EEE1F1E003E04B
:102DD000A881B9810E94B928A881B981EEEEFBE5EE
:102DE0000E9403290FB684E3481A80E0580A22960D
:102DF0000FBE11F00C9406170E949B17AEE1B1E0D4
:102E000088278C93A1E5B1E088278C9384E30E9406
:102E10006127EEE1F1E003E0A881B9810E94B928C1
:102E2000A881B981E2EFFBE50E9403290FB684E394
:102E3000481A80E0580A22960FBE11F00C943F17F2
:102E400084E0EEE1F1E002E00A93A1E5B1E00E9446
:102E5000B228A1E5B1E00E947528ADE1B1E00C9384
:102E6000ADE1B1E0BA93AA930E94A91B2296AEE10C
:102E7000B1E088278C93A1E5B1E088278C9384E3A7
:102E80000E946127EEE1F1E003E0A881B9810E9490
:102E9000B928A881B981E6EFFBE50E9403290FB6A6
:102EA00084E3481A80E0580A22960FBE11F00C9471
:102EB00063170E94171CAEE1B1E088278C93A1E54F
:102EC000B1E088278C9384E30E946127EEE1F1E072
:102ED00003E0A881B9810E94B928A881B981EAEFED
:102EE000FBE50E9403290FB684E3481A80E0580AE4
:102EF00022960FBE11F00C9487170E945818AEE16D
:102F0000B1E088278C93A1E5B1E088278C93AEE1EE
:102F1000B1E0EEEFFBE50E94032911F00C949A1743
:102F20000E945A1AAEE1B1E088278C93A1E5B1E086
:102F300088278C93089581E080931D0100911D01E5
:102F4000083218F011F00C940818EAE5F7E50E9431
:102F5000B02AEDE1F1E0A190BB24ECEFFFEFAA0C69
:102F6000BB1CAA0CBB1CEA0DFB1DADE0BB2794E00B
:102F70007BE70E94CA28EDE1F1E0A190BB24EFE9D4
:102F8000F0E0EA0DFB1DA0E1BB2780E08C937BE71E
:102F90000E94C728A42DB52DE2E0FCE50E94712710
:102FA000EDE1F1E0019111274EE050E00E9467272A
:102FB000EAEBF0E0E00FF11FD2017BE70E94D82896
:102FC000EDE1F1E0A190BB24E6EFF2E0AA0CBB1C1E
:102FD000EA0DFB1D00E010E0A0E1BB277BE70E94AB
:102FE000C928EDE1F1E0A190BB24E7E4F3E0EA0DAC
:102FF000FB1DA0E1BB2780E08C937BE70E94C728E4
:10300000ADE1B1E08C918F5F8C9310F40C949E171E
:10301000E8E0FCE50E94A4230E94AB230895A7E00A
:10302000B1E0E881F981A190BB24ECEFFFEFAA0C9D
:10303000BB1CAA0CBB1CEA0DFB1D94E00E94E628F9
:10304000E881F981A190BB24EFE9F0E0EA0DFB1DD6
:10305000ABE0B1E00E94E328E881F98101911127FA
:103060004EE050E00E946727EAEBF0E0E00FF11F2E
:10307000A0E1B1E09DE00E94ED28E881F981A190F6
:10308000BB24E6EFF2E0AA0CBB1CEA0DFB1DAAE193
:10309000B1E00E94E528E881F981A190BB24E7E432
:1030A000F3E0EA0DFB1DACE1B1E00E94E3280895D6
:1030B00081E00E94612781E00E94612781E00E94F7
:1030C000612781E00E94612781E00E94612781E001
:1030D0000E94612781E00E94612781E00E946127B0
:1030E00081E00E94612781E00E9461278AE00E94BE
:1030F000612782E00E94612781E00E94612784E0CD
:103100000E946127AEE1B1E0E0E2FCE52FEF91E043
:103110000E947C27AC89BD890C93AC89BD890C9138
:1031200041E0040FAE89BF890C93AE89BF899C91A1
:103130009A93AEE1B1E0E0E2FCE52FEF0E94772741
:10314000AA89BB890C93AA89BB890C9141E0040F21
:10315000AE89BF890C93AE89BF899C919A93AEE1E9
:10316000B1E0E0E2FCE52FEF0E947727A889B9895A
:103170000C93A889B9890C9141E0040FAE89BF89ED
:103180000C93AE89BF899C919A93AEE1B1E0E0E2E5
:10319000FCE52FEF0E947727AE85BF850C93AE85A7
:1031A000BF850C9141E0040FAE89BF890C93AE89B5
:1031B000BF899C919A93AEE1B1E0E0E2FCE52FEF8C
:1031C0000E947727AC85BD850C93AC85BD850C919D
:1031D00041E0040FAE89BF890C93AE89BF899C91F1
:1031E0009A93AEE1B1E0E0E2FCE52FEF0E94772791
:1031F000AA85BB850C93AA85BB850C9141E0040F81
:10320000AE89BF890C93AE89BF899C919A93AEE138
:10321000B1E0E0E2FCE52FEF0E947727A885B985B1
:103220000C93AC89BD890C9141E0040FAE89BF8934
:103230000C93AA89BB890C91AE89BF894C91041B60
:10324000A88DB98D0C93AE89BF898C91EEE1F1E028
:10325000A88DB98D0C910A93AF81B8850E94B228D0
:10326000AE81BF810E947528AA8DBB8D0C93AA895F
:10327000BB890C9141E0040FAE89BF890C93A889EA
:10328000B9890C91AE89BF894C91041BA88DB98D69
:103290000C93AE89BF898C91EEE1F1E0A88DB98DD8
:1032A0000C910A93AF81B8850E94B228AE81BF818C
:1032B0000E94CA2AEDE0F0E0A881B9810E94AC2802
:1032C000E2E4F7E50E94BD2AE881F9810E943E29E7
:1032D0000E94BB29EDE0F0E0A881B9810E94AC28F2
:1032E000EA8DFB8DA190BB24ECEFFFEFAA0CBB1C79
:1032F000AA0CBB1CEA0DFB1DA881B98194E07BE7F9
:103300000E94CA28A889B9890C9141E0040FAE89AE
:10331000BF890C93AE85BF850C91AE89BF894C9156
:10332000041BA88DB98D0C93AE89BF898C91EEE1F9
:10333000F1E0A88DB98D0C910A93AF81B8850E94F8
:10334000B228AE81BF810E947528AA81BB810C93EF
:10335000EA8DFB8DA190BB24EFE9F0E0EA0DFB1DA7
:10336000AA81BB817BE70E94C728AE85BF850C91EF
:1033700041E0040FAE89BF890C93AC85BD850C91EB
:10338000AE89BF894C91041BA88DB98D0C93AE8971
:10339000BF898C91EEE1F1E0A88DB98D0C910A9373
:1033A000AF81B8850E94B228EA8DFB8D019111276B
:1033B0004EE050E00E946727EAEBF0E0E00FF11FDB
:1033C000AE81BF817BE70E94D828AC85BD850C917A
:1033D00041E0040FAE89BF890C93AA85BB850C918F
:1033E000AE89BF894C91041BA88DB98D0C93AE8911
:1033F000BF898C91EEE1F1E0A88DB98D0C910A9313
:10340000AF81B8850E94B228AE81BF810E94752825
:10341000AC81BD810D931C93EA8DFB8DA190BB24E3
:10342000E6EFF2E0AA0CBB1CEA0DFB1DAC81BD81EE
:103430007BE70E94C928AA85BB850C9141E0040F57
:10344000AE89BF890C93A885B9850C91AE89BF89D7
:103450004C91041BA88DB98D0C93AE89BF898C91BA
:10346000EEE1F1E0A88DB98D0C910A93AF81B8859A
:103470000E94B228AE81BF810E947528AA81BB81BB
:103480000C93EA8DFB8DA190BB24E7E4F3E0EA0DF9
:10349000FB1DAA81BB817BE70E94C728E2E2FCE515
:1034A0000E94A4230E94AB238BE1481A80E0580AB3
:1034B0006C960895EAE5F8E50E94B02AE0E0F0E0B5
:1034C000ADE0BB2794E07BE70E94CA28E0EAF0E089
:1034D000A0E1BB2782E18C937BE70E94C728A42D43
:1034E000B52DEAE2FCE50E947127E8ECF0E0D2019C
:1034F0007BE70E94D828E8EFF2E001E911E0A0E1C3
:10350000BB277BE70E94C928E8E4F3E0A0E1BB27E2
:1035100081E08C937BE70E94C728EEE5F8E50E94E6
:10352000B02AE4E0F0E0ADE0BB2794E07BE70E9446
:10353000CA28E1EAF0E0A0E1BB2783E18C937BE7B6
:103540000E94C728A42DB52DE4E3FCE50E94712755
:10355000E6EDF0E0D2017BE70E94D828EAEFF2E046
:1035600002E911E0A0E1BB277BE70E94C928E9E45A
:10357000F3E0A0E1BB2782E08C937BE70E94C728A1
:10358000E2E6F8E50E94B02AE8E0F0E0ADE0BB2713
:1035900094E07BE70E94CA28E2EAF0E0A0E1BB27C2
:1035A00084E18C937BE70E94C728A42DB52DEEE320
:1035B000FCE50E947127E4EEF0E0D2017BE70E9477
:1035C000D828ECEFF2E003E911E0A0E1BB277BE7AC
:1035D0000E94C928EAE4F3E0A0E1BB2783E08C93D2
:1035E0007BE70E94C728E6E6F8E50E94B02AECE0F7
:1035F000F0E0ADE0BB2794E07BE70E94CA28E3EA55
:10360000F0E0A0E1BB2785E18C937BE70E94C7280F
:10361000A42DB52DE8E4FCE50E947127E2EFF0E06F
:10362000D2017BE70E94D828EEEFF2E004E911E036
:10363000A0E1BB277BE70E94C928EBE4F3E0A0E10F
:10364000BB2784E08C937BE70E94C728EAE6F8E575
:103650000E94B02AE0E1F0E0ADE0BB2794E07BE718
:103660000E94CA28E4EAF0E0A0E1BB2786E18C933F
:103670007BE70E94C728A42DB52DE2E5FCE50E945A
:103680007127E0E0F1E0D2017BE70E94D828E0E07A
:10369000F3E005E911E0A0E1BB277BE70E94C92820
:1036A000ECE4F3E0A0E1BB2785E08C937BE70E948C
:1036B000C728ECE5FCE50E94A4230E94AB230895F3
:1036C000E2E7FCE50E94A423E0E3FAE50E94A423DC
:1036D000E0E2FCE50E94A423A0E4B5E0E7E0F1E02D
:1036E000552744E00E94BF250E94AF23E0E2FCE59D
:1036F0000E94A423A0E4B5E0EBE0F1E00E942F28B3
:103700000E94AF23E0E2FCE50E94A423A0E1B1E027
:103710000E94B123E0E2FCE50E94A423A0E4B5E00E
:10372000EAE1F1E00E9428280E94AF23E0E2FCE5F4
:103730000E94A423A0E4B5E0ECE1F1E00E942F2870
:103740000E94AF23E8E7FCE50E94A4230E94AB237C
:10375000089584E00E946127AA81BB81BA93AA934D
:103760000E940F182296E2E4F7E50E94BD2AE7E0E6
:10377000F1E00E943E290E94142AEDE0F0E00E9450
:103780004E29A881B981EDE0FF270E94AC28E2E72D
:10379000FCE50E94A423A0E4B5E0EA81FB810E943D
:1037A0002F280E94AF23E0E2FCE50E94A423A0E4BE
:1037B000B5E0E881F9810E9422280E94AF23E0E26F
:1037C000FCE50E94A423A0E4B5E0EBE0F1E00E9458
:1037D0002F280E94AF23E0E2FCE50E94A423A0E191
:1037E000B1E00E94B123E0E2FCE50E94A423A0E442
:1037F000B5E0EAE1F1E00E9428280E94AF23E0E270
:10380000FCE50E94A423A0E4B5E0ECE1F1E00E9415
:103810002F280E94AF23E8E7FCE50E94A4230E9422
:10382000AB2384E0481A80E0580A2296089584E089
:103830000E94612781E080931D0100911D010832E3
:1038400018F011F00C944C1CA881B981EDE1F1E065
:10385000A190BB24ECEFFFEFAA0CBB1CAA0CBB1C75
:10386000EA0DFB1D94E00E94E628E881F9810E94A0
:103870003E29EAE5F7E50E94BD2A0E94252911F0BC
:103880000C94441C0C944C1CADE1B1E08C918F5F06
:103890008C9310F40C941D1CADE1B1E08C9181501F
:1038A0008C93EEE7FCE50E94A423A0E4B5E0EDE1F3
:1038B000F1E00E942F280E94AF230E94AB2384E0F6
:1038C000481A80E0580A22960895AEE1B2E00E94BC
:1038D0002923AEE1B2E00D911C9102345FE015079F
:1038E00018F011F00C94761C0C94811C80E090E090
:1038F000AEE1B2E08D939C93A0E2B2E08C918F5F39
:103900008C9300912002033018F011F00C948A1C63
:103910000C948D1C84E08093200208950E94D3159E
:1039200084E08093200208953054008040201008E5
:10393000AA020804AA020402AA3C0204AA0104087A
:10394000AA03083040C000AA0300FF00AA4D00FFF0
:1039500000AA0300FF00AA4D00FF00AA0300FF0019
:10396000AA4D00FF00AA0300FF00AA4D00FF00AA15
:1039700003000304081020AA032040AA3F4020AA05
:1039800003201008040300AA02000106060000003C
:103990000000000000005F000000000300030000C2
:1039A000147F147F1400042A7F2A10002313086454
:1039B0006200364956205000000300000000001C41
:1039C0002241000041221C0000002A1C7F1C2A000A
:1039D00008083E0808000040703000000808080889
:1039E00008000000606000006010080403003E5101
:1039F00049453E0000427F4000006251494946006F
:103A0000224149493600181412117F0027454545C7
:103A100039003E4545453900016111090700364925
:103A2000494936000E5151513E0000003636000023
:103A3000004076360000000814220000141414140C
:103A400014000022140800000201510906003E493A
:103A500055550E007C1211127C007F4949493600F1
:103A60003E41414122007F4141221C007F4949499A
:103A700041007F09090901003E41415172007F0860
:103A800008087F0000417F4100002040413F0100C5
:103A90007F08142241007F40404060007F020C02FA
:103AA0007F007F0204087F003E4141413E007F11BC
:103AB00011110E003E4151617E007F091929460017
:103AC00026494949320001017F0101003F40404041
:103AD0003F001F2040201F003F4038403F0063143C
:103AE0000814630007087008070061514945430046
:103AF00000007F41410003040810600041417F0045
:103B00000000040201020400404040404040010225
:103B100000000000304A4A3C40007F4848483000DE
:103B2000384444442000304848487F0038545454B6
:103B3000180000087E0900000854545438007F081B
:103B40000404780000487A4000000020403D000056
:103B50007F101028440000007F0000007C047C04DB
:103B600078007C08040478003844444438007C140D
:103B7000141408000814147C40007C080404080095
:103B800048545454240000043F4400003C4040206A
:103B90007C001C2040201C003C4030403C0044285D
:103BA000102844000C5050503C004464544C4400D5
:103BB00000000836410000007F0000004136080088
:103BC00000000804080400000000000000000000DD
:103BD00000000000000000000000000000000000E5
:103BE0000000000000000000000000004000400055
:103BF0004000000000000000000000000000143E33
:103C000055554100130864026000000000000000E8
:103C100000000000000000000000000000000000A4
:103C20000000000000000000000000000000000094
:103C30000000000000000000000000000000000084
:103C400000000000000000000000000000183C3CE4
:103C50001800000000000000000000000000003C10
:103C600024243C00000000000000000000000000D0
:103C70000000000000000000000000000000000044
:103C80000000000000000000000000000000000034
:103C90000000000000000000000000000000000024
:103CA000000000000000005A24245A000000000018
:103CB00000000000770000000000000000007C55BC
:103CC000545554003E415D55413E00000000000047
:103CD00008142A142200020202020E000000000052
:103CE00000000000000000000000000000000609C5
:103CF0000906000000242E2400000000000000003F
:103D0000000000000000000000000000FC20404017
:103D10003C00040E7E027E000000080000003855C2
:103D2000545518007810207E0200000000000000AA
:103D300022142A1408000000000000000000000007
:103D400000000000000000000002780200007C1269
:103D500011127C007F49494930007F4949493600AA
:103D60007F0101010100407E417F40007F494949B8
:103D7000410077087E0877002241494936007F20BC
:103D800010087F007F2011087F007F081422410067
:103D9000403E01017F007F0204027F007F08080887
:103DA0007F003E4141413E007F0101017F007F09CC
:103DB000090906003E414141220001017F01010045
:103DC000074848483F000C127F120C006314081487
:103DD00063003F20203F6000070808087F007F4005
:103DE0007C407F003F203C203F60017F48483000FE
:103DF0007F4830007F007F484848300022414949D1
:103E00003E007F083E413E00462919097F002054AC
:103E1000545478007854545420007C54545428004E
:103E20007C04040404000854545438003854545496
:103E300018006C1078106C002844545428003C4042
:103E400040407C003C4044407C007C1010284400F2
:103E5000403804047C007C0810087C007C101010A2
:103E60007C003844444438007C0404047C007C1406
:103E7000141408003844444428007C047C0478006E
:103E80000C5050503C0008147C14080044281028A2
:103E900044001C20203C60000C1010107C003C40B2
:103EA00078407C001C2038203C60047C505020006E
:103EB0007C5020007C007C505050200028445454FA
:103EC00038007C1038443800085434147C00020A4E
:103ED00014000000000000000000000000000000CE
:103EE00000000000000000000000FE0000000000D4
:103EF000000000001B000000000000001E00000089
:103F00001E00000000000000000000000000002073
:103F1000A07826A0782620000119070119070101C1
:103F2000010000001C2642FF820200000000181061
:103F3000103F110F00001C2222229C403008040276
:103F400010080403000E1111110E00805C62A232F1
:103F50001C0000800708101011131C181601000027
:103F600000001E0000000000000000000000000033
:103F70000000000000E0180C04020200000000072E
:103F8000183020000000000202040C18E0000000BD
:103F900000000020301807000000000818F04EF064
:103FA00018080000000000000000000000000000F1
:103FB0000000E00000000000020202021F020202F4
:103FC00002000000000000000000000000000018D7
:103FD00038000000000000000000000000000000A9
:103FE00000000101010101010000000000000000CB
:103FF0000000000000000018180000000000000091
:10400000000000C0300C02000000300C0300000073
:10401000000000F00C0202020CF0000000030C1083
:1040200010100C03000000040404FE000000000057
:10403000001010101F10101000000006020202C233
:104040003C000000001814121110100000000000C5
:1040500002424242BC0000000000101010100F008D
:10406000000000C0201804FE00000000030202024D
:10407000021F0202000000003E22224282000000D5
:104080000000101010080700000000F04C2222224F
:10409000428000000007081010100807000000020E
:1040A0000202C2320A0600000000180700000000E9
:1040B0000000001CA24242A2A21C0000000F10102F
:1040C00010100906000000788402020284F8000043
:1040D0000000101111110C030000000000606000CE
:1040E00000000000000000181800000000000000A0
:1040F00000606000000000000000001838000000B0
:104100000000000000008080404020000000030309
:104110000404080810000080808080808080800077
:1041200000040404040404040400002040408080CF
:104130000000000000100808040403030000000E43
:1041400002028242261C00000000001B000000004A
:104150000000F01804E2120A8AFC0000030C181395
:1041600014161B070404000080701830C000000003
:10417000100E0302020202030C1000F888888888DF
:1041800048300000001F10101010110E0000C03049
:104190001008080808180000030C08101010101070
:1041A000000000F80808080810E00000001F1010C8
:1041B00010100807000000F80808080808080000A8
:1041C000001F111111111110000000F80808080853
:1041D00008080000001F010101010100000000C0EB
:1041E000301008080808180000030C0810101111FE
:1041F0001F0000F80000000000F80000001F01018F
:104200000101011F000000080808F8080808000064
:10421000001010101F101010000000000008080807
:10422000F80000000000101010100F00000000F84F
:104230008080402010080000001F000102040408D4
:10424000100000F80000000000000000001F101027
:10425000101010100000F838E00000C038F800001E
:104260001F0001070601001F000000F81060800019
:1042700000F80000001F00000106081F000000E019
:10428000100808080810E0000007081010101008B7
:10429000070000F80808080888700000001F0101E6
:1042A00001010000000000E0100808080810E0000C
:1042B0000007081010103008070000F808080888E8
:1042C00070000000001F01010304081000000070CE
:1042D0004888880808180000001810101011090EEE
:1042E000000008080808F808080808000000000096
:1042F0001F000000000000F80000000000F80000AF
:10430000000718101010080700000830C000000057
:1043100000C030080000010618180700000018E06F
:104320000000E0C00000E01800031C0F00010E1C9C
:10433000030008102040808040201008100804026C
:10434000010102040810081060800080402010085D
:10435000000000001F000000000000080808088896
:104360004828180000181412111010101000000036
:1043700000FE0202020200000000003F00000000F8
:10438000000000020C30C00000000000000000002F
:1043900000030C3000000002020202FE00000000D8
:1043A00000000000003F00000000000000E0380EA8
:1043B00070800000000403000000000304000000FF
:1043C00000000000000000002020202020202020ED
:1043D000202000000000010200000000000000009A
:1043E000000000000000000020202020C00000008D
:1043F000000C121111091F10000000FE40202020A7
:1044000060800000001F08101010080700000080E6
:10441000402020202020000000070810101010105D
:10442000000000804020202040FE000000071810FF
:104430001010081F000000804020202020C0000035
:1044400000070911111111110000002020FC242285
:10445000222222000000001F000000000000008057
:104460004020202040E00000000718101010083FF6
:10447000000000FE8040202020C00000001F00003F
:104480000000001F000000202026E60000000000C1
:10449000000000001F00000000000000202026E6B1
:1044A0000000000000000000003F0000000000FECF
:1044B0000000804040200000001F01030404081099
:1044C00000000000020202FE0000000000000000E8
:1044D000001F00000000E0402020C0402020C0005D
:1044E0001F0000001F0000001F0000E0C04020204F
:1044F00020C00000001F00000000001F000000801E
:1045000040202020408000000007081010100807FD
:10451000000000E04020202060800000003F0810E4
:1045200010100807000000804020202040E000001C
:10453000000718101010083F00000000E080402025
:1045400020E0000000001F0000000000000000C08C
:1045500020202020200000000018111112120C0051
:104560000000002020F82020202000000000000F84
:1045700010101010000000E000000000E00000003B
:10458000000F101010081F00000020C000000000E5
:1045900000C0200000010618100C0300000060801D
:1045A0000000C080000080600007180E01010E1896
:1045B0000700002040800000804020000010080418
:1045C00003030408100020C0000000000000C02009
:1045D00000000306381806010000002020202020DB
:1045E000A06020000010181412111010100000001C
:1045F0000000FC0202020000000001013E00000079
:10460000000000000000FE000000000000000000AC
:104610003F00000000000000020202FC0000000059
:1046200000000000003E01010000008080800000CA
:10463000000000800300000001010202020100806E
:10464000C0201020C0800000001F10101010101F8C
:104650000000ED91FC91EF5FFF4FFC93EE93089506
:1046600005D00E94672700FC0CD008950024E89430
:1046700057FF02C009D0689400F80BD010F801244D
:10468000089502D009D00895509540954F5F5F4F2F
:104690000895E89417FF0895009510950F5F1F4F38
:1046A00068940895A0E4B5E08D91882311F00CD0B2
:1046B000FBCF08950E94A727802D11F005D0FACFD7
:1046C00008958DE001D08AE00090C00005FEFCCF87
:1046D0008093C6000895A0E4B5E08D91882311F081
:1046E0000FD0FBCF08950E94A727802D11F008D08E
:1046F000FACF089588EE93E056D03197D9F7089510
:104700000C940A253197F1F70895689462F808959A
:10471000E89462F808958F939F9383E690E0019761
:10472000F1F79F918F91089580952AE090E0089489
:1047300010F42C9802C02C9A0000EDDFECDF969567
:1047400087952A95A9F708950E94A727802D11F033
:10475000EBDFFACF08958DE0E7DF8AE0E5CFA0E454
:10476000B5E08D91882311F0DFDFFBCF08958F93A3
:104770009F9383E690E00197F1F79F918F910895C1
:104780001B9B02C08827089529E01B99FECFEFDF0D
:10479000EEDFEDDF88941B9908942A9519F0879530
:1047A0009795F6CF0895EF93FF93EE27E82BE92B2B
:1047B00031F0EAEFF0E03197F1F70197D1F7FF918F
:1047C000EF9108958DE207FD8D938F2D881F802F27
:1047D000881F8F57082F6894F7F8802F87FF15C020
:1047E00080958395082F80E38D938EE28D93802FA3
:1047F000815228F080E38D9399279C930895442754
:104800000A95802F09F196D01FC0805230F09EE4A7
:104810009D9381E48D939D93EFCF4427DF92EF9298
:10482000FF920F938FE1801B11F0082F83D089D066
:104830009EE29D930F91FF90EF90DF9044270395A8
:10484000003209F4D7CF2BD03F93E4EDF8E438E100
:104850002F2D1E2D0D2DFF24EE24DD244427000FC7
:10486000111F221FA8F42F923F920E94A727102CFD
:104870000E94A727202C0E94A727302C0E94A72740
:104880003197410DD21CE31CF01C3F902F9001C0CA
:10489000339631963A9519F73F9107D0AFCFDD0C9B
:1048A000EE1CFF1C0A95D9F70895002719E058D08F
:1048B0008F93802B11F0039501C08F911A95B9F752
:1048C000802F882309F496CF8F91805D8D930A9570
:1048D000D9F792CF0065CD1D80B2E60E405973071F
:1048E000A0ACB90350D6DC01286BEE0094357700FC
:1048F000CA9A3B0065CD1D00B2E60E005973070051
:10490000ACB90300D6DC01006BEE00003577000087
:104910009A3B0000CD1D0000E60E0000730700006A
:10492000B9030000DC010000EE0000007700000089
:104930003B000000F694E794D79447950A95D1F789
:10494000089500270DD08F9303958F2D8E298D29E3
:10495000842BC1F78F91805D8D930A95D9F74CCF49
:104960001F930F93002710E2440FDD1CEE1CFF1C69
:10497000001F802F9AE0890B10F0082F43951A959D
:1049800099F7802F0F911F9108952B9884E699270E
:104990000E94D3232B9A8AE099270E94D32341981F
:1049A000439A81E211D088EC0FD086E00DD083E1EC
:1049B0000BD080E209D08CE007D00895863219F43C
:1049C00081E0809324020895429801C0429A7F9327
:1049D000439898E0880F10F4409A01C04098000076
:1049E0000000419A0000000041989A9599F7439A77
:1049F0007F91089500E480E2E7DF802FE5DF80E823
:104A0000E3DF882714E5E2DF1A95E9F7039506341A
:104A100091F7089520912402213069F4282F20383D
:104A200008F02FE7206881E2CFDF822FCDDF80E022
:104A3000809324020895EF93FF93509103015F93B5
:104A400070900401E0910101F09102010E94A727FA
:104A5000202D0E94A727302D0E94A727002D0E94FD
:104A6000A727602D8052482F0E94F728E40FF51FDA
:104A7000CC241124E22E603059F1DD24DA94CD2CBF
:104A8000FF24032F0E94A72721F00A95E00FF11DB4
:104A900003C0F3940A95B1F7FD1408F4DF2CEA94EF
:104AA00079F7E22EFF24032F3197C895002021F0DB
:104AB0000A95E01BF10903C0F3940A95A9F7FC14C9
:104AC00008F4CF2CEA9471F7D31611F4D62ECC2427
:104AD00070920401732F7C194091040150910301DD
:104AE0005F930E94B5255F91603041F0DD2031F089
:104AF0005D2D0E94A7275A95E1F77D190E94A727EF
:104B0000802D50910501552309F0809540910401B5
:104B1000453514F40E94E6245091040153955093B6
:104B200004017A9559F7EC0DF11D603081F0509138
:104B30000501762F8827552309F080950E94E624E9
:104B40007A95C1F750910401560F5093040150918A
:104B500003015395509303012A9509F0B9CF5F9152
:104B600050930301FF91EF9108954A955A9580E281
:104B70002BDF80E4850F28DF80E8840F25CF0E949B
:104B80003E290E94942917FF03C08DE28D931127BF
:104B9000003821F4ECE5FEE40C9471270F3741F462
:104BA000FF2019F4E2E5FEE4F7CFEEE4FEE4F4CFF3
:104BB0004A934A934A935A93BA93AA93BB270F5F97
:104BC00002F5BB27802F0A950E949E298D3E90F406
:104BD000ECEAFEE4A3E00E94BD2A0E942529BB1F47
:104BE000B0FF06C070970E94BD2A0E94142A3C960E
:104BF000AA9589F7E8EAFEE40E94BD2A0E94142AD9
:104C000022C0093058F1033178F10A3130F418E04C
:104C10008BE192E9E0E6FEE42EC00A950E949E290F
:104C2000E0EAFEE4BFEFA3E00E94BD2A0E9425292E
:104C3000BB1FB0FD06C038960E94BD2A0E94142AF0
:104C40003C97AA9589F7B095BB0F0E9494290395CC
:104C500013E08AEF99E0F816090740F413E08BE0BF
:104C600094E0E4E7FEE407C016E001C0B39583E1F9
:104C700094E2E8E6FEE46A81BF3F19F4BB271127FE
:104C80006260BD836A831C83A881B98160E36D93F0
:104C9000A883B9836D93081B0195AA24BB246A815C
:104CA0006A7F002339F0F694E794D794B794A794D9
:104CB0000A95F7CF19E000270E94BD2ACC248FEF78
:104CC00074E0AC14B206D306E406F50630F0AC1876
:104CD000B20AD30AE40AF50A21F1881F7A9531F065
:104CE0005695479537952795C794EBCF809522D059
:104CF00041F0969508F7FE2CED2CDB2CBA2CAA245B
:104D0000DBCF25D05D813C812B8170D0277021F0D5
:104D10002BD06CD0E8F301C03CD04CD078D0269694
:104D200008958894881F7A95E9F7809503D049F310
:104D30008827FCCF806360FD06C0803311F061607E
:104D400002C0039561FD8D9360FD1A950895992722
:104D50008E919C9385338E9108F083958A3308F069
:104D600080E38C93C0F70895732F720F61FF701B5F
:104D70000AD01296785019F050F38E9380E38E93F8
:104D80007150EAF70895A881B981A70F8827B81F45
:104D9000089579E061FD700FF6DF48E0431B400F96
:104DA0008AF381F399274A9569F38E91803351F7FD
:104DB0009C93F9CF732F61FF701B7395A881B98104
:104DC000EA2FFB2F11978191803361FF09F08D93BA
:104DD0007A9511F48EE28D9381918823C1F7772320
:104DE00011F480E38D9388278C930895889462FD55
:104DF0000895002359F4A881B9818C91803331F052
:104E0000552321F053953350646008940895552339
:104E1000E9F085E48D931AF48DE28D935195652F19
:104E2000660F560F5A3010F060E503D068E001D0ED
:104E3000DACF8FEF74E0561708F0561B881F7A956B
:104E400011F06695F8CF809580638D9308954E415B
:104E50004E00496E66696E6974790000302E30002C
:104E600000404B4C0020A107000050C300008813F5
:104E70000000F40100000032000000050000800086
:104E8000CCCCCC0C14AE47019CC42000DC46030003
:104E9000E353000063080000D70000001500000085
:104EA0001CC25367A5D468530024744915BE9A17D1
:104EB000CCBC8C2BBD37863501911191219130816D
:104EC000089599275A924A92480E591E08950F92B2
:104ED000B801469F8001479F100D569F100D0F90FF
:104EE00008950E94A7270D920020D9F7089599915F
:104EF0000027A90FB01F1197492F4A955E2F6F2FDA
:104F0000E89411274395203019F0C895802D01C0F1
:104F100080818823B9F07C917723A1F0781739F448
:104F20000EF0042F1395689411963196EBCF112350
:104F300021F0411BA11B1127B10BE894E52FF62F9F
:104F40001196E0CF882311F0002708950895C895A1
:104F500031960020089591E005C092E003C094E0EE
:104F600001C098E0F4DF0D929A95E1F70895992732
:104F70008D9193958823E1F7939511968C931197D2
:104F80008E919A95D1F70895EA2FFB2F00244C912A
:104F90008D9103948E32E1F711248D91139488231F
:104FA000E1F71A94101640F41197202F2119239538
:104FB00080E38D932A95E9F7113039F59927AE2FC3
:104FC000BF2FA00DB91FA00FB91F8C919C938533E3
:104FD00008F421C031E08E918E32E9F38D3241F038
:104FE000830F8A3319F480E331E001C033278C93B7
:104FF000AE1789F7332341F0AE2FBF2FB8DF81E31F
:105000004D3209F43196808308958827E00DF81F0A
:10501000E00FF81F80830895040F151F261F371F08
:105020000895000F111F221F331F0895009510953A
:10503000209530950F5F1F4F2F4F3F4F08950191DF
:1050400010810FC00E945C270EC00E945C2710C018
:105050000191108117FF05C03FEF2FEF04C00081C1
:1050600011272227332737FF03C0E0DF8DE28D931E
:10507000CF92DF92EF92AA24BB24CC24DD24EE242D
:1050800040E2EAE0FF2755E093E38081890F87FD46
:105090009F7083FD907F891B81935A95A9F7C1DF8B
:1050A000AA1CBB1CCC1CDD1CEE1C4A9551F7E894D5
:1050B000EFE0FF2782910CD0EB30E0F71EF0689410
:1050C0008A2D0AD088278D93EF90DF90CF90089596
:1050D000982F829501D0892F8F70805D26F08033C4
:1050E00009F4089568948D930895002711272227C5
:1050F00033271DD08A3328F4803318F005D015D01B
:10510000F9CF0EF493CF089580538F93402F512FF2
:10511000622F732F86DF85DF7FDF83DF8F919927F3
:10512000080F191F291F391F08958D910895E894BC
:10513000FCDF8032E9F38B32D9F38930C9F38D3249
:1051400011F46894F2CF089588278D930895819182
:105150008D938823E1F7089594E081918D939A953A
:10516000E1F7089509919191992351F08A95D9F722
:105170003197002329F081918D930A958823C9F7EF
:10518000E3CFF999FECFE1BDF2BD3196089591E0EC
:1051900001C092E07B3751F47FB7F894F2DF8D9134
:1051A00080BDFA9AF99A9A95C9F77FBF7727089533
:1051B000E8DF8D917B3729F480BDFA9AF99A88232C
:1051C000B9F77727089591E001C092E0DADFF89A05
:1051D00080B58D939A95D1F70895D3DFF89A80B56D
:1051E0008D93882319F09A95C1F79D930895FF93A5
:1051F0005527F8E0469508F4500F57954795FA95CE
:10520000D1F7FF910895689401C0E894AF93BF93DC
:105210008D9116F0919103C00E94A727902D8917B8
:1052200018F011F48823A1F7BF91AF910895B7FE4C
:10523000089590E8B91611F4D0FE08959FEFD91A99
:10524000E90AF90A09F4039508950F928F939F9341
:10525000D216E306F4060FB680E890E8802795277B
:105260000FBE890739F00FB6892B87FD02C081E098
:1052700008260FBE9F918F910F900895D190E190D5
:10528000F1900191089521913191419151910895A9
:10529000502F2D2D3E2D4F2D612F0895EFDF992793
:1052A00011278F2D880F80E8F82A802F881F08F497
:1052B0001FEF41F08F57082F07FD04C0003240F068
:1052C0008FEF01C08827982FD82EE82EF82E09C01E
:1052D0008FE1801B082FF694E794D79497950A9551
:1052E000D1F7112351F09095D094E094F09481E09F
:1052F000980F8827D81EE81EF81E0F2DFE2CED2CC7
:10530000D92E0895D094E094F09491E0D90E992785
:10531000E91EF91E10950895652F90E8440F551F5A
:105320005927990F47956078102F90E8FF0C001FC0
:105330000927990FF794107800380895FF0C90E82A
:105340009027110F9795F794092F08952DEC3CECB9
:105350004CEC5DE366270FC091DF9ADFDD24EE247D
:1053600090E8F92E0FE307C08EDF05C02227332710
:1053700040E251E46627552351F1002381F1CCDF4F
:1053800071F11627005850580894050B18F407FDC2
:1053900003C025C007FD23C0469537952795F69491
:1053A000E794D79425D0FF202AF0DD0CEE1CFF1CDB
:1053B000015073F09D2D969548F0DD203AF4EE20D3
:1053C0002AF491E0D90E9927E91EF91EB7CF07C03C
:1053D0009FE7092FF92A9FEFD92EE92E0895DD24A2
:1053E000EE24FF240027112708950FE79FEFF2CF47
:1053F0009F929924AA24BB2488E1D216E306F406DE
:1054000028F0D21AE30AF40A089401C08894991C7F
:10541000AA1CBB1CDD0CEE1CFF1C8A9571F7D92C55
:10542000EA2CFB2C9F90089577DFD9F05038C9F013
:1054300016270058952F90580894091F12F418F455
:105440000EC008F00EC00FD0FF202AF0BB0CDD1CF0
:10545000EE1CFF1C02C0039513F0E9DE6FCF0C9425
:10546000E8290C94EF299F92FF92EF928D2DFF2453
:10547000EE24DD24BB2493E0849F1001829FB00CB6
:10548000D11CE21CF31C839FD00CE11C2224F21CD3
:105490009A9531F0BD2CDE2CEF2CFF248F91ECCFB0
:1054A0009F900895F0DE38DF503829F090E86927A2
:1054B0000CC00AF045D042CF5FE3222733274427B0
:1054C00001C0E1DE29DF5038B1F3003899F3902FA5
:1054D000951B8BF312F434D0FACF983118F02227B1
:1054E00033274427983028F0232F342F442798500F
:1054F000F9CF992329F04695379527959A95D9F7AD
:10550000912F962742F014D0B0F6F794E794D794F1
:105510000F5F8BF65DCF10D051F008F4F3DEFF2063
:1055200052F2DD0CEE1CFF1C0150CBF751CF57CFD0
:10553000D20EE31EF41E0895D21AE30AF40A089567
:10554000DF92EF92FF920F931F93D22EE32EF42E51
:10555000052F162F6F915F914F913F912F910895D5
:105560000E94A727D02C0E94A727E02C0E94A727E3
:10557000F02C0E94A727002D08950E94A727202D18
:105580000E94A727302D0E94A727402D0E94A72701
:10559000502D08950E94882388278A938A931FDFBD
:1055A00011278D918032E9F31197BBD098F08D329D
:1055B00029F4109511968C91B4D060F08E3229F4B4
:1055C00011968C91AED008F446C022960E94852395
:1055D00081E008958C91A5D0D8F5119646D0D0F7EA
:1055E00003958D919ED0E0F38E3229F48C9199D061
:1055F00010F41196FBCF853419F0853609F055C0AB
:1056000011968C918ED060F08D3219F08B3221F092
:10561000DCCF08800094088211968C9182D0A8F685
:105620008053898311968C917CD058F49981990F7D
:10563000990F0980900D990F8053890F89838732C4
:1056400020F68981988199230AF48195080F2DC04D
:105650008E3289F611968C9164D068F606D018F0D7
:1056600011960A95F8CF1196C1CF4F2D3E2D2D2DB5
:10567000DD0CEE1CFF1CA8F0DD0CEE1CFF1C88F0FE
:10568000D20EE31EF41E68F0DD0CEE1CFF1C48F089
:10569000805309F06894D80E8827E81EF81E08F099
:1056A0000895F42EE32ED22E089534D019F116F574
:1056B000098308E921D00695882787959F2D9F7734
:1056C000980FF92E0150000F110F0795898188233B
:1056D00079F01AF48195898306C038DE89818A952C
:1056E0008983D9F705C042DE89818A958983D9F7F4
:1056F0002296089574DEFCCF0DD041F0FF2032F0E9
:105700000A9531F0DD0CEE1CFF1CD2F78894089549
:105710000894089500240D280E280F28002A002040
:105720000895803320F08A3310F408940895889403
:1057300008958000B149E073B0493C1C884A00C814
:10574000AF4900401C466043844A0000FA42000012
:105750002A433333F3409A99193F000000000000B8
:105760008642CDCC8F42CDCC944200009A426666F0
:105770009F420000A542CDCCAA420000B1420000E9
:10578000B7429A99BD42CDCCC2420000C842000047
:10579000CF426666D642CDCCDD429A99E5429A99CF
:1057A000ED420000F6429A99FE42CDCC03430080C0
:1057B0000843CD4C0D43333312436666174333B36E
:1057C0001C433333224366E62743CDCC2D4333B30A
:1057D000334333333A43CDCC404300804B4333B360
:1057E00052439A195A4333B361439A996943CDCCD2
:1057F0007143CD4C7A43B07BB0496887B049D046FD
:10580000B149A04EB149F094B14900007A4400502A
:10581000C347361D884A301E884A2A1F884A2420DA
:10582000884A1E21884A1822884A1223884A0C2452
:10583000884A0625884A0026884AFA26884AF42794
:10584000884AEE28884AE829884AE22A884A00934A
:10585000A3494089954A003FB149CD8CD8439A99D4
:10586000D84366A6D84333B3D84300C0D8433030BA
:1058700030300000445241383138565F4555372E9C
:10588000424153005648462F55484620545258002E
:10589000415820656C656B74726F6E696B610000B6
:1058A0005665722E200030303031000030303032FA
:1058B0000000303030330000303030340000303001
:1058C00030350000303030360000303030370000E6
:1058D0003030303800003030303900003030313076
:1058E00000003030313100003030313200003030D3
:1058F00031330000303031340000303031350000B9
:10590000303031360000303031370000303031383F
:10591000000030303139000030303230000030309B
:10592000323100003030323200003030323300008B
:105930003030323400003030323500003030323612
:105940000000303032370000303032380000303064
:105950003239000030303330000030303331000055
:1059600030303332000030303333000030303334E5
:105970000000303033350000303033360000303036
:10598000333700003030333800002053494D504C3D
:105990004558204D4F444520200020524550454158
:1059A000544552204D4F44452020000020004348DC
:1059B00020550000202020202020202020202020F2
:1059C00000004348205600002020202020202020D6
:1059D00020202020202020004348000020202020DC
:1059E00000005458737562743D00487A20202000EE
:1059F000204543484F4C494E4B200000202020209A
:105A00002020202020202020202020202000204393
:105A100048200000202020202020202020200000DE
:105A200041542B444D4F53455447524F55503D0020
:105A300030002C002046524545205345542000009C
:105A4000537465702031322C35206B487A20202029
:105A500000005374657020313030206B487A20206C
:105A60002000537465702031204D487A202020207A
:105A7000200053746570203130204D487A2020205A
:105A80002020000054585375623D38382E35204888
:105A90007A0054585375623D3132332E30487A00C3
:105AA00054585375623D3020487A00005458206F96
:105AB00066663D004D487A0041542B444D4F534596
:105AC00054564F4C554D453D000041542B444D4FCD
:105AD0005345544D49433D0020504D522063686169
