:100000000C9434000C94170D0C948B0D1895000073
:10001000189500001895000018950000189500002C
:10002000189500001895000018950000189500001C
:10003000189500001895000018950000189500000C
:1000400018950000189500001895000018950000FC
:1000500018950000189500001895000018950000EC
:1000600018950000189500008FEF8DBFC0ECE8E5F3
:100070004E2E88E08EBFD7E0F5E05F2EA89584B7BE
:10008000082E877F84BF88E1992780936000909332
:100090006000EEEFF7E0A0E0B1E088278D933197A4
:1000A000E9F78CE08093C40080E08093C50088E18C
:1000B0008093C10072E07093C000662470910001CB
:1000C0007F7770930001239A3B9A3A9A389A399A2B
:1000D0000E94F11F0E94F11F0E94262081E20E94CF
:1000E00010208EEB0E94102081E080930601249A5C
:1000F0002C9A23987894709100017062709300019B
:10010000AAEBB1E0E0EEFCE40E94DB22A2ECB1E05D
:10011000E4EEFCE40E94DB22AAECB1E0E8EEFCE4B1
:100120000E94DB22A2EDB1E0ECEEFCE40E94DB22B7
:10013000709100017F7E7093000170910001777FC4
:1001400070930001A6EDB1E0E0E8FDE40E949D227D
:10015000ABEDB1E0E0E8FDE40E949D22ECE7F3E0C6
:10016000A0E1B0E00E94BA230A3018F011F00C941C
:10017000BB000C94C400ECE7F3E0A0E1BB2781E0F6
:100180008C937BE70E949E23ECE7F3E0A0EEB1E0C6
:100190000E94BA2380E18093E10181E08093E20133
:1001A00081E08093E30188E08093E401E0E8F3E0FC
:1001B000A0E1B0E00E94BA230A3018F011F00C94CC
:1001C000E3000C94EC00E0E8F3E0A0E1BB2788E05A
:1001D0008C937BE70E949E23E0E8F3E0A5EEB1E07C
:1001E0000E94BA23709100017B7F70930001559AA1
:1001F000569A209A289AAAEEB1E0E0EFFCE40E9419
:10020000DB2200E010E020E030E0A6EEB1E00D934C
:100210001D932D933C9381E08093F001E1E8F3E09E
:10022000A0E1B0E00E94BA230A3018F011F00C945B
:100230001B010C942401E1E8F3E0A0E1BB2781E07D
:100240008C937BE70E949E2381E08093EF01E1E89D
:10025000F3E0AEEEB1E00E94BA23709100017E7F20
:100260007093000180E08093F2018CE00E940A20EC
:10027000ECEEF6E3A1E0B1E0ED93FC9381E0809336
:1002800003018AE080930401882780930501E6E852
:10029000FDE40E94821FE8EAF1E3A1E0B1E0ED9302
:1002A000FC9384E08093030181E08093040188271C
:1002B00080930501E2E9FDE40E94821F8FEA8093AA
:1002C000F3010091F3010E3B18F011F00C947B0147
:1002D00081E20E9410208091F3010E94102088EC9E
:1002E00090E00E94E21FA3EFB1E08C918F5F8C93AE
:1002F00010F40C946101E2E0F0E00E94891F0E947A
:10030000F11F0E94262081E20E9410208EEB0E94A5
:1003100010200E94FE115398529854985C9A5A9A51
:100320005B9A22981A9A7091F101777F7093F1018C
:100330007091F10174607093F1017091F1017D7F12
:100340007093F10124981C9A579A5F9A0E94911118
:1003500081E085BD80E084BD7894809169008C7FC8
:1003600082608093690080916900837F88608093B8
:100370006900E99AE89A0E942620E0EAF0E0A0E10C
:10038000B0E00E94BA230F3F11F00C94CC0185E03D
:100390008093EE010C94CF0181E08093EE01709187
:1003A00068007460709368007CE170936D007091D8
:1003B000680071607093680070916B007061709359
:1003C0006B007091F10170617093F1010E94BF1197
:1003D000E4EFFCE40E949425EAECF1E00E9415248D
:1003E0000E949224EDE0F0E0AEECB1E00E948323A5
:1003F0001C990C94FE015F980C94FF015F9A709118
:1004000000017D7F709300010E945412A3E2B0E0CE
:100410000C9104FB81E00EF080E08F93A0E0B1E04E
:100420008C9182FB81E00EF080E09F9189238823EC
:1004300011F40C942902709100017B7F70930001EC
:1004400084EF91E00E94E21F7091F101706170935E
:10045000F1015498A1EFB1E09C9190FF04C04C9B36
:1004600010C09E7F9C934C990CC089E19F9390E0B3
:100470000E94E21F9F914C9904C091609C930E943E
:10048000E5110091EE01013011F00C94E806709135
:1004900000017F7E70930001A6E0B1E0BA93AA93B9
:1004A0000E941E14229600911D01013011F00C943F
:1004B0005E02709100017F7E7093000100911D012A
:1004C000023011F00C946902709100017061709318
:1004D000000100911D01033011F00C947402709121
:1004E0000001706170930001A0E0B1E08C9184FB89
:1004F00016F00C94F102E7E0F1E00E941524E8EF19
:10050000FCE40E9494250E94FC2318F011F00C9446
:100510008B020C94BF02E7E0F1E0A6EBB1E00E9491
:10052000832300911D01023011F00C94A902ECEF1D
:10053000FCE40E949425E6EBF1E00E9415240E9461
:100540002A25EDE0F0E0A6EBB1E00E9483230C94B5
:10055000BD02033011F00C94BD02ECEFFCE40E94EC
:100560009425E6EBF1E00E9415240E943925EDE088
:10057000F0E0A6EBB1E00E9483230C94F102E7E0E7
:10058000F1E0A6EBB1E00E94832300911D0102304F
:1005900011F00C94DD02E0E0FDE40E949425E6EB0E
:1005A000F1E00E9415240E942A25EDE0F0E0A6EB80
:1005B000B1E00E9483230C94F102033011F00C94FB
:1005C000F102E0E0FDE40E949425E6EBF1E00E94F8
:1005D00015240E943925EDE0F0E0A6EBB1E00E9481
:1005E000832300910B01003011F00C94020380E092
:1005F00080930C01A6EDB1E0E0E8FDE40E949D22AD
:100600000C943A05013011F00C94110383E48093AB
:100610000C01A6EDB1E0E2EAFDE40E949D220C94FB
:100620003A05023011F00C94200388E480930C0109
:10063000A6EDB1E0E8EAFDE40E949D220C943A05A3
:10064000033011F00C942F038AE480930C01A6ED83
:10065000B1E0EEEAFDE40E949D220C943A050430DC
:1006600011F00C943E038DE480930C01A6EDB1E0F3
:10067000E4EBFDE40E949D220C943A05053011F054
:100680000C944D0380E580930C01A6EDB1E0EAEBFC
:10069000FDE40E949D220C943A05063011F00C9462
:1006A0005C0382E580930C01A6EDB1E0E0ECFDE493
:1006B0000E949D220C943A05073011F00C946B03B4
:1006C00085E580930C01A6EDB1E0E6ECFDE40E9427
:1006D0009D220C943A05083011F00C947A0388E5B9
:1006E00080930C01A6EDB1E0ECECFDE40E949D22AC
:1006F0000C943A05093011F00C9489038CE5809331
:100700000C01A6EDB1E0E2EDFDE40E949D220C9407
:100710003A050A3011F00C9498038FE580930C0190
:10072000A6EDB1E0E8EDFDE40E949D220C943A05AF
:100730000B3011F00C94A70381E680930C01A6ED19
:10074000B1E0EEEDFDE40E949D220C943A050C30E0
:1007500011F00C94B60384E680930C01A6EDB1E091
:10076000E4EEFDE40E949D220C943A050D3011F058
:100770000C94C50388E680930C01A6EDB1E0EAEE87
:10078000FDE40E949D220C943A050E3011F00C9469
:10079000D4038BE680930C01A6EDB1E0E0EFFDE41D
:1007A0000E949D220C943A050F3011F00C94E30343
:1007B0008FE680930C01A6EDB1E0E6EFFDE40E9428
:1007C0009D220C943A05003111F00C94F20383E75A
:1007D00080930C01A6EDB1E0ECEFFDE40E949D22B8
:1007E0000C943A05013111F00C94010487E78093D1
:1007F0000C01A6EDB1E0E2E0FEE40E949D220C9423
:100800003A05023111F00C9410048BE780930C012F
:10081000A6EDB1E0E8E0FEE40E949D220C943A05CA
:10082000033111F00C941F048FE780930C01A6EDA7
:10083000B1E0EEE0FEE40E949D220C943A05043102
:1008400011F00C942E0484E880930C01A6EDB1E025
:10085000E4E1FEE40E949D220C943A05053111F07A
:100860000C943D0488E880930C01A6EDB1E0EAE128
:10087000FEE40E949D220C943A05063111F00C947E
:100880004C048DE880930C01A6EDB1E0E0E2FEE4BB
:100890000E949D220C943A05073111F00C945B04E0
:1008A00082E980930C01A6EDB1E0E6E2FEE40E944D
:1008B0009D220C943A05083111F00C946A0487E9E2
:1008C00080930C01A6EDB1E0ECE2FEE40E949D22D3
:1008D0000C943A05093111F00C9479048DE9809358
:1008E0000C01A6EDB1E0E2E3FEE40E949D220C942F
:1008F0003A050A3111F00C94880482EA80930C01C5
:10090000A6EDB1E0E8E3FEE40E949D220C943A05D6
:100910000B3111F00C94970488EA80930C01A6ED3A
:10092000B1E0EEE3FEE40E949D220C943A050C3106
:1009300011F00C94A6048EEA80930C01A6EDB1E0B0
:10094000E4E4FEE40E949D220C943A050D3111F07E
:100950000C94B50484EB80930C01A6EDB1E0EAE4BD
:10096000FEE40E949D220C943A050E3111F00C9485
:10097000C4048AEB80930C01A6EDB1E0E0E5FEE44F
:100980000E949D220C943A050F3111F00C94D3046F
:1009900081EC80930C01A6EDB1E0E6E5FEE40E9457
:1009A0009D220C943A05003211F00C94E2048CEC78
:1009B00080930C01A6EDB1E0ECE5FEE40E949D22DF
:1009C0000C943A05013211F00C94F10483ED8093FC
:1009D0000C01A6EDB1E0E2E6FEE40E949D220C943B
:1009E0003A05023211F00C9400058AED80930C0157
:1009F000A6EDB1E0E8E6FEE40E949D220C943A05E3
:100A0000033211F00C940F0582EE80930C01A6EDD9
:100A1000B1E0EEE6FEE40E949D220C943A05043219
:100A200011F00C941E058AEE80930C01A6EDB1E046
:100A3000E4E7FEE40E949D220C943A05053211F091
:100A40000C942D0582EF80930C01A6EDB1E0EAE74E
:100A5000FEE40E949D220C943A05063211F00C949B
:100A60003A058AEF80930C01A6EDB1E0E0E8FEE4E0
:100A70000E949D221C990C9440055F980C9441059E
:100A80005F9A0E945412A3E2B0E00C9104FB81E053
:100A90000EF080E08F93A0E0B1E08C9182FB81E0CA
:100AA0000EF080E09F918923882311F40C94660551
:100AB000709100017B7F7093000184EF91E00E94B0
:100AC000E21F7091F10170617093F101F894E8EA0E
:100AD000F1E3A1E0B1E0ED93FC93A0E0B1E08C91F3
:100AE00084FB16F40C94830581E08093030185E078
:100AF0008093040181E080930501E6E8FEE40E9412
:100B0000821F0C94900581E08093030181E0809323
:100B1000040181E080930501E6E9FEE40E94821F62
:100B2000ECEEF6E3A1E0B1E0ED93FC9383E080937B
:100B3000030187E080930401882780930501A0E4E6
:100B4000B5E0E7E0F1E0552744E00E94EB200E9489
:100B50007A1FE8EAFEE40E94821FA0E0B1E08C91D7
:100B600084FB16F00C94E9051C9B0C94D00583E0E3
:100B70008093030187E08093040188278093050117
:100B8000A0E4B5E0E7E0F1E0552744E00E94EB2067
:100B90000E947A1FE8EAFEE40E94821F0C94E70597
:100BA00083E08093030187E080930401882780938A
:100BB0000501A0E4B5E0E6EBF1E0552744E00E9432
:100BC000EB200E947A1FE8EAFEE40E94821F0C9448
:100BD000000683E08093030187E080930401882767
:100BE00080930501A0E4B5E0E7E0F1E0552744E09B
:100BF0000E94EB200E947A1FE8EAFEE40E94821F16
:100C00005498A1EFB1E09C9190FF04C04C9B10C0A0
:100C10009E7F9C934C990CC089E19F9390E00E9429
:100C2000E21F9F914C9904C091609C930E94E51132
:100C3000E8EAF1E3A1E0B1E0ED93FC93A0E0B1E0DC
:100C40008C9184FB16F40C947806E7E0F1E00E94A6
:100C50001524E8EFFCE40E9494250E94FC2318F080
:100C600011F00C9435060C94500686E08093030135
:100C700087E080930401882780930501EAEAFEE477
:100C80000E94821FA0E4B5E0EBE1F1E00E94FF22A8
:100C90000E947A1FE0EBFEE40E94821F0C9469061A
:100CA00086E08093030187E0809304018827809386
:100CB0000501EEEBFEE40E94821FA0E4B5E0EBE14B
:100CC000F1E00E94FF220E947A1FE0EBFEE40E9406
:100CD000821F85E08093030187E0809304018827C9
:100CE00080930501E4ECFEE40E94821F0C94B2069E
:100CF00085E08093030187E0809304018827809337
:100D00000501E4EDFEE40E94821FA0E4B5E0ECE002
:100D1000F1E00E9406230E947A1FEEEDFEE40E949D
:100D2000821F86E08093030187E080930401882777
:100D300080930501E4EEFEE40E94821FA0E4B5E08A
:100D4000EBE1F1E00E94FF220E947A1FE8EAFEE454
:100D50000E94821FADE0B1E00E947C1FE8EEFEE43D
:100D60000E94821F7894A1EFB1E08C9184FB16F071
:100D70000C94CD06E7E0F1E0A2EBB1E00E94832302
:100D8000A0E0B1E08C9184FB16F40C94CB060E9499
:100D90005C0C0C94CD060E94A90C0E94701FA1EF60
:100DA000B1E08C9183FB16F00C94DB0673B7707F77
:100DB000756073BF8895A1EFB1E08C9183FB8827A4
:100DC00080F9809580FBA1EFB1E08C9183F98C9341
:100DD0000091EE01023011F00C941608E8EAF1E3FC
:100DE000A1E0B1E0ED93FC9381E08093030185E005
:100DF0008093040181E080930501EEEEFEE40E9401
:100E0000821FE8EEFEE40E94821FE4EFFCE40E94F1
:100E10009425EAEBF1E00E9415240E949224EDE073
:100E2000F0E0AEEBB1E00E948323ECEEF6E3A1E04C
:100E3000B1E0ED93FC9383E08093030187E080931E
:100E40000401882780930501A0E4B5E0EEEBF1E012
:100E5000552744E00E94EB200E947A1FE8EAF1E364
:100E6000A1E0B1E0ED93FC93F89485E08093030159
:100E700087E080930401882780930501EAEFFEE470
:100E80000E94821F86E08093030187E08093040123
:100E9000882780930501ECE0FFE40E94821FA0E414
:100EA000B5E0E2EEF1E00E9406230E947A1FE2E143
:100EB000FFE40E94821F78940091E201013011F05A
:100EC0000C946C07AAEBB1E0E0EEFCE40E94DB229C
:100ED0000C94B0070C94C607023011F00C947A07FA
:100EE000AAEBB1E0E4E0FDE40E94DB220C94B00741
:100EF0000C94C607033011F00C948807AAEBB1E0FC
:100F0000E8E0FDE40E94DB220C94B0070C94C607D5
:100F1000043011F00C949607AAEBB1E0ECE0FDE48C
:100F20000E94DB220C94B0070C94C607053011F028
:100F30000C94A407AAEBB1E0E0E1FDE40E94DB22FF
:100F40000C94B0070C94C607063011F00C94C60739
:100F5000AAEBB1E0E4E1FDE40E94DB220C94B007CF
:100F6000A6EDB1E0E8E0FEE40E949D22E4EFFCE49F
:100F70000E949425EAEBF1E00E9415240E9492243D
:100F8000EDE0F0E0AEEBB1E00E948323A1EFB1E031
:100F90008C9184FB16F00C9416087091F1017F7E01
:100FA0007093F1010E949111ECE1FFE40E94691F2E
:100FB000ECE2FFE40E94691FEEE2FFE40E94691F79
:100FC000A0E4B5E0EEEBF1E0552744E00E94EB2011
:100FD0000E94611FEEE2FFE40E94691FA0E4B5E0F9
:100FE000EEEBF1E0552744E00E94EB200E94611FE8
:100FF000EEE2FFE40E94691FA6EDB1E00E94631FCC
:10100000EEE2FFE40E94691FA0E4B5E0E0EEF1E04B
:101010000E9406230E94611FEEE2FFE40E94691F06
:10102000ABEDB1E00E94631F0E94701F0091EE01C2
:10103000033011F00C9493090E942620E8EAF1E3B2
:10104000A1E0B1E0ED93FC9381E08093030185E0A2
:101050008093040181E080930501E0E3FFE40E94B6
:10106000821F1C990C9437085F980C9438085F9A7B
:101070000E9454125498A1EFB1E09C9190FF04C0DB
:101080004C9B10C09E7F9C934C990CC089E19F9310
:1010900090E00E94E21F9F914C9904C091609C9344
:1010A0000E940912ECEEF6E3A1E0B1E0ED93FC93AF
:1010B00083E08093030187E0809304018827809375
:1010C0000501A0E4B5E0EEECF1E0552744E00E9414
:1010D000EB200E947A1FE8EAF1E3A1E0B1E0ED9392
:1010E000FC930091EF01013011F00C948C08AAEEF2
:1010F000B1E0E0EFFCE40E94DB2286E08093030194
:1011000087E080930401882780930501ECE3FFE4E6
:101110000E94821F0C94D508023011F00C94A5088F
:10112000AAEEB1E0E8E1FDE40E94DB2286E08093D4
:10113000030187E080930401882780930501EEE492
:10114000FFE40E94821F0C94D508033011F00C9428
:10115000BE08AAEEB1E0E4EFFCE40E94DB2286E0E8
:101160008093030187E08093040188278093050121
:10117000EEE5FFE40E94821F0C94D508043011F0C4
:101180000C94D508AAEEB1E0ECE1FDE40E94DB226C
:1011900086E08093030187E0809304018827809391
:1011A0000501EEE6FFE40E94821FA1EFB1E08C9101
:1011B00084FB16F00C944F097091F1017F7E7093BF
:1011C000F101ECE1FFE40E94691FECE2FFE40E9400
:1011D000691FEEE2FFE40E94691FA0E4B5E0EEECB7
:1011E000F1E0552744E00E94EB200E94611FEEE2EF
:1011F000FFE40E94691FA0E4B5E0EEECF1E05527A2
:1012000044E00E94EB200E94611FEEE2FFE40E9496
:10121000691FA6EDB1E00E94631FEEE2FFE40E94A9
:10122000691FA0E4B5E0E0EEF1E00E9406230E9411
:10123000611FEEE2FFE40E94691FABEDB1E00E9486
:10124000631F0E94701FE0E8FFE40E94691FA0E492
:10125000B5E0E5EEF1E00E9406230E94611F0E94C6
:10126000701FE2E9FFE40E94691FA0E4B5E0E4EE2C
:10127000F1E00E9406230E94611FEEE2FFE40E945B
:10128000691FECE2FFE40E94691FEEE2FFE40E94A6
:10129000691FECE2FFE40E94691F0E94701F0E9418
:1012A00054120E94701FA1EFB1E08C9183FB16F0E5
:1012B0000C945F0973B7707F756073BF8895A1EF59
:1012C000B1E08C9183FB882780F9809580FBA1EFAA
:1012D000B1E08C9183F98C93A0E0B1E08C9183FB19
:1012E00016F00C9431080E9491110E9426207091F2
:1012F0000001777F70930001AAEEB1E0E0EFFCE41B
:101300000E94DB2284E08093EE0181E08093F00173
:10131000A6EDB1E0E0E8FDE40E949D227091F101AC
:1013200070617093F1010091EE01043011F00C94A2
:10133000360B0091E301013011F00C94A909A2ECE5
:10134000B1E0E4EEFCE40E94DB220C94790A0C94F8
:10135000890A023011F00C94B709A2ECB1E0E0E286
:10136000FDE40E94DB220C94790A0C94890A033074
:1013700011F00C94C509A2ECB1E0E4E2FDE40E9496
:10138000DB220C94790A0C94890A043011F00C9435
:10139000D309A2ECB1E0E8E2FDE40E94DB220C9468
:1013A000790A0C94890A053011F00C94E109A2EC39
:1013B000B1E0ECE2FDE40E94DB220C94790A0C948B
:1013C000890A063011F00C94EF09A2ECB1E0E0E3D9
:1013D000FDE40E94DB220C94790A0C94890A073000
:1013E00011F00C94FD09A2ECB1E0E4E3FDE40E94ED
:1013F000DB220C94790A0C94890A083011F00C94C1
:101400000B0AA2ECB1E0E8E3FDE40E94DB220C94BD
:10141000790A0C94890A093011F00C94190AA2EC8B
:10142000B1E0ECE3FDE40E94DB220C94790A0C9419
:10143000890A0A3011F00C94270AA2ECB1E0E0E42A
:10144000FDE40E94DB220C94790A0C94890A0B308B
:1014500011F00C94350AA2ECB1E0E4E4FDE40E9442
:10146000DB220C94790A0C94890A0C3011F00C944C
:10147000430AA2ECB1E0E8E4FDE40E94DB220C9414
:10148000790A0C94890A0D3011F00C94510AA2ECDF
:10149000B1E0ECE4FDE40E94DB220C94790A0C94A8
:1014A000890A0E3011F00C945F0AA2ECB1E0E0E57D
:1014B000FDE40E94DB220C94790A0C94890A0F3017
:1014C00011F00C946D0AA2ECB1E0E4E5FDE40E9499
:1014D000DB220C94790A0C94890A003111F00C94E7
:1014E000890AA2ECB1E0E8E5FDE40E94DB220C945D
:1014F000790AE4EFFCE40E949425E2ECF1E00E941A
:1015000015240E949224EDE0F0E0A6ECB1E00E94E8
:101510008323E8EAF1E3A1E0B1E0ED93FC9381E0FD
:101520008093030185E08093040181E080930501AD
:10153000E0EAFFE40E94821FE4EFFCE40E949425AD
:10154000E2ECF1E00E9415240E949224EDE0F0E02C
:10155000A6ECB1E00E948323ECEEF6E3A1E0B1E05B
:10156000ED93FC9383E08093030187E08093040173
:10157000882780930501A0E4B5E0E6ECF1E055276B
:1015800044E00E94EB200E947A1FE8EAF1E3A1E028
:10159000B1E0ED93FC93F89486E08093030187E03B
:1015A00080930401882780930501EEEAFFE40E94FE
:1015B000821FA0E4B5E0E3EEF1E00E9406230E9462
:1015C0007A1FE8EAFEE40E94821F7894A1EFB1E05E
:1015D0008C9184FB16F00C94360B7091F1017F7E98
:1015E0007093F1010E949111ECE1FFE40E94691FE8
:1015F000ECE2FFE40E94691FEEE2FFE40E94691F33
:10160000A0E4B5E0E6ECF1E0552744E00E94EB20D1
:101610000E94611FEEE2FFE40E94691FA0E4B5E0B2
:10162000E6ECF1E0552744E00E94EB200E94611FA8
:10163000EEE2FFE40E94691FA6EDB1E00E94631F85
:10164000EEE2FFE40E94691FA0E4B5E0E0EEF1E005
:101650000E9406230E94611FEEE2FFE40E94691FC0
:10166000ABEDB1E00E94631F0E94701F0091EE017C
:10167000053011F00C94250C81E08093F0010E945C
:1016800026200E94541281E08093030185E080931C
:10169000040181E080930501E2EBFFE40E94821FD8
:1016A0005498A1EFB1E09C9190FF04C04C9B10C0F6
:1016B0009E7F9C934C990CC089E19F9390E00E947F
:1016C000E21F9F914C9904C091609C930E94A410CA
:1016D0000091F001013011F00C949A0B83E080939B
:1016E000030188E080930401882780930501ECEBD7
:1016F000FFE40E94821FA0E4B5E0E0EEF1E00E946A
:1017000006230E947A1FE6ECFFE40E94821F85E018
:101710008093030188E0809304018827809305016A
:10172000EEECFFE40E94821FECEDFFE40E94821FBA
:101730000C94150C023011F00C94B90B83E08093DB
:10174000030188E080930401882780930501E0EE7F
:10175000FFE40E94821FA0E4B5E0E5EEF1E00E9404
:1017600006230E947A1FE6ECFFE40E94821F0C947D
:10177000150C033011F00C94D80B83E08093030117
:1017800088E080930401882780930501EAEEFFE456
:101790000E94821FA0E4B5E0E4EEF1E00E9406237F
:1017A0000E947A1FE6ECFFE40E94821F0C94150C45
:1017B000043011F00C94000C83E08093030188E066
:1017C00080930401882780930501E8EFFFE40E94DD
:1017D000821FE6ECFFE40E94821F85E080930301F4
:1017E00088E080930401882780930501EEECFFE4F4
:1017F0000E94821FECEDFFE40E94821F0C94150CE6
:10180000053011F00C94150C83E08093030188E0FF
:1018100080930401882780930501E6E0F0E50E94AB
:10182000821FE8EEFEE40E94821F0091EE0101306B
:1018300011F00C94410B0E94262081E08093EE0170
:101840007091F101777F7093F1015498A1EFB1E0AD
:101850009C9190FF04C04C9B10C09E7F9C934C9920
:101860000CC089E19F9390E00E94E21F9F914C99E8
:1018700004C091609C930E94E5110E94701FA1EF2B
:10188000B1E08C9183FB16F00C944B0C73B7707F16
:10189000756073BF8895A1EFB1E08C9183FB8827B9
:1018A00080F9809580FBA1EFB1E08C9183F98C9356
:1018B0000C94F801F894FFCF7091F1017F7E709342
:1018C000F1017091F10178607093F101ECE1FFE4B6
:1018D0000E94691FECE2FFE40E94691FEEE2FFE450
:1018E0000E94691FA0E4B5E0E2EBF1E0552744E077
:1018F0000E94EB200E94611FEEE2FFE40E94691F3C
:10190000A0E4B5E0E2EBF1E0552744E00E94EB20D3
:101910000E94611FEEE2FFE40E94691FA6EDB1E0A4
:101920000E94631FEEE2FFE40E94691FA0E4B5E09D
:10193000E0EEF1E00E9406230E94611FEEE2FFE468
:101940000E94691FABEDB1E00E94631F0E94701FEF
:1019500008957091F10178607093F1017091F10137
:101960007F7E7093F101ECE1FFE40E94691FECE2DD
:10197000FFE40E94691FEEE2FFE40E94691FA0E4F9
:10198000B5E0E6EBF1E0552744E00E94EB200E9431
:10199000611FEEE2FFE40E94691FA0E4B5E0E7E00A
:1019A000F1E0552744E00E94EB200E94611FEEE227
:1019B000FFE40E94691FA6EDB1E00E94631FEEE202
:1019C000FFE40E94691FA0E4B5E0E0EEF1E00E94B0
:1019D00006230E94611FEEE2FFE40E94691FABED47
:1019E000B1E00E94631F0E94701F0895F894A7EF52
:1019F000B1E0E8944C9109B1882703FD816002FDB4
:101A00008260841711F4B6F310C08C934295840F52
:101A1000823049F0803139F0833229F0813319F076
:101A20000E94FF0D02C00E945D0F789408950F92EE
:101A30001F922F923F924F925F927F92AF92BF92EE
:101A40000F931F932F933F934F935F936F937F93C6
:101A50008F939F93AF93BF93CF93DF93EF93FF93B6
:101A60008FB78F93F894A9E2B0E00C9102FB81E06C
:101A70000EF080E08F93A9E2B0E00C9103FB81E0CF
:101A80000EF480E09F918923882311F40C944F0D6C
:101A90007091F10170687093F1010E94FF0DA9E24D
:101AA000B0E00C9102FB81E00EF480E08F93A9E29C
:101AB000B0E00C9103FB81E00EF080E09F91892360
:101AC000882311F40C946B0D7091F1017068709380
:101AD000F1010E94FF0D789480E08093F6018F91D0
:101AE0008FBFFF91EF91DF91CF91BF91AF919F9108
:101AF0008F917F916F915F914F913F912F911F91A6
:101B00000F91BF90AF907F905F904F903F902F903C
:101B10001F900F9018950F921F922F923F924F9205
:101B20005F927F92AF92BF920F931F932F933F9339
:101B30004F935F936F937F938F939F93AF93BF93D5
:101B4000CF93DF93EF93FF938FB78F93F894A9E22E
:101B5000B0E00C9103FB81E00EF080E08F93A9E2EE
:101B6000B0E00C9102FB81E00EF480E09F918923AC
:101B7000882311F40C94C30D7091F1017068709377
:101B8000F1010E945D0FA9E2B0E00C9103FB81E03E
:101B90000EF480E08F93A9E2B0E00C9102FB81E0AB
:101BA0000EF080E09F918923882311F40C94DF0DBF
:101BB0007091F10170687093F1010E945D0F78944B
:101BC00080E08093F6018F918FBFFF91EF91DF91BD
:101BD000CF91BF91AF919F918F917F916F915F91C5
:101BE0004F913F912F911F910F91BF90AF907F9098
:101BF0005F904F903F902F901F900F901895A1EFFE
:101C0000B1E08C9187FB16F00C94570F7091F101A5
:101C10007F777093F101A1EFB1E08C9185FB88276C
:101C200080F9809580FBA1EFB1E08C9185F98C93D0
:101C3000A0E0B1E08C9181FB16F40C943B0E8091F6
:101C4000F00181508093F0010091F001003081E0BB
:101C500009F080E08F930091F0010F3F81E010F0D8
:101C600009F080E09F918923882311F40C943B0EA6
:101C700085E08093F0010E9426180091EE0101306A
:101C800011F00C94540E809106018150809306014E
:101C900000910601003011F00C94520E80911E014B
:101CA000809306010C94FD0E023011F00C948D0E01
:101CB0008091E20181508093E2010091E2010030C5
:101CC00081E010F009F080E08F930091E2010A308A
:101CD00080E010F009F081E09F91892B882311F4B6
:101CE0000C947B0E86E08093E201AAEBB1E0E4E184
:101CF000FDE40E94DB22E4EFFCE40E949425EAEB81
:101D0000F1E00E9415240E949224EDE0F0E0AEEB99
:101D1000B1E00E9483230C94FD0E033011F00C946B
:101D2000C60EEAEEF1E00E941A24EAECF1E00E940D
:101D300015240E942A25EDE0F0E0AAECB1E00E9413
:101D40008323EAECF1E00E941524ECE5FDE40E9417
:101D500094250E94FC2310F00C94B40EAAECB1E080
:101D6000ECE5FDE40E94DB22E4EFFCE40E94942514
:101D7000EAECF1E00E9415240E949224EDE0F0E0EC
:101D8000AEECB1E00E9483230C94FD0E043011F000
:101D90000C94FD0E8091E30181508093E30100914A
:101DA000E301003081E010F009F080E08F930091B2
:101DB000E301013180E010F009F081E09F91892B6F
:101DC000882311F40C94ED0E80E18093E301A2ECE2
:101DD000B1E0E8E5FDE40E94DB22E4EFFCE40E94D0
:101DE0009425E2ECF1E00E9415240E949224EDE09B
:101DF000F0E0A6ECB1E00E948323A0E0B1E08C917A
:101E000081FB16F00C94570F0091F001013011F096
:101E10000C94290F8091E00181508093E0010091A2
:101E2000E0010F3F81E010F009F080E08F93009116
:101E3000E0010A3080E010F009F081E09F918923F1
:101E4000882311F40C94270F80E08093E0010C9418
:101E5000570F023011F00C943D0F8091E501815035
:101E60008093E5010091E5010F3F11F00C943B0FC9
:101E700080E08093E5010C94570F033011F00C942F
:101E8000510F8091E40181508093E4010091E401BD
:101E90000F3F11F00C944F0F80E08093E4010C94FD
:101EA000570F043011F00C94570F0E946312709179
:101EB000F10170617093F1010895A1EFB1E08C918F
:101EC00087FB16F00C949E107091F1017F77709350
:101ED000F101A1EFB1E08C9186FB882780F9809514
:101EE00080FBA1EFB1E08C9186F98C93A0E0B1E08A
:101EF0008C9181FB16F40C94980FA0EFB1E08C91BB
:101F00008F5F8C930091F001063081E008F480E04F
:101F10008F930091F0010A3081E008F080E09F91FA
:101F20008923882311F40C94980F81E08093F001A9
:101F30000E9426180091EE01013011F00C94B50FAB
:101F4000A6E0B1E08C918F5F8C9340911E010091CF
:101F50000601041718F011F00C94B00F0C94B30F95
:101F600081E0809306010C944310023011F00C9430
:101F7000DF0FA2EEB1E08C918F5F8C930091E201B4
:101F8000073010F40C94CD0F81E08093E201AAEBAE
:101F9000B1E0E0EEFCE40E94DB22E4EFFCE40E940E
:101FA0009425EAEBF1E00E9415240E949224EDE0D2
:101FB000F0E0AEEBB1E00E9483230C9443100330B9
:101FC00011F00C941B10EAEEF1E00E941A24EAECE6
:101FD000F1E00E9415240E943925EDE0F0E0AAEC22
:101FE000B1E00E948323EAECF1E00E941524E0E6D0
:101FF000FDE40E9494250E94FC2318F011F00C943B
:1020000003100C940910AAECB1E0E0E6FDE40E9494
:10201000DB22E4EFFCE40E949425EAECF1E00E946C
:1020200015240E949224EDE0F0E0AEECB1E00E94B5
:1020300083230C944310043011F00C944310A3EE4E
:10204000B1E08C918F5F8C930091E301013110F42A
:102050000C94331081E08093E301A2ECB1E0E4EE54
:10206000FCE40E94DB22E4EFFCE40E949425E2EC15
:10207000F1E00E9415240E949224EDE0F0E0A6EC2D
:10208000B1E00E948323A0E0B1E08C9181FB16F0C7
:102090000C949E100091F001013011F00C946D1021
:1020A000A0EEB1E08C918F5F8C930091E00109303C
:1020B00081E008F480E08F930091E0010B3081E033
:1020C00008F080E09F918923882311F40C946B1011
:1020D00088E08093E0010C949E10023011F00C9483
:1020E0008110A5EEB1E08C918F5F8C930091E5019A
:1020F000093011F00C947F1088E08093E5010C9476
:102100009E10033011F00C949810A4EEB1E08C9165
:102110008F5F8C930091E401083018F011F00C945B
:1021200093100C94961088E08093E4010C949E1018
:10213000043011F00C949E100E9463127091F10112
:1021400070617093F1010895709100017260709355
:1021500000010E94FE110091F001013011F00C9479
:10216000D310ECE7F3E0A0EEB1E07BE70E949E2302
:1021700083E08093030188E08093040188278093A3
:102180000501ECEBFFE40E94821FA0E4B5E0E0EE65
:10219000F1E00E9406230E947A1FE6ECFFE40E9411
:1021A000821F0C945711023011F00C94F910E0E8E2
:1021B000F3E0A5EEB1E07BE70E949E2383E08093ED
:1021C000030188E080930401882780930501E0EEF5
:1021D000FFE40E94821FA0E4B5E0E5EEF1E00E947A
:1021E00006230E947A1FE6ECFFE40E94821F0C94F3
:1021F0005711033011F00C94181183E08093030100
:1022000088E080930401882780930501EAEEFFE4CB
:102210000E94821FA0E4B5E0E4EEF1E00E940623F4
:102220000E947A1FE6ECFFE40E94821F0C94571173
:10223000043011F00C94421185E08093030188E092
:1022400080930401882780930501E4E1F0E50E9472
:10225000821FECEDFFE40E94821F86E08093030161
:1022600088E080930401882780930501E0E2F0E58F
:102270000E94821FECEDFFE40E94821F0E94631205
:102280000C945711053011F00C94571183E0809392
:10229000030188E080930401882780930501EEE222
:1022A000F0E50E94821F0E9491110C9473114C99C9
:1022B0000C946C118CE291E00E94E21F4C990C94FA
:1022C0006C11709100017D7F709300010E94FE11DE
:1022D0000E94FE110C947311A0E0B1E08C9181FB7F
:1022E00016F40C94AB100E9426200E945C0C84E62D
:1022F00090E00E94E21FE0E8FFE40E94691FA0E472
:10230000B5E0E5EEF1E00E9406230E94611F0E9405
:10231000701F82E390E00E94E21F81E08093EE0153
:102320000895E0E7F3E0AAEBB1E094E07BE70E94D8
:10233000A123E4E7F3E0A2ECB1E094E07BE70E94A4
:10234000A123E8E7F3E0AAECB1E094E07BE70E9488
:10235000A123EDE7F3E0A1EEB1E07BE70E949E232D
:10236000EEE7F3E0A2EEB1E07BE70E949E23EFE709
:10237000F3E0A3EEB1E07BE70E949E230895089569
:10238000A7E0B1E0E4E6FDE40E94DB22AAEBB1E0C5
:10239000E0EEFCE40E94DB22A2ECB1E0E4EEFCE41F
:1023A0000E94DB22AAECB1E0E8EEFCE40E94DB2212
:1023B000A2EDB1E0ECEEFCE40E94DB2281E0809330
:1023C000E20181E08093E30108950E94FE11AEEEE8
:1023D000B1E08C918F5F8C930091EE01063011F08B
:1023E0000C94F51181E08093EE017091F101706120
:1023F0007093F10180E08093F6010895289882E3BC
:1024000090E00E94E21F289A82E390E00E94E21F7F
:1024100008957091F10170617093F101A1EFB1E045
:102420008C9181FB882780F9809580FBA1EFB1E03A
:102430008C9181F98C930E94FE11A0E0B1E08C9107
:1024400084FB882780F9809580FBA0E0B1E08C9127
:1024500084F98C93AFEEB1E08C918F5F8C930091F7
:10246000EF01063010F40C94381281E08093EF01F4
:102470004C990C9450128CE291E00E94E21F4C990E
:102480000C945012709100017D7F709300010E94A6
:10249000FE110E94FE11709100017860709300019E
:1024A00080E08093F60108951C990C94601270915D
:1024B00000017460709300015D9A5E980C94621242
:1024C0005E9A5D98089570910001777F7093000186
:1024D0008CE291E00E94E21F2398249A0E94CF1F71
:1024E000A7E8B1E08C9300918701003018F011F05B
:1024F0000C947C120C94AB12A1EBB1E08C918F5F29
:102500008C9380918701A1EBB1E0AD90BB24A7E84B
:10251000B1E0AA0DBB1D8C93009187010A3011F028
:102520000C949A127091000170647093000180E025
:102530008093B1010091B101083218F011F00C94B0
:10254000A3120C94AB1280E08093B1017091000152
:102550007F7B70930001A0E0B1E08C9186FB16F0C8
:102560000C94C212709100017F7B7093000180E097
:102570008093B101E8E8F1E0AFE1B1E00E947E2391
:102580000E94F1124C990C94DA128CE291E00E94B4
:10259000E21F4C990C94DA12709100017D7F7093C8
:1025A00000010E94FE110E94FE11709100017860EE
:1025B00070930001A0E0B1E08C9183FB16F00C94C5
:1025C0006E1270910001777F7093000185E0809317
:1025D000F00181E090E0A5E8B1E08D939C93249810
:1025E000089584E30E948D22EFE1F1E003E0A881E9
:1025F000B9810E949023A881B981ECE3F0E50E94A3
:10260000DA230FB684E3481A80E0580A22960FBEF8
:1026100011F00C9415130E94AA13AFE1B1E08827C2
:102620008C93A2E5B1E088278C9384E30E948D22ED
:10263000EFE1F1E003E0A881B9810E949023A88135
:10264000B981E0E4F0E50E94DA230FB684E3481A8A
:1026500080E0580A22960FBE11F00C944E1384E0CD
:10266000EFE1F1E002E00A93A2E5B1E00E948923E4
:10267000A2E5B1E00E944C23AEE1B1E00C93AEE1E3
:10268000B1E0BA93AA930E94B8172296AFE1B1E0E5
:1026900088278C93A2E5B1E088278C9384E30E947D
:1026A0008D22EFE1F1E003E0A881B9810E9490233F
:1026B000A881B981E4E4F0E50E94DA230FB684E34F
:1026C000481A80E0580A22960FBE11F00C9472133B
:1026D0000E942618AFE1B1E088278C93A2E5B1E013
:1026E00088278C9384E30E948D22EFE1F1E003E0E0
:1026F000A881B9810E949023A881B981E8E4F0E51E
:102700000E94DA230FB684E3481A80E0580A229622
:102710000FBE11F00C9496130E946714AFE1B1E064
:1027200088278C93A2E5B1E088278C93AFE1B1E0D4
:10273000ECE4F0E50E94DA2311F00C94A9130E9456
:102740006916AFE1B1E088278C93A2E5B1E0882754
:102750008C93089581E080931E0100911E01083240
:1027600018F011F00C941714E8E6FDE40E94872598
:10277000EEE1F1E0A190BB24ECEFFFEFAA0CBB1C53
:10278000AA0CBB1CEA0DFB1DADE0BB2794E07BE768
:102790000E94A123EEE1F1E0A190BB24EFE9F0E07B
:1027A000EA0DFB1DA0E1BB2780E08C937BE70E9434
:1027B0009E23A42DB52DE0E5F0E50E949D22EEE1DB
:1027C000F1E0019111274EE050E00E949322EAEBE4
:1027D000F0E0E00FF11FD2017BE70E94AF23EEE1B2
:1027E000F1E0A190BB24E6EFF2E0AA0CBB1CEA0DDD
:1027F000FB1D00E010E0A0E1BB277BE70E94A023C7
:10280000EEE1F1E0A190BB24E7E4F3E0EA0DFB1D6B
:10281000A0E1BB2780E08C937BE70E949E23AEE182
:10282000B1E08C918F5F8C9310F40C94AD13E6E5BE
:10283000F0E50E94B31F0E94BA1F0895A7E0B1E01F
:10284000E881F981A190BB24ECEFFFEFAA0CBB1C3F
:10285000AA0CBB1CEA0DFB1D94E00E94BD23E8817D
:10286000F981A190BB24EFE9F0E0EA0DFB1DABE09C
:10287000B1E00E94BA23E881F981019111274EE06D
:1028800050E00E949322EAEBF0E0E00FF11FADE090
:10289000B1E09DE00E94C423E881F981A190BB24AE
:1028A000E6EFF2E0AA0CBB1CEA0DFB1DABE1B1E0C8
:1028B0000E94BC23E881F981A190BB24E7E4F3E006
:1028C000EA0DFB1DADE1B1E00E94BA23089581E05D
:1028D0000E948D2281E00E948D2281E00E948D2243
:1028E00081E00E948D2281E00E948D2281E00E9481
:1028F0008D2281E00E948D2281E00E948D2281E064
:102900000E948D2281E00E948D228EE00E948D2205
:1029100082E00E948D2281E00E948D2284E00E944C
:102920008D22AFE1B1E0EEE6F0E52FEF91E00E94FD
:10293000A822AC89BD890C93AC89BD890C9141E07A
:10294000040FAE89BF890C93AE89BF899C919A937D
:10295000AFE1B1E0EEE6F0E52FEF0E94A322AA89F5
:10296000BB890C93AA89BB890C9141E0040FAE8905
:10297000BF890C93AE89BF899C919A93AFE1B1E076
:10298000EEE6F0E52FEF0E94A322A889B9890C9307
:10299000A889B9890C9141E0040FAE89BF890C93D5
:1029A000AE89BF899C919A93AFE1B1E0EEE6F0E584
:1029B0002FEF0E94A322AE85BF850C93AE85BF8505
:1029C0000C9141E0040FAE89BF890C93AE89BF8999
:1029D0009C919A93AFE1B1E0EEE6F0E52FEF0E9413
:1029E000A322AC85BD850C93AC85BD850C9141E0DF
:1029F000040FAE89BF890C93AE89BF899C919A93CD
:102A0000AFE1B1E0EEE6F0E52FEF0E94A322AA8548
:102A1000BB850C93AA85BB850C9141E0040FAE8960
:102A2000BF890C93AE89BF899C919A93AFE1B1E0C5
:102A3000EEE6F0E52FEF0E94A322A885B9850C935E
:102A4000AC89BD890C9141E0040FAE89BF890C931C
:102A5000AA89BB890C91AE89BF894C91041BA88DB2
:102A6000B98D0C93AE89BF898C91EFE1F1E0A88D0F
:102A7000B98D0C910A93AF81B8850E948923AE81EC
:102A8000BF810E944C23AA8DBB8D0C93AA89BB8960
:102A90000C9141E0040FAE89BF890C93A889B989D4
:102AA0000C91AE89BF894C91041BA88DB98D0C93F4
:102AB000AE89BF898C91EFE1F1E0A88DB98D0C91C1
:102AC0000A93AF81B8850E948923AE81BF810E949D
:102AD000A125EDE0F0E0A881B9810E948323E4EF15
:102AE000FCE40E949425E881F9810E9415240E944B
:102AF0009224EDE0F0E0A881B9810E948323EA8D61
:102B0000FB8DA190BB24ECEFFFEFAA0CBB1CAA0C21
:102B1000BB1CEA0DFB1DA881B98194E07BE70E94F4
:102B2000A123A889B9890C9141E0040FAE89BF891E
:102B30000C93AE85BF850C91AE89BF894C91041B67
:102B4000A88DB98D0C93AE89BF898C91EFE1F1E02E
:102B5000A88DB98D0C910A93AF81B8850E94892305
:102B6000AE81BF810E944C23AA81BB810C93EA8D68
:102B7000FB8DA190BB24EFE9F0E0EA0DFB1DAA81DB
:102B8000BB817BE70E949E23AE85BF850C9141E00F
:102B9000040FAE89BF890C93AC85BD850C91AE89BD
:102BA000BF894C91041BA88DB98D0C93AE89BF8948
:102BB0008C91EFE1F1E0A88DB98D0C910A93AF8172
:102BC000B8850E948923EA8DFB8D019111274EE083
:102BD00050E00E949322EAEBF0E0E00FF11FAE819B
:102BE000BF817BE70E94AF23AC85BD850C9141E09E
:102BF000040FAE89BF890C93AA85BB850C91AE8961
:102C0000BF894C91041BA88DB98D0C93AE89BF89E7
:102C10008C91EFE1F1E0A88DB98D0C910A93AF8111
:102C2000B8850E948923AE81BF810E944C23AC816C
:102C3000BD810D931C93EA8DFB8DA190BB24E6EF23
:102C4000F2E0AA0CBB1CEA0DFB1DAC81BD817BE749
:102C50000E94A023AA85BB850C9141E0040FAE8998
:102C6000BF890C93A885B9850C91AE89BF894C9119
:102C7000041BA88DB98D0C93AE89BF898C91EFE1AF
:102C8000F1E0A88DB98D0C910A93AF81B8850E94AF
:102C90008923AE81BF810E944C23AA81BB810C9302
:102CA000EA8DFB8DA190BB24E7E4F3E0EA0DFB1D68
:102CB000AA81BB817BE70E949E23E0E7F0E50E94AA
:102CC000B31F0E94BA1F8FE1481A80E0580A6C9621
:102CD0000895ECE6FDE40E948725E0E0F0E0ADE039
:102CE000BB2794E07BE70E94A123E0EAF0E0A0E1AB
:102CF000BB2782E18C937BE70E949E23A42DB52DF8
:102D0000E8E7F0E50E949D22E8ECF0E0D2017BE7E5
:102D10000E94AF23E8EFF2E001E911E0A0E1BB2758
:102D20007BE70E94A023E8E4F3E0A0E1BB2781E079
:102D30008C937BE70E949E23E0E7FDE40E948725B9
:102D4000E4E0F0E0ADE0BB2794E07BE70E94A12344
:102D5000E1EAF0E0A0E1BB2783E18C937BE70E94EE
:102D60009E23A42DB52DE2E8F0E50E949D22E6ED1C
:102D7000F0E0D2017BE70E94AF23EAEFF2E002E944
:102D800011E0A0E1BB277BE70E94A023E9E4F3E088
:102D9000A0E1BB2782E08C937BE70E949E23E4E7BF
:102DA000FDE40E948725E8E0F0E0ADE0BB2794E079
:102DB0007BE70E94A123E2EAF0E0A0E1BB2784E1E7
:102DC0008C937BE70E949E23A42DB52DECE8F0E5C3
:102DD0000E949D22E4EEF0E0D2017BE70E94AF2347
:102DE000ECEFF2E003E911E0A0E1BB277BE70E94F2
:102DF000A023EAE4F3E0A0E1BB2783E08C937BE728
:102E00000E949E23E8E7FDE40E948725ECE0F0E0C5
:102E1000ADE0BB2794E07BE70E94A123E3EAF0E06A
:102E2000A0E1BB2785E18C937BE70E949E23A42D24
:102E3000B52DE6E9F0E50E949D22E2EFF0E0D20137
:102E40007BE70E94AF23EEEFF2E004E911E0A0E19E
:102E5000BB277BE70E94A023EBE4F3E0A0E1BB27C4
:102E600084E08C937BE70E949E23ECE7FDE40E94C4
:102E70008725E0E1F0E0ADE0BB2794E07BE70E942E
:102E8000A123E4EAF0E0A0E1BB2786E18C937BE795
:102E90000E949E23A42DB52DE0EAF0E50E949D221C
:102EA000E0E0F1E0D2017BE70E94AF23E0E0F3E055
:102EB00005E911E0A0E1BB277BE70E94A023ECE439
:102EC000F3E0A0E1BB2785E08C937BE70E949E2383
:102ED000EAEAF0E50E94B31F0E94BA1F0895E0ECF1
:102EE000F0E50E94B31FECE2FFE40E94B31FEEE6A0
:102EF000F0E50E94B31FA0E4B5E0E7E0F1E055275C
:102F000044E00E94EB200E94BE1FEEE6F0E50E9426
:102F1000B31FA0E4B5E0EBE0F1E00E9406230E94BD
:102F2000BE1FEEE6F0E50E94B31FADE0B1E00E94E7
:102F3000C01FEEE6F0E50E94B31FA0E4B5E0EBE1B0
:102F4000F1E00E94FF220E94BE1FEEE6F0E50E9423
:102F5000B31FA0E4B5E0EDE1F1E00E9406230E947A
:102F6000BE1FE6ECF0E50E94B31F0E94BA1F089551
:102F700084E00E948D22AA81BB81BA93AA930E9409
:102F80001E142296E4EFFCE40E949425E7E0F1E0B1
:102F90000E9415240E94EB24EDE0F0E00E9425241D
:102FA000A881B981EDE0FF270E948323E0ECF0E5E2
:102FB0000E94B31FA0E4B5E0EA81FB810E940623D2
:102FC0000E94BE1FEEE6F0E50E94B31FA0E4B5E04C
:102FD000E881F9810E94F9220E94BE1FEEE6F0E529
:102FE0000E94B31FA0E4B5E0EBE0F1E00E940623ED
:102FF0000E94BE1FEEE6F0E50E94B31FADE0B1E017
:103000000E94C01FEEE6F0E50E94B31FA0E4B5E009
:10301000EBE1F1E00E94FF220E94BE1FEEE6F0E528
:103020000E94B31FA0E4B5E0EDE1F1E00E940623A9
:103030000E94BE1FE6ECF0E50E94B31F0E94BA1F7B
:1030400084E0481A80E0580A2296089584E00E949D
:103050008D2281E080931E0100911E01083218F03C
:1030600011F00C945B18A881B981EEE1F1E0A19018
:10307000BB24ECEFFFEFAA0CBB1CAA0CBB1CEA0D97
:10308000FB1D94E00E94BD23E881F9810E94152474
:10309000E8E6FDE40E9494250E94FC2311F00C94C4
:1030A00053180C945B18AEE1B1E08C918F5F8C9358
:1030B00010F40C942C18AEE1B1E08C9181508C93FB
:1030C000ECECF0E50E94B31FA0E4B5E0EEE1F1E026
:1030D0000E9406230E94BE1F0E94BA1F84E0481A65
:1030E00080E0580A22960895A4EFB1E00E94381FAC
:1030F000A4EFB1E00D911C9102345FE0150718F0C8
:1031000011F00C9485180C94901880E090E0A4EFD6
:10311000B1E08D939C93A6EFB1E08C918F5F8C937F
:103120000091F601033018F011F00C9499180C94EA
:103130009C1884E08093F60108950E94FE1184E0BB
:103140008093F60108953054008040201008AA02B0
:103150000804AA020402AA3C0204AA010408AA0361
:10316000083040C000AA0300FF00AA4D00FF00AADB
:103170000300FF00AA4D00FF00AA0300FF00AA4DB4
:1031800000FF00AA0300FF00AA4D00FF00AA0300F1
:103190000304081020AA032040AA3F4020AA0320CD
:1031A0001008040300AA0200010606000000000047
:1031B000000000005F000000000300030000147F17
:1031C000147F1400042A7F2A10002313086462006D
:1031D000364956205000000300000000001C224128
:1031E000000041221C0000002A1C7F1C2A00080845
:1031F0003E08080000407030000008080808080079
:103200000000606000006010080403003E51494562
:103210003E0000427F400000625149494600224181
:1032200049493600181412117F00274545453900D9
:103230003E454545390001611109070036494949B4
:1032400036000E5151513E0000003636000000405D
:103250007636000000081422000014141414140020
:103260000022140800000201510906003E4955558C
:103270000E007C1211127C007F49494936003E4104
:10328000414122007F4141221C007F4949494100C0
:103290007F09090901003E41415172007F08080879
:1032A0007F0000417F4100002040413F01007F0836
:1032B000142241007F40404060007F020C027F00EA
:1032C0007F0204087F003E4141413E007F11111101
:1032D0000E003E4151617E007F09192946002649B2
:1032E0004949320001017F0101003F4040403F0059
:1032F0001F2040201F003F4038403F006314081447
:103300006300070870080700615149454300000049
:103310007F41410003040810600041417F0000002C
:10332000040201020400404040404040010200000D
:103330000000304A4A3C40007F484848300038444A
:1033400044442000304848487F0038545454180002
:1033500000087E0900000854545438007F08040413
:10336000780000487A4000000020403D00007F10B7
:103370001028440000007F0000007C047C047800DA
:103380007C08040478003844444438007C14141445
:1033900008000814147C40007C0804040800485409
:1033A0005454240000043F4400003C4040207C0072
:1033B0001C2040201C003C4030403C004428102889
:1033C00044000C5050503C004464544C44000000F5
:1033D0000836410000007F00000041360800000070
:1033E00008040804000000000000000000000000C5
:1033F00000000000000000000000000000000000CD
:1034000000000000000000000000400040004000FC
:10341000000000000000000000000000143E5555B0
:10342000410013086402600000000000000000007A
:10343000000000000000000000000000000000008C
:10344000000000000000000000000000000000007C
:10345000000000000000000000000000000000006C
:103460000000000000000000000000183C3C1800B4
:10347000000000000000000000000000003C2424C8
:103480003C00000000000000000000000000000000
:10349000000000000000000000000000000000002C
:1034A000000000000000000000000000000000001C
:1034B000000000000000000000000000000000000C
:1034C00000000000005A24245A0000000000000000
:1034D0000000770000000000000000007C555455FB
:1034E00054003E415D55413E0000000000000814BC
:1034F0002A142200020202020E0000000000000056
:10350000000000000000000000000000060909069D
:10351000000000242E240000000000000000000035
:1035200000000000000000000000FC2040403C00C3
:10353000040E7E027E00000008000000385554553D
:1035400018007810207E0200000000000000221405
:103550002A14080000000000000000000000000025
:103560000000000000000002780200007C1211122E
:103570007C007F49494930007F49494936007F0135
:1035800001010100407E417F40007F4949494100DF
:1035900077087E0877002241494936007F201008CD
:1035A0007F007F2011087F007F0814224100403EE9
:1035B00001017F007F0204027F007F0808087F006E
:1035C0003E4141413E007F0101017F007F09090921
:1035D00006003E414141220001017F0101000748F0
:1035E00048483F000C127F120C006314081463005B
:1035F0003F20203F6000070808087F007F407C4094
:103600007F003F203C203F60017F484830007F48DA
:1036100030007F007F4848483000224149493E0041
:103620007F083E413E00462919097F00205454542A
:1036300078007854545420007C54545428007C045E
:1036400004040400085454543800385454541800E6
:103650006C1078106C002844545428003C404040C2
:103660007C003C4044407C007C10102844004038E2
:1036700004047C007C0810087C007C1010107C0086
:103680003844444438007C0404047C007C14141442
:1036900008003844444428007C047C0478000C5022
:1036A00050503C0008147C140800442810284400A2
:1036B0001C20203C60000C1010107C003C40784026
:1036C0007C001C2038203C60047C505020007C5042
:1036D00020007C007C505050200028445454380076
:1036E0007C1038443800085434147C00020A14005A
:1036F00000000000000000000000000000000000CA
:103700000000000000000000FE00000000000000BB
:1037100000001B000000000000001E0000001E0052
:103720000000000000000000000000000020A07861
:1037300026A07826200001190701190701010100C0
:1037400000001C2642FF8202000000001810103FFB
:10375000110F00001C2222229C4030080402100895
:103760000403000E1111110E00805C62A2321C00D5
:1037700000800708101011131C181601000000002B
:103780001E0000000000000000000000000000001B
:10379000000000E0180C04020200000000071830CE
:1037A00020000000000202040C18E00000000000ED
:1037B0000020301807000000000818F04EF018082C
:1037C00000000000000000000000000000000000F9
:1037D000E00000000000020202021F0202020200DA
:1037E0000000000000000000000000000018380089
:1037F00000000000000000000000000000000000C9
:1038000001010101010100000000000000000000B2
:103810000000000000181800000000000000000078
:1038200000C0300C02000000300C0300000000005B
:1038300000F00C0202020CF0000000030C1010104B
:103840000C03000000040404FE000000000000104F
:1038500010101F10101000000006020202C23C00EF
:1038600000000018141211101000000000000242A5
:103870004242BC0000000000101010100F000000B9
:1038800000C0201804FE0000000003020202021F14
:103890000202000000003E222242820000000000DE
:1038A000101010080700000000F04C222222428075
:1038B00000000007081010100807000000020202B4
:1038C000C2320A06000000001807000000000000D5
:1038D000001CA24242A2A21C0000000F10101010F7
:1038E0000906000000788402020284F8000000004B
:1038F000101111110C0300000000006060000000B6
:103900000000000000181800000000000000006027
:1039100060000000000000000018380000000000F7
:1039200000000000808040402000000003030404E9
:103930000808100000808080808080808000000463
:1039400004040404040404000020404080800000BB
:10395000000000100808040403030000000E020227
:103960008242261C00000000001B00000000000036
:10397000F01804E2120A8AFC0000030C1813141653
:103980001B070404000080701830C0000000100EF7
:103990000302020202030C1000F88888888848306D
:1039A0000000001F10101010110E0000C030100891
:1039B000080808180000030C081010101010000070
:1039C00000F80808080810E00000001F1010101090
:1039D0000807000000F80808080808080000001F91
:1039E000111111111110000000F80808080808084A
:1039F0000000001F010101010100000000C03010A3
:103A000008080808180000030C08101011111F0006
:103A100000F80000000000F80000001F0101010193
:103A2000011F000000080808F8080808000000103E
:103A300010101F1010100000000000080808F80007
:103A400000000000101010100F00000000F880802F
:103A5000402010080000001F0001020404081000AC
:103A600000F80000000000000000001F10101010FF
:103A700010100000F838E00000C038F800001F0007
:103A800001070601001F000000F81060800000F828
:103A90000000001F00000106081F000000E01008E1
:103AA00008080810E00000070810101010080700B0
:103AB00000F80808080888700000001F01010101D3
:103AC0000000000000E0100808080810E0000007EF
:103AD000081010103008070000F808080888700067
:103AE0000000001F01010304081000000070488856
:103AF000880808180000001810101011090E0000A6
:103B000008080808F80808080800000000001F005E
:103B10000000000000F80000000000F800000007AE
:103B200018101010080700000830C000000000C086
:103B300030080000010618180700000018E0000017
:103B4000E0C00000E01800031C0F00010E1C030081
:103B50000810204080804020100810080402010155
:103B60000204081008106080008040201008000047
:103B700000001F000000000000080808088848280E
:103B8000180000181412111010101000000000FE90
:103B90000202020200000000003F000000000000DE
:103BA00000020C30C0000000000000000000000314
:103BB0000C3000000002020202FE000000000000C3
:103BC0000000003F00000000000000E0380E7080A0
:103BD00000000004030000000003040000000000D7
:103BE0000000000000002020202020202020202095
:103BF00000000000010200000000000000000000C2
:103C000000000000000020202020C0000000000C68
:103C1000121111091F10000000FE402020206080BA
:103C20000000001F0810101008070000008040204E
:103C300020202020000000070810101010100000A5
:103C400000804020202040FE0000000718101010C7
:103C5000081F000000804020202020C00000000736
:103C60000911111111110000002020FC2422222230
:103C700022000000001F0000000000000080402023
:103C8000202040E00000000718101010083F00003E
:103C900000FE8040202020C00000001F0000000027
:103CA000001F000000202026E600000000000000A9
:103CB00000001F00000000000000202026E6000099
:103CC000000000000000003F0000000000FE0000B7
:103CD000804040200000001F010304040810000081
:103CE0000000020202FE0000000000000000001FB1
:103CF00000000000E0402020C0402020C0001F0045
:103D000000001F0000001F0000E0C040202020C075
:103D10000000001F00000000001F00000080402085
:103D20002020408000000007081010100807000045
:103D300000E04020202060800000003F08101010AC
:103D40000807000000804020202040E0000000071D
:103D500018101010083F00000000E080402020E014
:103D6000000000001F0000000000000000C0202034
:103D70002020200000000018111112120C00000079
:103D8000002020F82020202000000000000F10104C
:103D90001010000000E000000000E0000000000F34
:103DA000101010081F00000020C00000000000C01C
:103DB000200000010618100C0300000060800000C5
:103DC000C080000080600007180E01010E18070077
:103DD0000020408000008040200000100804030301
:103DE0000408100020C0000000000000C0200000F7
:103DF0000306381806010000002020202020A060C3
:103E00002000001018141211101010000000000003
:103E1000FC0202020000000001013E000000000060
:103E200000000000FE0000000000000000003F0055
:103E3000000000000000020202FC00000000000080
:103E40000000003E010100000080808000000000B2
:103E50000080030000000101020202010080C02076
:103E60001020C0800000001F10101010101F000054
:103E7000ED91FC91EF5FFF4FFC93EE93089505D019
:103E80000E94932200FC0CD008950024E89457FF70
:103E900002C009D0689400F80BD010F801240895EE
:103EA00002D009D00895509540954F5F5F4F089517
:103EB000E89417FF0895009510950F5F1F4F6894C1
:103EC0000895A0E4B5E08D91882311F00CD0FBCFCC
:103ED00008950E94D322802D11F005D0FACF0895C5
:103EE0008DE001D08AE00090C00005FEFCCF8093F9
:103EF000C6000895A0E4B5E08D91882311F00FD09D
:103F0000FBCF08950E94D322802D11F008D0FACF64
:103F1000089588EE93E056D03197D9F708950C9420
:103F200036203197F1F70895689462F80895E8947F
:103F300062F808958F939F9383E690E00197F1F7DD
:103F40009F918F91089580952AE090E0089410F455
:103F50002C9802C02C9A0000EDDFECDF9695879537
:103F60002A95A9F708950E94D322802D11F0EBDF46
:103F7000FACF08958DE0E7DF8AE0E5CFA0E4B5E071
:103F80008D91882311F0DFDFFBCF08958F939F93EE
:103F900083E690E00197F1F79F918F9108951B9B25
:103FA00002C08827089529E01B99FECFEFDFEEDFDE
:103FB000EDDF88941B9908942A9519F087959795B9
:103FC000F6CF0895EF93FF93EE27E82BE92B31F01E
:103FD000EAEFF0E03197F1F70197D1F7FF91EF9118
:103FE00008952B9884E699270E94E21F2B9A8AE075
:103FF00099270E94E21F4198439A81E211D088ECF0
:104000000FD086E00DD083E10BD080E209D08CE0A8
:1040100007D00895863219F481E08093F90108955C
:10402000429801C0429A7F93439898E0880F10F419
:10403000409A01C0409800000000419A0000000032
:1040400041989A9599F7439A7F91089500E480E208
:10405000E7DF802FE5DF80E8E3DF882714E5E2DF94
:104060001A95E9F70395063491F708952091F9011F
:10407000213069F4282F203808F02FE7206881E2EA
:10408000CFDF822FCDDF80E08093F9010895EF9399
:10409000FF93509103015F9370900401E09101013F
:1040A000F09102010E94D322202D0E94D322302DB4
:1040B0000E94D322002D0E94D322602D8052482FCF
:1040C0000E94CE23E40FF51FCC241124E22E603091
:1040D00059F1DD24DA94CD2CFF24032F0E94D32242
:1040E00021F00A95E00FF11D03C0F3940A95B1F792
:1040F000FD1408F4DF2CEA9479F7E22EFF24032F55
:104100003197C895002021F00A95E01BF10903C002
:10411000F3940A95A9F7FC1408F4CF2CEA9471F7EC
:10412000D31611F4D62ECC2470920401732F7C196F
:1041300040910401509103015F930E94E1205F913F
:10414000603041F0DD2031F05D2D0E94D3225A9580
:10415000E1F77D190E94D322802D5091050155234E
:1041600009F0809540910401453514F40E94122015
:10417000509104015395509304017A9559F7EC0D31
:10418000F11D603081F050910501762F882755236D
:1041900009F080950E9412207A95C1F75091040190
:1041A000560F50930401509103015395509303010E
:1041B0002A9509F0B9CF5F9150930301FF91EF91D8
:1041C00008954A955A9580E22BDF80E4850F28DF19
:1041D00080E8840F25CF0E9415240E946B2417FFCE
:1041E00003C08DE28D931127003821F4E4EBF4E451
:1041F0000C949D220F3741F4FF2019F4EAEAF4E40D
:10420000F7CFE6EAF4E4F4CF4A934A934A935A93F9
:10421000BA93AA93BB270F5F02F5BB27802F0A959D
:104220000E9475248D3E90F4E4E0F5E4A3E00E9442
:1042300094250E94FC23BB1FB0FF06C070970E940C
:1042400094250E94EB243C96AA9589F7E0E0F5E4DA
:104250000E9494250E94EB2422C0093058F10331BA
:1042600078F10A3130F418E08BE192E9E8EBF4E4FC
:104270002EC00A950E947524E8EFF4E4BFEFA3E096
:104280000E9494250E94FC23BB1FB0FD06C03896F7
:104290000E9494250E94EB243C97AA9589F7B0953B
:1042A000BB0F0E946B24039513E08AEF99E0F81688
:1042B000090740F413E08BE094E0ECECF4E407C071
:1042C00016E001C0B39583E194E2E0ECF4E46A8186
:1042D000BF3F19F4BB2711276260BD836A831C832B
:1042E000A881B98160E36D93A883B9836D93081B9E
:1042F0000195AA24BB246A816A7F002339F0F694D1
:10430000E794D794B794A7940A95F7CF19E00027BC
:104310000E949425CC248FEF74E0AC14B206D3062F
:10432000E406F50630F0AC18B20AD30AE40AF50A3E
:1043300021F1881F7A9531F0569547953795279545
:10434000C794EBCF809522D041F0969508F7FE2CCC
:10435000ED2CDB2CBA2CAA24DBCF25D05D813C814F
:104360002B8170D0277021F02BD06CD0E8F301C0E6
:104370003CD04CD078D0269608958894881F7A95A2
:10438000E9F7809503D049F38827FCCF806360FD6F
:1043900006C0803311F0616002C0039561FD8D930A
:1043A00060FD1A95089599278E919C9385338E917F
:1043B00008F083958A3308F080E38C93C0F7089562
:1043C000732F720F61FF701B0AD01296785019F08C
:1043D00050F38E9380E38E937150EAF70895A8818D
:1043E000B981A70F8827B81F089579E061FD700F84
:1043F000F6DF48E0431B400F8AF381F399274A9583
:1044000069F38E91803351F79C93F9CF732F61FF3D
:10441000701B7395A881B981EA2FFB2F11978191A9
:10442000803361FF09F08D937A9511F48EE28D93BC
:1044300081918823C1F7772311F480E38D93882736
:104440008C930895889462FD0895002359F4A881FF
:10445000B9818C91803331F0552321F0539533503D
:104460006460089408955523E9F085E48D931AF467
:104470008DE28D935195652F660F560F5A3010F0CF
:1044800060E503D068E001D0DACF8FEF74E0561713
:1044900008F0561B881F7A9511F06695F8CF809525
:1044A00080638D9308954E414E00496E66696E6932
:1044B00074790000302E300000404B4C0020A107E2
:1044C000000050C3000088130000F4010000003217
:1044D0000000000500008000CCCCCC0C14AE4701DD
:1044E0009CC42000DC460300E35300006308000086
:1044F000D7000000150000001CC25367A5D4685304
:104500000024744915BE9A17CCBC8C2BBD37863558
:104510000191119121913081089599275A924A92DF
:10452000480E591E08950F92B801469F8001479F7B
:10453000100D569F100D0F9008950E94D3220D92DA
:104540000020D9F7089599910027A90FB01F11975E
:10455000492F4A955E2F6F2FE894112743952030FD
:1045600019F0C895802D01C080818823B9F07C9115
:104570007723A1F0781739F40EF0042F139568947F
:1045800011963196EBCF112321F0411BA11B11276E
:10459000B10BE894E52FF62F1196E0CF882311F0A8
:1045A000002708950895C89531960020089591E058
:1045B00005C092E003C094E001C098E0F4DF0D92E2
:1045C0009A95E1F70895040F151F261F371F0895C8
:1045D000000F111F221F331F08950095109520957D
:1045E00030950F5F1F4F2F4F3F4F0895019110815E
:1045F0000FC00E9488220EC00E94882210C0019124
:10460000108117FF05C03FEF2FEF04C00081112775
:104610002227332737FF03C0E0DF8DE28D93CF924F
:10462000DF92EF92AA24BB24CC24DD24EE2440E2C6
:10463000EAE0FF2755E093E38081890F87FD9F70B3
:1046400083FD907F891B81935A95A9F7C1DFAA1C2E
:10465000BB1CCC1CDD1CEE1C4A9551F7E894EFE026
:10466000FF2782910CD0EB30E0F71EF068948A2D82
:104670000AD088278D93EF90DF90CF900895982FE0
:10468000829501D0892F8F70805D26F0803309F4E8
:10469000089568948D9308950027112722273327C2
:1046A0001DD08A3328F4803318F005D015D0F9CF07
:1046B0000EF493CF089580538F93402F512F622F84
:1046C000732F86DF85DF7FDF83DF8F919927080FC8
:1046D000191F291F391F08958D910895E894FCDF53
:1046E0008032E9F38B32D9F38930C9F38D3211F47A
:1046F0006894F2CF089588278D93089581918D93C2
:104700008823E1F7089594E081918D939A95E1F7DC
:10471000089509919191992351F08A95D9F731978C
:10472000002329F081918D930A958823C9F7E3CF5F
:10473000F999FECFE1BDF2BD3196089591E001C037
:1047400092E07B3751F47FB7F894F2DF8D9180BD12
:10475000FA9AF99A9A95C9F77FBF77270895E8DF03
:104760008D917B3729F480BDFA9AF99A8823B9F79D
:104770007727089591E001C092E0DADFF89A80B5DA
:104780008D939A95D1F70895D3DFF89A80B58D93DC
:10479000882319F09A95C1F79D930895FF935527A3
:1047A000F8E0469508F4500F57954795FA95D1F7DC
:1047B000FF910895689401C0E894AF93BF938D91E1
:1047C00016F0919103C00E94D322902D891718F002
:1047D00011F48823A1F7BF91AF910895B7FE089512
:1047E00090E8B91611F4D0FE08959FEFD91AE90A9E
:1047F000F90A09F4039508950F928F939F93D216A7
:10480000E306F4060FB680E890E8802795270FBEF0
:10481000890739F00FB6892B87FD02C081E0082691
:104820000FBE9F918F910F900895D190E190F190DC
:104830000191089521913191419151910895502F05
:104840002D2D3E2D4F2D612F0895EFDF9927112734
:104850008F2D880F80E8F82A802F881F08F41FEF1B
:1048600041F08F57082F07FD04C0003240F08FEF52
:1048700001C08827982FD82EE82EF82E09C08FE186
:10488000801B082FF694E794D79497950A95D1F753
:10489000112351F09095D094E094F09481E0980F1A
:1048A0008827D81EE81EF81E0F2DFE2CED2CD92EC1
:1048B0000895D094E094F09491E0D90E9927E91EE0
:1048C000F91E10950895652F90E8440F551F59273C
:1048D000990F47956078102F90E8FF0C001F09276B
:1048E000990FF794107800380895FF0C90E89027FE
:1048F000110F9795F794092F08952DEC3CEC4CEC93
:104900005DE366270FC091DF9ADFDD24EE2490E897
:10491000F92E0FE307C08EDF05C02227332740E2C0
:1049200051E46627552351F1002381F1CCDF71F169
:104930001627005850580894050B18F407FD03C0BB
:1049400025C007FD23C0469537952795F694E79433
:10495000D79425D0FF202AF0DD0CEE1CFF1C01505F
:1049600073F09D2D969548F0DD203AF4EE202AF460
:1049700091E0D90E9927E91EF91EB7CF07C09FE72E
:10498000092FF92A9FEFD92EE92E0895DD24EE2470
:10499000FF240027112708950FE79FEFF2CF9F9282
:1049A0009924AA24BB2488E1D216E306F40628F051
:1049B000D21AE30AF40A089401C08894991CAA1C2C
:1049C000BB1CDD0CEE1CFF1C8A9571F7D92CEA2C60
:1049D000FB2C9F90089577DFD9F05038C9F0162747
:1049E0000058952F90580894091F12F418F40EC01F
:1049F00008F00EC00FD0FF202AF0BB0CDD1CEE1C0F
:104A0000FF1C02C0039513F0E9DE6FCF0C94BF24A6
:104A10000C94C6249F92FF92EF928D2DFF24EE24DA
:104A2000DD24BB2493E0849F1001829FB00CD11C35
:104A3000E21CF31C839FD00CE11C2224F21C9A95EB
:104A400031F0BD2CDE2CEF2CFF248F91ECCF9F900A
:104A50000895F0DE38DF503829F090E869270CC05F
:104A60000AF045D042CF5FE322273327442701C015
:104A7000E1DE29DF5038B1F3003899F3902F951B10
:104A80008BF312F434D0FACF983118F02227332761
:104A90004427983028F0232F342F44279850F9CFFB
:104AA000992329F04695379527959A95D9F7912F0F
:104AB000962742F014D0B0F6F794E794D7940F5F9E
:104AC0008BF65DCF10D051F008F4F3DEFF2052F2E8
:104AD000DD0CEE1CFF1C0150CBF751CF57CFD20E8F
:104AE000E31EF41E0895D21AE30AF40A0895DF9231
:104AF000EF92FF920F931F93D22EE32EF42E052FE9
:104B0000162F6F915F914F913F912F9108950E94C1
:104B1000D322D02C0E94D322E02C0E94D322F02C4E
:104B20000E94D322002D08950E94D322202D0E949E
:104B3000D322302D0E94D322402D0E94D322502D0B
:104B400008950E94971F88278A938A931FDF112751
:104B50008D918032E9F31197BBD098F08D3229F412
:104B6000109511968C91B4D060F08E3229F4119684
:104B70008C91AED008F446C022960E94941F81E02A
:104B800008958C91A5D0D8F5119646D0D0F703950D
:104B90008D919ED0E0F38E3229F48C9199D010F44F
:104BA0001196FBCF853419F0853609F055C0119662
:104BB0008C918ED060F08D3219F08B3221F0DCCFE9
:104BC00008800094088211968C9182D0A8F68053B8
:104BD000898311968C917CD058F49981990F990F03
:104BE0000980900D990F8053890F8983873220F6B1
:104BF0008981988199230AF48195080F2DC08E32FE
:104C000089F611968C9164D068F606D018F011964A
:104C10000A95F8CF1196C1CF4F2D3E2D2D2DDD0CCD
:104C2000EE1CFF1CA8F0DD0CEE1CFF1C88F0D20E61
:104C3000E31EF41E68F0DD0CEE1CFF1C48F08053F0
:104C400009F06894D80E8827E81EF81E08F0089529
:104C5000F42EE32ED22E089534D019F116F50983DF
:104C600008E921D00695882787959F2D9F77980F73
:104C7000F92E0150000F110F07958981882379F0D3
:104C80001AF48195898306C038DE89818A958983E3
:104C9000D9F705C042DE89818A958983D9F72296A2
:104CA000089574DEFCCF0DD041F0FF2032F00A955C
:104CB00031F0DD0CEE1CFF1CD2F7889408950894A7
:104CC000089500240D280E280F28002A002008959A
:104CD000803320F08A3310F408940895889408955E
:104CE000E073B0493C1C884A00C8AF496043844A1D
:104CF0000000FA4200401C4600002A433333F340D0
:104D00009A99193FB07BB0496887B049D046B149FC
:104D1000A04EB149F094B14900007A440050C34715
:104D2000361D884A301E884A2A1F884A2420884A0D
:104D30001E21884A1822884A1223884A0C24884A4D
:104D40000625884A0026884AFA26884AF427884A8F
:104D5000EE28884AE829884AE22A884A0093A3492B
:104D60004089954A003FB14900000000CD8CD843EE
:104D70009A99D84366A6D84333B3D84300C0D843E2
:104D80003030303000005648462F554846205452A7
:104D90005800415820656C656B74726F6E696B6169
:104DA0000000303030310000303030320000303020
:104DB0003033000030303034000030303035000007
:104DC000303030360000303030370000303030388E
:104DD00000003030303900003030313000003030E9
:104DE00031310000303031320000303031330000DA
:104DF0003030313400003030313500003030313661
:104E000000003030313700003030313800003030B1
:104E100031390000303032300000303032310000A3
:104E20003030323200003030323300003030323433
:104E30000000303032350000303032360000303083
:104E40003237000030303238000030303239000064
:104E50003030333000003030333100003030333206
:104E60000000303033330000303033340000303055
:104E70003335000030303336000030303337000037
:104E80003030333800002053494D504C4558204DA8
:104E90004F44452020002052455045415445522062
:104EA0004D4F44452020000020004348205500007D
:104EB00020202020202020202020202000004348E7
:104EC00020560000202020202020202020202020EC
:104ED00020202000545843544353533D0000487A47
:104EE00020202000434800002020202000002045F2
:104EF00043484F4C494E4B200000202020202020CA
:104F00002020202020202020202020002043482076
:104F100000002020202020202020000041542B448D
:104F20004D4F53455447524F55503D0030002C00D3
:104F30002046524545205345542000005374657067
:104F40002031322C35206B487A2020200000537409
:104F5000657020313030206B487A20202000537457
:104F600065702031204D487A202020202000537485
:104F70006570203130204D487A202020202000000C
:104F800041542B444D4F534554564F4C554D453D80
:104F9000000041542B444D4F5345544D49433D006F
:104FA00020504D52206368616E6E656C200043484E
:104FB0002000205345545550202000005371756542
:104FC0006C63683D200020202020202020005072AB
:104FD00065737320656E636F646572002020000046
:104FE000566F6C756D653D2000004D6F642E206C12
:104FF0006576656C3D2000004C4F4144204348419C
:105000004E4E454C53005361766520736574746948
:105010006E6700004C6F6E672050726573732000DE
:10502000456E632E20746F204578697400005361CB
:1050300076652073657474696E6773004D4349002B
:105040004D4352004D4343004D4357004D435400E0
:10505000454D505459004D656D6F726965732069F7
:105060006E697469616C697A65642E2E2E003B004E
:10507000557064204F4B00004C4A2D54455354202A
:1050800031004C4A2D544553542032004C4A2D5483
:105090004553542033004C4A2D544553542034007A
:1050A0004C4A2D5445535420350054657374206484
:1050B00061746120656E74657265642E2E2E000029
:1050C0004D43523B00003B454E4400004D43433BA3
:0250D0000000DE
:00000001FF
