:100000000C9434000C949E0D0C94120E1895000064
:10001000189500001895000018950000189500002C
:10002000189500001895000018950000189500001C
:10003000189500001895000018950000189500000C
:1000400018950000189500001895000018950000FC
:1000500018950000189500001895000018950000EC
:1000600018950000189500008FEF8DBFC0ECE8E5F3
:100070004E2E88E08EBFD7E0F5E05F2EA89584B7BE
:10008000082E877F84BF88E1992780936000909332
:100090006000EEEFF7E0A0E0B1E088278D933197A4
:1000A000E9F78CE08093C40080E08093C50088E18C
:1000B0008093C10072E07093C000662470910001CB
:1000C0007F7770930001239A3B9A3A9A389A399A2B
:1000D0000E945B210E945B210E94902181E20E948C
:1000E0007A218EEB0E947A2181E080930601249A86
:1000F0002C9A23987894709100017062709300019B
:10010000A0ECB1E0EEE5F0E50E944524A8ECB1E0FA
:10011000E2E6F0E50E944524A0EDB1E0E6E6F0E578
:100120000E944524A8EDB1E0EAE6F0E50E944524EE
:10013000709100017F7E7093000170910001777FC4
:1001400070930001ACEDB1E0E6E9F1E50E9407240F
:10015000A1EEB1E0E6E9F1E50E940724ECE7F3E067
:10016000A0E1B0E00E9479250A3018F011F00C945B
:10017000BB000C94C400ECE7F3E0A0E1BB2781E0F6
:100180008C937BE70E945D25ECE7F3E0A6EEB1E0FF
:100190000E94792580E18093E70181E08093E80166
:1001A00081E08093E90188E08093EA01E0E8F3E0F0
:1001B000A0E1B0E00E9479250A3018F011F00C940B
:1001C000E3000C94EC00E0E8F3E0A0E1BB2788E05A
:1001D0008C937BE70E945D25E0E8F3E0ABEEB1E0B5
:1001E0000E947925709100017B7F70930001559AE0
:1001F000569A209A289AA0EFB1E0EEE6F0E50E9428
:10020000452400E010E020E030E0ACEEB1E00D93DA
:100210001D932D933C9381E08093F601E1E8F3E098
:10022000A0E1B0E00E9479250A3018F011F00C949A
:100230001B010C942401E1E8F3E0A0E1BB2781E07D
:100240008C937BE70E945D2581E08093F501E1E8D6
:10025000F3E0A4EFB1E00E947925709100017E7F68
:100260007093000180E08093F8018CE00E9474217B
:10027000EAEFF7E3A1E0B1E0ED93FC9381E0809336
:1002800003018AE080930401882780930501ECE94B
:10029000F1E50E940920E6EBF2E3A1E0B1E0ED9385
:1002A000FC9384E08093030181E08093040188271C
:1002B00080930501E8EAF1E50E9409208FEA809326
:1002C000F9010091F9010E3B18F011F00C947B013B
:1002D00081E20E947A218091F9010E947A2188ECC2
:1002E00090E00E946920A9EFB1E08C918F5F8C9320
:1002F00010F40C946101E2E0F0E00E9410200E94F2
:100300005B210E94902181E20E947A218EEB0E9463
:100310007A210E9485125398529854985C9A5A9A5E
:100320005B9A22981A9A7091F701777F7093F70180
:100330007091F70174607093F7017091F7017D7F00
:100340007093F70124981C9A579A5F9A0E9418128A
:1003500081E085BD80E084BD7894809169008C7FC8
:1003600082608093690080916900837F88608093B8
:100370006900E99AE89A0E949021E0EAF0E0A0E1A1
:10038000B0E00E9479250F3F11F00C94CC0185E07C
:100390008093F4010C94CF0181E08093F40170917B
:1003A00068007460709368007CE170936D007091D8
:1003B000680071607093680070916B007061709359
:1003C0006B007091F70170617093F7010E94461203
:1003D000E2E7F0E50E945327E0EDF1E00E94D4252A
:1003E0000E945126EDE0F0E0A4EDB1E00E9442252C
:1003F0001C990C94FE015F980C94FF015F9A709118
:1004000000017D7F709300010E94DB12A3E2B0E047
:100410000C9104FB81E00EF080E08F93A0E0B1E04E
:100420008C9182FB81E00EF080E09F9189238823EC
:1004300011F40C942902709100017B7F70930001EC
:1004400084EF91E00E9469207091F70170617093D0
:10045000F7015498A7EFB1E09C9190FF04C04C9B2A
:1004600010C09E7F9C934C990CC089E19F9390E0B3
:100470000E9469209F914C9904C091609C930E94B6
:100480006C120091F401013011F00C946F0770911F
:1004900000017F7E70930001A6E0B1E0BA93AA93B9
:1004A0000E94A514229600912301013011F00C94B2
:1004B0005E02709100017F7E709300010091230124
:1004C000023011F00C946902709100017061709318
:1004D000000100912301033011F00C94740270911B
:1004E0000001706170930001A0E0B1E08C9184FB89
:1004F00016F00C94F102E7E0F1E00E94D425E6E763
:10050000F0E50E9453270E94BB2518F011F00C94CF
:100510008B020C94BF02E7E0F1E0ACEBB1E00E948B
:10052000422500912301023011F00C94A902EAE760
:10053000F0E50E945327ECEBF1E00E94D4250E94E5
:10054000E926EDE0F0E0ACEBB1E00E9442250C942E
:10055000BD02033011F00C94BD02EAE7F0E50E9401
:100560005327ECEBF1E00E94D4250E94F826EDE041
:10057000F0E0ACEBB1E00E9442250C94F102E7E020
:10058000F1E0ACEBB1E00E94422500912301023082
:1005900011F00C94DD02EEE7F0E50E945327ECEB3E
:1005A000F1E00E94D4250E94E926EDE0F0E0ACEBFA
:1005B000B1E00E9442250C94F102033011F00C943A
:1005C000F102EEE7F0E50E945327ECEBF1E00E9428
:1005D000D4250E94F826EDE0F0E0ACEBB1E00E94FB
:1005E000422500910B01003011F00C940503ACE0A2
:1005F000B1E0E2E8F0E50E944524ACEDB1E0E6E9C7
:10060000F1E50E9407240C94AF05013011F00C9421
:100610001703ACE0B1E0E6E8F0E50E944524ACED5C
:10062000B1E0E8EBF1E50E9407240C94AF0502303D
:1006300011F00C942903ACE0B1E0EAE8F0E50E9487
:100640004524ACEDB1E0EEEBF1E50E9407240C94FB
:10065000AF05033011F00C943B03ACE0B1E0EEE8E1
:10066000F0E50E944524ACEDB1E0E4ECF1E50E9438
:1006700007240C94AF05043011F00C944D03ACE04A
:10068000B1E0E2E9F0E50E944524ACEDB1E0EAEC2E
:10069000F1E50E9407240C94AF05053011F00C948D
:1006A0005F03ACE0B1E0E6E9F0E50E944524ACED83
:1006B000B1E0E0EDF1E50E9407240C94AF050630AF
:1006C00011F00C947103ACE0B1E0EAE9F0E50E94AE
:1006D0004524ACEDB1E0E6EDF1E50E9407240C9471
:1006E000AF05073011F00C948303ACE0B1E0EEE904
:1006F000F0E50E944524ACEDB1E0ECEDF1E50E949F
:1007000007240C94AF05083011F00C949503ACE06D
:10071000B1E0E2EAF0E50E944524ACEDB1E0E2EEA2
:10072000F1E50E9407240C94AF05093011F00C94F8
:10073000A703ACE0B1E0E6EAF0E50E944524ACEDA9
:10074000B1E0E8EEF1E50E9407240C94AF050A3011
:1007500011F00C94B903ACE0B1E0EAEAF0E50E94D4
:100760004524ACEDB1E0EEEEF1E50E9407240C94D7
:10077000AF050B3011F00C94CB03ACE0B1E0EEEA26
:10078000F0E50E944524ACEDB1E0E4EFF1E50E9414
:1007900007240C94AF050C3011F00C94DD03ACE091
:1007A000B1E0E2EBF0E50E944524ACEDB1E0EAEF08
:1007B000F1E50E9407240C94AF050D3011F00C9464
:1007C000EF03ACE0B1E0E6EBF0E50E944524ACEDD0
:1007D000B1E0E0E0F2E50E9407240C94AF050E3092
:1007E00011F00C940104ACE0B1E0EAEBF0E50E94FA
:1007F0004524ACEDB1E0E6E0F2E50E9407240C945C
:10080000AF050F3011F00C941304ACE0B1E0EEEB47
:10081000F0E50E944524ACEDB1E0ECE0F2E50E9489
:1008200007240C94AF05003111F00C942504ACE0C2
:10083000B1E0E2ECF0E50E944524ACEDB1E0E2E18C
:10084000F2E50E9407240C94AF05013111F00C94DD
:100850003704ACE0B1E0E6ECF0E50E944524ACEDF5
:10086000B1E0E8E1F2E50E9407240C94AF05023103
:1008700011F00C944904ACE0B1E0EAECF0E50E9420
:100880004524ACEDB1E0EEE1F2E50E9407240C94C2
:10089000AF05033111F00C945B04ACE0B1E0EEEC79
:1008A000F0E50E944524ACEDB1E0E4E2F2E50E94FF
:1008B00007240C94AF05043111F00C946D04ACE0E6
:1008C000B1E0E2EDF0E50E944524ACEDB1E0EAE2F2
:1008D000F2E50E9407240C94AF05053111F00C9449
:1008E0007F04ACE0B1E0E6EDF0E50E944524ACED1C
:1008F000B1E0E0E3F2E50E9407240C94AF05063175
:1009000011F00C949104ACE0B1E0EAEDF0E50E9446
:100910004524ACEDB1E0E6E3F2E50E9407240C9437
:10092000AF05073111F00C94A304ACE0B1E0EEED9B
:10093000F0E50E944524ACEDB1E0ECE3F2E50E9465
:1009400007240C94AF05083111F00C94B504ACE009
:10095000B1E0E2EEF0E50E944524ACEDB1E0E2E466
:10096000F2E50E9407240C94AF05093111F00C94B4
:10097000C704ACE0B1E0E6EEF0E50E944524ACED42
:10098000B1E0E8E4F2E50E9407240C94AF050A31D7
:1009900011F00C94D904ACE0B1E0EAEEF0E50E946D
:1009A0004524ACEDB1E0EEE4F2E50E9407240C949E
:1009B000AF050B3111F00C94EB04ACE0B1E0EEEEBE
:1009C000F0E50E944524ACEDB1E0E4E5F2E50E94DB
:1009D00007240C94AF050C3111F00C94FD04ACE02D
:1009E000B1E0E2EFF0E50E944524ACEDB1E0EAE5CC
:1009F000F2E50E9407240C94AF050D3111F00C9420
:100A00000F05ACE0B1E0E6EFF0E50E944524ACED67
:100A1000B1E0E0E6F2E50E9407240C94AF050E3148
:100A200011F00C942105ACE0B1E0EAEFF0E50E9492
:100A30004524ACEDB1E0E6E6F2E50E9407240C9413
:100A4000AF050F3111F00C943305ACE0B1E0EEEFDF
:100A5000F0E50E944524ACEDB1E0ECE6F2E50E9441
:100A600007240C94AF05003211F00C944505ACE05E
:100A7000B1E0E2E0F1E50E944524ACEDB1E0E2E74F
:100A8000F2E50E9407240C94AF05013211F00C949A
:100A90005705ACE0B1E0E6E0F1E50E944524ACED9D
:100AA000B1E0E8E7F2E50E9407240C94AF050232BA
:100AB00011F00C946905ACE0B1E0EAE0F1E50E94C8
:100AC0004524ACEDB1E0EEE7F2E50E9407240C947A
:100AD000AF05033211F00C947B05ACE0B1E0EEE021
:100AE000F1E50E944524ACEDB1E0E4E8F2E50E94B6
:100AF00007240C94AF05043211F00C948D05ACE082
:100B0000B1E0E2E1F1E50E944524ACEDB1E0EAE8B4
:100B1000F2E50E9407240C94AF05053211F00C9405
:100B20009F05ACE0B1E0E6E1F1E50E944524ACEDC3
:100B3000B1E0E0E9F2E50E9407240C94AF0506322B
:100B400011F00C94AF05ACE0B1E0EAE1F1E50E94F0
:100B50004524ACEDB1E0E6E9F2E50E9407241C99DA
:100B60000C94B5055F980C94B6055F9A0E94DB1251
:100B7000A3E2B0E00C9104FB81E00EF080E08F93E3
:100B8000A0E0B1E08C9182FB81E00EF080E09F91CB
:100B90008923882311F40C94DB05709100017B7F7D
:100BA0007093000184EF91E00E9469207091F70139
:100BB00070617093F701F894E6EBF2E3A1E0B1E025
:100BC000ED93FC93A0E0B1E08C9184FB16F40C94BF
:100BD000F80581E08093030185E08093040181E0C2
:100BE00080930501ECE9F2E50E9409200C940506CA
:100BF00081E08093030181E08093040181E0809390
:100C00000501ECEAF2E50E940920EAEFF7E3A1E032
:100C1000B1E0ED93FC9383E08093030187E0809340
:100C20000401882780930501A0E4B5E0E7E0F1E046
:100C3000552744E00E9455220E940120EEEBF2E588
:100C40000E940920A0E0B1E08C9184FB16F00C9486
:100C50005E061C9B0C94450683E08093030187E0AD
:100C600080930401882780930501A0E4B5E0E7E0C4
:100C7000F1E0552744E00E9455220E940120EEEB4E
:100C8000F2E50E9409200C945C0683E08093030146
:100C900087E080930401882780930501A0E4B5E0F4
:100CA000ECEBF1E0552744E00E9455220E94012020
:100CB000EEEBF2E50E9409200C94750683E0809328
:100CC000030187E080930401882780930501A0E455
:100CD000B5E0E7E0F1E0552744E00E9455220E948C
:100CE0000120EEEBF2E50E9409205498A7EFB1E055
:100CF0009C9190FF04C04C9B10C09E7F9C934C998C
:100D00000CC089E19F9390E00E9469209F914C99CB
:100D100004C091609C930E946C12E6EBF2E3A1E0A8
:100D2000B1E0ED93FC93A0E0B1E08C9184FB16F46C
:100D30000C94ED06E7E0F1E00E94D425E6E7F0E54B
:100D40000E9453270E94BB2518F011F00C94AA06AC
:100D50000C94C50686E08093030187E0809304012C
:100D6000882780930501E0ECF2E50E940920A0E4C9
:100D7000B5E0E1E2F1E00E94BE240E940120E6EC31
:100D8000F2E50E9409200C94DE0686E080930301C0
:100D900087E080930401882780930501E4EDF2E564
:100DA0000E940920A0E4B5E0E1E2F1E00E94BE2447
:100DB0000E940120E6ECF2E50E94092085E0809384
:100DC000030187E080930401882780930501EAED01
:100DD000F2E50E9409200C943907A0E4B5E0AF9336
:100DE000BF93ECE0F1E00E94D4250E94782011E04E
:100DF00001E0BF91AF910E945A24E0E4F5E0A0E148
:100E0000B1E00E943D2585E08093030187E0809357
:100E10000401882780930501EAEEF2E50E9409208B
:100E2000A0E1B1E00E940320E0EFF2E50E9409207A
:100E300086E08093030187E08093040188278093F4
:100E40000501E6EFF2E50E940920A0E4B5E0E1E249
:100E5000F1E00E94BE240E940120EEEBF2E50E9428
:100E60000920A3E1B1E00E940320EAEFF2E50E942D
:100E700009207894A7EFB1E08C9184FB16F00C94D4
:100E80005407E7E0F1E0A8EBB1E00E944225A0E0C2
:100E9000B1E08C9184FB16F40C9452070E94E30C91
:100EA0000C9454070E94300D0E94F71FA7EFB1E089
:100EB0008C9183FB16F00C94620773B7707F75609A
:100EC00073BF8895A7EFB1E08C9183FB882780F9E9
:100ED000809580FBA7EFB1E08C9183F98C93009112
:100EE000F401063011F00C949D08E6EBF2E3A1E06A
:100EF000B1E0ED93FC9381E08093030185E0809362
:100F0000040181E080930501E0E0F3E50E940920FF
:100F1000EAEFF2E50E940920E2E7F0E50E9453279C
:100F2000E0ECF1E00E94D4250E945126EDE0F0E0D3
:100F3000A4ECB1E00E944225EAEFF7E3A1E0B1E0C2
:100F4000ED93FC9383E08093030187E08093040199
:100F5000882780930501A0E4B5E0E4ECF1E0552793
:100F600044E00E9455220E940120E6EBF2E3A1E05A
:100F7000B1E0ED93FC93F89485E08093030187E062
:100F800080930401882780930501ECE0F3E50E943B
:100F9000092086E08093030187E08093040188277D
:100FA00080930501EEE1F3E50E940920A0E4B5E09D
:100FB000E8EEF1E00E94C5240E940120E4E2F3E59E
:100FC0000E94092078940091E801013011F00C94FE
:100FD000F307A0ECB1E0EEE5F0E50E9445240C94A7
:100FE00037080C944D08023011F00C940108A0EC65
:100FF000B1E0EEE1F1E50E9445240C9437080C9431
:101000004D08033011F00C940F08A0ECB1E0E2E2BF
:10101000F1E50E9445240C9437080C944D080430E7
:1010200011F00C941D08A0ECB1E0E6E2F1E50E949D
:1010300045240C9437080C944D08053011F00C949D
:101040002B08A0ECB1E0EAE2F1E50E9445240C9403
:1010500037080C944D08063011F00C944D08A0ECA4
:10106000B1E0EEE2F1E50E9445240C943708ACEDC6
:10107000B1E0EEE1F2E50E940724E2E7F0E50E942C
:101080005327E0ECF1E00E94D4250E945126EDE0C8
:10109000F0E0A4ECB1E00E944225A7EFB1E08C9112
:1010A00084FB16F00C949D087091F7017F7E70937D
:1010B000F7010E941812EEE2F3E50E94F01FEEE342
:1010C000F3E50E94F01FE0E4F3E50E94F01FA0E4C6
:1010D000B5E0E4ECF1E0552744E00E9455220E947F
:1010E000E81FE0E4F3E50E94F01FA0E4B5E0E4ECC3
:1010F000F1E0552744E00E9455220E94E81FE0E4F9
:10110000F3E50E94F01FACEDB1E00E94EA1FE0E4BD
:10111000F3E50E94F01FA0E4B5E0E6EEF1E00E94E6
:10112000C5240E94E81FE0E4F3E50E94F01FA1EE51
:10113000B1E00E94EA1F0E94F71F0091F401023003
:1011400011F00C941A0A0E949021E6EBF2E3A1E060
:10115000B1E0ED93FC9381E08093030185E08093FF
:10116000040181E080930501E2E4F3E50E94092097
:101170001C990C94BE085F980C94BF085F9A0E945B
:10118000DB125498A7EFB1E09C9190FF04C04C9BF8
:1011900010C09E7F9C934C990CC089E19F9390E076
:1011A0000E9469209F914C9904C091609C930E9479
:1011B0009012EAEFF7E3A1E0B1E0ED93FC9383E056
:1011C0008093030187E080930401882780930501C1
:1011D000A0E4B5E0E4EDF1E0552744E00E9455229B
:1011E0000E940120E6EBF2E3A1E0B1E0ED93FC9375
:1011F0000091F501013011F00C941309A0EFB1E05A
:10120000EEE6F0E50E94452486E08093030187E046
:1012100080930401882780930501EEE4F3E50E94A2
:1012200009200C945C09023011F00C942C09A0EFF9
:10123000B1E0E2E3F1E50E94452486E080930301FA
:1012400087E080930401882780930501E0E6F3E5B9
:101250000E9409200C945C09033011F00C9445099C
:10126000A0EFB1E0E2E7F0E50E94452486E080933C
:10127000030187E080930401882780930501E0E75C
:10128000F3E50E9409200C945C09043011F00C94E1
:101290005C09A0EFB1E0E6E3F1E50E94452486E0B9
:1012A0008093030187E080930401882780930501E0
:1012B000E0E8F3E50E940920A7EFB1E08C9184FB00
:1012C00016F00C94D6097091F7017F7E7093F701A8
:1012D000EEE2F3E50E94F01FEEE3F3E50E94F01F5B
:1012E000E0E4F3E50E94F01FA0E4B5E0E4EDF1E0F6
:1012F000552744E00E9455220E94E81FE0E4F3E5F0
:101300000E94F01FA0E4B5E0E4EDF1E0552744E0D1
:101310000E9455220E94E81FE0E4F3E50E94F01FBE
:10132000ACEDB1E00E94EA1FE0E4F3E50E94F01F9B
:10133000A0E4B5E0E6EEF1E00E94C5240E94E81FBB
:10134000E0E4F3E50E94F01FA1EEB1E00E94EA1F85
:101350000E94F71FE2E9F3E50E94F01FA0E4B5E068
:10136000EBEEF1E00E94C5240E94E81F0E94F71FE7
:10137000E4EAF3E50E94F01FA0E4B5E0EAEEF1E054
:101380000E94C5240E94E81FE0E4F3E50E94F01FDC
:10139000EEE3F3E50E94F01FE0E4F3E50E94F01FA6
:1013A000EEE3F3E50E94F01F0E94F71F0E94DB129C
:1013B0000E94F71FA7EFB1E08C9183FB16F00C940D
:1013C000E60973B7707F756073BF8895A7EFB1E0CA
:1013D0008C9183FB882780F9809580FBA7EFB1E093
:1013E0008C9183F98C93A0E0B1E08C9183FB16F093
:1013F0000C94B8080E9418120E949021709100016C
:10140000777F70930001A0EFB1E0EEE6F0E50E9477
:10141000452483E08093F40181E08093F601ACEDF4
:10142000B1E0E6E9F1E50E9407247091F7017061EF
:101430007093F7010091F401033011F00C94BD0B8F
:101440000091E901013011F00C94300AA8ECB1E0F0
:10145000E2E6F0E50E9445240C94000B0C94100B7E
:10146000023011F00C943E0AA8ECB1E0EAE3F1E599
:101470000E9445240C94000B0C94100B033011F0C7
:101480000C944C0AA8ECB1E0EEE3F1E50E9445248F
:101490000C94000B0C94100B043011F00C945A0AAD
:1014A000A8ECB1E0E2E4F1E50E9445240C94000BC5
:1014B0000C94100B053011F00C94680AA8ECB1E004
:1014C000E6E4F1E50E9445240C94000B0C94100B0B
:1014D000063011F00C94760AA8ECB1E0EAE4F1E5EC
:1014E0000E9445240C94000B0C94100B073011F053
:1014F0000C94840AA8ECB1E0EEE4F1E50E944524E6
:101500000C94000B0C94100B083011F00C94920A00
:10151000A8ECB1E0E2E5F1E50E9445240C94000B53
:101520000C94100B093011F00C94A00AA8ECB1E057
:10153000E6E5F1E50E9445240C94000B0C94100B99
:101540000A3011F00C94AE0AA8ECB1E0EAE5F1E53E
:101550000E9445240C94000B0C94100B0B3011F0DE
:101560000C94BC0AA8ECB1E0EEE5F1E50E9445243C
:101570000C94000B0C94100B0C3011F00C94CA0A54
:10158000A8ECB1E0E2E6F1E50E9445240C94000BE2
:101590000C94100B0D3011F00C94D80AA8ECB1E0AB
:1015A000E6E6F1E50E9445240C94000B0C94100B28
:1015B0000E3011F00C94E60AA8ECB1E0EAE6F1E591
:1015C0000E9445240C94000B0C94100B0F3011F06A
:1015D0000C94F40AA8ECB1E0EEE6F1E50E94452493
:1015E0000C94000B0C94100B003111F00C94100BA8
:1015F000A8ECB1E0E2E7F1E50E9445240C94000B71
:10160000E2E7F0E50E945327E8ECF1E00E94D425E0
:101610000E945126EDE0F0E0ACECB1E00E944225E2
:10162000E6EBF2E3A1E0B1E0ED93FC9381E080937F
:10163000030185E08093040181E080930501E2EBE2
:10164000F3E50E940920E2E7F0E50E945327E8EC69
:10165000F1E00E94D4250E945126EDE0F0E0ACECD0
:10166000B1E00E944225EAEFF7E3A1E0B1E0ED939B
:10167000FC9383E08093030187E080930401882733
:1016800080930501A0E4B5E0ECECF1E0552744E0DF
:101690000E9455220E940120E6EBF2E3A1E0B1E0B6
:1016A000ED93FC93F89486E08093030187E08093A8
:1016B0000401882780930501E0ECF3E50E940920EE
:1016C000A0E4B5E0E9EEF1E00E94C5240E9401200B
:1016D000EEEBF2E50E9409207894A7EFB1E08C913F
:1016E00084FB16F00C94BD0B7091F7017F7E709314
:1016F000F7010E941812EEE2F3E50E94F01FEEE3FC
:10170000F3E50E94F01FE0E4F3E50E94F01FA0E47F
:10171000B5E0ECECF1E0552744E00E9455220E9430
:10172000E81FE0E4F3E50E94F01FA0E4B5E0ECEC74
:10173000F1E0552744E00E9455220E94E81FE0E4B2
:10174000F3E50E94F01FACEDB1E00E94EA1FE0E477
:10175000F3E50E94F01FA0E4B5E0E6EEF1E00E94A0
:10176000C5240E94E81FE0E4F3E50E94F01FA1EE0B
:10177000B1E00E94EA1F0E94F71F0091F4010430BB
:1017800011F00C94AC0C81E08093F6010E94902142
:101790000E94DB1281E08093030185E080930401C5
:1017A00081E080930501E4ECF3E50E940920549860
:1017B000A7EFB1E09C9190FF04C04C9B10C09E7FAE
:1017C0009C934C990CC089E19F9390E00E94692002
:1017D0009F914C9904C091609C930E942B110091A1
:1017E000F601013011F00C94210C83E08093030189
:1017F00088E080930401882780930501EEECF3E5EF
:101800000E940920A0E4B5E0E6EEF1E00E94C524C4
:101810000E940120E8EDF3E50E94092085E0809315
:10182000030188E080930401882780930501E0EE9E
:10183000F3E50E940920EEEEF3E50E9409200C94E6
:101840009C0C023011F00C94400C83E08093030157
:1018500088E080930401882780930501E2EFF3E597
:101860000E940920A0E4B5E0EBEEF1E00E94C5245F
:101870000E940120E8EDF3E50E9409200C949C0CE5
:10188000033011F00C945F0C83E08093030188E037
:1018900080930401882780930501ECEFF3E50E9413
:1018A0000920A0E4B5E0EAEEF1E00E94C5240E9420
:1018B0000120E8EDF3E50E9409200C949C0C043013
:1018C00011F00C94870C83E08093030188E08093EF
:1018D0000401882780930501EAE0F4E50E940920CD
:1018E000E8EDF3E50E94092085E08093030188E09C
:1018F00080930401882780930501E0EEF3E50E94C0
:101900000920EEEEF3E50E9409200C949C0C0530B2
:1019100011F00C949C0C83E08093030188E0809389
:101920000401882780930501E8E1F4E50E9409207D
:10193000EAEFF2E50E9409200091F401013011F074
:101940000C94C80B0E94902181E08093F401709167
:10195000F701777F7093F7015498A7EFB1E09C915E
:1019600090FF04C04C9B10C09E7F9C934C990CC070
:1019700089E19F9390E00E9469209F914C9904C057
:1019800091609C930E946C120E94F71FA7EFB1E038
:101990008C9183FB16F00C94D20C73B7707F75603A
:1019A00073BF8895A7EFB1E08C9183FB882780F9FE
:1019B000809580FBA7EFB1E08C9183F98C930C9418
:1019C000F801F894FFCF7091F7017F7E7093F701D3
:1019D0007091F70178607093F701EEE2F3E50E94F1
:1019E000F01FEEE3F3E50E94F01FE0E4F3E50E9450
:1019F000F01FA0E4B5E0E8EBF1E0552744E00E94D9
:101A000055220E94E81FE0E4F3E50E94F01FA0E4E5
:101A1000B5E0E8EBF1E0552744E00E9455220E9432
:101A2000E81FE0E4F3E50E94F01FACEDB1E00E9496
:101A3000EA1FE0E4F3E50E94F01FA0E4B5E0E6EE63
:101A4000F1E00E94C5240E94E81FE0E4F3E50E9453
:101A5000F01FA1EEB1E00E94EA1F0E94F71F089557
:101A60007091F70178607093F7017091F7017F7EB4
:101A70007093F701EEE2F3E50E94F01FEEE3F3E569
:101A80000E94F01FE0E4F3E50E94F01FA0E4B5E03F
:101A9000ECEBF1E0552744E00E9455220E94E81F3C
:101AA000E0E4F3E50E94F01FA0E4B5E0E7E0F1E038
:101AB000552744E00E9455220E94E81FE0E4F3E528
:101AC0000E94F01FACEDB1E00E94EA1FE0E4F3E5F4
:101AD0000E94F01FA0E4B5E0E6EEF1E00E94C5240C
:101AE0000E94E81FE0E4F3E50E94F01FA1EEB1E0E0
:101AF0000E94EA1F0E94F71F0895F894ADEFB1E02D
:101B0000E8944C9109B1882703FD816002FD826051
:101B1000841711F4B6F310C08C934295840F823071
:101B200049F0803139F0833229F0813319F00E9475
:101B3000860E02C00E94E40F789408950F921F92BF
:101B40002F923F924F925F927F92AF92BF920F93EC
:101B50001F932F933F934F935F936F937F938F9335
:101B60009F93AF93BF93CF93DF93EF93FF938FB781
:101B70008F93F894A9E2B0E00C9102FB81E00EF0A3
:101B800080E08F93A9E2B0E00C9103FB81E00EF4BA
:101B900080E09F918923882311F40C94D60D7091D5
:101BA000F70170687093F7010E94860EA9E2B0E019
:101BB0000C9102FB81E00EF480E08F93A9E2B0E08B
:101BC0000C9103FB81E00EF080E09F918923882334
:101BD00011F40C94F20D7091F70170687093F70195
:101BE0000E94860E789480E08093FC018F918FBFD5
:101BF000FF91EF91DF91CF91BF91AF919F918F9125
:101C00007F916F915F914F913F912F911F910F9114
:101C1000BF90AF907F905F904F903F902F901F901C
:101C20000F9018950F921F922F923F924F925F92B2
:101C30007F92AF92BF920F931F932F933F934F9337
:101C40005F936F937F938F939F93AF93BF93CF9344
:101C5000DF93EF93FF938FB78F93F894A9E2B0E0EF
:101C60000C9103FB81E00EF080E08F93A9E2B0E0DD
:101C70000C9102FB81E00EF480E09F918923882380
:101C800011F40C944A0E7091F70170687093F7018B
:101C90000E94E40FA9E2B0E00C9103FB81E00EF496
:101CA00080E08F93A9E2B0E00C9102FB81E00EF09E
:101CB00080E09F918923882311F40C94660E709123
:101CC000F70170687093F7010E94E40F789480E048
:101CD0008093FC018F918FBFFF91EF91DF91CF91A6
:101CE000BF91AF919F918F917F916F915F914F9134
:101CF0003F912F911F910F91BF90AF907F905F9078
:101D00004F903F902F901F900F901895A7EFB1E044
:101D10008C9187FB16F00C94DE0F7091F7017F77A2
:101D20007093F701A7EFB1E08C9185FB882780F9CC
:101D3000809580FBA7EFB1E08C9185F98C93A0E0B2
:101D4000B1E08C9181FB16F40C94C20E8091F601E7
:101D500081508093F6010091F601003081E009F096
:101D600080E08F930091F6010F3F81E010F009F0C1
:101D700080E09F918923882311F40C94C20E85E0A2
:101D80008093F6010E94AD180091F401013011F02A
:101D90000C94DB0E80910601815080930601009126
:101DA0000601003011F00C94D90E8091240180932B
:101DB00006010C94840F063011F00C94140F8091DE
:101DC000E80181508093E8010091E801003081E052
:101DD00010F009F080E08F930091E8010A3080E074
:101DE00010F009F081E09F91892B882311F40C9465
:101DF000020F86E08093E801A0ECB1E0EEE2F1E5AD
:101E00000E944524E2E7F0E50E945327E0ECF1E070
:101E10000E94D4250E945126EDE0F0E0A4ECB1E050
:101E20000E9442250C94840F023011F00C944D0F47
:101E3000E0EFF1E00E94D925E0EDF1E00E94D42529
:101E40000E94E926EDE0F0E0A0EDB1E00E9442251D
:101E5000E0EDF1E00E94D425E6E7F1E50E9453278A
:101E60000E94BB2510F00C943B0FA0EDB1E0E6E71B
:101E7000F1E50E944524E2E7F0E50E945327E0EDFA
:101E8000F1E00E94D4250E945126EDE0F0E0A4ED9F
:101E9000B1E00E9442250C94840F033011F00C94A1
:101EA000840F8091E90181508093E9010091E9015B
:101EB000003081E010F009F080E08F930091E9019B
:101EC000013180E010F009F081E09F91892B882397
:101ED00011F40C94740F80E18093E901A8ECB1E057
:101EE000E2E7F1E50E944524E2E7F0E50E9453278E
:101EF000E8ECF1E00E94D4250E945126EDE0F0E0EC
:101F0000ACECB1E00E944225A0E0B1E08C9181FBF5
:101F100016F00C94DE0F0091F601013011F00C94D4
:101F2000B00F8091E60181508093E6010091E601B7
:101F30000F3F81E010F009F080E08F930091E601FF
:101F40000A3080E010F009F081E09F918923882316
:101F500011F40C94AE0F80E08093E6010C94DE0F38
:101F6000023011F00C94C40F8091EB0181508093EA
:101F7000EB010091EB010F3F11F00C94C20F80E0D8
:101F80008093EB010C94DE0F033011F00C94D80F0A
:101F90008091EA0181508093EA010091EA010F3FAC
:101FA00011F00C94D60F80E08093EA010C94DE0FC0
:101FB000043011F00C94DE0F0E94EA127091F701C8
:101FC00070617093F7010895A7EFB1E08C9187FBE2
:101FD00016F00C9425117091F7017F777093F7013B
:101FE000A7EFB1E08C9186FB882780F9809580FB74
:101FF000A7EFB1E08C9186F98C93A0E0B1E08C91D1
:1020000081FB16F40C941F10A6EFB1E08C918F5F4A
:102010008C930091F601063081E008F480E08F9304
:102020000091F6010A3081E008F080E09F91892359
:10203000882311F40C941F1081E08093F6010E9414
:10204000AD180091F401013011F00C943C10A6E0A1
:10205000B1E08C918F5F8C93409124010091060137
:10206000041718F011F00C9437100C943A1081E01A
:10207000809306010C94CA10063011F00C9466107F
:10208000A8EEB1E08C918F5F8C930091E80107304E
:1020900010F40C94541081E08093E801A0ECB1E0BE
:1020A000EEE5F0E50E944524E2E7F0E50E945327C3
:1020B000E0ECF1E00E94D4250E945126EDE0F0E032
:1020C000A4ECB1E00E9442250C94CA10023011F039
:1020D0000C94A210E0EFF1E00E94D925E0EDF1E0D0
:1020E0000E94D4250E94F826EDE0F0E0A0EDB1E0DA
:1020F0000E944225E0EDF1E00E94D425EAE7F1E5F7
:102100000E9453270E94BB2518F011F00C948A10EE
:102110000C949010A0EDB1E0EAE7F1E50E944524AF
:10212000E2E7F0E50E945327E0EDF1E00E94D425BC
:102130000E945126EDE0F0E0A4EDB1E00E944225BE
:102140000C94CA10033011F00C94CA10A9EEB1E03F
:102150008C918F5F8C930091E901013110F40C9404
:10216000BA1081E08093E901A8ECB1E0E2E6F0E585
:102170000E944524E2E7F0E50E945327E8ECF1E0F5
:102180000E94D4250E945126EDE0F0E0ACECB1E0D5
:102190000E944225A0E0B1E08C9181FB16F00C94E6
:1021A00025110091F601013011F00C94F410A6EE07
:1021B000B1E08C918F5F8C930091E601093081E052
:1021C00008F480E08F930091E6010B3081E008F085
:1021D00080E09F918923882311F40C94F21088E009
:1021E0008093E6010C942511023011F00C94081133
:1021F000ABEEB1E08C918F5F8C930091EB010930D5
:1022000011F00C94061188E08093EB010C942511D9
:10221000033011F00C941F11AAEEB1E08C918F5F86
:102220008C930091EA01083018F011F00C941A1107
:102230000C941D1188E08093EA010C942511043060
:1022400011F00C9425110E94EA127091F70170614F
:102250007093F7010895709100017260709300010E
:102260000E9485120091F601013011F00C945A1170
:10227000ECE7F3E0A6EEB1E07BE70E945D2583E0AA
:102280008093030188E080930401882780930501EF
:10229000EEECF3E50E940920A0E4B5E0E6EEF1E003
:1022A0000E94C5240E940120E8EDF3E50E94092068
:1022B0000C94DE11023011F00C948011E0E8F3E090
:1022C000ABEEB1E07BE70E945D2583E080930301E4
:1022D00088E080930401882780930501E2EFF3E50D
:1022E0000E940920A0E4B5E0EBEEF1E00E94C524D5
:1022F0000E940120E8EDF3E50E9409200C94DE1114
:10230000033011F00C949F1183E08093030188E067
:1023100080930401882780930501ECEFF3E50E9488
:102320000920A0E4B5E0EAEEF1E00E94C5240E9495
:102330000120E8EDF3E50E9409200C94DE11043041
:1023400011F00C94C91185E08093030188E080931B
:102350000401882780930501E6E2F4E50E94092044
:10236000EEEEF3E50E94092086E08093030188E009
:1023700080930401882780930501E2E3F4E50E943D
:102380000920EEEEF3E50E9409200E94EA120C9467
:10239000DE11053011F00C94DE1183E0809303010F
:1023A00088E080930401882780930501E0E4F4E548
:1023B0000E9409200E9418120C94FA114C990C9456
:1023C000F3118CE291E00E9469204C990C94F31176
:1023D000709100017D7F709300010E9485120E9420
:1023E00085120C94FA11A0E0B1E08C9181FB16F4F7
:1023F0000C9432110E9490210E94E30C84E690E03C
:102400000E946920E2E9F3E50E94F01FA0E4B5E034
:10241000EBEEF1E00E94C5240E94E81F0E94F71F26
:1024200082E390E00E94692081E08093F4010895A6
:10243000E0E7F3E0A0ECB1E094E07BE70E946025E8
:10244000E4E7F3E0A8ECB1E094E07BE70E946025CC
:10245000E8E7F3E0A0EDB1E094E07BE70E946025BF
:10246000EDE7F3E0A7EEB1E07BE70E945D25EEE744
:10247000F3E0A8EEB1E07BE70E945D25EFE7F3E033
:10248000A9EEB1E07BE70E945D2508950895A7E0DD
:10249000B1E0EEE7F1E50E944524A0ECB1E0EEE505
:1024A000F0E50E944524A8ECB1E0E2E6F0E50E94E8
:1024B0004524A0EDB1E0E6E6F0E50E944524A8ED54
:1024C000B1E0EAE6F0E50E94452481E08093E8016E
:1024D00081E08093E90108950E948512A4EFB1E0A4
:1024E0008C918F5F8C930091F401063011F00C9465
:1024F0007C1281E08093F4017091F7017061709318
:10250000F70180E08093FC010895289882E390E031
:102510000E946920289A82E390E00E946920089531
:102520007091F70170617093F701A7EFB1E08C91A2
:1025300081FB882780F9809580FBA7EFB1E08C9123
:1025400081F98C930E948512A0E0B1E08C9184FB0C
:10255000882780F9809580FBA0E0B1E08C9184F918
:102560008C93A5EFB1E08C918F5F8C930091F50176
:10257000063010F40C94BF1281E08093F5014C9961
:102580000C94D7128CE291E00E9469204C990C9433
:10259000D712709100017D7F709300010E94851217
:1025A0000E9485127091000178607093000180E0B4
:1025B0008093FC0108951C990C94E712709100011E
:1025C0007460709300015D9A5E980C94E9125E9AB3
:1025D0005D98089570910001777F709300018CE2FF
:1025E00091E00E9469202398249A0E945620ADE829
:1025F000B1E08C9300918D01003018F011F00C9433
:1026000003130C943213A7EBB1E08C918F5F8C9382
:1026100080918D01A7EBB1E0AD90BB24ADE8B1E0B6
:10262000AA0DBB1D8C9300918D010A3011F00C9402
:1026300021137091000170647093000180E0809319
:10264000B7010091B701083218F011F00C942A1369
:102650000C94321380E08093B701709100017F7B6E
:1026600070930001A0E0B1E08C9186FB16F00C9411
:102670004913709100017F7B7093000180E080938B
:10268000B701EEE8F1E0A5E2B1E00E943D250E942D
:1026900078134C990C9461138CE291E00E946920AC
:1026A0004C990C946113709100017D7F709300012F
:1026B0000E9485120E9485127091000178607093CB
:1026C0000001A0E0B1E08C9183FB16F00C94F512B0
:1026D00070910001777F7093000185E08093F6018F
:1026E00081E090E0ABE8B1E08D939C93249808954D
:1026F00084E30E94F723E5E2F1E003E0A881B981D9
:102700000E944F25A881B981EEE4F4E50E94992545
:102710000FB684E3481A80E0580A22960FBE11F0E3
:102720000C949C130E943114A5E2B1E088278C938D
:10273000A8E5B1E088278C9384E30E94F723E5E2C3
:10274000F1E003E0A881B9810E944F25A881B981F9
:10275000E2E5F4E50E9499250FB684E3481A80E08B
:10276000580A22960FBE11F00C94D51384E0E5E2CE
:10277000F1E002E00A93A8E5B1E00E944825A8E54F
:10278000B1E00E940B25A4E2B1E00C93A4E2B1E019
:10279000BA93AA930E943F182296A5E2B1E0882737
:1027A0008C93A8E5B1E088278C9384E30E94F723FB
:1027B000E5E2F1E003E0A881B9810E944F25A881FC
:1027C000B981E6E5F4E50E9499250FB684E3481A3D
:1027D00080E0580A22960FBE11F00C94F9130E9463
:1027E000AD18A5E2B1E088278C93A8E5B1E0882771
:1027F0008C9384E30E94F723E5E2F1E003E0A881F3
:10280000B9810E944F25A881B981EAE5F4E50E94CB
:1028100099250FB684E3481A80E0580A22960FBE25
:1028200011F00C941D140E94EE14A5E2B1E088276B
:102830008C93A8E5B1E088278C93A5E2B1E0EEE5A2
:10284000F4E50E94992511F00C9430140E94F016C2
:10285000A5E2B1E088278C93A8E5B1E088278C93A6
:10286000089581E08093240100912401083218F03A
:1028700011F00C949E14E2E8F0E50E944627E4E291
:10288000F1E0A190BB24ECEFFFEFAA0CBB1CAA0C5B
:10289000BB1CEA0DFB1DADE0BB2794E07BE70E946B
:1028A0006025E4E2F1E0A190BB24EFE9F0E0EA0D5D
:1028B000FB1DA0E1BB2780E08C937BE70E945D2598
:1028C000A42DB52DE2E6F4E50E940724E4E2F1E050
:1028D000019111274EE050E00E94FD23EAEBF0E069
:1028E000E00FF11FD2017BE70E946E25E4E2F1E0E8
:1028F000A190BB24E6EFF2E0AA0CBB1CEA0DFB1D85
:1029000000E010E0A0E1BB277BE70E945F25E4E246
:10291000F1E0A190BB24E7E4F3E0EA0DFB1DA0E1A8
:10292000BB2780E08C937BE70E945D25A4E2B1E0A9
:102930008C918F5F8C9310F40C943414E8E6F4E5DA
:102940000E943A200E9441200895A7E0B1E0E8816A
:10295000F981A190BB24ECEFFFEFAA0CBB1CAA0CE1
:10296000BB1CEA0DFB1D94E00E947C25E881F981E7
:10297000A190BB24EFE9F0E0EA0DFB1DABE0B1E074
:102980000E947925E881F981019111274EE050E0FC
:102990000E94FD23EAEBF0E0E00FF11FA3E1B1E0BC
:1029A0009DE00E948325E881F981A190BB24E6EF98
:1029B000F2E0AA0CBB1CEA0DFB1DA1E2B1E00E94F3
:1029C0007B25E881F981A190BB24E7E4F3E0EA0DDF
:1029D000FB1DA3E2B1E00E947925089581E00E94E9
:1029E000F72381E00E94F72381E00E94F72381E032
:1029F0000E94F72381E00E94F72381E00E94F723E1
:102A000081E00E94F72381E00E94F72381E00E9489
:102A1000F72381E00E94F7238EE00E94F72382E0F3
:102A20000E94F72381E00E94F72384E00E94F723AD
:102A3000A5E2B1E0E0E8F4E52FEF91E00E94122476
:102A4000AC89BD890C93AC89BD890C9141E0040F20
:102A5000AE89BF890C93AE89BF899C919A93A5E2F8
:102A6000B1E0E0E8F4E52FEF0E940D24AA89BB89CC
:102A70000C93AA89BB890C9141E0040FAE89BF89F0
:102A80000C93AE89BF899C919A93A5E2B1E0E0E8EE
:102A9000F4E52FEF0E940D24A889B9890C93A88929
:102AA000B9890C9141E0040FAE89BF890C93AE89BE
:102AB000BF899C919A93A5E2B1E0E0E8F4E52FEF9D
:102AC0000E940D24AE85BF850C93AE85BF850C9109
:102AD00041E0040FAE89BF890C93AE89BF899C91F8
:102AE0009A93A5E2B1E0E0E8F4E52FEF0E940D240F
:102AF000AC85BD850C93AC85BD850C9141E0040F80
:102B0000AE89BF890C93AE89BF899C919A93A5E247
:102B1000B1E0E0E8F4E52FEF0E940D24AA85BB8523
:102B20000C93AA85BB850C9141E0040FAE89BF8947
:102B30000C93AE89BF899C919A93A5E2B1E0E0E83D
:102B4000F4E52FEF0E940D24A885B9850C93AC897C
:102B5000BD890C9141E0040FAE89BF890C93AA890D
:102B6000BB890C91AE89BF894C91041BA88DB98D8E
:102B70000C93AE89BF898C91E5E2F1E0A88DB98D07
:102B80000C910A93AF81B8850E944825AE81BF8120
:102B90000E940B25AA8DBB8D0C93AA89BB890C9131
:102BA00041E0040FAE89BF890C93A889B9890C91C3
:102BB000AE89BF894C91041BA88DB98D0C93AE8949
:102BC000BF898C91E5E2F1E0A88DB98D0C910A9353
:102BD000AF81B8850E944825AE81BF810E946027E1
:102BE000EDE0F0E0A881B9810E944225E2E7F0E53E
:102BF0000E945327E881F9810E94D4250E94512622
:102C0000EDE0F0E0A881B9810E944225EA8DFB8DBC
:102C1000A190BB24ECEFFFEFAA0CBB1CAA0CBB1CC1
:102C2000EA0DFB1DA881B98194E07BE70E94602535
:102C3000A889B9890C9141E0040FAE89BF890C9332
:102C4000AE85BF850C91AE89BF894C91041BA88DC0
:102C5000B98D0C93AE89BF898C91E5E2F1E0A88D26
:102C6000B98D0C910A93AF81B8850E944825AE8139
:102C7000BF810E940B25AA81BB810C93EA8DFB8D3D
:102C8000A190BB24EFE9F0E0EA0DFB1DAA81BB8116
:102C90007BE70E945D25AE85BF850C9141E0040F66
:102CA000AE89BF890C93AC85BD850C91AE89BF8977
:102CB0004C91041BA88DB98D0C93AE89BF898C9162
:102CC000E5E2F1E0A88DB98D0C910A93AF81B8854A
:102CD0000E944825EA8DFB8D019111274EE050E0BE
:102CE0000E94FD23EAEBF0E0E00FF11FAE81BF810F
:102CF0007BE70E946E25AC85BD850C9141E0040FF9
:102D0000AE89BF890C93AA85BB850C91AE89BF891A
:102D10004C91041BA88DB98D0C93AE89BF898C9101
:102D2000E5E2F1E0A88DB98D0C910A93AF81B885E9
:102D30000E944825AE81BF810E940B25AC81BD81D8
:102D40000D931C93EA8DFB8DA190BB24E6EFF2E07E
:102D5000AA0CBB1CEA0DFB1DAC81BD817BE70E9468
:102D60005F25AA85BB850C9141E0040FAE89BF8920
:102D70000C93A885B9850C91AE89BF894C91041B31
:102D8000A88DB98D0C93AE89BF898C91E5E2F1E0F5
:102D9000A88DB98D0C910A93AF81B8850E94482502
:102DA000AE81BF810E940B25AA81BB810C93EA8D65
:102DB000FB8DA190BB24E7E4F3E0EA0DFB1DAA81A3
:102DC000BB817BE70E945D25E2E8F4E50E943A20A2
:102DD0000E9441208FE1481A80E0580A6C960895BD
:102DE000E2E8F1E50E944627E0E0F0E0ADE0BB2735
:102DF00094E07BE70E946025E0EAF0E0A0E1BB27D9
:102E000082E18C937BE70E945D25A42DB52DEAE835
:102E1000F4E50E940724E8ECF0E0D2017BE70E9491
:102E20006E25E8EFF2E001E911E0A0E1BB277BE7C6
:102E30000E945F25E8E4F3E0A0E1BB2781E08C93EA
:102E40007BE70E945D25E6E8F1E50E944627E4E085
:102E5000F0E0ADE0BB2794E07BE70E946025E1EA6B
:102E6000F0E0A0E1BB2783E18C937BE70E945D2526
:102E7000A42DB52DE4E9F4E50E940724E6EDF0E089
:102E8000D2017BE70E946E25EAEFF2E002E911E051
:102E9000A0E1BB277BE70E945F25E9E4F3E0A0E126
:102EA000BB2782E08C937BE70E945D25EAE8F1E591
:102EB0000E944627E8E0F0E0ADE0BB2794E07BE726
:102EC0000E946025E2EAF0E0A0E1BB2784E18C9358
:102ED0007BE70E945D25A42DB52DEEE9F4E50E9467
:102EE0000724E4EEF0E0D2017BE70E946E25ECEFD0
:102EF000F2E003E911E0A0E1BB277BE70E945F2538
:102F0000EAE4F3E0A0E1BB2783E08C937BE70E9437
:102F10005D25EEE8F1E50E944627ECE0F0E0ADE04B
:102F2000BB2794E07BE70E946025E3EAF0E0A0E1A4
:102F3000BB2785E18C937BE70E945D25A42DB52DF1
:102F4000E8EAF4E50E940724E2EFF0E0D2017BE733
:102F50000E946E25EEEFF2E004E911E0A0E1BB274C
:102F60007BE70E945F25EBE4F3E0A0E1BB2784E070
:102F70008C937BE70E945D25E2E9F1E50E944627FC
:102F8000E0E1F0E0ADE0BB2794E07BE70E94602544
:102F9000E4EAF0E0A0E1BB2786E18C937BE70E94A6
:102FA0005D25A42DB52DE2EBF4E50E940724E0E0B9
:102FB000F1E0D2017BE70E946E25E0E0F3E005E955
:102FC00011E0A0E1BB277BE70E945F25ECE4F3E082
:102FD000A0E1BB2785E08C937BE70E945D25ECEBAD
:102FE000F4E50E943A200E9441200895E2EDF4E5C4
:102FF0000E943A20EEE3F3E50E943A20E0E8F4E58F
:103000000E943A20A0E4B5E0E7E0F1E0552744E073
:103010000E9455220E944520E0E8F4E50E943A20F3
:10302000A0E4B5E0EBE0F1E00E94C5240E94452059
:10303000E0E8F4E50E943A20A3E1B1E00E944720D5
:10304000E0E8F4E50E943A20A0E4B5E0E1E2F1E036
:103050000E94BE240E944520E0E8F4E50E943A2048
:10306000A0E4B5E0E3E2F1E00E94C5240E9445201F
:10307000E8EDF4E50E943A200E944120089584E0A2
:103080000E94F723AA81BB81BA93AA930E94A51438
:103090002296E2E7F0E50E945327E7E0F1E00E9484
:1030A000D4250E94AA26EDE0F0E00E94E425A88144
:1030B000B981EDE0FF270E944225E2EDF4E50E9490
:1030C0003A20A0E4B5E0EA81FB810E94C5240E9479
:1030D0004520E0E8F4E50E943A20A0E4B5E0E8816C
:1030E000F9810E94B8240E944520E0E8F4E50E949E
:1030F0003A20A0E4B5E0EBE0F1E00E94C5240E9494
:103100004520E0E8F4E50E943A20A3E1B1E00E9406
:103110004720E0E8F4E50E943A20A0E4B5E0E1E2CF
:10312000F1E00E94BE240E944520E0E8F4E50E9400
:103130003A20A0E4B5E0E3E2F1E00E94C5240E9459
:103140004520E8EDF4E50E943A200E94412084E009
:10315000481A80E0580A2296089584E00E94F723D6
:1031600081E08093240100912401083218F011F0CD
:103170000C94E218A881B981E4E2F1E0A190BB24AB
:10318000ECEFFFEFAA0CBB1CAA0CBB1CEA0DFB1D4D
:1031900094E00E947C25E881F9810E94D425E2E830
:1031A000F0E50E9453270E94BB2511F00C94DA1819
:1031B0000C94E218A4E2B1E08C918F5F8C9310F430
:1031C0000C94B318A4E2B1E08C9181508C93EEED95
:1031D000F4E50E943A20A0E4B5E0E4E2F1E00E94C8
:1031E000C5240E9445200E94412084E0481A80E0C6
:1031F000580A22960895AAEFB1E00E94BF1FAAEFD5
:10320000B1E00D911C9102345FE0150718F011F048
:103210000C940C190C94171980E090E0AAEFB1E01F
:103220008D939C93ACEFB1E08C918F5F8C93009168
:10323000FC01033018F011F00C9420190C942319A0
:1032400084E08093FC0108950E94851284E08093BD
:10325000FC0108953054008040201008AA020804A0
:10326000AA020402AA3C0204AA010408AA03083024
:1032700040C000AA0300FF00AA4D00FF00AA0300FF
:10328000FF00AA4D00FF00AA0300FF00AA4D00FFA7
:1032900000AA0300FF00AA4D00FF00AA03000304D8
:1032A000081020AA032040AA3F4020AA03201008AB
:1032B000040300AA0200010606000000000000004E
:1032C00000005F000000000300030000147F147F73
:1032D0001400042A7F2A1000231308646200364970
:1032E00056205000000300000000001C2241000096
:1032F00041221C0000002A1C7F1C2A0008083E08EE
:1033000008000040703000000808080808000000AD
:10331000606000006010080403003E5149453E0013
:1033200000427F400000625149494600224149491C
:103330003600181412117F002745454539003E45D7
:1033400045453900016111090700364949493600F0
:103350000E5151513E0000003636000000407636D6
:103360000000000814220000141414141400002299
:10337000140800000201510906003E4955550E008F
:103380007C1211127C007F49494936003E4141417F
:1033900022007F4141221C007F49494941007F09A9
:1033A000090901003E41415172007F0808087F0071
:1033B00000417F4100002040413F01007F0814226E
:1033C00041007F40404060007F020C027F007F028E
:1033D00004087F003E4141413E007F1111110E0063
:1033E0003E4151617E007F0919294600264949491D
:1033F000320001017F0101003F4040403F001F209B
:1034000040201F003F4038403F0063140814630011
:1034100007087008070061514945430000007F41DB
:10342000410003040810600041417F0000000402D5
:103430000102040040404040404001020000000002
:10344000304A4A3C40007F484848300038444444B1
:103450002000304848487F00385454541800000871
:103460007E0900000854545438007F080404780092
:1034700000487A4000000020403D00007F101028E6
:10348000440000007F0000007C047C0478007C087D
:10349000040478003844444438007C1414140800B0
:1034A0000814147C40007C08040408004854545458
:1034B000240000043F4400003C4040207C001C20CD
:1034C00040201C003C4030403C0044281028440070
:1034D0000C5050503C004464544C440000000836EA
:1034E000410000007F000000413608000000080491
:1034F00008040000000000000000000000000000C0
:1035000000000000000000000000000000000000BB
:1035100000000000000000004000400040000000EB
:1035200000000000000000000000143E555541005E
:1035300013086402600000000000000000000000AA
:10354000000000000000000000000000000000007B
:10355000000000000000000000000000000000006B
:10356000000000000000000000000000000000005B
:10357000000000000000000000183C3C18000000A3
:1035800000000000000000000000003C24243C007B
:10359000000000000000000000000000000000002B
:1035A000000000000000000000000000000000001B
:1035B000000000000000000000000000000000000B
:1035C00000000000000000000000000000000000FB
:1035D0000000005A24245A000000000000000000EF
:1035E000770000000000000000007C555455540096
:1035F0003E415D55413E00000000000008142A14C1
:103600002200020202020E00000000000000000082
:10361000000000000000000000000609090600008C
:1036200000242E2400000000000000000000000024
:103630000000000000000000FC2040403C00040EA0
:103640007E027E0000000800000038555455180026
:103650007810207E020000000000000022142A14CE
:103660000800000000000000000000000000000052
:10367000000000000002780200007C1211127C00A1
:103680007F49494930007F49494936007F0101019E
:103690000100407E417F40007F4949494100770851
:1036A0007E0877002241494936007F2010087F00BC
:1036B0007F2011087F007F0814224100403E010155
:1036C0007F007F0204027F007F0808087F003E41E0
:1036D00041413E007F0101017F007F090909060089
:1036E0003E414141220001017F0101000748484855
:1036F0003F000C127F120C006314081463003F207B
:10370000203F6000070808087F007F407C407F0062
:103710003F203C203F60017F484830007F48300018
:103720007F007F4848483000224149493E007F08D9
:103730003E413E00462919097F0020545454780028
:103740007854545420007C54545428007C040404BD
:1037500004000854545438003854545418006C1061
:1037600078106C002844545428003C4040407C00B1
:103770003C4044407C007C10102844004038040445
:103780007C007C0810087C007C1010107C00384401
:10379000444438007C0404047C007C1414140800A5
:1037A0003844444428007C047C0478000C50505079
:1037B0003C0008147C1408004428102844001C20F5
:1037C000203C60000C1010107C003C4078407C00D5
:1037D0001C2038203C60047C505020007C5020008D
:1037E0007C007C50505020002844545438007C10F9
:1037F00038443800085434147C00020A14000000D5
:1038000000000000000000000000000000000000B8
:10381000000000000000FE000000000000000000AA
:103820001B000000000000001E0000001E00000041
:10383000000000000000000000000020A07826A08A
:103840007826200001190701190701010100000075
:103850001C2642FF8202000000001810103F110FCA
:1038600000001C2222229C4030080402100804039D
:10387000000E1111110E00805C62A2321C0000804B
:103880000708101011131C181601000000001E007C
:103890000000000000000000000000000000000028
:1038A00000E0180C0402020000000007183020009D
:1038B0000000000202040C18E000000000000020DC
:1038C000301807000000000818F04EF0180800003B
:1038D0000000000000000000000000000000E00008
:1038E00000000000020202021F02020202000000A9
:1038F0000000000000000000000000183800000078
:1039000000000000000000000000000000000101B5
:1039100001010101000000000000000000000000A3
:10392000000000181800000000000000000000C0A7
:10393000300C02000000300C03000000000000F01A
:103940000C0202020CF0000000030C1010100C031B
:10395000000000040404FE0000000000001010102D
:103960001F10101000000006020202C23C000000FE
:103970000018141211101000000000000242424210
:10398000BC0000000000101010100F00000000C06C
:10399000201804FE0000000003020202021F0202BF
:1039A000000000003E2222428200000000001010B1
:1039B00010080700000000F04C2222224280000084
:1039C0000007081010100807000000020202C232AF
:1039D0000A06000000001807000000000000001C9C
:1039E000A24242A2A21C0000000F101010100906F3
:1039F000000000788402020284F800000000101128
:103A000011110C03000000000060600000000000C5
:103A100000000018180000000000000000606000B6
:103A20000000000000000018380000000000000046
:103A300000008080404020000000030304040808C8
:103A4000100000808080808080808000000404045A
:103A500004040404040000204040808000000000B2
:103A600000100808040403030000000E0202824252
:103A7000261C00000000001B000000000000F018E1
:103A800004E2120A8AFC0000030C181314161B0728
:103A90000404000080701830C0000000100E030203
:103AA000020202030C1000F8888888884830000061
:103AB000001F10101010110E0000C0301008080870
:103AC00008180000030C081010101010000000F877
:103AD0000808080810E00000001F10101010080768
:103AE000000000F80808080808080000001F11116D
:103AF00011111110000000F808080808080800005B
:103B0000001F010101010100000000C03010080881
:103B10000808180000030C08101011111F0000F80D
:103B20000000000000F80000001F01010101011F5A
:103B3000000000080808F80808080000001010102D
:103B40001F1010100000000000080808F800000016
:103B50000000101010100F00000000F880804020BE
:103B600010080000001F000102040408100000F803
:103B70000000000000000000001F101010101010C6
:103B80000000F838E00000C038F800001F0001070E
:103B90000601001F000000F81060800000F800001F
:103BA000001F00000106081F000000E010080808C0
:103BB0000810E0000007081010101008070000F8B7
:103BC0000808080888700000001F010101010000BA
:103BD000000000E0100808080810E00000070810C6
:103BE00010103008070000F808080888700000006E
:103BF000001F0101030408100000007048888808B5
:103C000008180000001810101011090E0000080814
:103C10000808F80808080800000000001F0000005D
:103C2000000000F80000000000F800000007181075
:103C30001010080700000830C000000000C0300865
:103C40000000010618180700000018E00000E0C09E
:103C50000000E01800031C0F00010E1C03000810F8
:103C60002040808040201008100804020101020456
:103C7000081008106080008040201008000000003C
:103C80001F000000000000080808088848281800E5
:103C900000181412111010101000000000FE020293
:103CA000020200000000003F0000000000000002CF
:103CB0000C30C000000000000000000000030C30C9
:103CC00000000002020202FE0000000000000000EE
:103CD000003F00000000000000E0380E708000008F
:103CE00000040300000000030400000000000000C6
:103CF0000000000020202020202020202020000084
:103D000000000102000000000000000000000000B0
:103D10000000000020202020C0000000000C121134
:103D200011091F10000000FE4020202060800000CC
:103D3000001F0810101008070000008040202020FD
:103D40002020000000070810101010100000008054
:103D50004020202040FE0000000718101010081F0F
:103D6000000000804020202020C000000007091132
:103D7000111111110000002020FC24222222220017
:103D80000000001F000000000000008040202020F4
:103D900040E00000000718101010083F000000FE6F
:103DA0008040202020C00000001F00000000001FF5
:103DB000000000202026E6000000000000000000B7
:103DC0001F00000000000000202026E60000000088
:103DD00000000000003F0000000000FE00008040E6
:103DE00040200000001F0103040408100000000030
:103DF000020202FE0000000000000000001F0000A0
:103E00000000E0402020C0402020C0001F00000033
:103E10001F0000001F0000E0C040202020C0000064
:103E2000001F00000000001F000000804020202034
:103E3000408000000007081010100807000000E094
:103E40004020202060800000003F0810101008076C
:103E5000000000804020202040E0000000071810F3
:103E60001010083F00000000E080402020E000002B
:103E700000001F0000000000000000C020202020E3
:103E8000200000000018111112120C000000002088
:103E900020F82020202000000000000F101010103B
:103EA000000000E000000000E0000000000F101023
:103EB00010081F00000020C00000000000C020000B
:103EC00000010618100C0300000060800000C08094
:103ED000000080600007180E01010E180700002086
:103EE0004080000080402000001008040303040804
:103EF000100020C0000000000000C02000000306E9
:103F0000381806010000002020202020A06020009A
:103F10000010181412111010100000000000FC0214
:103F200002020000000001013E000000000000004D
:103F30000000FE0000000000000000003F00000044
:103F400000000000020202FC00000000000000006F
:103F5000003E010100000080808000000000008021
:103F6000030000000101020202010080C0201020B5
:103F7000C0800000001F10101010101F0000ED91F5
:103F8000FC91EF5FFF4FFC93EE93089505D00E94E4
:103F9000FD2300FC0CD008950024E89457FF02C0D4
:103FA00009D0689400F80BD010F80124089502D0CD
:103FB00009D00895509540954F5F5F4F0895E8945C
:103FC00017FF0895009510950F5F1F4F689408958F
:103FD000A0E4B5E08D91882311F00CD0FBCF0895BB
:103FE0000E943D24802D11F005D0FACF08958DE078
:103FF00001D08AE00090C00005FEFCCF8093C6008F
:104000000895A0E4B5E08D91882311F00FD0FBCF87
:1040100008950E943D24802D11F008D0FACF089514
:1040200088EE93E056D03197D9F708950C94A021EB
:104030003197F1F70895689462F80895E89462F86A
:1040400008958F939F9383E690E00197F1F79F91F6
:104050008F91089580952AE090E0089410F42C98B0
:1040600002C02C9A0000EDDFECDF969587952A952B
:10407000A9F708950E943D24802D11F0EBDFFACFBF
:1040800008958DE0E7DF8AE0E5CFA0E4B5E08D910B
:10409000882311F0DFDFFBCF08958F939F9383E692
:1040A00090E00197F1F79F918F9108951B9B02C0BB
:1040B0008827089529E01B99FECFEFDFEEDFEDDFC3
:1040C00088941B9908942A9519F087959795F6CFAF
:1040D0000895EF93FF93EE27E82BE92B31F0EAEFF9
:1040E000F0E03197F1F70197D1F7FF91EF91089543
:1040F0008DE207FD8D938F2D881F802F881F8F578E
:10410000082F6894F7F8802F87FF15C08095839556
:10411000082F80E38D938EE28D93802F815228F0BB
:1041200080E38D9399279C93089544270A95802FC7
:1041300009F196D01FC0805230F09EE49D9381E437
:104140008D939D93EFCF4427DF92EF92FF920F93D1
:104150008FE1801B11F0082F83D089D09EE29D93C0
:104160000F91FF90EF90DF9044270395003209F400
:10417000D7CF2BD03F93E0E0F2E438E12F2D1E2D76
:104180000D2DFF24EE24DD244427000F111F221FD4
:10419000A8F42F923F920E943D24102C0E943D24AF
:1041A000202C0E943D24302C0E943D243197410D4B
:1041B000D21CE31CF01C3F902F9001C03396319627
:1041C0003A9519F73F9107D0AFCFDD0CEE1CFF1CDD
:1041D0000A95D9F70895002719E058D08F93802BBE
:1041E00011F0039501C08F911A95B9F7802F88239C
:1041F00009F496CF8F91805D8D930A95D9F792CF70
:104200000065CD1D80B2E60E40597307A0ACB9031E
:1042100050D6DC01286BEE0094357700CA9A3B003B
:1042200065CD1D00B2E60E0059730700ACB903005E
:10423000D6DC01006BEE0000357700009A3B0000F1
:10424000CD1D0000E60E000073070000B90300005A
:10425000DC010000EE000000770000003B000000E1
:10426000F694E794D79447950A95D1F708950027D7
:104270000DD08F9303958F2D8E298D29842BC1F717
:104280008F91805D8D930A95D9F74CCF1F930F9333
:10429000002710E2440FDD1CEE1CFF1C001F802FC6
:1042A0009AE0890B10F0082F43951A9599F7802F03
:1042B0000F911F9108952B9884E699270E946920F9
:1042C0002B9A8AE099270E9469204198439A81E2BB
:1042D00011D088EC0FD086E00DD083E10BD080E2C6
:1042E00009D08CE007D00895863219F481E08093DC
:1042F000FF010895429801C0429A7F93439898E045
:10430000880F10F4409A01C0409800000000419AC4
:104310000000000041989A9599F7439A7F9108957B
:1043200000E480E2E7DF802FE5DF80E8E3DF882735
:1043300014E5E2DF1A95E9F70395063491F708953D
:104340002091FF01213069F4282F203808F02FE751
:10435000206881E2CFDF822FCDDF80E08093FF01F4
:104360000895EF93FF93509103015F9370900401C0
:10437000E0910101F09102010E943D24202D0E9454
:104380003D24302D0E943D24002D0E943D24602DAF
:104390008052482F0E948D25E40FF51FCC24112454
:1043A000E22E603059F1DD24DA94CD2CFF24032F66
:1043B0000E943D2421F00A95E00FF11D03C0F39403
:1043C0000A95B1F7FD1408F4DF2CEA9479F7E22E90
:1043D000FF24032F3197C895002021F00A95E01B98
:1043E000F10903C0F3940A95A9F7FC1408F4CF2C43
:1043F000EA9471F7D31611F4D62ECC2470920401EE
:10440000732F7C1940910401509103015F930E9426
:104410004B225F91603041F0DD2031F05D2D0E9434
:104420003D245A95E1F77D190E943D24802D50913D
:104430000501552309F0809540910401453514F498
:104440000E947C21509104015395509304017A9568
:1044500059F7EC0DF11D603081F050910501762F78
:104460008827552309F080950E947C217A95C1F711
:1044700050910401560F509304015091030153953C
:10448000509303012A9509F0B9CF5F91509303012E
:10449000FF91EF9108954A955A9580E22BDF80E4D1
:1044A000850F28DF80E8840F25CF0E94D4250E9445
:1044B0002A2617FF03C08DE28D931127003821F4BF
:1044C000E8E8F7E40C9407240F3741F4FF2019F4CF
:1044D000EEE7F7E4F7CFEAE7F7E4F4CF4A934A933D
:1044E0004A935A93BA93AA93BB270F5F02F5BB274F
:1044F000802F0A950E9434268D3E90F4E8EDF7E473
:10450000A3E00E9453270E94BB25BB1FB0FF06C03B
:1045100070970E9453270E94AA263C96AA9589F775
:10452000E4EDF7E40E9453270E94AA2622C0093036
:1045300058F1033178F10A3130F418E08BE192E957
:10454000ECE8F7E42EC00A950E943426ECECF7E480
:10455000BFEFA3E00E9453270E94BB25BB1FB0FD05
:1045600006C038960E9453270E94AA263C97AA9517
:1045700089F7B095BB0F0E942A26039513E08AEFB6
:1045800099E0F816090740F413E08BE094E0E0EAC4
:10459000F7E407C016E001C0B39583E194E2E4E9D3
:1045A000F7E46A81BF3F19F4BB2711276260BD831E
:1045B0006A831C83A881B98160E36D93A883B98362
:1045C0006D93081B0195AA24BB246A816A7F00238E
:1045D00039F0F694E794D794B794A7940A95F7CF57
:1045E00019E000270E945327CC248FEF74E0AC140D
:1045F000B206D306E406F50630F0AC18B20AD30AC8
:10460000E40AF50A21F1881F7A9531F0569547950D
:1046100037952795C794EBCF809522D041F096959A
:1046200008F7FE2CED2CDB2CBA2CAA24DBCF25D0EE
:104630005D813C812B8170D0277021F02BD06CD014
:10464000E8F301C03CD04CD078D0269608958894E9
:10465000881F7A95E9F7809503D049F38827FCCF26
:10466000806360FD06C0803311F0616002C0039575
:1046700061FD8D9360FD1A95089599278E919C9305
:1046800085338E9108F083958A3308F080E38C930C
:10469000C0F70895732F720F61FF701B0AD0129636
:1046A000785019F050F38E9380E38E937150EAF7AF
:1046B0000895A881B981A70F8827B81F089579E0C8
:1046C00061FD700FF6DF48E0431B400F8AF381F372
:1046D00099274A9569F38E91803351F79C93F9CFCE
:1046E000732F61FF701B7395A881B981EA2FFB2F8F
:1046F00011978191803361FF09F08D937A9511F4C0
:104700008EE28D9381918823C1F7772311F480E3A2
:104710008D9388278C930895889462FD08950023D3
:1047200059F4A881B9818C91803331F0552321F05F
:10473000539533506460089408955523E9F085E457
:104740008D931AF48DE28D935195652F660F560F58
:104750005A3010F060E503D068E001D0DACF8FEF77
:1047600074E0561708F0561B881F7A9511F066956D
:10477000F8CF809580638D9308954E414E00496E29
:1047800066696E6974790000302E300000404B4C31
:104790000020A107000050C3000088130000F401AE
:1047A000000000320000000500008000CCCCCC0CE2
:1047B00014AE47019CC42000DC460300E353000014
:1047C00063080000D7000000150000001CC25367FA
:1047D000A5D468530024744915BE9A17CCBC8C2B01
:1047E000BD37863501911191219130810895992726
:1047F0005A924A92480E591E08950F92B801469F48
:104800008001479F100D569F100D0F9008950E9434
:104810003D240D920020D9F7089599910027A90F02
:10482000B01F1197492F4A955E2F6F2FE8941127DB
:104830004395203019F0C895802D01C080818823D0
:10484000B9F07C917723A1F0781739F40EF0042F9A
:104850001395689411963196EBCF112321F0411BEB
:10486000A11B1127B10BE894E52FF62F1196E0CF8D
:10487000882311F0002708950895C89531960020E7
:10488000089591E005C092E003C094E001C098E073
:10489000F4DF0D929A95E1F7089599278D919395FC
:1048A0008823E1F7939511968C9311978E919A95A1
:1048B000D1F70895EA2FFB2F00244C918D9103949A
:1048C0008E32E1F711248D9113948823E1F71A9425
:1048D000101640F41197202F2119239580E38D9312
:1048E0002A95E9F7113039F59927AE2FBF2FA00D82
:1048F000B91FA00FB91F8C919C93853308F421C078
:1049000031E08E918E32E9F38D3241F0830F8A339C
:1049100019F480E331E001C033278C93AE1789F797
:10492000332341F0AE2FBF2FB8DF81E34D3209F4BE
:104930003196808308958827E00DF81FE00FF81F57
:1049400080830895040F151F261F371F0895000F39
:10495000111F221F331F0895009510952095309543
:104960000F5F1F4F2F4F3F4F0895019110810FC0D0
:104970000E94F2230EC00E94F22310C00191108108
:1049800017FF05C03FEF2FEF04C00081112722273A
:10499000332737FF03C0E0DF8DE28D93CF92DF92A4
:1049A000EF92AA24BB24CC24DD24EE2440E2EAE0EA
:1049B000FF2755E093E38081890F87FD9F7083FD7A
:1049C000907F891B81935A95A9F7C1DFAA1CBB1C54
:1049D000CC1CDD1CEE1C4A9551F7E894EFE0FF2754
:1049E00082910CD0EB30E0F71EF068948A2D0AD04B
:1049F00088278D93EF90DF90CF900895982F829520
:104A000001D0892F8F70805D26F0803309F40895DE
:104A100068948D93089500271127222733271DD0EE
:104A20008A3328F4803318F005D015D0F9CF0EF46E
:104A300093CF089580538F93402F512F622F732F60
:104A400086DF85DF7FDF83DF8F919927080F191FAE
:104A5000291F391F08958D910895E894FCDF803255
:104A6000E9F38B32D9F38930C9F38D3211F46894AC
:104A7000F2CF089588278D93089581918D9388238F
:104A8000E1F7089594E081918D939A95E1F7089567
:104A900009919191992351F08A95D9F73197002383
:104AA00029F081918D930A958823C9F7E3CFF9996D
:104AB000FECFE1BDF2BD3196089591E001C092E0D4
:104AC0007B3751F47FB7F894F2DF8D9180BDFA9A6D
:104AD000F99A9A95C9F77FBF77270895E8DF8D91F6
:104AE0007B3729F480BDFA9AF99A8823B9F777279A
:104AF000089591E001C092E0DADFF89A80B58D93D5
:104B00009A95D1F70895D3DFF89A80B58D938823CD
:104B100019F09A95C1F79D930895FF935527F8E0F2
:104B2000469508F4500F57954795FA95D1F7FF91A0
:104B30000895689401C0E894AF93BF938D9116F0E7
:104B4000919103C00E943D24902D891718F011F413
:104B50008823A1F7BF91AF910895B7FE089590E81B
:104B6000B91611F4D0FE08959FEFD91AE90AF90A8F
:104B700009F4039508950F928F939F93D216E3063D
:104B8000F4060FB680E890E8802795270FBE8907C6
:104B900039F00FB6892B87FD02C081E008260FBED1
:104BA0009F918F910F900895D190E190F190019194
:104BB000089521913191419151910895502F2D2DBA
:104BC0003E2D4F2D612F0895EFDF992711278F2D4F
:104BD000880F80E8F82A802F881F08F41FEF41F023
:104BE0008F57082F07FD04C0003240F08FEF01C03F
:104BF0008827982FD82EE82EF82E09C08FE1801B29
:104C0000082FF694E794D79497950A95D1F7112336
:104C100051F09095D094E094F09481E0980F88271B
:104C2000D81EE81EF81E0F2DFE2CED2CD92E08954F
:104C3000D094E094F09491E0D90E9927E91EF91EE2
:104C400010950895652F90E8440F551F5927990F27
:104C500047956078102F90E8FF0C001F0927990FE7
:104C6000F794107800380895FF0C90E89027110F02
:104C70009795F794092F08952DEC3CEC4CEC5DE3EF
:104C800066270FC091DF9ADFDD24EE2490E8F92E2D
:104C90000FE307C08EDF05C02227332740E251E42F
:104CA0006627552351F1002381F1CCDF71F11627DE
:104CB000005850580894050B18F407FD03C025C090
:104CC00007FD23C0469537952795F694E794D7942A
:104CD00025D0FF202AF0DD0CEE1CFF1C015073F0E4
:104CE0009D2D969548F0DD203AF4EE202AF491E0CF
:104CF000D90E9927E91EF91EB7CF07C09FE7092FE4
:104D0000F92A9FEFD92EE92E0895DD24EE24FF2401
:104D10000027112708950FE79FEFF2CF9F92992464
:104D2000AA24BB2488E1D216E306F40628F0D21A9E
:104D3000E30AF40A089401C08894991CAA1CBB1CBD
:104D4000DD0CEE1CFF1C8A9571F7D92CEA2CFB2C8C
:104D50009F90089577DFD9F05038C9F01627005892
:104D6000952F90580894091F12F418F40EC008F0FB
:104D70000EC00FD0FF202AF0BB0CDD1CEE1CFF1C68
:104D800002C0039513F0E9DE6FCF0C947E260C94DD
:104D900085269F92FF92EF928D2DFF24EE24DD2435
:104DA000BB2493E0849F1001829FB00CD11CE21CB5
:104DB000F31C839FD00CE11C2224F21C9A9531F045
:104DC000BD2CDE2CEF2CFF248F91ECCF9F9008950B
:104DD000F0DE38DF503829F090E869270CC00AF07F
:104DE00045D042CF5FE322273327442701C0E1DECD
:104DF00029DF5038B1F3003899F3902F951B8BF3CE
:104E000012F434D0FACF983118F0222733274427F0
:104E1000983028F0232F342F44279850F9CF992326
:104E200029F04695379527959A95D9F7912F96278A
:104E300042F014D0B0F6F794E794D7940F5F8BF656
:104E40005DCF10D051F008F4F3DEFF2052F2DD0CFC
:104E5000EE1CFF1C0150CBF751CF57CFD20EE31EF3
:104E6000F41E0895D21AE30AF40A0895DF92EF922D
:104E7000FF920F931F93D22EE32EF42E052F162FA1
:104E80006F915F914F913F912F9108950E943D2422
:104E9000D02C0E943D24E02C0E943D24F02C0E9446
:104EA0003D24002D08950E943D24202D0E943D2484
:104EB000302D0E943D24402D0E943D24502D089508
:104EC0000E941E2088278A938A931FDF11278D91C5
:104ED0008032E9F31197BBD098F08D3229F4109508
:104EE00011968C91B4D060F08E3229F411968C9189
:104EF000AED008F446C022960E941B2081E008959F
:104F00008C91A5D0D8F5119646D0D0F703958D9108
:104F10009ED0E0F38E3229F48C9199D010F4119642
:104F2000FBCF853419F0853609F055C011968C9168
:104F30008ED060F08D3219F08B3221F0DCCF0880FA
:104F40000094088211968C9182D0A8F680538983B0
:104F500011968C917CD058F49981990F990F098002
:104F6000900D990F8053890F8983873220F68981AC
:104F7000988199230AF48195080F2DC08E3289F605
:104F800011968C9164D068F606D018F011960A95A7
:104F9000F8CF1196C1CF4F2D3E2D2D2DDD0CEE1CDF
:104FA000FF1CA8F0DD0CEE1CFF1C88F0D20EE31EE7
:104FB000F41E68F0DD0CEE1CFF1C48F0805309F075
:104FC0006894D80E8827E81EF81E08F00895F42E7D
:104FD000E32ED22E089534D019F116F5098308E98D
:104FE00021D00695882787959F2D9F77980FF92EBA
:104FF0000150000F110F07958981882379F01AF469
:105000008195898306C038DE89818A958983D9F79D
:1050100005C042DE89818A958983D9F72296089551
:1050200074DEFCCF0DD041F0FF2032F00A9531F054
:10503000DD0CEE1CFF1CD2F78894089508940895A7
:1050400000240D280E280F28002A00200895803300
:1050500020F08A3310F40894089588940895E0733A
:10506000B0493C1C884A00C8AF496043844A0000EC
:10507000FA4200401C4600002A430000A0409A99D2
:10508000193F0000000000008642CDCC8F42CDCCFD
:10509000944200009A4266669F420000A542CDCC31
:1050A000AA420000B1420000B7429A99BD42CDCC5D
:1050B000C2420000C8420000CF426666D642CDCC54
:1050C000DD429A99E5429A99ED420000F6429A999A
:1050D000FE42CDCC034300800843CD4C0D43333317
:1050E00012436666174333B31C433333224366E6E9
:1050F0002743CDCC2D4333B3334333333A43CDCC65
:10510000404300804B4333B352439A195A4333B35D
:1051100061439A996943CDCC7143CD4C7A43B07BBE
:10512000B0496887B049D046B149A04EB149F09422
:10513000B14900007A440050C347361D884A301EEA
:10514000884A2A1F884A2420884A1E21884A182211
:10515000884A1223884A0C24884A0625884A002651
:10516000884AFA26884AF427884AEE28884AE82995
:10517000884AE22A884A0093A3494089954A003F19
:10518000B149CD8CD8439A99D84366A6D84333B356
:10519000D84300C0D8433030303000005648462F46
:1051A0005548462054525800415820656C656B7430
:1051B000726F6E696B61000030303031000030304A
:1051C00030320000303030330000303030340000F6
:1051D000303030350000303030360000303030377D
:1051E00000003030303800003030303900003030CE
:1051F00031300000303031310000303031320000C9
:10520000303031330000303031340000303031354F
:10521000000030303136000030303137000030309F
:105220003138000030303139000030303230000089
:105230003030323100003030323200003030323322
:105240000000303032340000303032350000303071
:105250003236000030303237000030303238000053
:1052600030303239000030303330000030303331EC
:105270000000303033320000303033330000303043
:105280003334000030303335000030303336000026
:105290003030333700003030333800002053494D70
:1052A000504C4558204D4F44452020002052455039
:1052B0004541544552204D4F4445202000002000D8
:1052C000434820550000202020202020202020209E
:1052D00020200000434820560000202020202020CD
:1052E000202020202020202020005458504C3D0019
:1052F000487A202020004348000020202020000081
:10530000204543484F4C494E4B2000002020202090
:10531000202020202020202020202020200020438A
:105320004820000020202020202020200000415480
:105330002B444D4F53455447524F55503D0030007C
:105340002C002046524545205345542000005374FC
:1053500065702031322C35206B487A2020200000E7
:105360005374657020313030206B487A2020200043
:10537000537465702031204D487A20202020200071
:1053800053746570203130204D487A202020202031
:10539000000041542B444D4F534554564F4C554DEE
:1053A000453D000041542B444D4F5345544D494316
:1053B0003D0020504D52206368616E6E656C200088
:1053C000434820002053455455502020000053717D
:1053D00075656C63683D200020202020202020007F
:1053E000507265737320656E636F64657200202070
:1053F0000000566F6C756D653D2000004D6F642E8A
:10540000206C6576656C3D2000004C4F4144204384
:1054100048414E4E454C5300536176652073657488
:1054200074696E6700004C6F6E672050726573730D
:105430002000456E632E20746F204578697400004B
:10544000536176652073657474696E6773004D43AC
:1054500049004D4352004D4343004D4357004D43D7
:105460005400454D505459004D656D6F7269657318
:1054700020696E697469616C697A65642E2E2E00EC
:105480003B00557064204F4B00004C4A2D5445534F
:10549000542031004C4A2D544553542032004C4A7C
:1054A0002D544553542033004C4A2D544553542019
:1054B00034004C4A2D5445535420350054657374C0
:1054C000206461746120656E74657265642E2E2E91
:1054D00000004D43523B00003B454E4400004D430D
:0454E000433B00004A
:00000001FF
