:100000000C9434000C94FD0E0C94710F18950000A4
:10001000189500001895000018950000189500002C
:10002000189500001895000018950000189500001C
:10003000189500001895000018950000189500000C
:1000400018950000189500001895000018950000FC
:1000500018950000189500001895000018950000EC
:1000600018950000189500008FEF8DBFC0ECE8E5F3
:100070004E2E88E08EBFD7E0F5E05F2EA89584B7BE
:10008000082E877F84BF88E1992780936000909332
:100090006000EEEFF7E0A0E0B1E088278D933197A4
:1000A000E9F78CE08093C40080E08093C50088E18C
:1000B0008093C10072E07093C000662470910001CB
:1000C0007F7770930001239A3B9A3A9A389A399A2B
:1000D0000E94F5240E94F5240E942A2581E20E94B4
:1000E00014258EEB0E94142581E080930601249A4A
:1000F0002C9A23987894709100017062709300019B
:10010000ADECB1E0E2E9F7E50E94DF27A5EDB1E053
:10011000E6E9F7E50E94DF27A9ECB1E0E2E9F7E5BF
:100120000E94DF27ADEDB1E0EAE9F7E50E94DF27A5
:10013000A5EEB1E0EEE9F7E50E94DF27E2EAF7E598
:100140000E94ED2AE9ECF1E00E946E290E94EB2961
:10015000EDE0F0E0A9ECB1E00E94DC28ADEEB1E00A
:10016000E6EAF7E50E94DF27709100017F7E709339
:10017000000170910001777F70930001A6EFB1E05C
:10018000EAEEF8E50E94A127ABEFB1E0EAEEF8E570
:100190000E94A127E1E3F3E0A0E1B0E00E9413296F
:1001A0000A3018F011F00C94D7000C94E000E1E351
:1001B000F3E0A0E1BB2781E08C937BE70E94F72866
:1001C000E1E3F3E0A0E0B2E00E94132980E1809334
:1001D000010281E08093020281E08093030288E0C3
:1001E00080930402E4E3F3E0A0E1B0E00E9413296D
:1001F0000A3018F011F00C94FF000C940801E4E3AD
:10020000F3E0A0E1BB2788E08C937BE70E94F7280E
:10021000E4E3F3E0A5E0B2E00E941329709100014D
:100220007B7F70930001559A569A709100017E7FF2
:1002300070930001209A289AAAE0B2E0EAEAF7E572
:100240000E94DF2700E010E020E030E0A6E0B2E00E
:100250000D931D932D933C9381E08093110281E0D7
:1002600080930F0283E08093100283E08093C101AA
:1002700082E080930E02709112027F7770931202D7
:1002800080E0809313028CE00E940E25A5E1B2E08D
:10029000E0EFF8E50E94A12788E0E5E1F2E004E064
:1002A0000A93A5E2B2E00E94E228ECE3FFE3A1E0BA
:1002B000B1E0ED93FC9381E0809303018AE08093A9
:1002C0000401882780930501E0E0F9E50E94A3235B
:1002D000E8EFF9E3A1E0B1E0ED93FC9384E08093D3
:1002E000030181E080930401882780930501ECE0FD
:1002F000F9E50E94A32385E08093030181E08093C8
:100300000401882780930501ECE1F9E50E94A3230D
:10031000A5E2B2E00E949D238FEA8093140200912F
:100320001402033C18F011F00C94A90181E20E9420
:100330001425809114020E94142584E690E00E9406
:100340000324A4E1B2E08C918F5F8C9310F40C94A1
:100350008F01E1E0F0E00E94AA230E94F5240E94B0
:100360002A2581E20E94142583EC0E9414250E9414
:10037000EE155398529854985C9A5A9A5B9A229820
:100380001A9A709112027B7F70931202709112027E
:10039000726070931202709112027E7F709312024B
:1003A00024981C9A579A5F9A81E085BD80E084BDAD
:1003B0007894809169008C7F82608093690080913D
:1003C0006900837F886080936900E99AE89A0E94B7
:1003D0002A25E0EAF0E0A0E1B0E00E9413290F3FF7
:1003E00011F00C94F80185E080930E020C94FB014F
:1003F00081E080930E0270916800746070936800D1
:100400007CE170936D00709168007160709368007A
:1004100070916B00706170936B0070911202786044
:10042000709312020E949915E2EAF7E50E94ED2A04
:10043000E5EEF1E00E946E290E94EB29EDE0F0E08C
:10044000A9EEB1E00E94DC281C990C942A025F9866
:100450000C942B025F9A709100017D7F70930001D4
:100460000E944416A3E2B0E00C9104FB81E00EF080
:1004700080E08F93A0E0B1E08C9182FB81E00EF0F0
:1004800080E09F918923882311F40C945502709188
:1004900000017B7F7093000184EF91E00E940324B0
:1004A000709112027860709312025498AEE2B2E03A
:1004B0009C9197FF04C04C9B10C09F779C934C99D4
:1004C0000CC089E19F9390E00E9403249F914C9976
:1004D00004C090689C930E94D51500910E020130D3
:1004E00011F00C943707709100017F7E709300012A
:1004F000A6E0B1E0BA93AA930E9431182296EBE1EC
:10050000F1E00E946E29EEEAF7E50E94ED2A0E94D2
:10051000552911F00C949102709100017F7E709327
:100520000001EBE1F1E00E946E29EEEAF7E50E949E
:10053000ED2A0E94552911F40C94A3027091000138
:10054000706170930001E7E0F1E0A1EDB1E00E947D
:10055000DC28EDEBF1E00E947329E1EDF1E00E946F
:100560006E290E94922AEDE0F0E0A1EDB1E00E9438
:10057000DC2800910B01003011F00C94CD02ACE0AE
:10058000B1E0EEEAF7E50E94DF27A6EFB1E0EAEE80
:10059000F8E50E94A1270C947705013011F00C9426
:1005A000DF02ACE0B1E0E2EBF7E50E94DF27A6EF67
:1005B000B1E0E2E2F9E50E94A1270C947705023050
:1005C00011F00C94F102ACE0B1E0E6EBF7E50E942B
:1005D000DF27A6EFB1E0E8E2F9E50E94A1270C943D
:1005E0007705033011F00C940303ACE0B1E0EAEBC3
:1005F000F7E50E94DF27A6EFB1E0EEE2F9E50E9401
:10060000A1270C947705043011F00C941503ACE08D
:10061000B1E0EEEBF7E50E94DF27A6EFB1E0E4E3FF
:10062000F9E50E94A1270C947705053011F00C9490
:100630002703ACE0B1E0E2ECF7E50E94DF27A6EF8C
:10064000B1E0EAE3F9E50E94A1270C9477050630B2
:1006500011F00C943903ACE0B1E0E6ECF7E50E9450
:10066000DF27A6EFB1E0E0E4F9E50E94A1270C94B2
:100670007705073011F00C944B03ACE0B1E0EAECE5
:10068000F7E50E94DF27A6EFB1E0E6E4F9E50E9476
:10069000A1270C947705083011F00C945D03ACE0B1
:1006A000B1E0EEECF7E50E94DF27A6EFB1E0ECE465
:1006B000F9E50E94A1270C947705093011F00C94FC
:1006C0006F03ACE0B1E0E2EDF7E50E94DF27A6EFB3
:1006D000B1E0E2E5F9E50E94A1270C9477050A3024
:1006E00011F00C948103ACE0B1E0E6EDF7E50E9477
:1006F000DF27A6EFB1E0E8E5F9E50E94A1270C9419
:1007000077050B3011F00C949303ACE0B1E0EAED07
:10071000F7E50E94DF27A6EFB1E0EEE5F9E50E94DC
:10072000A1270C9477050C3011F00C94A503ACE0D4
:10073000B1E0EEEDF7E50E94DF27A6EFB1E0E4E6D9
:10074000F9E50E94A1270C9477050D3011F00C9467
:10075000B703ACE0B1E0E2EEF7E50E94DF27A6EFD9
:10076000B1E0EAE6F9E50E94A1270C9477050E3086
:1007700011F00C94C903ACE0B1E0E6EEF7E50E949D
:10078000DF27A6EFB1E0E0E7F9E50E94A1270C948E
:1007900077050F3011F00C94DB03ACE0B1E0EAEE2A
:1007A000F7E50E94DF27A6EFB1E0E6E7F9E50E9452
:1007B000A1270C947705003111F00C94ED03ACE007
:1007C000B1E0EEEEF7E50E94DF27A6EFB1E0ECE73F
:1007D000F9E50E94A1270C947705013111F00C94E2
:1007E000FF03ACE0B1E0E2EFF7E50E94DF27A6EF00
:1007F000B1E0E2E8F9E50E94A1270C947705023107
:1008000011F00C941104ACE0B1E0E6EFF7E50E94C2
:10081000DF27A6EFB1E0E8E8F9E50E94A1270C94F4
:100820007705033111F00C942304ACE0B1E0EAEF5A
:10083000F7E50E94DF27A6EFB1E0EEE8F9E50E94B8
:10084000A1270C947705043111F00C943504ACE029
:10085000B1E0EEEFF7E50E94DF27A6EFB1E0E4E9B3
:10086000F9E50E94A1270C947705053111F00C944D
:100870004704ACE0B1E0E2E0F8E50E94DF27A6EF34
:10088000B1E0EAE9F9E50E94A1270C947705063169
:1008900011F00C945904ACE0B1E0E6E0F8E50E94F8
:1008A000DF27A6EFB1E0E0EAF9E50E94A1270C946A
:1008B0007705073111F00C946B04ACE0B1E0EAE08D
:1008C000F8E50E94DF27A6EFB1E0E6EAF9E50E942D
:1008D000A1270C947705083111F00C947D04ACE04D
:1008E000B1E0EEE0F8E50E94DF27A6EFB1E0ECEA28
:1008F000F9E50E94A1270C947705093111F00C94B9
:100900008F04ACE0B1E0E2E1F8E50E94DF27A6EF5A
:10091000B1E0E2EBF9E50E94A1270C9477050A31DA
:1009200011F00C94A104ACE0B1E0E6E1F8E50E941E
:10093000DF27A6EFB1E0E8EBF9E50E94A1270C94D0
:1009400077050B3111F00C94B304ACE0B1E0EAE1AF
:10095000F8E50E94DF27A6EFB1E0EEEBF9E50E9493
:10096000A1270C9477050C3111F00C94C504ACE070
:10097000B1E0EEE1F8E50E94DF27A6EFB1E0E4EC9C
:10098000F9E50E94A1270C9477050D3111F00C9424
:10099000D704ACE0B1E0E2E2F8E50E94DF27A6EF81
:1009A000B1E0EAECF9E50E94A1270C9477050E313D
:1009B00011F00C94E904ACE0B1E0E6E2F8E50E9445
:1009C000DF27A6EFB1E0E0EDF9E50E94A1270C9446
:1009D00077050F3111F00C94FB04ACE0B1E0EAE2D2
:1009E000F8E50E94DF27A6EFB1E0E6EDF9E50E9409
:1009F000A1270C947705003211F00C940D05ACE0A2
:100A0000B1E0EEE2F8E50E94DF27A6EFB1E0ECED01
:100A1000F9E50E94A1270C947705013211F00C949E
:100A20001F05ACE0B1E0E2E3F8E50E94DF27A6EFA6
:100A3000B1E0E2EEF9E50E94A1270C9477050232BD
:100A400011F00C943105ACE0B1E0E6E3F8E50E946A
:100A5000DF27A6EFB1E0E8EEF9E50E94A1270C94AC
:100A60007705033211F00C944305ACE0B1E0EAE302
:100A7000F8E50E94DF27A6EFB1E0EEEEF9E50E946F
:100A8000A1270C947705043211F00C945505ACE0C5
:100A9000B1E0EEE3F8E50E94DF27A6EFB1E0E4EF76
:100AA000F9E50E94A1270C947705053211F00C940A
:100AB0006705ACE0B1E0E2E4F8E50E94DF27A6EFCD
:100AC000B1E0EAEFF9E50E94A1270C947705063220
:100AD00011F00C947705ACE0B1E0E6E4F8E50E9493
:100AE000DF27A6EFB1E0E0E0FAE50E94A1271C991C
:100AF0000C947D055F980C947E055F9A0E944416C5
:100B0000A3E2B0E00C9104FB81E00EF080E08F9353
:100B1000A0E0B1E08C9182FB81E00EF080E09F913B
:100B20008923882311F40C94A305709100017B7F25
:100B30007093000184EF91E00E94032470911202EF
:100B4000786070931202F894E8EFF9E3A1E0B1E065
:100B5000ED93FC93A0E0B1E08C9184FB16F40C942F
:100B6000C00581E08093030185E08093040181E06A
:100B700080930501E6E0FAE50E94A3230C94CD05DD
:100B800081E08093030181E08093040181E0809300
:100B90000501E6E1FAE50E94A323ECE3FFE3A1E00F
:100BA000B1E0ED93FC9383E08093030182E08093B6
:100BB0000401882780930501A0E4B5E0E7E0F1E0B7
:100BC000552744E00E94EF250E949B23E8E2FAE5C6
:100BD0000E94A323A0E0B1E08C9184FB16F00C945A
:100BE00026061C9B0C940D0683E08093030182E093
:100BF00080930401882780930501A0E4B5E0E7E035
:100C0000F1E0552744E00E94EF250E949B23E8E293
:100C1000FAE50E94A3230C94240683E08093030149
:100C200082E080930401882780930501A0E4B5E069
:100C3000E1EDF1E0552744E00E94EF250E949B235F
:100C4000E8E2FAE50E94A3230C943D0683E080933A
:100C5000030182E080930401882780930501A0E4CA
:100C6000B5E0E7E0F1E0552744E00E94EF250E945F
:100C70009B23E8E2FAE50E94A3235498AEE2B2E097
:100C80009C9197FF04C04C9B10C09F779C934C99FC
:100C90000CC089E19F9390E00E9403249F914C999E
:100CA00004C090689C930E94D515E8EFF9E3A1E099
:100CB000B1E0ED93FC93A0E0B1E08C9184FB16F4DD
:100CC0000C94B506E7E0F1E00E946E29EAE4F8E54D
:100CD0000E94ED2A0E94552918F011F00C9472061A
:100CE0000C948D0686E08093030182E080930401DA
:100CF000882780930501EAE2FAE50E94A323A0E495
:100D0000B5E0E9E1F1E00E9458280E949B23E0E36E
:100D1000FAE50E94A3230C94A60686E080930301C3
:100D200082E080930401882780930501EEE3FAE5D1
:100D30000E94A323A0E4B5E0E9E1F1E00E94582875
:100D40000E949B23E0E3FAE50E94A32385E08093C1
:100D5000030182E080930401882780930501E4E485
:100D6000FAE50E94A3230C94010786E08093030117
:100D700082E080930401882780930501E4E5FAE589
:100D80000E94A323A0E4B5E0E9E1F1E00E94582825
:100D90000E949B23E8E2FAE50E94A323A0E1B1E0D0
:100DA0000E949D23E8E5FAE50E94A323A0E4B5E0B4
:100DB000AF93BF93ECE0F1E00E946E290E941224F1
:100DC00011E001E0BF91AF910E94F427E0E4F5E06B
:100DD000A2ECB1E00E94D72885E08093030182E075
:100DE00080930401882780930501EEE5FAE50E94CF
:100DF000A323A2ECB1E00E949D23E6E6FAE50E945F
:100E0000A3237894A2E1B2E08C9183FB16F00C94BA
:100E10001C07E7E0F1E0A5ECB1E00E94DC28A0E0CF
:100E2000B1E08C9184FB16F40C941A070E94420ED8
:100E30000C941C070E948F0E0E949123A2E1B2E045
:100E40008C9182FB16F00C942A0773B7707F756043
:100E500073BF8895A2E1B2E08C9182FB882780F96C
:100E6000809580FBA2E1B2E08C9182F98C93009195
:100E70000E02023011F00C946508E8EFF9E3A1E0EE
:100E8000B1E0ED93FC9381E08093030185E08093D2
:100E9000040181E080930501ECE6FAE50E94A323BA
:100EA000E8E7FAE50E94A323E2EAF7E50E94ED2ACB
:100EB000E5EDF1E00E946E290E94EB29EDE0F0E003
:100EC000A9EDB1E00E94DC28ECE3FFE3A1E0B1E092
:100ED000ED93FC9383E08093030182E0809304010F
:100EE000882780930501A0E4B5E0E9EDF1E05527FE
:100EF00044E00E94EF250E949B23E8EFF9E3A1E084
:100F0000B1E0ED93FC93F89485E08093030182E0D7
:100F100080930401882780930501EEE7FAE50E949B
:100F2000A32386E08093030182E080930401882755
:100F300080930501E0E9FAE50E94A323A0E4B5E06F
:100F4000E2E0F2E00E945F280E949B23E6E9FAE5D6
:100F50000E94A323789400910202013011F00C94B6
:100F6000BB07A5EDB1E0E6E9F7E50E94DF270C94A9
:100F7000FF070C941508023011F00C94C907A5ED79
:100F8000B1E0EEE4F8E50E94DF270C94FF070C9433
:100F90001508033011F00C94D707A5EDB1E0E2E598
:100FA000F8E50E94DF270C94FF070C941508043025
:100FB00011F00C94E507A5EDB1E0E6E5F8E50E9437
:100FC000DF270C94FF070C941508053011F00C94E2
:100FD000F307A5EDB1E0EAE5F8E50E94DF270C9400
:100FE000FF070C941508063011F00C941508A5EDB8
:100FF000B1E0EEE5F8E50E94DF270C94FF07A6EFCD
:10100000B1E0E8E8F9E50E94A127E2EAF7E50E94ED
:10101000ED2AE5EDF1E00E946E290E94EB29EDE05A
:10102000F0E0A9EDB1E00E94DC28A2E1B2E08C91F1
:1010300083FB16F00C94650870911202777F709311
:1010400012020E945515E2EAFAE50E948A23E2EBB9
:10105000FAE50E948A23E4EBFAE50E948A23A0E4E1
:10106000B5E0E9EDF1E0552744E00E94EF250E944C
:101070008223E4EBFAE50E948A23A0E4B5E0E9EDDF
:10108000F1E0552744E00E94EF250E948223E4EB23
:10109000FAE50E948A23A6EFB1E00E948423E4EBE4
:1010A000FAE50E948A23A0E4B5E0E0E0F2E00E94C5
:1010B0005F280E948223E4EBFAE50E948A23ABEFCB
:1010C000B1E00E9484230E94912300910E0203301C
:1010D00011F00C94760A0E942A25E8EFF9E3A1E0CA
:1010E000B1E0ED93FC9381E08093030187E080936E
:1010F000040181E080930501E6EBFAE50E94A32359
:101100001C990C9486085F980C9487085F9A0E943B
:1011100044165498AEE2B2E09C9197FF04C04C9BF9
:1011200010C09F779C934C990CC089E19F9390E0ED
:101130000E9403249F914C9904C090689C930E9444
:10114000F915ECE3FFE3A1E0B1E0ED93FC931C9B08
:101150000C94BF0883E08093030182E08093040134
:10116000882780930501A0E4B5E0E9ECF1E055277C
:1011700044E00E94EF250E949B230C94D20883E058
:101180008093030182E08093040188278093050106
:10119000A0E4B5E0E9EEF1E0552744E00E94EF2538
:1011A0000E949B23E8EFF9E3A1E0B1E0ED93FC930B
:1011B00000910F02013011F00C94F308AAE0B2E0A4
:1011C000EAEAF7E50E94DF2786E08093030182E0E8
:1011D00080930401882780930501E2ECFAE50E94E0
:1011E000A3230C943C09023011F00C940C09AAE0E2
:1011F000B2E0E2E6F8E50E94DF2786E08093030193
:1012000082E080930401882780930501E4EDFAE5EC
:101210000E94A3230C943C09033011F00C9425097F
:10122000AAE0B2E0E2EAF7E50E94DF2786E08093D9
:10123000030182E080930401882780930501E4EE96
:10124000FAE50E94A3230C943C09043011F00C949D
:101250003C09AAE0B2E0E6E6F8E50E94DF2786E076
:101260008093030182E08093040188278093050125
:10127000E4EFFAE50E94A3230091C101013011F0CF
:101280000C945909F894A1EFB1E0E4E3F9E50E9468
:10129000A12785E08093030182E0809304018827E1
:1012A00080930501E6E0FBE50E94A32378940C946B
:1012B0008D09023011F00C947409F894A1EFB1E09B
:1012C000E8E8F9E50E94A12785E08093030182E028
:1012D00080930401882780930501E4E1FBE50E94E7
:1012E000A32378940C948D09033011F00C948D098C
:1012F000F894A1EFB1E0EAEEF8E50E94A12785E0BD
:101300008093030182E08093040188278093050184
:10131000E2E2FBE50E94A323789482E0809303013C
:1013200082E080930401882780930501EEE2FBE5CB
:101330000E94A323A0E4B5E0EDEBF1E0552744E0E3
:101340000E94EF250E949B23E6E3FBE50E94A32376
:10135000EDEBF1E00E947329E9ECF1E00E946E29C7
:101360000E94922AEDE0F0E0A9EEB1E00E94DC28B4
:10137000A2E1B2E08C9183FB16F00C94320A7091DA
:101380001202777F70931202E2EAFAE50E948A2342
:10139000E2EBFAE50E948A23E4EBFAE50E948A2355
:1013A000A0E4B5E0E9EEF1E0552744E00E94EF2526
:1013B0000E948223E4EBFAE50E948A23A0E4B5E0D0
:1013C000E9ECF1E0552744E00E94EF250E948223DA
:1013D000E4EBFAE50E948A23A6EFB1E00E948423A1
:1013E000E4EBFAE50E948A23A0E4B5E0E0E0F2E055
:1013F0000E945F280E948223E4EBFAE50E948A2380
:10140000ABEFB1E00E9484230E949123ECE3FBE563
:101410000E948A23A0E4B5E0E5E0F2E00E945F28A4
:101420000E9482230E949123EEE4FBE50E948A231E
:10143000A0E4B5E0E4E0F2E00E945F280E9482238D
:10144000E4EBFAE50E948A23E2EBFAE50E948A23A4
:10145000E4EBFAE50E948A23E2EBFAE50E948A2394
:101460000E9491230E9444160E949123A2E1B2E0BF
:101470008C9182FB16F00C94420A73B7707F7560F2
:1014800073BF8895A2E1B2E08C9182FB882780F936
:10149000809580FBA2E1B2E08C9182F98C93A0E070
:1014A000B1E08C9183FB16F00C9480080E945515D6
:1014B0000E942A2570910001777F70930001AAE0B5
:1014C000B2E0EAEAF7E50E94DF2784E080930E02AB
:1014D00081E080931102A6EFB1E0EAEEF8E50E9408
:1014E000A1277091120278607093120200910E028F
:1014F000043011F00C94190C00910302013011F02A
:101500000C948C0AADEDB1E0EAE9F7E50E94DF2723
:101510000C945C0B0C946C0B023011F00C949A0A36
:10152000ADEDB1E0EAE6F8E50E94DF270C945C0B34
:101530000C946C0B033011F00C94A80AADEDB1E0E3
:10154000EEE6F8E50E94DF270C945C0B0C946C0B24
:10155000043011F00C94B60AADEDB1E0E2E7F8E525
:101560000E94DF270C945C0B0C946C0B053011F07F
:101570000C94C40AADEDB1E0E6E7F8E50E94DF2780
:101580000C945C0B0C946C0B063011F00C94D20A8A
:10159000ADEDB1E0EAE7F8E50E94DF270C945C0BC3
:1015A0000C946C0B073011F00C94E00AADEDB1E037
:1015B000EEE7F8E50E94DF270C945C0B0C946C0BB3
:1015C000083011F00C94EE0AADEDB1E0E2E8F8E578
:1015D0000E94DF270C945C0B0C946C0B093011F00B
:1015E0000C94FC0AADEDB1E0E6E8F8E50E94DF27D7
:1015F0000C945C0B0C946C0B0A3011F00C940A0BDD
:10160000ADEDB1E0EAE8F8E50E94DF270C945C0B51
:101610000C946C0B0B3011F00C94180BADEDB1E089
:10162000EEE8F8E50E94DF270C945C0B0C946C0B41
:101630000C3011F00C94260BADEDB1E0E2E9F8E5C9
:101640000E94DF270C945C0B0C946C0B0D3011F096
:101650000C94340BADEDB1E0E6E9F8E50E94DF272C
:101660000C945C0B0C946C0B0E3011F00C94420B30
:10167000ADEDB1E0EAE9F8E50E94DF270C945C0BE0
:101680000C946C0B0F3011F00C94500BADEDB1E0DD
:10169000EEE9F8E50E94DF270C945C0B0C946C0BD0
:1016A000003111F00C946C0BADEDB1E0E2EAF8E51D
:1016B0000E94DF270C945C0BE2EAF7E50E94ED2A1A
:1016C000EDEDF1E00E946E290E94EB29EDE0F0E0E3
:1016D000A1EEB1E00E94DC28E8EFF9E3A1E0B1E07F
:1016E000ED93FC9381E08093030185E080930401F6
:1016F00081E080930501ECE5FBE50E94A323E2EA8B
:10170000F7E50E94ED2AEDEDF1E00E946E290E94BE
:10171000EB29EDE0F0E0A1EEB1E00E94DC28ECE383
:10172000FFE3A1E0B1E0ED93FC9383E0809303013C
:1017300082E080930401882780930501A0E4B5E04E
:10174000E1EEF1E0552744E00E94EF250E949B2343
:10175000E8EFF9E3A1E0B1E0ED93FC93F89486E0C3
:101760008093030182E08093040188278093050120
:10177000EAE6FBE50E94A323A0E4B5E0E3E0F2E0A3
:101780000E945F280E949B23E8E2FAE50E94A323BF
:101790007894A2E1B2E08C9183FB16F00C94190CC2
:1017A00070911202777F709312020E945515E2EA3F
:1017B000FAE50E948A23E2EBFAE50E948A23E4EB31
:1017C000FAE50E948A23A0E4B5E0E1EEF1E05527B6
:1017D00044E00E94EF250E948223E4EBFAE50E9498
:1017E0008A23A0E4B5E0E1EEF1E0552744E00E9451
:1017F000EF250E948223E4EBFAE50E948A23A6EFFC
:10180000B1E00E948423E4EBFAE50E948A23A0E47D
:10181000B5E0E0E0F2E00E945F280E948223E4EB62
:10182000FAE50E948A23ABEFB1E00E9484230E9474
:10183000912300910E02053011F00C940B0E81E003
:10184000809311020E942A250E94441681E0809311
:10185000030185E08093040181E080930501EEE6B9
:10186000FBE50E94A3235498AEE2B2E09C9197FF5F
:1018700004C04C9B10C09F779C934C990CC089E18D
:101880009F9390E00E9403249F914C9904C090681C
:101890009C930E94701300911102013011F00C947E
:1018A0008C0CF89483E08093030182E08093040120
:1018B000882780930501E8E7FBE50E94A323A0E4C5
:1018C000B5E0E0E0F2E00E945F280E949B23E2E89E
:1018D000FBE50E94A32385E08093030182E08093CF
:1018E0000401882780930501EAE8FBE50E94A32311
:1018F000E8E9FBE50E94A32386E08093030182E0F0
:1019000080930401882780930501ECE9FBE50E94A0
:10191000A32378940C94F80D023011F00C94BA0CB7
:10192000F89483E08093030182E080930401882788
:1019300080930501EAEAFBE50E94A323A0E4B5E059
:10194000E5E0F2E00E945F280E949B23E2E8FBE5CD
:101950000E94A32386E08093030182E08093040128
:10196000882780930501ECE9FBE50E94A323789486
:101970000C94F80D033011F00C941A0DF89483E0D8
:101980008093030182E080930401882780930501FE
:10199000E4EBFBE50E94A32378940091C1010130A0
:1019A00011F00C94E80CA1EFB1E0E4E3F9E50E943A
:1019B000A12786E08093030182E0809304018827B9
:1019C00080930501E6E0FBE50E94A3230C94180D2B
:1019D000023011F00C94010DA1EFB1E0E8E8F9E557
:1019E0000E94A12786E08093030182E08093040196
:1019F000882780930501E4E1FBE50E94A3230C9472
:101A0000180D033011F00C94180DA1EFB1E0EAEEBF
:101A1000F8E50E94A12786E08093030182E080938D
:101A20000401882780930501E0ECFBE50E94A323D5
:101A30000C94F80D043011F00C94AC0DF89483E084
:101A40008093030182E0809304018827809305013D
:101A5000EEECFBE50E94A323789400911002013084
:101A600011F00C94480DADEBB1E0E6EAF8E50E9408
:101A7000DF2786E08093030182E0809304018827BA
:101A800080930501ECEDFBE50E94A3230C94AA0DC5
:101A9000023011F00C94610DADEBB1E0EAEAF8E52B
:101AA0000E94DF2786E08093030182E08093040197
:101AB000882780930501EAEEFBE50E94A3230C949E
:101AC000AA0D033011F00C947A0DADEBB1E0EEEA03
:101AD000F8E50E94DF2786E08093030182E080938F
:101AE0000401882780930501E8EFFBE50E94A3230A
:101AF0000C94AA0D043011F00C94930DADEBB1E0F1
:101B0000E2EBF8E50E94DF2786E08093030182E0A4
:101B100080930401882780930501E6E0FCE50E949C
:101B2000A3230C94AA0D053011F00C94AA0DADEB73
:101B3000B1E0EEEAF7E50E94DF2786E0809303013B
:101B400082E080930401882780930501E4E1FCE5AD
:101B50000E94A3230C94F80D053011F00C94E10DB4
:101B600083E08093030182E08093040188278093BF
:101B70000501E2E2FCE50E94A323E2E8FBE50E9406
:101B8000A32385E08093030182E0809304018827EA
:101B900080930501EAE8FBE50E94A323E8E9FBE561
:101BA0000E94A32386E08093030182E080930401D6
:101BB000882780930501ECE9FBE50E94A3230C94A0
:101BC000F80D063011F00C94F80D83E080930301BA
:101BD00082E080930401882780930501E0E3FCE51F
:101BE0000E94A323E8E7FAE50E94A3230E9455156B
:101BF000789400910E02013011F00C94240C0E9494
:101C00002A250E94551581E080930E0270911202E0
:101C10007B7F709312025498AEE2B2E09C9197FFE2
:101C200004C04C9B10C09F779C934C990CC089E1D9
:101C30009F9390E00E9403249F914C9904C0906868
:101C40009C930E94D5150E949123A2E1B2E08C9151
:101C500082FB16F00C94310E73B7707F756073BF02
:101C60008895A2E1B2E08C9182FB882780F980956B
:101C700080FBA2E1B2E08C9182F98C930C94240257
:101C8000F894FFCF70911202777F709312027091D7
:101C90001202746070931202E2EAFAE50E948A234B
:101CA000E2EBFAE50E948A23E4EBFAE50E948A233C
:101CB000A0E4B5E0E5ECF1E0552744E00E94EF2513
:101CC0000E948223E4EBFAE50E948A23A0E4B5E0B7
:101CD000E5ECF1E0552744E00E94EF250E948223C5
:101CE000E4EBFAE50E948A23A6EFB1E00E94842388
:101CF000E4EBFAE50E948A23A0E4B5E0E0E0F2E03C
:101D00000E945F280E948223E4EBFAE50E948A2366
:101D1000ABEFB1E00E9484230E949123089570915B
:101D2000120274607093120270911202777F7093A6
:101D30001202E2EAFAE50E948A23E2EBFAE50E9447
:101D40008A23E4EBFAE50E948A23A0E4B5E0E1ED02
:101D5000F1E0552744E00E94EF250E948223E4EB46
:101D6000FAE50E948A23A0E4B5E0E7E0F1E0552718
:101D700044E00E94EF250E948223E4EBFAE50E94F2
:101D80008A23A6EFB1E00E948423E4EBFAE50E94E7
:101D90008A23A0E4B5E0E0E0F2E00E945F280E9420
:101DA0008223E4EBFAE50E948A23ABEFB1E00E94C4
:101DB00084230E9491230895F894ADE2B2E0E89460
:101DC0004C9109B1882703FD816002FD8260841770
:101DD00011F4B6F310C08C934295840F823049F011
:101DE000803139F0833229F0813319F00E94E50FF8
:101DF00002C00E94A711789408950F921F922F920B
:101E00003F924F925F927F92AF92BF920F931F9338
:101E10002F933F934F935F936F937F938F939F93F2
:101E2000AF93BF93CF93DF93EF93FF938FB78F93CE
:101E3000F894A9E2B0E00C9102FB81E00EF080E0A2
:101E40008F93A9E2B0E00C9103FB81E00EF480E0F7
:101E50009F918923882311F40C94350F70911202FD
:101E60007064709312020E94E50FA9E2B0E00C9139
:101E700002FB81E00EF480E08F93A9E2B0E00C91C8
:101E800003FB81E00EF080E09F918923882311F409
:101E90000C94510F709112027064709312020E94A0
:101EA000E50F789480E080932C028F918FBFFF9193
:101EB000EF91DF91CF91BF91AF919F918F917F91E2
:101EC0006F915F914F913F912F911F910F91BF9013
:101ED000AF907F905F904F903F902F901F900F900A
:101EE00018950F921F922F923F924F925F927F927E
:101EF000AF92BF920F931F932F933F934F935F9394
:101F00006F937F938F939F93AF93BF93CF93DF9301
:101F1000EF93FF938FB78F93F894A9E2B0E00C9101
:101F200003FB81E00EF080E08F93A9E2B0E00C911A
:101F300002FB81E00EF480E09F918923882311F455
:101F40000C94A90F709112027064709312020E9497
:101F5000A711A9E2B0E00C9103FB81E00EF480E050
:101F60008F93A9E2B0E00C9102FB81E00EF080E0DB
:101F70009F918923882311F40C94C50F709112024C
:101F80007064709312020E94A711789480E080938D
:101F90002C028F918FBFFF91EF91DF91CF91BF9175
:101FA000AF919F918F917F916F915F914F913F91F1
:101FB0002F911F910F91BF90AF907F905F904F90A6
:101FC0003F902F901F900F901895A2E1B2E08C9156
:101FD00086FB16F00C94A111709112027F7B709316
:101FE0001202A2E1B2E08C9184FB882780F98095EF
:101FF00080FBA2E1B2E08C9184F98C93A0E0B1E087
:102000008C9181FB16F40C94211080911102815067
:102010008093110200911102003081E009F080E00C
:102020008F93009111020F3F81E010F009F080E0E2
:102030009F918923882311F40C94211086E08093CA
:1020400011020E94771C00910E02013011F00C94D5
:102050003A1080910601815080930601009106019B
:10206000003011F00C94381080911F01809306010C
:102070000C94F110023011F00C9473108091020254
:1020800081508093020200910202003081E010F042
:1020900009F080E08F93009102020A3080E010F096
:1020A00009F081E09F91892B882311F40C94611031
:1020B00086E080930202A5EDB1E0EEE5F8E50E942E
:1020C000DF27E2EAF7E50E94ED2AE5EDF1E00E9464
:1020D0006E290E94EB29EDE0F0E0A9EDB1E00E944D
:1020E000DC280C94F110033011F00C94BA10EAE0E3
:1020F000F2E00E947329EDECF1E00E946E290E944B
:10210000832AEDE0F0E0ADECB1E00E94DC28EDECDC
:10211000F1E00E946E29E6EBF8E50E94ED2A0E94AC
:10212000552910F00C949A10ADECB1E0E6EBF8E50F
:102130000E94DF27E2EAF7E50E94ED2AEDECF1E0EC
:102140000E946E290E94EB29EDE0F0E0A9ECB1E0DD
:102150000E94DC288091100281508093100200912F
:102160001002003011F00C94B81083E0809310023C
:102170000C94F110043011F00C94F11080910302D2
:1021800081508093030200910302003081E010F03F
:1021900009F080E08F9300910302013180E010F09C
:1021A00009F081E09F91892B882311F40C94E110B0
:1021B00080E180930302ADEDB1E0E2EAF8E50E9430
:1021C000DF27E2EAF7E50E94ED2AEDEDF1E00E945B
:1021D0006E290E94EB29EDE0F0E0A1EEB1E00E9453
:1021E000DC28A0E0B1E08C9181FB16F00C94A111E9
:1021F00000911102013011F00C941D118091000228
:10220000815080930002009100020F3F81E010F0A6
:1022100009F080E08F93009100020A3080E010F016
:1022200009F081E09F918923882311F40C941B11FC
:1022300080E0809300020C945F11023011F00C9446
:1022400031118091050281508093050200910502B1
:102250000F3F11F00C942F1180E0809305020C9435
:102260005F11033011F00C9445118091C101815030
:102270008093C1010091C101003011F00C94431111
:1022800083E08093C1010C945F11043011F00C9431
:102290005911809110028150809310020091100218
:1022A000003011F00C94571185E0809310020C94CB
:1022B0005F11053011F00C945F110E945316E2EA91
:1022C000FAE50E948A23E2EBFAE50E948A23E4EB16
:1022D000FAE50E948A23A0E4B5E0E9EDF1E0552794
:1022E00044E00E94EF250E948223E4EBFAE50E947D
:1022F0008A23A0E4B5E0E9EDF1E0552744E00E942F
:10230000EF250E948223E4EBFAE50E948A23A6EFE0
:10231000B1E00E948423E4EBFAE50E948A23A0E462
:10232000B5E0E0E0F2E00E945F280E948223E4EB47
:10233000FAE50E948A23ABEFB1E00E9484230E9459
:102340009123709112027860709312020895A2E1B5
:10235000B2E08C9186FB16F00C944C137091120233
:102360007F7B70931202A2E1B2E08C9185FB8827FB
:1023700080F9809580FBA2E1B2E08C9185F98C9385
:10238000A0E0B1E08C9181FB16F40C94E211A1E184
:10239000B2E08C918F5F8C9300911102083081E044
:1023A00008F480E08F93009111020A3081E008F078
:1023B00080E09F918923882311F40C94E21181E03D
:1023C000809311020E94771C00910E02013011F0DF
:1023D0000C94FF11A6E0B1E08C918F5F8C9340913B
:1023E0001F0100910601041718F011F00C94FA1166
:1023F0000C94FD1181E0809306010C949E12023032
:1024000011F00C942912A2E0B2E08C918F5F8C93B2
:1024100000910202073010F40C94171281E08093AF
:102420000202A5EDB1E0E6E9F7E50E94DF27E2EA66
:10243000F7E50E94ED2AE5EDF1E00E946E290E9489
:10244000EB29EDE0F0E0A9EDB1E00E94DC280C946E
:102450009E12033011F00C947612EAE0F2E00E9432
:102460007329EDECF1E00E946E290E94922AEDE0C2
:10247000F0E0ADECB1E00E94DC28EDECF1E00E9470
:102480006E29EAEBF8E50E94ED2A0E94552918F022
:1024900011F00C944D120C945312ADECB1E0EAEB38
:1024A000F8E50E94DF27E2EAF7E50E94ED2AEDEC6D
:1024B000F1E00E946E290E94EB29EDE0F0E0A9EC2A
:1024C000B1E00E94DC28A0E1B2E08C918F5F8C9398
:1024D00000911002053018F011F00C9471120C9458
:1024E000741281E0809310020C949E12043011F05B
:1024F0000C949E12A3E0B2E08C918F5F8C930091BC
:102500000302013110F40C948E1281E080930302D7
:10251000ADEDB1E0EAE9F7E50E94DF27E2EAF7E591
:102520000E94ED2AEDEDF1E00E946E290E94EB2958
:10253000EDE0F0E0A1EEB1E00E94DC28A0E0B1E027
:102540008C9181FB16F00C944C1300911102013018
:1025500011F00C94C812A0E0B2E08C918F5F8C93C4
:1025600000910002093081E008F480E08F9300912F
:1025700000020B3081E008F080E09F9189238823DE
:1025800011F40C94C61288E0809300020C940A1394
:10259000023011F00C94DC12A5E0B2E08C918F5F58
:1025A0008C9300910502093011F00C94DA1288E046
:1025B000809305020C940A13033011F00C94F0126E
:1025C000A1ECB1E08C918F5F8C930091C10104303C
:1025D00010F40C94EE1281E08093C1010C940A1364
:1025E000043011F00C940413A0E1B2E08C918F5FE1
:1025F0008C9300911002053010F40C94021381E0CA
:10260000809310020C940A13053011F00C940A13F5
:102610000E945316E2EAFAE50E948A23E2EBFAE509
:102620000E948A23E4EBFAE50E948A23A0E4B5E045
:10263000E9EDF1E0552744E00E94EF250E94822356
:10264000E4EBFAE50E948A23A0E4B5E0E9EDF1E0CD
:10265000552744E00E94EF250E948223E4EBFAE52F
:102660000E948A23A6EFB1E00E948423E4EBFAE5FE
:102670000E948A23A0E4B5E0E0E0F2E00E945F2837
:102680000E948223E4EBFAE50E948A23ABEFB1E0DB
:102690000E9484230E9491237091120278607093AB
:1026A00012020895A1E1B2E08C918F5F8C930091AA
:1026B0001102083081E008F480E08F93009111024C
:1026C0000A3081E008F080E09F918923882311F48B
:1026D0000C946D1381E0809311020E94EE15089511
:1026E000709100017260709300010E94EE154C9988
:1026F0000C947C130E945213F89478940091110268
:10270000013011F00C94A613E1E3F3E0A0E0B2E095
:102710007BE70E94F72883E08093030182E08093A7
:102720000401882780930501E8E7FBE50E94A323C5
:10273000A0E4B5E0E0E0F2E00E945F280E949B2365
:10274000E2E8FBE50E94A3230C940815023011F087
:102750000C94C51383E08093030182E0809304010D
:10276000882780930501EAEAFBE50E94A323A0E401
:10277000B5E0E5E0F2E00E945F280E949B23E2E8DA
:10278000FBE50E94A3230C940815033011F00C9470
:10279000231483E08093030182E08093040188275F
:1027A00080930501ECE3FCE50E94A3230091C101A5
:1027B000013011F00C94F113A1EFB1E0E4E3F9E57D
:1027C0000E94A12786E08093030182E080930401A8
:1027D000882780930501E6E0FBE50E94A3230C9483
:1027E0002114023011F00C940A14A1EFB1E0E8E8D2
:1027F000F9E50E94A12786E08093030182E080939F
:102800000401882780930501E4E1FBE50E94A323EE
:102810000C942114033011F00C942114A1EFB1E0B9
:10282000EAEEF8E50E94A12786E08093030182E0AA
:1028300080930401882780930501E0ECFBE50E946A
:10284000A3230C940815043011F00C94B31483E006
:102850008093030182E0809304018827809305011F
:10286000EEE4FCE50E94A32300911002013011F078
:102870000C944F14ADEBB1E0E6EAF8E50E94DF27D7
:1028800086E08093030182E080930401882780938F
:102890000501ECEDFBE50E94A3230C94B11402307A
:1028A00011F00C946814ADEBB1E0EAEAF8E50E948F
:1028B000DF2786E08093030182E08093040188276C
:1028C00080930501EAEEFBE50E94A3230C94B1146A
:1028D000033011F00C948114ADEBB1E0EEEAF8E5B1
:1028E0000E94DF2786E08093030182E08093040149
:1028F000882780930501E8EFFBE50E94A3230C9451
:10290000B114043011F00C949A14ADEBB1E0E2EB89
:10291000F8E50E94DF2786E08093030182E0809340
:102920000401882780930501E6E0FCE50E94A323CB
:102930000C94B114053011F00C94B114ADEBB1E06E
:10294000EEEAF7E50E94DF2786E08093030182E04C
:1029500080930401882780930501E4E1FCE50E944F
:10296000A3230C940815053011F00C94EE1483E0A9
:102970008093030182E080930401882780930501FE
:10298000E2E2FCE50E94A323E2E8FBE50E94A32328
:1029900085E08093030182E080930401882780937F
:1029A0000501EEE5FCE50E94A323E8E9FBE50E94B2
:1029B000A32386E08093030182E0809304018827AB
:1029C00080930501EAE6FCE50E94A323E8E9FBE524
:1029D0000E94A3230E9453160C940815063011F090
:1029E0000C94081583E08093030182E08093040136
:1029F000882780930501E8E7FCE50E94A3237091F6
:102A000000017260709300010E9455150C943815F6
:102A100078944C990C941E158CE291E00E9403244A
:102A20004C990C941E15709100017D7F70930001EC
:102A30000E94EE150E94EE150C94381500911102BB
:102A4000073011F00C942E1581E080930E027091E6
:102A500000017260709300010C94311585E0809341
:102A60000E02A0E0B1E08C9181FB16F00C9477137C
:102A70000E942A250E9455150E94420E84E690E08D
:102A80000E940324ECE3FBE50E948A23A0E4B5E066
:102A9000E5E0F2E00E945F280E9482230E949123D9
:102AA00082E390E00E9403240895E5E2F3E0A5EDBF
:102AB000B1E094E07BE70E94FA28E9E2F3E0ADEDB3
:102AC000B1E094E07BE70E94FA28EDE2F3E0A5EEA6
:102AD000B1E094E07BE70E94FA28E2E3F3E0A1E0B2
:102AE000B2E07BE70E94F728E3E3F3E0A2E0B2E084
:102AF0007BE70E94F728E4E2F3E0A1ECB1E07BE79A
:102B00000E94F728E4E3F3E0A5E0B2E07BE70E944F
:102B1000F728E1E3F3E0A0E0B2E07BE70E94F728CA
:102B2000E0E2F3E0ADEBB1E094E07BE70E94FA284D
:102B30000895E4E2F3E0A1ECB1E00E94132988E0FB
:102B400080930502E1E3F3E0A0E0B2E00E941329E4
:102B5000ADEBB1E0E0E2F3E094E00E9416290895C5
:102B6000A7E0B1E0EEEBF8E50E94DF27A5EDB1E0CC
:102B7000E6E9F7E50E94DF27ADEDB1E0EAE9F7E528
:102B80000E94DF27A5EEB1E0EEE9F7E50E94DF271E
:102B9000ADEEB1E0E6EAF7E50E94DF2781E0809341
:102BA000020281E08093030208950E94EE15AEE0D8
:102BB000B2E08C918F5F8C9300910E02063011F081
:102BC0000C94E51581E080930E02709112027860FA
:102BD0007093120280E080932C020895289882E37B
:102BE00090E00E940324289A82E390E00E9403244C
:102BF000089570911202786070931202A2E1B2E01F
:102C00008C9180FB882780F9809580FBA2E1B2E05F
:102C10008C9180F98C930E94EE15A0E0B1E08C912C
:102C200084FB882780F9809580FBA0E0B1E08C913F
:102C300084F98C93AFE0B2E08C918F5F8C9300911C
:102C40000F02053010F40C94281681E080930F02D7
:102C50004C990C9440168CE291E00E9403244C990C
:102C60000C944016709100017D7F709300010E94CA
:102C7000EE150E94EE1570910001786070930001CE
:102C800080E080932C0208951C990C94501670914A
:102C900000017460709300015D9A5E980C94521666
:102CA0005E9A5D98089570910001777F709300019E
:102CB0008CE291E00E9403242398249A0E94F0233E
:102CC000A8E8B1E08C9300918801003018F011F071
:102CD0000C946C160C949B16ACEBB1E08C918F5F4E
:102CE0008C9380918801ACEBB1E0AD90BB24A8E857
:102CF000B1E0AA0DBB1D8C93009188010A3011F040
:102D00000C948A167091000170647093000180E049
:102D10008093BC010091BC01023318F011F00C94B7
:102D200093160C949B1680E08093BC017091000177
:102D30007F7B70930001A0E0B1E08C9186FB16F0E0
:102D40000C94B216709100017F7B7093000180E0BB
:102D50008093BC01E9E8F1E0A0E2B1E00E94D7284D
:102D60000E94FD164C990C94CA168CE291E00E94C8
:102D700003244C990C94CA16709100017D7F7093C6
:102D800000010E94EE150E94EE157091000178601E
:102D900070930001A0E0B1E08C9183FB16F00C94DD
:102DA0005E1670910001777F7093000186E080933A
:102DB000110281E090E0A6E8B1E08D939C93249805
:102DC0000E94F524E8EFF9E3A1E0B1E0ED93FC9374
:102DD00085E08093030182E080930401882780933B
:102DE0000501EEE7FCE50E94A323E8E9FBE50E946C
:102DF000A32381E080930601089584E30E94912734
:102E0000E0E2F1E003E0A881B9810E94E928A8810D
:102E1000B981EEE8FCE50E9433290FB684E3481A35
:102E200080E0580A22960FBE11F00C9421170E94E0
:102E3000B617A0E2B1E088278C93A3E5B1E088271C
:102E40008C9384E30E949127E0E2F1E003E0A88103
:102E5000B9810E94E928A881B981E2E9FCE50E94D4
:102E600033290FB684E3481A80E0580A22960FBE31
:102E700011F00C945A1784E0E0E2F1E002E00A93CA
:102E8000A3E5B1E00E94E228A3E5B1E00E94A528F5
:102E9000AFE1B1E00C93AFE1B1E0BA93AA930E9425
:102EA000071C2296A0E2B1E088278C93A3E5B1E04D
:102EB00088278C9384E30E949127E0E2F1E003E00D
:102EC000A881B9810E94E928A881B981E6E9FCE5D9
:102ED0000E9433290FB684E3481A80E0580A2296EC
:102EE0000FBE11F00C947E170E94771CA0E2B1E097
:102EF00088278C93A3E5B1E088278C9384E30E9414
:102F00009127E0E2F1E003E0A881B9810E94E9287D
:102F1000A881B981EAE9FCE50E9433290FB684E370
:102F2000481A80E0580A22960FBE11F00C94A2179E
:102F30000E949618A0E2B1E088278C93A3E5B1E047
:102F400088278C93A0E2B1E0EEE9FCE50E943329EA
:102F500011F00C94B5170E94A71AA0E2B1E08827DF
:102F60008C93A3E5B1E088278C93089581E080934A
:102F70001F0100911F01083218F011F00C942A185B
:102F8000EEEAF7E50E94E02AEFE1F1E0A190BB2430
:102F9000ECEFFFEFAA0CBB1CAA0CBB1CEA0DFB1D3F
:102FA000ADE0BB2794E07BE70E94FA28EFE1F1E077
:102FB000A190BB24EFE9F0E0EA0DFB1DA0E1BB27E7
:102FC00080E08C937BE70E94F728A42DB52DE2EAE0
:102FD000FCE50E94A127EFE1F1E00191112749E012
:102FE00050E00E949727EFEBF0E0E00FF11FD201D5
:102FF0007BE70E940829EFE1F1E0A190BB24EEE21B
:10300000F2E0AA0CBB1CEA0DFB1D00E010E0A0E101
:10301000BB277BE70E94F928EEEAF7E50E94E02A49
:10302000EFE1F1E0A190BB24ECE7F2E0AA0CBB1CBD
:10303000AA0CBB1CEA0DFB1DADE0BB2794E07BE7AF
:103040000E94FA28AFE1B1E08C918F5F8C9310F46D
:103050000C94B917E8EAFCE50E94D4230E94DB2314
:103060000895A7E0B1E0E881F981A190BB24ECEFDD
:10307000FFEFAA0CBB1CAA0CBB1CEA0DFB1D94E0C5
:103080000E941629E881F981A190BB24EFE9F0E0C4
:10309000EA0DFB1DABE0B1E00E941329E881F98144
:1030A0000191112749E050E00E949727EFEBF0E0F3
:1030B000E00FF11FA0E1B1E098E00E941D29E0E1DE
:1030C000F1E008E0A0E1B1E00E94E928E881F9819F
:1030D000A190BB24EEE2F2E0AA0CBB1CEA0DFB1DA2
:1030E000A9E1B1E00E941529ABE1B1E0E881F981E5
:1030F000A190BB24ECE7F2E0AA0CBB1CAA0CBB1C01
:10310000EA0DFB1D94E00E941629E2EAF7E50E9411
:10311000ED2AEBE1F1E00E946E290E94EB29EDE03F
:10312000F0E0ADEBB1E00E94DC28089581E00E9460
:10313000912781E00E94912781E00E94912781E000
:103140000E94912781E00E94912781E00E949127AF
:1031500081E00E94912781E00E94912781E00E94F6
:10316000912781E00E94912785E10E94912782E0CA
:103170000E94912781E00E94912784E00E9491277C
:10318000A0E2B1E0E0ECFCE52FEF91E00E94AC277B
:10319000AC89BD890C93AC89BD890C9141E0040FC9
:1031A000AE89BF890C93AE89BF899C919A93A0E2A6
:1031B000B1E0E0ECFCE52FEF0E94A727AA89BB89CC
:1031C0000C93AA89BB890C9141E0040FAE89BF8999
:1031D0000C93AE89BF899C919A93A0E2B1E0E0EC98
:1031E000FCE52FEF0E94A727A889B9890C93A8892D
:1031F000B9890C9141E0040FAE89BF890C93AE8967
:10320000BF899C919A93A0E2B1E0E0ECFCE52FEF3E
:103210000E94A727AE85BF850C93AE85BF850C9114
:1032200041E0040FAE89BF890C93AE89BF899C91A0
:103230009A93A0E2B1E0E0ECFCE52FEF0E94A72713
:10324000AC85BD850C93AC85BD850C9141E0040F28
:10325000AE89BF890C93AE89BF899C919A93A0E2F5
:10326000B1E0E0ECFCE52FEF0E94A727AA85BB8523
:103270000C93AA85BB850C9141E0040FAE89BF89F0
:103280000C93AE89BF899C919A93A0E2B1E0E0ECE7
:10329000FCE52FEF0E94A727A885B9850C93AC8980
:1032A000BD890C9141E0040FAE89BF890C93AA89B6
:1032B000BB890C91AE89BF894C91041BA88DB98D37
:1032C0000C93AE89BF898C91E0E2F1E0A88DB98DB5
:1032D0000C910A93AF81B8850E94E228AE81BF812C
:1032E0000E94A528AA8DBB8D0C93AA89BB890C913D
:1032F00041E0040FAE89BF890C93A889B9890C916C
:10330000AE89BF894C91041BA88DB98D0C93AE89F1
:10331000BF898C91E0E2F1E0A88DB98D0C910A9300
:10332000AF81B8850E94E228AE81BF810E94FA2A4F
:10333000EDE0F0E0A881B9810E94DC28E2EAF7E53F
:103340000E94ED2AE881F9810E946E290E94EB29F2
:10335000EDE0F0E0A881B9810E94DC28EA8DFB8DC8
:10336000A190BB24ECEFFFEFAA0CBB1CAA0CBB1C6A
:10337000EA0DFB1DA881B98194E07BE70E94FA2841
:10338000A889B9890C9141E0040FAE89BF890C93DB
:10339000AE85BF850C91AE89BF894C91041BA88D69
:1033A000B98D0C93AE89BF898C91E0E2F1E0A88DD4
:1033B000B98D0C910A93AF81B8850E94E228AE8145
:1033C000BF810E94A528AA81BB810C93EA8DFB8D49
:1033D000A190BB24EFE9F0E0EA0DFB1DAA81BB81BF
:1033E0007BE70E94F728AE85BF850C9141E0040F72
:1033F000AE89BF890C93AC85BD850C91AE89BF8920
:103400004C91041BA88DB98D0C93AE89BF898C910A
:10341000E0E2F1E0A88DB98D0C910A93AF81B885F7
:103420000E94E228EE81FF8108E0AE81BF810E9408
:10343000E928EA8DFB8D0191112749E050E00E94B7
:103440009727EFEBF0E0E00FF11FAE81BF817BE744
:103450000E940829AC85BD850C9141E0040FAE891E
:10346000BF890C93AA85BB850C91AE89BF894C910D
:10347000041BA88DB98D0C93AE89BF898C91E0E2B5
:10348000F1E0A88DB98D0C910A93AF81B8850E94A7
:10349000E228AE81BF810E94A528AC81BD810D9339
:1034A0001C93EA8DFB8DA190BB24EEE2F2E0AA0C06
:1034B000BB1CEA0DFB1DAC81BD817BE70E94F92896
:1034C000AA85BB850C9141E0040FAE89BF890C939E
:1034D000A885B9850C91AE89BF894C91041BA88D34
:1034E000B98D0C93AE89BF898C91E0E2F1E0A88D93
:1034F000B98D0C910A93AF81B8850E94E228AE8104
:10350000BF810E94FA2AEDE0F0E0A881B9810E9413
:10351000DC28EA8DFB8DA190BB24ECE7F2E0AA0C3D
:10352000BB1CAA0CBB1CEA0DFB1DA881B98194E051
:103530007BE70E94FA28E2ECFCE50E94D4230E947B
:10354000DB2386E2481A80E0580A6C960895E2EC84
:10355000F8E50E94E02AE0E0F0E0ADE0BB2794E06F
:103560007BE70E94FA28E0EAF0E0A0E1BB2782E1D5
:103570008C937BE70E94F728A42DB52DEAECFCE59F
:103580000E94A127E8ECF0E0D2017BE70E94082925
:10359000E0E3F2E001E911E0A0E1BB277BE70E9454
:1035A000F928E6ECF8E50E94E02AE0E8F2E0ADE078
:1035B000BB2794E07BE70E94FA28EAECF8E50E943A
:1035C000E02AE4E0F0E0ADE0BB2794E07BE70E9476
:1035D000FA28E1EAF0E0A0E1BB2783E18C937BE7E6
:1035E0000E94F728A42DB52DE4EDFCE50E94A1274B
:1035F000E1EDF0E0D2017BE70E940829E2E3F2E08E
:1036000002E911E0A0E1BB277BE70E94F928EEEC7C
:10361000F8E50E94E02AE4E8F2E0ADE0BB2794E0A0
:103620007BE70E94FA28E2EDF8E50E94E02AE8E054
:10363000F0E0ADE0BB2794E07BE70E94FA28E2EAE5
:10364000F0E0A0E1BB2784E18C937BE70E94F728A0
:10365000A42DB52DEEEDFCE50E94A127EAEDF0E0EA
:10366000D2017BE70E940829E4E3F2E003E911E0DC
:10367000A0E1BB277BE70E94F928E6EDF8E50E9470
:10368000E02AE8E8F2E0ADE0BB2794E07BE70E94A7
:10369000FA28EAEDF8E50E94E02AECE0F0E0ADE07F
:1036A000BB2794E07BE70E94FA28E3EAF0E0A0E180
:1036B000BB2785E18C937BE70E94F728A42DB52DCD
:1036C000E8EEFCE50E94A127E3EEF0E0D2017BE703
:1036D0000E940829E6E3F2E004E911E0A0E1BB273B
:1036E0007BE70E94F928EEEDF8E50E94E02AECE87D
:1036F000F2E0ADE0BB2794E07BE70E94FA28E2EE1F
:10370000F8E50E94E02AE0E1F0E0ADE0BB2794E0BC
:103710007BE70E94FA28E4EAF0E0A0E1BB2786E11B
:103720008C937BE70E94F728A42DB52DE2EFFCE5F2
:103730000E94A127ECEEF0E0D2017BE70E9408296D
:10374000E8E3F2E005E911E0A0E1BB277BE70E9496
:10375000F928E6EEF8E50E94E02AE0E9F2E0ADE0C3
:10376000BB2794E07BE70E94FA28ECEFFCE50E947F
:10377000D4230E94DB230895E2E1FDE50E94D423D7
:10378000E2EBFAE50E94D423E0ECFCE50E94D423AE
:10379000A0E4B5E0E7E0F1E0552744E00E94EF2522
:1037A0000E94DF23E0ECFCE50E94D423A0E4B5E016
:1037B000EBE0F1E00E945F280E94DF23E0ECFCE5F3
:1037C0000E94D423A0E1B1E00E94E123E0ECFCE5FB
:1037D0000E94D423A0E4B5E0E9E1F1E00E9458287A
:1037E0000E94DF23E0ECFCE50E94D423A0E4B5E0D6
:1037F000EBE1F1E0552744E00E94EF250E94DF2332
:10380000E8E1FDE50E94D4230E94DB23089584E0D3
:103810000E949127AA81BB81BA93AA930E94311872
:103820002296E2EAF7E50E94ED2AE7E0F1E00E9445
:103830006E290E94442AEDE0F0E00E947E29A881D2
:10384000B981EDE0FF270E94DC28E2E1FDE50E945E
:10385000D423A0E4B5E0EA81FB810E945F280E94A6
:10386000DF23E0ECFCE50E94D423A0E4B5E0E8818E
:10387000F9810E9452280E94DF23E0ECFCE50E94BF
:10388000D423A0E4B5E0EBE0F1E00E945F280E94C1
:10389000DF23E0ECFCE50E94D423A0E1B1E00E942C
:1038A000E123E0ECFCE50E94D423A0E4B5E0E9E1EB
:1038B000F1E00E9458280E94DF23E0ECFCE50E9422
:1038C000D423A0E4B5E0EBE1F1E0552744E00E9409
:1038D000EF250E94DF23E8E1FDE50E94D4230E944A
:1038E000DB2384E0481A80E0580A2296089584E099
:1038F0000E94912781E080931F0100911F010832EF
:1039000018F011F00C94AC1CA881B981EFE1F1E042
:10391000A190BB24ECEFFFEFAA0CBB1CAA0CBB1CB4
:10392000EA0DFB1D94E00E941629E881F9810E94AE
:103930006E29EEEAF7E50E94ED2A0E94552911F062
:103940000C94A41C0C94AC1CAFE1B1E08C918F5F83
:103950008C9310F40C947D1CAFE1B1E08C918150FC
:103960008C93EEE1FDE50E94D423A0E4B5E0EFE105
:10397000F1E00E945F280E94DF230E94DB2384E0A5
:10398000481A80E0580A229608950E94EE1584E0B5
:1039900080932C0208953054008040201008AA0221
:1039A0000804AA020402AA3C0204AA010408AA0309
:1039B000083040C000AA0300FF00AA4D00FF00AA83
:1039C0000300FF00AA4D00FF00AA0300FF00AA4D5C
:1039D00000FF00AA0300FF00AA4D00FF00AA030099
:1039E0000304081020AA032040AA3F4020AA032075
:1039F0001008040300AA02000106060000000000EF
:103A0000000000005F000000000300030000147FBE
:103A1000147F1400042A7F2A100023130864620014
:103A2000364956205000000300000000001C2241CF
:103A3000000041221C0000002A1C7F1C2A000808EC
:103A40003E08080000407030000008080808080020
:103A50000000606000006010080403003E5149450A
:103A60003E0000427F400000625149494600224129
:103A700049493600181412117F0027454545390081
:103A80003E4545453900016111090700364949495C
:103A900036000E5151513E00000036360000004005
:103AA00076360000000814220000141414141400C8
:103AB0000022140800000201510906003E49555534
:103AC0000E007C1211127C007F49494936003E41AC
:103AD000414122007F4141221C007F494949410068
:103AE0007F09090901003E41415172007F08080821
:103AF0007F0000417F4100002040413F01007F08DE
:103B0000142241007F40404060007F020C027F0091
:103B10007F0204087F003E4141413E007F111111A8
:103B20000E003E4151617E007F0919294600264959
:103B30004949320001017F0101003F4040403F0000
:103B40001F2040201F003F4038403F0063140814EE
:103B500063000708700807006151494543000000F1
:103B60007F41410003040810600041417F000000D4
:103B700004020102040040404040404001020000B5
:103B80000000304A4A3C40007F48484830003844F2
:103B900044442000304848487F00385454541800AA
:103BA00000087E0900000854545438007F080404BB
:103BB000780000487A4000000020403D00007F105F
:103BC0001028440000007F0000007C047C04780082
:103BD0007C08040478003844444438007C141414ED
:103BE00008000814147C40007C08040408004854B1
:103BF0005454240000043F4400003C4040207C001A
:103C00001C2040201C003C4030403C004428102830
:103C100044000C5050503C004464544C440000009C
:103C20000836410000007F00000041360800000017
:103C3000080408040000000000000000000000006C
:103C40000000000000000000000000000000000074
:103C500000000000000000000000400040004000A4
:103C6000000000000000000000000000143E555558
:103C70004100130864026000000000000000000022
:103C80000000000000000000000000000000000034
:103C90000000000000000000000000000000000024
:103CA0000000000000000000000000000000000014
:103CB0000000000000000000000000183C3C18005C
:103CC000000000000000000000000000003C242470
:103CD0003C000000000000000000000000000000A8
:103CE00000000000000000000000000000000000D4
:103CF00000000000000000000000000000000000C4
:103D000000000000000000000000000000000000B3
:103D100000000000005A24245A00000000000000A7
:103D20000000770000000000000000007C555455A2
:103D300054003E415D55413E000000000000081463
:103D40002A142200020202020E00000000000000FD
:103D50000000000000000000000000000609090645
:103D6000000000242E2400000000000000000000DD
:103D700000000000000000000000FC2040403C006B
:103D8000040E7E027E0000000800000038555455E5
:103D900018007810207E02000000000000002214AD
:103DA0002A140800000000000000000000000000CD
:103DB0000000000000000002780200007C121112D6
:103DC0007C007F49494930007F49494936007F01DD
:103DD00001010100407E417F40007F494949410087
:103DE00077087E0877002241494936007F20100875
:103DF0007F007F2011087F007F0814224100403E91
:103E000001017F007F0204027F007F0808087F0015
:103E10003E4141413E007F0101017F007F090909C8
:103E200006003E414141220001017F010100074897
:103E300048483F000C127F120C0063140814630002
:103E40003F20203F6000070808087F007F407C403B
:103E50007F003F203C203F60017F484830007F4882
:103E600030007F007F4848483000224149493E00E9
:103E70007F083E413E00462919097F0020545454D2
:103E800078007854545420007C54545428007C0406
:103E9000040404000854545438003854545418008E
:103EA0006C1078106C002844545428003C4040406A
:103EB0007C003C4044407C007C101028440040388A
:103EC00004047C007C0810087C007C1010107C002E
:103ED0003844444438007C0404047C007C141414EA
:103EE00008003844444428007C047C0478000C50CA
:103EF00050503C0008147C1408004428102844004A
:103F00001C20203C60000C1010107C003C407840CD
:103F10007C001C2038203C60047C505020007C50E9
:103F200020007C007C50505020002844545438001D
:103F30007C1038443800085434147C00020A140001
:103F40000000000000000000000000000000000071
:103F50000000000000000000FE0000000000000063
:103F600000001B000000000000001E0000001E00FA
:103F70000000000000000000000000000020A07809
:103F800026A0782620000119070119070101010068
:103F900000001C2642FF8202000000001810103FA3
:103FA000110F00001C2222229C403008040210083D
:103FB0000403000E1111110E00805C62A2321C007D
:103FC00000800708101011131C18160100000000D3
:103FD0001E000000000000000000000000000000C3
:103FE000000000E0180C0402020000000007183076
:103FF00020000000000202040C18E0000000000095
:104000000020301807000000000818F04EF01808D3
:1040100000000000000000000000000000000000A0
:10402000E00000000000020202021F020202020081
:104030000000000000000000000000000018380030
:104040000000000000000000000000000000000070
:10405000010101010101000000000000000000005A
:104060000000000000181800000000000000000020
:1040700000C0300C02000000300C03000000000003
:1040800000F00C0202020CF0000000030C101010F3
:104090000C03000000040404FE00000000000010F7
:1040A00010101F10101000000006020202C23C0097
:1040B000000000181412111010000000000002424D
:1040C0004242BC0000000000101010100F00000061
:1040D00000C0201804FE0000000003020202021FBC
:1040E0000202000000003E22224282000000000086
:1040F000101010080700000000F04C22222242801D
:10410000000000070810101008070000000202025B
:10411000C2320A060000000018070000000000007C
:10412000001CA24242A2A21C0000000F101010109E
:104130000906000000788402020284F800000000F2
:10414000101111110C03000000000060600000005D
:1041500000000000001818000000000000000060CF
:10416000600000000000000000183800000000009F
:104170000000000080804040200000000303040491
:10418000080810000080808080808080800000040B
:104190000404040404040400002040408080000063
:1041A000000000100808040403030000000E0202CF
:1041B0008242261C00000000001B000000000000DE
:1041C000F01804E2120A8AFC0000030C18131416FB
:1041D0001B070404000080701830C0000000100E9F
:1041E0000302020202030C1000F888888888483015
:1041F0000000001F10101010110E0000C030100839
:10420000080808180000030C081010101010000017
:1042100000F80808080810E00000001F1010101037
:104220000807000000F80808080808080000001F38
:10423000111111111110000000F8080808080808F1
:104240000000001F010101010100000000C030104A
:1042500008080808180000030C08101011111F00AE
:1042600000F80000000000F80000001F010101013B
:10427000011F000000080808F808080800000010E6
:1042800010101F1010100000000000080808F800AF
:1042900000000000101010100F00000000F88080D7
:1042A000402010080000001F000102040408100054
:1042B00000F80000000000000000001F10101010A7
:1042C00010100000F838E00000C038F800001F00AF
:1042D00001070601001F000000F81060800000F8D0
:1042E0000000001F00000106081F000000E0100889
:1042F00008080810E0000007081010101008070058
:1043000000F80808080888700000001F010101017A
:104310000000000000E0100808080810E000000796
:10432000081010103008070000F80808088870000E
:104330000000001F010103040810000000704888FD
:10434000880808180000001810101011090E00004D
:1043500008080808F80808080800000000001F0006
:104360000000000000F80000000000F80000000756
:1043700018101010080700000830C000000000C02E
:1043800030080000010618180700000018E00000BF
:10439000E0C00000E01800031C0F00010E1C030029
:1043A00008102040808040201008100804020101FD
:1043B00002040810081060800080402010080000EF
:1043C00000001F00000000000008080808884828B6
:1043D000180000181412111010101000000000FE38
:1043E0000202020200000000003F00000000000086
:1043F00000020C30C00000000000000000000003BC
:104400000C3000000002020202FE0000000000006A
:104410000000003F00000000000000E0380E708047
:10442000000000040300000000030400000000007E
:10443000000000000000202020202020202020203C
:104440000000000001020000000000000000000069
:1044500000000000000020202020C0000000000C10
:10446000121111091F10000000FE40202020608062
:104470000000001F081010100807000000804020F6
:10448000202020200000000708101010101000004D
:1044900000804020202040FE00000007181010106F
:1044A000081F000000804020202020C000000007DE
:1044B0000911111111110000002020FC24222222D8
:1044C00022000000001F00000000000000804020CB
:1044D000202040E00000000718101010083F0000E6
:1044E00000FE8040202020C00000001F00000000CF
:1044F000001F000000202026E60000000000000051
:1045000000001F00000000000000202026E6000040
:10451000000000000000003F0000000000FE00005E
:10452000804040200000001F010304040810000028
:104530000000020202FE0000000000000000001F58
:1045400000000000E0402020C0402020C0001F00EC
:1045500000001F0000001F0000E0C040202020C01D
:104560000000001F00000000001F0000008040202D
:1045700020204080000000070810101008070000ED
:1045800000E04020202060800000003F0810101054
:104590000807000000804020202040E000000007C5
:1045A00018101010083F00000000E080402020E0BC
:1045B000000000001F0000000000000000C02020DC
:1045C0002020200000000018111112120C00000021
:1045D000002020F82020202000000000000F1010F4
:1045E0001010000000E000000000E0000000000FDC
:1045F000101010081F00000020C00000000000C0C4
:10460000200000010618100C03000000608000006C
:10461000C080000080600007180E01010E1807001E
:1046200000204080000080402000001008040303A8
:104630000408100020C0000000000000C02000009E
:104640000306381806010000002020202020A0606A
:1046500020000010181412111010100000000000AB
:10466000FC0202020000000001013E000000000008
:1046700000000000FE0000000000000000003F00FD
:10468000000000000000020202FC00000000000028
:104690000000003E0101000000808080000000005A
:1046A0000080030000000101020202010080C0201E
:1046B0001020C0800000001F10101010101F0000FC
:1046C00005D00E94972700FC0CD008950024E894A0
:1046D00057FF02C009D0689400F80BD010F80124ED
:1046E000089502D009D00895509540954F5F5F4FCF
:1046F0000895E89417FF0895009510950F5F1F4FD8
:1047000068940895A0E4B5E08D91882311F00CD051
:10471000FBCF08950E94D727802D11F005D0FACF46
:1047200008958DE001D08AE00090C00005FEFCCF26
:104730008093C6000895A0E4B5E08D91882311F020
:104740000FD0FBCF08950E94D727802D11F008D0FD
:10475000FACF089588EE93E056D03197D9F70895AF
:104760000C943A253197F1F70895689462F808950A
:10477000E89462F808958F939F9383E690E0019701
:10478000F1F79F918F91089580952AE090E0089429
:1047900010F42C9802C02C9A0000EDDFECDF969507
:1047A00087952A95A9F708950E94D727802D11F0A3
:1047B000EBDFFACF08958DE0E7DF8AE0E5CFA0E4F4
:1047C000B5E08D91882311F0DFDFFBCF08958F9343
:1047D0009F9383E690E00197F1F79F918F91089561
:1047E0001B9B02C08827089529E01B99FECFEFDFAD
:1047F000EEDFEDDF88941B9908942A9519F08795D0
:104800009795F6CF0895EF93FF93EE27E82BE92BCA
:1048100031F0EAEFF0E03197F1F70197D1F7FF912E
:10482000EF9108958DE207FD8D938F2D881F802FC6
:10483000881F8F57082F6894F7F8802F87FF15C0BF
:1048400080958395082F80E38D938EE28D93802F42
:10485000815228F080E38D9399279C9308954427F3
:104860000A95802F09F196D01FC0805230F09EE447
:104870009D9381E48D939D93EFCF4427DF92EF9238
:10488000FF920F938FE1801B11F0082F83D089D006
:104890009EE29D930F91FF90EF90DF904427039548
:1048A000003209F4D7CF2BD03F93E4E3F9E438E1A9
:1048B0002F2D1E2D0D2DFF24EE24DD244427000F67
:1048C000111F221FA8F42F923F920E94D727102C6D
:1048D0000E94D727202C0E94D727302C0E94D72750
:1048E0003197410DD21CE31CF01C3F902F9001C06A
:1048F000339631963A9519F73F9107D0AFCFDD0C3B
:10490000EE1CFF1C0A95D9F70895002719E058D02E
:104910008F93802B11F0039501C08F911A95B9F7F1
:10492000802F882309F496CF8F91805D8D930A950F
:10493000D9F792CF0065CD1D80B2E60E40597307BE
:10494000A0ACB90350D6DC01286BEE00943577009B
:10495000CA9A3B0065CD1D00B2E60E0059730700F0
:10496000ACB90300D6DC01006BEE00003577000027
:104970009A3B0000CD1D0000E60E0000730700000A
:10498000B9030000DC010000EE0000007700000029
:104990003B000000F694E794D79447950A95D1F729
:1049A000089500270DD08F9303958F2D8E298D2983
:1049B000842BC1F78F91805D8D930A95D9F74CCFE9
:1049C0001F930F93002710E2440FDD1CEE1CFF1C09
:1049D000001F802F9AE0890B10F0082F43951A953D
:1049E00099F7802F0F911F9108952B9884E69927AE
:1049F0000E9403242B9A8AE099270E94032441985D
:104A0000439A81E211D088EC0FD086E00DD083E18B
:104A10000BD080E209D08CE007D00895863219F4DB
:104A200081E0809330020895429801C0429A7F93BA
:104A3000439898E0880F10F4409A01C04098000015
:104A40000000419A0000000041989A9599F7439A16
:104A50007F91089500E480E2E7DF802FE5DF80E8C2
:104A6000E3DF882714E5E2DF1A95E9F703950634BA
:104A700091F7089520913002213069F4282F2038D1
:104A800008F02FE7206881E2CFDF822FCDDF80E0C2
:104A9000809330020895EF93FF93509103015F9349
:104AA00070900401E0910101F09102010E94D7276A
:104AB000202D0E94D727302D0E94D727002D0E943D
:104AC000D727602D8052482F0E942729E40FF51F19
:104AD000CC241124E22E603059F1DD24DA94CD2C5F
:104AE000FF24032F0E94D72721F00A95E00FF11D24
:104AF00003C0F3940A95B1F7FD1408F4DF2CEA948F
:104B000079F7E22EFF24032F3197C895002021F07A
:104B10000A95E01BF10903C0F3940A95A9F7FC1468
:104B200008F4CF2CEA9471F7D31611F4D62ECC24C6
:104B300070920401732F7C1940910401509103017C
:104B40005F930E94E5255F91603041F0DD2031F0F8
:104B50005D2D0E94D7275A95E1F77D190E94D7272E
:104B6000802D50910501552309F080954091040155
:104B7000453514F40E941625509104015395509325
:104B800004017A9559F7EC0DF11D603081F05091D8
:104B90000501762F8827552309F080950E94162558
:104BA0007A95C1F750910401560F5093040150912A
:104BB00003015395509303012A9509F0B9CF5F91F2
:104BC00050930301FF91EF9108954A955A9580E221
:104BD0002BDF80E4850F28DF80E8840F25CF0E943B
:104BE0006E290E94C42917FF03C08DE28D931127FF
:104BF000003821F4ECEBFEE40C94A1270F3741F4CC
:104C0000FF2019F4E2EBFEE4F7CFEEEAFEE4F4CF86
:104C10004A934A934A935A93BA93AA93BB270F5F36
:104C200002F5BB27802F0A950E94CE298D3E90F475
:104C3000ECE0FFE4A3E00E94ED2A0E945529BB1F8F
:104C4000B0FF06C070970E94ED2A0E94442A3C964D
:104C5000AA9589F7E8E0FFE40E94ED2A0E94442A21
:104C600022C0093058F1033178F10A3130F418E0EC
:104C70008BE192E9E0ECFEE42EC00A950E94CE2979
:104C8000E0E0FFE4BFEFA3E00E94ED2A0E94552977
:104C9000BB1FB0FD06C038960E94ED2A0E94442A30
:104CA0003C97AA9589F7B095BB0F0E94C42903953C
:104CB00013E08AEF99E0F816090740F413E08BE05F
:104CC00094E0E4EDFEE407C016E001C0B39583E193
:104CD00094E2E8ECFEE46A81BF3F19F4BB27112798
:104CE0006260BD836A831C83A881B98160E36D9390
:104CF000A883B9836D93081B0195AA24BB246A81FC
:104D00006A7F002339F0F694E794D794B794A79478
:104D10000A95F7CF19E000270E94ED2ACC248FEFE7
:104D200074E0AC14B206D306E406F50630F0AC1815
:104D3000B20AD30AE40AF50A21F1881F7A9531F004
:104D40005695479537952795C794EBCF809522D0F8
:104D500041F0969508F7FE2CED2CDB2CBA2CAA24FA
:104D6000DBCF25D05D813C812B8170D0277021F075
:104D70002BD06CD0E8F301C03CD04CD078D0269634
:104D800008958894881F7A95E9F7809503D049F3B0
:104D90008827FCCF806360FD06C0803311F061601E
:104DA00002C0039561FD8D9360FD1A9508959927C2
:104DB0008E919C9385338E9108F083958A3308F009
:104DC00080E38C93C0F70895732F720F61FF701BFF
:104DD0000AD01296785019F050F38E9380E38E9398
:104DE0007150EAF70895A881B981A70F8827B81FE5
:104DF000089579E061FD700FF6DF48E0431B400F36
:104E00008AF381F399274A9569F38E91803351F79C
:104E10009C93F9CF732F61FF701B7395A881B981A3
:104E2000EA2FFB2F11978191803361FF09F08D9359
:104E30007A9511F48EE28D9381918823C1F77723BF
:104E400011F480E38D9388278C930895889462FDF4
:104E50000895002359F4A881B9818C91803331F0F1
:104E6000552321F0539533506460089408955523D9
:104E7000E9F085E48D931AF48DE28D935195652FB9
:104E8000660F560F5A3010F060E503D068E001D08D
:104E9000DACF8FEF74E0561708F0561B881F7A950B
:104EA00011F06695F8CF809580638D9308954E41FB
:104EB0004E00496E66696E6974790000302E3000CC
:104EC00000404B4C0020A107000050C30000881395
:104ED0000000F40100000032000000050000800026
:104EE000CCCCCC0C14AE47019CC42000DC460300A3
:104EF000E353000063080000D70000001500000025
:104F00001CC25367A5D468530024744915BE9A1770
:104F1000CCBC8C2BBD37863501911191219130810C
:104F2000089599275A924A92480E591E08950F9251
:104F3000B801469F8001479F100D569F100D0F909E
:104F400008950E94D7270D920020D9F708959991CE
:104F50000027A90FB01F1197492F4A955E2F6F2F79
:104F6000E89411274395203019F0C895802D01C091
:104F700080818823B9F07C917723A1F0781739F4E8
:104F80000EF0042F1395689411963196EBCF1123F0
:104F900021F0411BA11B1127B10BE894E52FF62F3F
:104FA0001196E0CF882311F0002708950895C89541
:104FB00031960020089591E005C092E003C094E08E
:104FC00001C098E0F4DF0D929A95E1F708959927D2
:104FD0008D9193958823E1F7939511968C93119772
:104FE0008E919A95D1F70895EA2FFB2F00244C91CA
:104FF0008D9103948E32E1F711248D9113948823BF
:10500000E1F71A94101640F41197202F21192395D7
:1050100080E38D932A95E9F7113039F59927AE2F62
:10502000BF2FA00DB91FA00FB91F8C919C93853382
:1050300008F421C031E08E918E32E9F38D3241F0D7
:10504000830F8A3319F480E331E001C033278C9356
:10505000AE1789F7332341F0AE2FBF2FB8DF81E3BE
:105060004D3209F43196808308958827E00DF81FAA
:10507000E00FF81F80830895040F151F261F371FA8
:105080000895000F111F221F331F089500951095DA
:10509000209530950F5F1F4F2F4F3F4F089501917F
:1050A00010810FC00E948C270EC00E948C2710C058
:1050B0000191108117FF05C03FEF2FEF04C0008161
:1050C00011272227332737FF03C0E0DF8DE28D93BE
:1050D000CF92DF92EF92AA24BB24CC24DD24EE24CD
:1050E00040E2EAE0FF2755E093E38081890F87FDE6
:1050F0009F7083FD907F891B81935A95A9F7C1DF2B
:10510000AA1CBB1CCC1CDD1CEE1C4A9551F7E89474
:10511000EFE0FF2782910CD0EB30E0F71EF06894AF
:105120008A2D0AD088278D93EF90DF90CF90089535
:10513000982F829501D0892F8F70805D26F0803363
:1051400009F4089568948D93089500271127222764
:1051500033271DD08A3328F4803318F005D015D0BA
:10516000F9CF0EF493CF089580538F93402F512F92
:10517000622F732F86DF85DF7FDF83DF8F91992793
:10518000080F191F291F391F08958D910895E8945C
:10519000FCDF8032E9F38B32D9F38930C9F38D32E9
:1051A00011F46894F2CF089588278D930895819122
:1051B0008D938823E1F7089594E081918D939A95DA
:1051C000E1F7089509919191992351F08A95D9F7C2
:1051D0003197002329F081918D930A958823C9F78F
:1051E000E3CFF999FECFE1BDF2BD3196089591E08C
:1051F00001C092E07B3751F47FB7F894F2DF8D91D4
:1052000080BDFA9AF99A9A95C9F77FBF77270895D2
:10521000E8DF8D917B3729F480BDFA9AF99A8823CB
:10522000B9F77727089591E001C092E0DADFF89AA4
:1052300080B58D939A95D1F70895D3DFF89A80B50C
:105240008D93882319F09A95C1F79D930895FF9344
:105250005527F8E0469508F4500F57954795FA956D
:10526000D1F7FF910895689401C0E894AF93BF937C
:105270008D9116F0919103C00E94D727902D891728
:1052800018F011F48823A1F7BF91AF910895B7FEEC
:10529000089590E8B91611F4D0FE08959FEFD91A39
:1052A000E90AF90A09F4039508950F928F939F93E1
:1052B000D216E306F4060FB680E890E8802795271B
:1052C0000FBE890739F00FB6892B87FD02C081E038
:1052D00008260FBE9F918F910F900895D190E19075
:1052E000F190019108952191319141915191089549
:1052F000502F2D2D3E2D4F2D612F0895EFDF992733
:1053000011278F2D880F80E8F82A802F881F08F436
:105310001FEF41F08F57082F07FD04C0003240F007
:105320008FEF01C08827982FD82EE82EF82E09C0BD
:105330008FE1801B082FF694E794D79497950A95F0
:10534000D1F7112351F09095D094E094F09481E03E
:10535000980F8827D81EE81EF81E0F2DFE2CED2C66
:10536000D92E0895D094E094F09491E0D90E992725
:10537000E91EF91E10950895652F90E8440F551FFA
:105380005927990F47956078102F90E8FF0C001F60
:105390000927990FF794107800380895FF0C90E8CA
:1053A0009027110F9795F794092F08952DEC3CEC59
:1053B0004CEC5DE366270FC091DF9ADFDD24EE241D
:1053C00090E8F92E0FE307C08EDF05C022273327B0
:1053D00040E251E46627552351F1002381F1CCDFEF
:1053E00071F11627005850580894050B18F407FD62
:1053F00003C025C007FD23C0469537952795F69431
:10540000E794D79425D0FF202AF0DD0CEE1CFF1C7A
:10541000015073F09D2D969548F0DD203AF4EE2072
:105420002AF491E0D90E9927E91EF91EB7CF07C0DB
:105430009FE7092FF92A9FEFD92EE92E0895DD2441
:10544000EE24FF240027112708950FE79FEFF2CFE6
:105450009F929924AA24BB2488E1D216E306F4067D
:1054600028F0D21AE30AF40A089401C08894991C1F
:10547000AA1CBB1CDD0CEE1CFF1C8A9571F7D92CF5
:10548000EA2CFB2C9F90089577DFD9F05038C9F0B3
:1054900016270058952F90580894091F12F418F4F5
:1054A0000EC008F00EC00FD0FF202AF0BB0CDD1C90
:1054B000EE1CFF1C02C0039513F0E9DE6FCF0C94C5
:1054C000182A0C941F2A9F92FF92EF928D2DFF2491
:1054D000EE24DD24BB2493E0849F1001829FB00C56
:1054E000D11CE21CF31C839FD00CE11C2224F21C73
:1054F0009A9531F0BD2CDE2CEF2CFF248F91ECCF50
:105500009F900895F0DE38DF503829F090E8692741
:105510000CC00AF045D042CF5FE32227332744274F
:1055200001C0E1DE29DF5038B1F3003899F3902F44
:10553000951B8BF312F434D0FACF983118F0222750
:1055400033274427983028F0232F342F44279850AE
:10555000F9CF992329F04695379527959A95D9F74C
:10556000912F962742F014D0B0F6F794E794D79491
:105570000F5F8BF65DCF10D051F008F4F3DEFF2003
:1055800052F2DD0CEE1CFF1C0150CBF751CF57CF70
:10559000D20EE31EF41E0895D21AE30AF40A089507
:1055A000DF92EF92FF920F931F93D22EE32EF42EF1
:1055B000052F162F6F915F914F913F912F91089575
:1055C0000E94D727D02C0E94D727E02C0E94D727F3
:1055D000F02C0E94D727002D08950E94D727202D58
:1055E0000E94D727302D0E94D727402D0E94D72711
:1055F000502D08950E94B82388278A938A931FDF2D
:1056000011278D918032E9F31197BBD098F08D323C
:1056100029F4109511968C91B4D060F08E3229F453
:1056200011968C91AED008F446C022960E94B52304
:1056300081E008958C91A5D0D8F5119646D0D0F789
:1056400003958D919ED0E0F38E3229F48C9199D000
:1056500010F41196FBCF853419F0853609F055C04A
:1056600011968C918ED060F08D3219F08B3221F032
:10567000DCCF08800094088211968C9182D0A8F625
:105680008053898311968C917CD058F49981990F1D
:10569000990F0980900D990F8053890F8983873264
:1056A00020F68981988199230AF48195080F2DC0ED
:1056B0008E3289F611968C9164D068F606D018F077
:1056C00011960A95F8CF1196C1CF4F2D3E2D2D2D55
:1056D000DD0CEE1CFF1CA8F0DD0CEE1CFF1C88F09E
:1056E000D20EE31EF41E68F0DD0CEE1CFF1C48F029
:1056F000805309F06894D80E8827E81EF81E08F039
:105700000895F42EE32ED22E089534D019F116F513
:10571000098308E921D00695882787959F2D9F77D3
:10572000980FF92E0150000F110F079589818823DA
:1057300079F01AF48195898306C038DE89818A95CB
:105740008983D9F705C042DE89818A958983D9F793
:105750002296089574DEFCCF0DD041F0FF2032F088
:105760000A9531F0DD0CEE1CFF1CD2F788940895E9
:105770000894089500240D280E280F28002A0020E0
:105780000895803320F08A3310F4089408958894A3
:1057900008958000B149E073B0493C1C884A00C8B4
:1057A000AF4900401C466043844A0000FA420000B2
:1057B000000000008642CDCC8F42CDCC9442000048
:1057C0009A4266669F420000A542CDCCAA420000E4
:1057D000B1420000B7429A99BD42CDCCC24200000E
:1057E000C8420000CF426666D642CDCCDD429A99CF
:1057F000E5429A99ED420000F6429A99FE42CDCCDC
:10580000034300800843CD4C0D4333331243666697
:10581000174333B31C433333224366E62743CDCCCF
:105820002D4333B3334333333A43CDCC404300802D
:105830004B4333B352439A195A4333B361439A9952
:105840006943CDCC7143CD4C7A4300002A43B07BF1
:10585000B0496887B049D046B149A04EB149F094EB
:10586000B14900007A440050C347361D884A301EB3
:10587000884A2A1F884A2420884A1E21884A1822DA
:10588000884A1223884A0C24884A0625884A00261A
:10589000884AFA26884AF427884AEE28884AE8295E
:1058A000884AE22A884A3333F3400000B040CDCC26
:1058B000CC3F9A99193F0093A3494089954A003FEC
:1058C000B149CD8CD8430000803F9A99D84300005D
:1058D000004066A6D8430000404033B3D8430000E0
:1058E000804000C0D8430000A0403030303000007D
:1058F0004452413831385F455531322E42415300D0
:105900005648462F55484620545258004158206565
:105910006C656B74726F6E696B6100005665722EF8
:105920002000303030310000303030320000303074
:10593000303300003030303400003030303500007B
:105940003030303600003030303700003030303802
:10595000000030303039000030303130000030305D
:10596000313100003030313200003030313300004E
:1059700030303134000030303135000030303136D5
:105980000000303031370000303031380000303026
:105990003139000030303230000030303231000018
:1059A00030303232000030303233000030303234A8
:1059B00000003030323500003030323600003030F8
:1059C00032370000303032380000303032390000D9
:1059D000303033300000303033310000303033327B
:1059E00000003030333300003030333400003030CA
:1059F00033350000303033360000303033370000AC
:105A00003030333800002053494D504C4558204D1C
:105A10004F444520200020524550454154455220D6
:105A20004D4F4445202000002000434820550000F1
:105A3000202020202020202020202020000043485B
:105A40002056000020202020202020202020202060
:105A5000202020004348000020202020200054580F
:105A6000737562743D00487A202020002045434829
:105A70004F4C494E4B2000002020202000002020C9
:105A80002020202020202020202020202020200036
:105A900020434820000020202020202020202020FB
:105AA000000041542B444D4F53455447524F5550DD
:105AB0003D0030002C0020465245452053455420DF
:105AC0000000537465702031322C35206B487A20E9
:105AD000202000005374657020313030206B487AEC
